
potentiometer.elf:     file format elf32-littlearm

Sections:
Idx Name          Size      VMA       LMA       File off  Algn
  0 .isr_vector   0000010c  08000000  08000000  00010000  2**0
                  CONTENTS, ALLOC, LOAD, READONLY, DATA
  1 .text         00001a40  0800010c  0800010c  0001010c  2**2
                  CONTENTS, ALLOC, LOAD, READONLY, CODE
  2 .rodata       00000020  08001b4c  08001b4c  00011b4c  2**2
                  CONTENTS, ALLOC, LOAD, READONLY, DATA
  3 .ARM.extab    00000000  08001b6c  08001b6c  0002000c  2**0
                  CONTENTS
  4 .ARM          00000000  08001b6c  08001b6c  0002000c  2**0
                  CONTENTS
  5 .preinit_array 00000000  08001b6c  08001b6c  0002000c  2**0
                  CONTENTS, ALLOC, LOAD, DATA
  6 .init_array   00000004  08001b6c  08001b6c  00011b6c  2**2
                  CONTENTS, ALLOC, LOAD, DATA
  7 .fini_array   00000004  08001b70  08001b70  00011b70  2**2
                  CONTENTS, ALLOC, LOAD, DATA
  8 .data         0000000c  20000000  08001b74  00020000  2**2
                  CONTENTS, ALLOC, LOAD, DATA
  9 .bss          00000050  2000000c  08001b80  0002000c  2**2
                  ALLOC
 10 ._user_heap_stack 00000604  2000005c  08001b80  0002005c  2**0
                  ALLOC
 11 .ARM.attributes 00000029  00000000  00000000  0002000c  2**0
                  CONTENTS, READONLY
 12 .debug_info   00005a4c  00000000  00000000  00020035  2**0
                  CONTENTS, READONLY, DEBUGGING, OCTETS
 13 .debug_abbrev 000015d5  00000000  00000000  00025a81  2**0
                  CONTENTS, READONLY, DEBUGGING, OCTETS
 14 .debug_aranges 000005b0  00000000  00000000  00027058  2**3
                  CONTENTS, READONLY, DEBUGGING, OCTETS
 15 .debug_ranges 000004f8  00000000  00000000  00027608  2**3
                  CONTENTS, READONLY, DEBUGGING, OCTETS
 16 .debug_macro  00016463  00000000  00000000  00027b00  2**0
                  CONTENTS, READONLY, DEBUGGING, OCTETS
 17 .debug_line   00006e10  00000000  00000000  0003df63  2**0
                  CONTENTS, READONLY, DEBUGGING, OCTETS
 18 .debug_str    00080e22  00000000  00000000  00044d73  2**0
                  CONTENTS, READONLY, DEBUGGING, OCTETS
 19 .comment      00000050  00000000  00000000  000c5b95  2**0
                  CONTENTS, READONLY
 20 .debug_frame  000014b8  00000000  00000000  000c5be8  2**2
                  CONTENTS, READONLY, DEBUGGING, OCTETS

Disassembly of section .text:

0800010c <__do_global_dtors_aux>:
 800010c:	b510      	push	{r4, lr}
 800010e:	4c05      	ldr	r4, [pc, #20]	; (8000124 <__do_global_dtors_aux+0x18>)
 8000110:	7823      	ldrb	r3, [r4, #0]
 8000112:	b933      	cbnz	r3, 8000122 <__do_global_dtors_aux+0x16>
 8000114:	4b04      	ldr	r3, [pc, #16]	; (8000128 <__do_global_dtors_aux+0x1c>)
 8000116:	b113      	cbz	r3, 800011e <__do_global_dtors_aux+0x12>
 8000118:	4804      	ldr	r0, [pc, #16]	; (800012c <__do_global_dtors_aux+0x20>)
 800011a:	f3af 8000 	nop.w
 800011e:	2301      	movs	r3, #1
 8000120:	7023      	strb	r3, [r4, #0]
 8000122:	bd10      	pop	{r4, pc}
 8000124:	2000000c 	.word	0x2000000c
 8000128:	00000000 	.word	0x00000000
 800012c:	08001b34 	.word	0x08001b34

08000130 <frame_dummy>:
 8000130:	b508      	push	{r3, lr}
 8000132:	4b03      	ldr	r3, [pc, #12]	; (8000140 <frame_dummy+0x10>)
 8000134:	b11b      	cbz	r3, 800013e <frame_dummy+0xe>
 8000136:	4903      	ldr	r1, [pc, #12]	; (8000144 <frame_dummy+0x14>)
 8000138:	4803      	ldr	r0, [pc, #12]	; (8000148 <frame_dummy+0x18>)
 800013a:	f3af 8000 	nop.w
 800013e:	bd08      	pop	{r3, pc}
 8000140:	00000000 	.word	0x00000000
 8000144:	20000010 	.word	0x20000010
 8000148:	08001b34 	.word	0x08001b34

0800014c <main>:
/**
  * @brief  The application entry point.
  * @retval int
  */
int main(void)
{
 800014c:	b580      	push	{r7, lr}
 800014e:	af00      	add	r7, sp, #0
  /* USER CODE END 1 */

  /* MCU Configuration--------------------------------------------------------*/

  /* Reset of all peripherals, Initializes the Flash interface and the Systick. */
  HAL_Init();
 8000150:	f000 fa08 	bl	8000564 <HAL_Init>
  /* USER CODE BEGIN Init */

  /* USER CODE END Init */

  /* Configure the system clock */
  SystemClock_Config();
 8000154:	f000 f807 	bl	8000166 <SystemClock_Config>
  /* USER CODE BEGIN SysInit */

  /* USER CODE END SysInit */

  /* Initialize all configured peripherals */
  MX_GPIO_Init();
 8000158:	f000 f8ba 	bl	80002d0 <MX_GPIO_Init>
  MX_ADC1_Init();
 800015c:	f000 f87a 	bl	8000254 <MX_ADC1_Init>

  /* Initialize interrupts */
  MX_NVIC_Init();
 8000160:	f000 f85c 	bl	800021c <MX_NVIC_Init>

  /* USER CODE END 2 */

  /* Infinite loop */
  /* USER CODE BEGIN WHILE */
  while (1)
 8000164:	e7fe      	b.n	8000164 <main+0x18>

08000166 <SystemClock_Config>:
/**
  * @brief System Clock Configuration
  * @retval None
  */
void SystemClock_Config(void)
{
 8000166:	b580      	push	{r7, lr}
 8000168:	b094      	sub	sp, #80	; 0x50
 800016a:	af00      	add	r7, sp, #0
  RCC_OscInitTypeDef RCC_OscInitStruct = {0};
 800016c:	f107 0328 	add.w	r3, r7, #40	; 0x28
 8000170:	2228      	movs	r2, #40	; 0x28
 8000172:	2100      	movs	r1, #0
 8000174:	4618      	mov	r0, r3
 8000176:	f001 fcd5 	bl	8001b24 <memset>
  RCC_ClkInitTypeDef RCC_ClkInitStruct = {0};
 800017a:	f107 0314 	add.w	r3, r7, #20
 800017e:	2200      	movs	r2, #0
 8000180:	601a      	str	r2, [r3, #0]
 8000182:	605a      	str	r2, [r3, #4]
 8000184:	609a      	str	r2, [r3, #8]
 8000186:	60da      	str	r2, [r3, #12]
 8000188:	611a      	str	r2, [r3, #16]
  RCC_PeriphCLKInitTypeDef PeriphClkInit = {0};
 800018a:	1d3b      	adds	r3, r7, #4
 800018c:	2200      	movs	r2, #0
 800018e:	601a      	str	r2, [r3, #0]
 8000190:	605a      	str	r2, [r3, #4]
 8000192:	609a      	str	r2, [r3, #8]
 8000194:	60da      	str	r2, [r3, #12]

  /** Initializes the RCC Oscillators according to the specified parameters
  * in the RCC_OscInitTypeDef structure.
  */
  RCC_OscInitStruct.OscillatorType = RCC_OSCILLATORTYPE_HSE;
 8000196:	2301      	movs	r3, #1
 8000198:	62bb      	str	r3, [r7, #40]	; 0x28
  RCC_OscInitStruct.HSEState = RCC_HSE_ON;
 800019a:	f44f 3380 	mov.w	r3, #65536	; 0x10000
 800019e:	62fb      	str	r3, [r7, #44]	; 0x2c
  RCC_OscInitStruct.HSEPredivValue = RCC_HSE_PREDIV_DIV1;
 80001a0:	2300      	movs	r3, #0
 80001a2:	633b      	str	r3, [r7, #48]	; 0x30
  RCC_OscInitStruct.HSIState = RCC_HSI_ON;
 80001a4:	2301      	movs	r3, #1
 80001a6:	63bb      	str	r3, [r7, #56]	; 0x38
  RCC_OscInitStruct.PLL.PLLState = RCC_PLL_ON;
 80001a8:	2302      	movs	r3, #2
 80001aa:	647b      	str	r3, [r7, #68]	; 0x44
  RCC_OscInitStruct.PLL.PLLSource = RCC_PLLSOURCE_HSE;
 80001ac:	f44f 3380 	mov.w	r3, #65536	; 0x10000
 80001b0:	64bb      	str	r3, [r7, #72]	; 0x48
  RCC_OscInitStruct.PLL.PLLMUL = RCC_PLL_MUL9;
 80001b2:	f44f 13e0 	mov.w	r3, #1835008	; 0x1c0000
 80001b6:	64fb      	str	r3, [r7, #76]	; 0x4c
  if (HAL_RCC_OscConfig(&RCC_OscInitStruct) != HAL_OK)
 80001b8:	f107 0328 	add.w	r3, r7, #40	; 0x28
 80001bc:	4618      	mov	r0, r3
 80001be:	f000 ffef 	bl	80011a0 <HAL_RCC_OscConfig>
 80001c2:	4603      	mov	r3, r0
 80001c4:	2b00      	cmp	r3, #0
 80001c6:	d001      	beq.n	80001cc <SystemClock_Config+0x66>
  {
    Error_Handler();
 80001c8:	f000 f8de 	bl	8000388 <Error_Handler>
  }

  /** Initializes the CPU, AHB and APB buses clocks
  */
  RCC_ClkInitStruct.ClockType = RCC_CLOCKTYPE_HCLK|RCC_CLOCKTYPE_SYSCLK
 80001cc:	230f      	movs	r3, #15
 80001ce:	617b      	str	r3, [r7, #20]
                              |RCC_CLOCKTYPE_PCLK1|RCC_CLOCKTYPE_PCLK2;
  RCC_ClkInitStruct.SYSCLKSource = RCC_SYSCLKSOURCE_PLLCLK;
 80001d0:	2302      	movs	r3, #2
 80001d2:	61bb      	str	r3, [r7, #24]
  RCC_ClkInitStruct.AHBCLKDivider = RCC_SYSCLK_DIV1;
 80001d4:	2300      	movs	r3, #0
 80001d6:	61fb      	str	r3, [r7, #28]
  RCC_ClkInitStruct.APB1CLKDivider = RCC_HCLK_DIV2;
 80001d8:	f44f 6380 	mov.w	r3, #1024	; 0x400
 80001dc:	623b      	str	r3, [r7, #32]
  RCC_ClkInitStruct.APB2CLKDivider = RCC_HCLK_DIV1;
 80001de:	2300      	movs	r3, #0
 80001e0:	627b      	str	r3, [r7, #36]	; 0x24

  if (HAL_RCC_ClockConfig(&RCC_ClkInitStruct, FLASH_LATENCY_2) != HAL_OK)
 80001e2:	f107 0314 	add.w	r3, r7, #20
 80001e6:	2102      	movs	r1, #2
 80001e8:	4618      	mov	r0, r3
 80001ea:	f001 fa5b 	bl	80016a4 <HAL_RCC_ClockConfig>
 80001ee:	4603      	mov	r3, r0
 80001f0:	2b00      	cmp	r3, #0
 80001f2:	d001      	beq.n	80001f8 <SystemClock_Config+0x92>
  {
    Error_Handler();
 80001f4:	f000 f8c8 	bl	8000388 <Error_Handler>
  }
  PeriphClkInit.PeriphClockSelection = RCC_PERIPHCLK_ADC;
 80001f8:	2302      	movs	r3, #2
 80001fa:	607b      	str	r3, [r7, #4]
  PeriphClkInit.AdcClockSelection = RCC_ADCPCLK2_DIV6;
 80001fc:	f44f 4300 	mov.w	r3, #32768	; 0x8000
 8000200:	60fb      	str	r3, [r7, #12]
  if (HAL_RCCEx_PeriphCLKConfig(&PeriphClkInit) != HAL_OK)
 8000202:	1d3b      	adds	r3, r7, #4
 8000204:	4618      	mov	r0, r3
 8000206:	f001 fbb3 	bl	8001970 <HAL_RCCEx_PeriphCLKConfig>
 800020a:	4603      	mov	r3, r0
 800020c:	2b00      	cmp	r3, #0
 800020e:	d001      	beq.n	8000214 <SystemClock_Config+0xae>
  {
    Error_Handler();
 8000210:	f000 f8ba 	bl	8000388 <Error_Handler>
  }
}
 8000214:	bf00      	nop
 8000216:	3750      	adds	r7, #80	; 0x50
 8000218:	46bd      	mov	sp, r7
 800021a:	bd80      	pop	{r7, pc}

0800021c <MX_NVIC_Init>:
/**
  * @brief NVIC Configuration.
  * @retval None
  */
static void MX_NVIC_Init(void)
{
 800021c:	b580      	push	{r7, lr}
 800021e:	af00      	add	r7, sp, #0
  /* EXTI3_IRQn interrupt configuration */
  HAL_NVIC_SetPriority(EXTI3_IRQn, 0, 0);
 8000220:	2200      	movs	r2, #0
 8000222:	2100      	movs	r1, #0
 8000224:	2009      	movs	r0, #9
 8000226:	f000 fdc6 	bl	8000db6 <HAL_NVIC_SetPriority>
  HAL_NVIC_EnableIRQ(EXTI3_IRQn);
 800022a:	2009      	movs	r0, #9
 800022c:	f000 fddf 	bl	8000dee <HAL_NVIC_EnableIRQ>
  /* EXTI1_IRQn interrupt configuration */
  HAL_NVIC_SetPriority(EXTI1_IRQn, 0, 0);
 8000230:	2200      	movs	r2, #0
 8000232:	2100      	movs	r1, #0
 8000234:	2007      	movs	r0, #7
 8000236:	f000 fdbe 	bl	8000db6 <HAL_NVIC_SetPriority>
  HAL_NVIC_EnableIRQ(EXTI1_IRQn);
 800023a:	2007      	movs	r0, #7
 800023c:	f000 fdd7 	bl	8000dee <HAL_NVIC_EnableIRQ>
  /* EXTI2_IRQn interrupt configuration */
  HAL_NVIC_SetPriority(EXTI2_IRQn, 0, 0);
 8000240:	2200      	movs	r2, #0
 8000242:	2100      	movs	r1, #0
 8000244:	2008      	movs	r0, #8
 8000246:	f000 fdb6 	bl	8000db6 <HAL_NVIC_SetPriority>
  HAL_NVIC_EnableIRQ(EXTI2_IRQn);
 800024a:	2008      	movs	r0, #8
 800024c:	f000 fdcf 	bl	8000dee <HAL_NVIC_EnableIRQ>
}
 8000250:	bf00      	nop
 8000252:	bd80      	pop	{r7, pc}

08000254 <MX_ADC1_Init>:
  * @brief ADC1 Initialization Function
  * @param None
  * @retval None
  */
static void MX_ADC1_Init(void)
{
 8000254:	b580      	push	{r7, lr}
 8000256:	b084      	sub	sp, #16
 8000258:	af00      	add	r7, sp, #0

  /* USER CODE BEGIN ADC1_Init 0 */

  /* USER CODE END ADC1_Init 0 */

  ADC_ChannelConfTypeDef sConfig = {0};
 800025a:	1d3b      	adds	r3, r7, #4
 800025c:	2200      	movs	r2, #0
 800025e:	601a      	str	r2, [r3, #0]
 8000260:	605a      	str	r2, [r3, #4]
 8000262:	609a      	str	r2, [r3, #8]

  /* USER CODE END ADC1_Init 1 */

  /** Common config
  */
  hadc1.Instance = ADC1;
 8000264:	4b18      	ldr	r3, [pc, #96]	; (80002c8 <MX_ADC1_Init+0x74>)
 8000266:	4a19      	ldr	r2, [pc, #100]	; (80002cc <MX_ADC1_Init+0x78>)
 8000268:	601a      	str	r2, [r3, #0]
  hadc1.Init.ScanConvMode = ADC_SCAN_DISABLE;
 800026a:	4b17      	ldr	r3, [pc, #92]	; (80002c8 <MX_ADC1_Init+0x74>)
 800026c:	2200      	movs	r2, #0
 800026e:	609a      	str	r2, [r3, #8]
  hadc1.Init.ContinuousConvMode = DISABLE;
 8000270:	4b15      	ldr	r3, [pc, #84]	; (80002c8 <MX_ADC1_Init+0x74>)
 8000272:	2200      	movs	r2, #0
 8000274:	731a      	strb	r2, [r3, #12]
  hadc1.Init.DiscontinuousConvMode = DISABLE;
 8000276:	4b14      	ldr	r3, [pc, #80]	; (80002c8 <MX_ADC1_Init+0x74>)
 8000278:	2200      	movs	r2, #0
 800027a:	751a      	strb	r2, [r3, #20]
  hadc1.Init.ExternalTrigConv = ADC_SOFTWARE_START;
 800027c:	4b12      	ldr	r3, [pc, #72]	; (80002c8 <MX_ADC1_Init+0x74>)
 800027e:	f44f 2260 	mov.w	r2, #917504	; 0xe0000
 8000282:	61da      	str	r2, [r3, #28]
  hadc1.Init.DataAlign = ADC_DATAALIGN_RIGHT;
 8000284:	4b10      	ldr	r3, [pc, #64]	; (80002c8 <MX_ADC1_Init+0x74>)
 8000286:	2200      	movs	r2, #0
 8000288:	605a      	str	r2, [r3, #4]
  hadc1.Init.NbrOfConversion = 1;
 800028a:	4b0f      	ldr	r3, [pc, #60]	; (80002c8 <MX_ADC1_Init+0x74>)
 800028c:	2201      	movs	r2, #1
 800028e:	611a      	str	r2, [r3, #16]
  if (HAL_ADC_Init(&hadc1) != HAL_OK)
 8000290:	480d      	ldr	r0, [pc, #52]	; (80002c8 <MX_ADC1_Init+0x74>)
 8000292:	f000 f9c9 	bl	8000628 <HAL_ADC_Init>
 8000296:	4603      	mov	r3, r0
 8000298:	2b00      	cmp	r3, #0
 800029a:	d001      	beq.n	80002a0 <MX_ADC1_Init+0x4c>
  {
    Error_Handler();
 800029c:	f000 f874 	bl	8000388 <Error_Handler>
  }

  /** Configure Regular Channel
  */
  sConfig.Channel = ADC_CHANNEL_0;
 80002a0:	2300      	movs	r3, #0
 80002a2:	607b      	str	r3, [r7, #4]
  sConfig.Rank = ADC_REGULAR_RANK_1;
 80002a4:	2301      	movs	r3, #1
 80002a6:	60bb      	str	r3, [r7, #8]
  sConfig.SamplingTime = ADC_SAMPLETIME_1CYCLE_5;
 80002a8:	2300      	movs	r3, #0
 80002aa:	60fb      	str	r3, [r7, #12]
  if (HAL_ADC_ConfigChannel(&hadc1, &sConfig) != HAL_OK)
 80002ac:	1d3b      	adds	r3, r7, #4
 80002ae:	4619      	mov	r1, r3
 80002b0:	4805      	ldr	r0, [pc, #20]	; (80002c8 <MX_ADC1_Init+0x74>)
 80002b2:	f000 fb67 	bl	8000984 <HAL_ADC_ConfigChannel>
 80002b6:	4603      	mov	r3, r0
 80002b8:	2b00      	cmp	r3, #0
 80002ba:	d001      	beq.n	80002c0 <MX_ADC1_Init+0x6c>
  {
    Error_Handler();
 80002bc:	f000 f864 	bl	8000388 <Error_Handler>
  }
  /* USER CODE BEGIN ADC1_Init 2 */

  /* USER CODE END ADC1_Init 2 */

}
 80002c0:	bf00      	nop
 80002c2:	3710      	adds	r7, #16
 80002c4:	46bd      	mov	sp, r7
 80002c6:	bd80      	pop	{r7, pc}
 80002c8:	20000028 	.word	0x20000028
 80002cc:	40012400 	.word	0x40012400

080002d0 <MX_GPIO_Init>:
  * @brief GPIO Initialization Function
  * @param None
  * @retval None
  */
static void MX_GPIO_Init(void)
{
 80002d0:	b580      	push	{r7, lr}
 80002d2:	b088      	sub	sp, #32
 80002d4:	af00      	add	r7, sp, #0
  GPIO_InitTypeDef GPIO_InitStruct = {0};
 80002d6:	f107 0310 	add.w	r3, r7, #16
 80002da:	2200      	movs	r2, #0
 80002dc:	601a      	str	r2, [r3, #0]
 80002de:	605a      	str	r2, [r3, #4]
 80002e0:	609a      	str	r2, [r3, #8]
 80002e2:	60da      	str	r2, [r3, #12]

  /* GPIO Ports Clock Enable */
  __HAL_RCC_GPIOD_CLK_ENABLE();
 80002e4:	4b24      	ldr	r3, [pc, #144]	; (8000378 <MX_GPIO_Init+0xa8>)
 80002e6:	699b      	ldr	r3, [r3, #24]
 80002e8:	4a23      	ldr	r2, [pc, #140]	; (8000378 <MX_GPIO_Init+0xa8>)
 80002ea:	f043 0320 	orr.w	r3, r3, #32
 80002ee:	6193      	str	r3, [r2, #24]
 80002f0:	4b21      	ldr	r3, [pc, #132]	; (8000378 <MX_GPIO_Init+0xa8>)
 80002f2:	699b      	ldr	r3, [r3, #24]
 80002f4:	f003 0320 	and.w	r3, r3, #32
 80002f8:	60fb      	str	r3, [r7, #12]
 80002fa:	68fb      	ldr	r3, [r7, #12]
  __HAL_RCC_GPIOA_CLK_ENABLE();
 80002fc:	4b1e      	ldr	r3, [pc, #120]	; (8000378 <MX_GPIO_Init+0xa8>)
 80002fe:	699b      	ldr	r3, [r3, #24]
 8000300:	4a1d      	ldr	r2, [pc, #116]	; (8000378 <MX_GPIO_Init+0xa8>)
 8000302:	f043 0304 	orr.w	r3, r3, #4
 8000306:	6193      	str	r3, [r2, #24]
 8000308:	4b1b      	ldr	r3, [pc, #108]	; (8000378 <MX_GPIO_Init+0xa8>)
 800030a:	699b      	ldr	r3, [r3, #24]
 800030c:	f003 0304 	and.w	r3, r3, #4
 8000310:	60bb      	str	r3, [r7, #8]
 8000312:	68bb      	ldr	r3, [r7, #8]
  __HAL_RCC_GPIOB_CLK_ENABLE();
 8000314:	4b18      	ldr	r3, [pc, #96]	; (8000378 <MX_GPIO_Init+0xa8>)
 8000316:	699b      	ldr	r3, [r3, #24]
 8000318:	4a17      	ldr	r2, [pc, #92]	; (8000378 <MX_GPIO_Init+0xa8>)
 800031a:	f043 0308 	orr.w	r3, r3, #8
 800031e:	6193      	str	r3, [r2, #24]
 8000320:	4b15      	ldr	r3, [pc, #84]	; (8000378 <MX_GPIO_Init+0xa8>)
 8000322:	699b      	ldr	r3, [r3, #24]
 8000324:	f003 0308 	and.w	r3, r3, #8
 8000328:	607b      	str	r3, [r7, #4]
 800032a:	687b      	ldr	r3, [r7, #4]

  /*Configure GPIO pin Output Level */
  HAL_GPIO_WritePin(GPIOB, GPIO_PIN_10|GPIO_PIN_6|GPIO_PIN_9, GPIO_PIN_RESET);
 800032c:	2200      	movs	r2, #0
 800032e:	f44f 61c8 	mov.w	r1, #1600	; 0x640
 8000332:	4812      	ldr	r0, [pc, #72]	; (800037c <MX_GPIO_Init+0xac>)
 8000334:	f000 fefa 	bl	800112c <HAL_GPIO_WritePin>

  /*Configure GPIO pins : PA1 PA2 PA3 */
  GPIO_InitStruct.Pin = GPIO_PIN_1|GPIO_PIN_2|GPIO_PIN_3;
 8000338:	230e      	movs	r3, #14
 800033a:	613b      	str	r3, [r7, #16]
  GPIO_InitStruct.Mode = GPIO_MODE_IT_FALLING;
 800033c:	4b10      	ldr	r3, [pc, #64]	; (8000380 <MX_GPIO_Init+0xb0>)
 800033e:	617b      	str	r3, [r7, #20]
  GPIO_InitStruct.Pull = GPIO_NOPULL;
 8000340:	2300      	movs	r3, #0
 8000342:	61bb      	str	r3, [r7, #24]
  HAL_GPIO_Init(GPIOA, &GPIO_InitStruct);
 8000344:	f107 0310 	add.w	r3, r7, #16
 8000348:	4619      	mov	r1, r3
 800034a:	480e      	ldr	r0, [pc, #56]	; (8000384 <MX_GPIO_Init+0xb4>)
 800034c:	f000 fd6a 	bl	8000e24 <HAL_GPIO_Init>

  /*Configure GPIO pins : PB10 PB6 PB9 */
  GPIO_InitStruct.Pin = GPIO_PIN_10|GPIO_PIN_6|GPIO_PIN_9;
 8000350:	f44f 63c8 	mov.w	r3, #1600	; 0x640
 8000354:	613b      	str	r3, [r7, #16]
  GPIO_InitStruct.Mode = GPIO_MODE_OUTPUT_PP;
 8000356:	2301      	movs	r3, #1
 8000358:	617b      	str	r3, [r7, #20]
  GPIO_InitStruct.Pull = GPIO_NOPULL;
 800035a:	2300      	movs	r3, #0
 800035c:	61bb      	str	r3, [r7, #24]
  GPIO_InitStruct.Speed = GPIO_SPEED_FREQ_LOW;
 800035e:	2302      	movs	r3, #2
 8000360:	61fb      	str	r3, [r7, #28]
  HAL_GPIO_Init(GPIOB, &GPIO_InitStruct);
 8000362:	f107 0310 	add.w	r3, r7, #16
 8000366:	4619      	mov	r1, r3
 8000368:	4804      	ldr	r0, [pc, #16]	; (800037c <MX_GPIO_Init+0xac>)
 800036a:	f000 fd5b 	bl	8000e24 <HAL_GPIO_Init>

}
 800036e:	bf00      	nop
 8000370:	3720      	adds	r7, #32
 8000372:	46bd      	mov	sp, r7
 8000374:	bd80      	pop	{r7, pc}
 8000376:	bf00      	nop
 8000378:	40021000 	.word	0x40021000
 800037c:	40010c00 	.word	0x40010c00
 8000380:	10210000 	.word	0x10210000
 8000384:	40010800 	.word	0x40010800

08000388 <Error_Handler>:
/**
  * @brief  This function is executed in case of error occurrence.
  * @retval None
  */
void Error_Handler(void)
{
 8000388:	b480      	push	{r7}
 800038a:	af00      	add	r7, sp, #0
  \details Disables IRQ interrupts by setting the I-bit in the CPSR.
           Can only be executed in Privileged modes.
 */
__STATIC_FORCEINLINE void __disable_irq(void)
{
  __ASM volatile ("cpsid i" : : : "memory");
 800038c:	b672      	cpsid	i
}
 800038e:	bf00      	nop
  /* USER CODE BEGIN Error_Handler_Debug */
  /* User can add his own implementation to report the HAL error return state */
  __disable_irq();
  while (1)
 8000390:	e7fe      	b.n	8000390 <Error_Handler+0x8>
	...

08000394 <HAL_MspInit>:
/* USER CODE END 0 */
/**
  * Initializes the Global MSP.
  */
void HAL_MspInit(void)
{
 8000394:	b480      	push	{r7}
 8000396:	b085      	sub	sp, #20
 8000398:	af00      	add	r7, sp, #0
  /* USER CODE BEGIN MspInit 0 */

  /* USER CODE END MspInit 0 */

  __HAL_RCC_AFIO_CLK_ENABLE();
 800039a:	4b15      	ldr	r3, [pc, #84]	; (80003f0 <HAL_MspInit+0x5c>)
 800039c:	699b      	ldr	r3, [r3, #24]
 800039e:	4a14      	ldr	r2, [pc, #80]	; (80003f0 <HAL_MspInit+0x5c>)
 80003a0:	f043 0301 	orr.w	r3, r3, #1
 80003a4:	6193      	str	r3, [r2, #24]
 80003a6:	4b12      	ldr	r3, [pc, #72]	; (80003f0 <HAL_MspInit+0x5c>)
 80003a8:	699b      	ldr	r3, [r3, #24]
 80003aa:	f003 0301 	and.w	r3, r3, #1
 80003ae:	60bb      	str	r3, [r7, #8]
 80003b0:	68bb      	ldr	r3, [r7, #8]
  __HAL_RCC_PWR_CLK_ENABLE();
 80003b2:	4b0f      	ldr	r3, [pc, #60]	; (80003f0 <HAL_MspInit+0x5c>)
 80003b4:	69db      	ldr	r3, [r3, #28]
 80003b6:	4a0e      	ldr	r2, [pc, #56]	; (80003f0 <HAL_MspInit+0x5c>)
 80003b8:	f043 5380 	orr.w	r3, r3, #268435456	; 0x10000000
 80003bc:	61d3      	str	r3, [r2, #28]
 80003be:	4b0c      	ldr	r3, [pc, #48]	; (80003f0 <HAL_MspInit+0x5c>)
 80003c0:	69db      	ldr	r3, [r3, #28]
 80003c2:	f003 5380 	and.w	r3, r3, #268435456	; 0x10000000
 80003c6:	607b      	str	r3, [r7, #4]
 80003c8:	687b      	ldr	r3, [r7, #4]

  /* System interrupt init*/

  /** NOJTAG: JTAG-DP Disabled and SW-DP Enabled
  */
  __HAL_AFIO_REMAP_SWJ_NOJTAG();
 80003ca:	4b0a      	ldr	r3, [pc, #40]	; (80003f4 <HAL_MspInit+0x60>)
 80003cc:	685b      	ldr	r3, [r3, #4]
 80003ce:	60fb      	str	r3, [r7, #12]
 80003d0:	68fb      	ldr	r3, [r7, #12]
 80003d2:	f023 63e0 	bic.w	r3, r3, #117440512	; 0x7000000
 80003d6:	60fb      	str	r3, [r7, #12]
 80003d8:	68fb      	ldr	r3, [r7, #12]
 80003da:	f043 7300 	orr.w	r3, r3, #33554432	; 0x2000000
 80003de:	60fb      	str	r3, [r7, #12]
 80003e0:	4a04      	ldr	r2, [pc, #16]	; (80003f4 <HAL_MspInit+0x60>)
 80003e2:	68fb      	ldr	r3, [r7, #12]
 80003e4:	6053      	str	r3, [r2, #4]

  /* USER CODE BEGIN MspInit 1 */

  /* USER CODE END MspInit 1 */
}
 80003e6:	bf00      	nop
 80003e8:	3714      	adds	r7, #20
 80003ea:	46bd      	mov	sp, r7
 80003ec:	bc80      	pop	{r7}
 80003ee:	4770      	bx	lr
 80003f0:	40021000 	.word	0x40021000
 80003f4:	40010000 	.word	0x40010000

080003f8 <HAL_ADC_MspInit>:
* This function configures the hardware resources used in this example
* @param hadc: ADC handle pointer
* @retval None
*/
void HAL_ADC_MspInit(ADC_HandleTypeDef* hadc)
{
 80003f8:	b580      	push	{r7, lr}
 80003fa:	b088      	sub	sp, #32
 80003fc:	af00      	add	r7, sp, #0
 80003fe:	6078      	str	r0, [r7, #4]
  GPIO_InitTypeDef GPIO_InitStruct = {0};
 8000400:	f107 0310 	add.w	r3, r7, #16
 8000404:	2200      	movs	r2, #0
 8000406:	601a      	str	r2, [r3, #0]
 8000408:	605a      	str	r2, [r3, #4]
 800040a:	609a      	str	r2, [r3, #8]
 800040c:	60da      	str	r2, [r3, #12]
  if(hadc->Instance==ADC1)
 800040e:	687b      	ldr	r3, [r7, #4]
 8000410:	681b      	ldr	r3, [r3, #0]
 8000412:	4a18      	ldr	r2, [pc, #96]	; (8000474 <HAL_ADC_MspInit+0x7c>)
 8000414:	4293      	cmp	r3, r2
 8000416:	d129      	bne.n	800046c <HAL_ADC_MspInit+0x74>
  {
  /* USER CODE BEGIN ADC1_MspInit 0 */

  /* USER CODE END ADC1_MspInit 0 */
    /* Peripheral clock enable */
    __HAL_RCC_ADC1_CLK_ENABLE();
 8000418:	4b17      	ldr	r3, [pc, #92]	; (8000478 <HAL_ADC_MspInit+0x80>)
 800041a:	699b      	ldr	r3, [r3, #24]
 800041c:	4a16      	ldr	r2, [pc, #88]	; (8000478 <HAL_ADC_MspInit+0x80>)
 800041e:	f443 7300 	orr.w	r3, r3, #512	; 0x200
 8000422:	6193      	str	r3, [r2, #24]
 8000424:	4b14      	ldr	r3, [pc, #80]	; (8000478 <HAL_ADC_MspInit+0x80>)
 8000426:	699b      	ldr	r3, [r3, #24]
 8000428:	f403 7300 	and.w	r3, r3, #512	; 0x200
 800042c:	60fb      	str	r3, [r7, #12]
 800042e:	68fb      	ldr	r3, [r7, #12]

    __HAL_RCC_GPIOA_CLK_ENABLE();
 8000430:	4b11      	ldr	r3, [pc, #68]	; (8000478 <HAL_ADC_MspInit+0x80>)
 8000432:	699b      	ldr	r3, [r3, #24]
 8000434:	4a10      	ldr	r2, [pc, #64]	; (8000478 <HAL_ADC_MspInit+0x80>)
 8000436:	f043 0304 	orr.w	r3, r3, #4
 800043a:	6193      	str	r3, [r2, #24]
 800043c:	4b0e      	ldr	r3, [pc, #56]	; (8000478 <HAL_ADC_MspInit+0x80>)
 800043e:	699b      	ldr	r3, [r3, #24]
 8000440:	f003 0304 	and.w	r3, r3, #4
 8000444:	60bb      	str	r3, [r7, #8]
 8000446:	68bb      	ldr	r3, [r7, #8]
    /**ADC1 GPIO Configuration
    PA0-WKUP     ------> ADC1_IN0
    */
    GPIO_InitStruct.Pin = GPIO_PIN_0;
 8000448:	2301      	movs	r3, #1
 800044a:	613b      	str	r3, [r7, #16]
    GPIO_InitStruct.Mode = GPIO_MODE_ANALOG;
 800044c:	2303      	movs	r3, #3
 800044e:	617b      	str	r3, [r7, #20]
    HAL_GPIO_Init(GPIOA, &GPIO_InitStruct);
 8000450:	f107 0310 	add.w	r3, r7, #16
 8000454:	4619      	mov	r1, r3
 8000456:	4809      	ldr	r0, [pc, #36]	; (800047c <HAL_ADC_MspInit+0x84>)
 8000458:	f000 fce4 	bl	8000e24 <HAL_GPIO_Init>

    /* ADC1 interrupt Init */
    HAL_NVIC_SetPriority(ADC1_2_IRQn, 0, 0);
 800045c:	2200      	movs	r2, #0
 800045e:	2100      	movs	r1, #0
 8000460:	2012      	movs	r0, #18
 8000462:	f000 fca8 	bl	8000db6 <HAL_NVIC_SetPriority>
    HAL_NVIC_EnableIRQ(ADC1_2_IRQn);
 8000466:	2012      	movs	r0, #18
 8000468:	f000 fcc1 	bl	8000dee <HAL_NVIC_EnableIRQ>
  /* USER CODE BEGIN ADC1_MspInit 1 */

  /* USER CODE END ADC1_MspInit 1 */
  }

}
 800046c:	bf00      	nop
 800046e:	3720      	adds	r7, #32
 8000470:	46bd      	mov	sp, r7
 8000472:	bd80      	pop	{r7, pc}
 8000474:	40012400 	.word	0x40012400
 8000478:	40021000 	.word	0x40021000
 800047c:	40010800 	.word	0x40010800

08000480 <NMI_Handler>:
/******************************************************************************/
/**
  * @brief This function handles Non maskable interrupt.
  */
void NMI_Handler(void)
{
 8000480:	b480      	push	{r7}
 8000482:	af00      	add	r7, sp, #0
  /* USER CODE BEGIN NonMaskableInt_IRQn 0 */

  /* USER CODE END NonMaskableInt_IRQn 0 */
  /* USER CODE BEGIN NonMaskableInt_IRQn 1 */
  while (1)
 8000484:	e7fe      	b.n	8000484 <NMI_Handler+0x4>

08000486 <HardFault_Handler>:

/**
  * @brief This function handles Hard fault interrupt.
  */
void HardFault_Handler(void)
{
 8000486:	b480      	push	{r7}
 8000488:	af00      	add	r7, sp, #0
  /* USER CODE BEGIN HardFault_IRQn 0 */

  /* USER CODE END HardFault_IRQn 0 */
  while (1)
 800048a:	e7fe      	b.n	800048a <HardFault_Handler+0x4>

0800048c <MemManage_Handler>:

/**
  * @brief This function handles Memory management fault.
  */
void MemManage_Handler(void)
{
 800048c:	b480      	push	{r7}
 800048e:	af00      	add	r7, sp, #0
  /* USER CODE BEGIN MemoryManagement_IRQn 0 */

  /* USER CODE END MemoryManagement_IRQn 0 */
  while (1)
 8000490:	e7fe      	b.n	8000490 <MemManage_Handler+0x4>

08000492 <BusFault_Handler>:

/**
  * @brief This function handles Prefetch fault, memory access fault.
  */
void BusFault_Handler(void)
{
 8000492:	b480      	push	{r7}
 8000494:	af00      	add	r7, sp, #0
  /* USER CODE BEGIN BusFault_IRQn 0 */

  /* USER CODE END BusFault_IRQn 0 */
  while (1)
 8000496:	e7fe      	b.n	8000496 <BusFault_Handler+0x4>

08000498 <UsageFault_Handler>:

/**
  * @brief This function handles Undefined instruction or illegal state.
  */
void UsageFault_Handler(void)
{
 8000498:	b480      	push	{r7}
 800049a:	af00      	add	r7, sp, #0
  /* USER CODE BEGIN UsageFault_IRQn 0 */

  /* USER CODE END UsageFault_IRQn 0 */
  while (1)
 800049c:	e7fe      	b.n	800049c <UsageFault_Handler+0x4>

0800049e <SVC_Handler>:

/**
  * @brief This function handles System service call via SWI instruction.
  */
void SVC_Handler(void)
{
 800049e:	b480      	push	{r7}
 80004a0:	af00      	add	r7, sp, #0

  /* USER CODE END SVCall_IRQn 0 */
  /* USER CODE BEGIN SVCall_IRQn 1 */

  /* USER CODE END SVCall_IRQn 1 */
}
 80004a2:	bf00      	nop
 80004a4:	46bd      	mov	sp, r7
 80004a6:	bc80      	pop	{r7}
 80004a8:	4770      	bx	lr

080004aa <DebugMon_Handler>:

/**
  * @brief This function handles Debug monitor.
  */
void DebugMon_Handler(void)
{
 80004aa:	b480      	push	{r7}
 80004ac:	af00      	add	r7, sp, #0

  /* USER CODE END DebugMonitor_IRQn 0 */
  /* USER CODE BEGIN DebugMonitor_IRQn 1 */

  /* USER CODE END DebugMonitor_IRQn 1 */
}
 80004ae:	bf00      	nop
 80004b0:	46bd      	mov	sp, r7
 80004b2:	bc80      	pop	{r7}
 80004b4:	4770      	bx	lr

080004b6 <PendSV_Handler>:

/**
  * @brief This function handles Pendable request for system service.
  */
void PendSV_Handler(void)
{
 80004b6:	b480      	push	{r7}
 80004b8:	af00      	add	r7, sp, #0

  /* USER CODE END PendSV_IRQn 0 */
  /* USER CODE BEGIN PendSV_IRQn 1 */

  /* USER CODE END PendSV_IRQn 1 */
}
 80004ba:	bf00      	nop
 80004bc:	46bd      	mov	sp, r7
 80004be:	bc80      	pop	{r7}
 80004c0:	4770      	bx	lr

080004c2 <SysTick_Handler>:

/**
  * @brief This function handles System tick timer.
  */
void SysTick_Handler(void)
{
 80004c2:	b580      	push	{r7, lr}
 80004c4:	af00      	add	r7, sp, #0
  /* USER CODE BEGIN SysTick_IRQn 0 */

  /* USER CODE END SysTick_IRQn 0 */
  HAL_IncTick();
 80004c6:	f000 f893 	bl	80005f0 <HAL_IncTick>
  /* USER CODE BEGIN SysTick_IRQn 1 */

  /* USER CODE END SysTick_IRQn 1 */
}
 80004ca:	bf00      	nop
 80004cc:	bd80      	pop	{r7, pc}

080004ce <EXTI1_IRQHandler>:

/**
  * @brief This function handles EXTI line1 interrupt.
  */
void EXTI1_IRQHandler(void)
{
 80004ce:	b580      	push	{r7, lr}
 80004d0:	af00      	add	r7, sp, #0
  /* USER CODE BEGIN EXTI1_IRQn 0 */

  /* USER CODE END EXTI1_IRQn 0 */
  HAL_GPIO_EXTI_IRQHandler(GPIO_PIN_1);
 80004d2:	2002      	movs	r0, #2
 80004d4:	f000 fe42 	bl	800115c <HAL_GPIO_EXTI_IRQHandler>
  /* USER CODE BEGIN EXTI1_IRQn 1 */

  /* USER CODE END EXTI1_IRQn 1 */
}
 80004d8:	bf00      	nop
 80004da:	bd80      	pop	{r7, pc}

080004dc <EXTI2_IRQHandler>:

/**
  * @brief This function handles EXTI line2 interrupt.
  */
void EXTI2_IRQHandler(void)
{
 80004dc:	b580      	push	{r7, lr}
 80004de:	af00      	add	r7, sp, #0
  /* USER CODE BEGIN EXTI2_IRQn 0 */

  /* USER CODE END EXTI2_IRQn 0 */
  HAL_GPIO_EXTI_IRQHandler(GPIO_PIN_2);
 80004e0:	2004      	movs	r0, #4
 80004e2:	f000 fe3b 	bl	800115c <HAL_GPIO_EXTI_IRQHandler>
  /* USER CODE BEGIN EXTI2_IRQn 1 */

  /* USER CODE END EXTI2_IRQn 1 */
}
 80004e6:	bf00      	nop
 80004e8:	bd80      	pop	{r7, pc}

080004ea <EXTI3_IRQHandler>:

/**
  * @brief This function handles EXTI line3 interrupt.
  */
void EXTI3_IRQHandler(void)
{
 80004ea:	b580      	push	{r7, lr}
 80004ec:	af00      	add	r7, sp, #0
  /* USER CODE BEGIN EXTI3_IRQn 0 */

  /* USER CODE END EXTI3_IRQn 0 */
  HAL_GPIO_EXTI_IRQHandler(GPIO_PIN_3);
 80004ee:	2008      	movs	r0, #8
 80004f0:	f000 fe34 	bl	800115c <HAL_GPIO_EXTI_IRQHandler>
  /* USER CODE BEGIN EXTI3_IRQn 1 */

  /* USER CODE END EXTI3_IRQn 1 */
}
 80004f4:	bf00      	nop
 80004f6:	bd80      	pop	{r7, pc}

080004f8 <ADC1_2_IRQHandler>:

/**
  * @brief This function handles ADC1 and ADC2 global interrupts.
  */
void ADC1_2_IRQHandler(void)
{
 80004f8:	b580      	push	{r7, lr}
 80004fa:	af00      	add	r7, sp, #0
  /* USER CODE BEGIN ADC1_2_IRQn 0 */

  /* USER CODE END ADC1_2_IRQn 0 */
  HAL_ADC_IRQHandler(&hadc1);
 80004fc:	4802      	ldr	r0, [pc, #8]	; (8000508 <ADC1_2_IRQHandler+0x10>)
 80004fe:	f000 f96b 	bl	80007d8 <HAL_ADC_IRQHandler>
  /* USER CODE BEGIN ADC1_2_IRQn 1 */

  /* USER CODE END ADC1_2_IRQn 1 */
}
 8000502:	bf00      	nop
 8000504:	bd80      	pop	{r7, pc}
 8000506:	bf00      	nop
 8000508:	20000028 	.word	0x20000028

0800050c <SystemInit>:
  * @note   This function should be used only after reset.
  * @param  None
  * @retval None
  */
void SystemInit (void)
{
 800050c:	b480      	push	{r7}
 800050e:	af00      	add	r7, sp, #0

  /* Configure the Vector Table location -------------------------------------*/
#if defined(USER_VECT_TAB_ADDRESS)
  SCB->VTOR = VECT_TAB_BASE_ADDRESS | VECT_TAB_OFFSET; /* Vector Table Relocation in Internal SRAM. */
#endif /* USER_VECT_TAB_ADDRESS */
}
 8000510:	bf00      	nop
 8000512:	46bd      	mov	sp, r7
 8000514:	bc80      	pop	{r7}
 8000516:	4770      	bx	lr

08000518 <Reset_Handler>:
  .weak Reset_Handler
  .type Reset_Handler, %function
Reset_Handler:

/* Copy the data segment initializers from flash to SRAM */
  ldr r0, =_sdata
 8000518:	480c      	ldr	r0, [pc, #48]	; (800054c <LoopFillZerobss+0x12>)
  ldr r1, =_edata
 800051a:	490d      	ldr	r1, [pc, #52]	; (8000550 <LoopFillZerobss+0x16>)
  ldr r2, =_sidata
 800051c:	4a0d      	ldr	r2, [pc, #52]	; (8000554 <LoopFillZerobss+0x1a>)
  movs r3, #0
 800051e:	2300      	movs	r3, #0
  b LoopCopyDataInit
 8000520:	e002      	b.n	8000528 <LoopCopyDataInit>

08000522 <CopyDataInit>:

CopyDataInit:
  ldr r4, [r2, r3]
 8000522:	58d4      	ldr	r4, [r2, r3]
  str r4, [r0, r3]
 8000524:	50c4      	str	r4, [r0, r3]
  adds r3, r3, #4
 8000526:	3304      	adds	r3, #4

08000528 <LoopCopyDataInit>:

LoopCopyDataInit:
  adds r4, r0, r3
 8000528:	18c4      	adds	r4, r0, r3
  cmp r4, r1
 800052a:	428c      	cmp	r4, r1
  bcc CopyDataInit
 800052c:	d3f9      	bcc.n	8000522 <CopyDataInit>
  
/* Zero fill the bss segment. */
  ldr r2, =_sbss
 800052e:	4a0a      	ldr	r2, [pc, #40]	; (8000558 <LoopFillZerobss+0x1e>)
  ldr r4, =_ebss
 8000530:	4c0a      	ldr	r4, [pc, #40]	; (800055c <LoopFillZerobss+0x22>)
  movs r3, #0
 8000532:	2300      	movs	r3, #0
  b LoopFillZerobss
 8000534:	e001      	b.n	800053a <LoopFillZerobss>

08000536 <FillZerobss>:

FillZerobss:
  str  r3, [r2]
 8000536:	6013      	str	r3, [r2, #0]
  adds r2, r2, #4
 8000538:	3204      	adds	r2, #4

0800053a <LoopFillZerobss>:

LoopFillZerobss:
  cmp r2, r4
 800053a:	42a2      	cmp	r2, r4
  bcc FillZerobss
 800053c:	d3fb      	bcc.n	8000536 <FillZerobss>

/* Call the clock system intitialization function.*/
    bl  SystemInit
 800053e:	f7ff ffe5 	bl	800050c <SystemInit>
/* Call static constructors */
    bl __libc_init_array
 8000542:	f001 facb 	bl	8001adc <__libc_init_array>
/* Call the application's entry point.*/
  bl main
 8000546:	f7ff fe01 	bl	800014c <main>
  bx lr
 800054a:	4770      	bx	lr
  ldr r0, =_sdata
 800054c:	20000000 	.word	0x20000000
  ldr r1, =_edata
 8000550:	2000000c 	.word	0x2000000c
  ldr r2, =_sidata
 8000554:	08001b74 	.word	0x08001b74
  ldr r2, =_sbss
 8000558:	2000000c 	.word	0x2000000c
  ldr r4, =_ebss
 800055c:	2000005c 	.word	0x2000005c

08000560 <CAN1_RX1_IRQHandler>:
 * @retval : None
*/
    .section .text.Default_Handler,"ax",%progbits
Default_Handler:
Infinite_Loop:
  b Infinite_Loop
 8000560:	e7fe      	b.n	8000560 <CAN1_RX1_IRQHandler>
	...

08000564 <HAL_Init>:
  *         need to ensure that the SysTick time base is always set to 1 millisecond
  *         to have correct HAL operation.
  * @retval HAL status
  */
HAL_StatusTypeDef HAL_Init(void)
{
 8000564:	b580      	push	{r7, lr}
 8000566:	af00      	add	r7, sp, #0
    defined(STM32F102x6) || defined(STM32F102xB) || \
    defined(STM32F103x6) || defined(STM32F103xB) || defined(STM32F103xE) || defined(STM32F103xG) || \
    defined(STM32F105xC) || defined(STM32F107xC)

  /* Prefetch buffer is not available on value line devices */
  __HAL_FLASH_PREFETCH_BUFFER_ENABLE();
 8000568:	4b08      	ldr	r3, [pc, #32]	; (800058c <HAL_Init+0x28>)
 800056a:	681b      	ldr	r3, [r3, #0]
 800056c:	4a07      	ldr	r2, [pc, #28]	; (800058c <HAL_Init+0x28>)
 800056e:	f043 0310 	orr.w	r3, r3, #16
 8000572:	6013      	str	r3, [r2, #0]
#endif
#endif /* PREFETCH_ENABLE */

  /* Set Interrupt Group Priority */
  HAL_NVIC_SetPriorityGrouping(NVIC_PRIORITYGROUP_4);
 8000574:	2003      	movs	r0, #3
 8000576:	f000 fc13 	bl	8000da0 <HAL_NVIC_SetPriorityGrouping>

  /* Use systick as time base source and configure 1ms tick (default clock after Reset is HSI) */
  HAL_InitTick(TICK_INT_PRIORITY);
 800057a:	200f      	movs	r0, #15
 800057c:	f000 f808 	bl	8000590 <HAL_InitTick>

  /* Init the low level hardware */
  HAL_MspInit();
 8000580:	f7ff ff08 	bl	8000394 <HAL_MspInit>

  /* Return function status */
  return HAL_OK;
 8000584:	2300      	movs	r3, #0
}
 8000586:	4618      	mov	r0, r3
 8000588:	bd80      	pop	{r7, pc}
 800058a:	bf00      	nop
 800058c:	40022000 	.word	0x40022000

08000590 <HAL_InitTick>:
  *       implementation  in user file.
  * @param TickPriority Tick interrupt priority.
  * @retval HAL status
  */
__weak HAL_StatusTypeDef HAL_InitTick(uint32_t TickPriority)
{
 8000590:	b580      	push	{r7, lr}
 8000592:	b082      	sub	sp, #8
 8000594:	af00      	add	r7, sp, #0
 8000596:	6078      	str	r0, [r7, #4]
  /* Configure the SysTick to have interrupt in 1ms time basis*/
  if (HAL_SYSTICK_Config(SystemCoreClock / (1000U / uwTickFreq)) > 0U)
 8000598:	4b12      	ldr	r3, [pc, #72]	; (80005e4 <HAL_InitTick+0x54>)
 800059a:	681a      	ldr	r2, [r3, #0]
 800059c:	4b12      	ldr	r3, [pc, #72]	; (80005e8 <HAL_InitTick+0x58>)
 800059e:	781b      	ldrb	r3, [r3, #0]
 80005a0:	4619      	mov	r1, r3
 80005a2:	f44f 737a 	mov.w	r3, #1000	; 0x3e8
 80005a6:	fbb3 f3f1 	udiv	r3, r3, r1
 80005aa:	fbb2 f3f3 	udiv	r3, r2, r3
 80005ae:	4618      	mov	r0, r3
 80005b0:	f000 fc2b 	bl	8000e0a <HAL_SYSTICK_Config>
 80005b4:	4603      	mov	r3, r0
 80005b6:	2b00      	cmp	r3, #0
 80005b8:	d001      	beq.n	80005be <HAL_InitTick+0x2e>
  {
    return HAL_ERROR;
 80005ba:	2301      	movs	r3, #1
 80005bc:	e00e      	b.n	80005dc <HAL_InitTick+0x4c>
  }

  /* Configure the SysTick IRQ priority */
  if (TickPriority < (1UL << __NVIC_PRIO_BITS))
 80005be:	687b      	ldr	r3, [r7, #4]
 80005c0:	2b0f      	cmp	r3, #15
 80005c2:	d80a      	bhi.n	80005da <HAL_InitTick+0x4a>
  {
    HAL_NVIC_SetPriority(SysTick_IRQn, TickPriority, 0U);
 80005c4:	2200      	movs	r2, #0
 80005c6:	6879      	ldr	r1, [r7, #4]
 80005c8:	f04f 30ff 	mov.w	r0, #4294967295	; 0xffffffff
 80005cc:	f000 fbf3 	bl	8000db6 <HAL_NVIC_SetPriority>
    uwTickPrio = TickPriority;
 80005d0:	4a06      	ldr	r2, [pc, #24]	; (80005ec <HAL_InitTick+0x5c>)
 80005d2:	687b      	ldr	r3, [r7, #4]
 80005d4:	6013      	str	r3, [r2, #0]
  {
    return HAL_ERROR;
  }

  /* Return function status */
  return HAL_OK;
 80005d6:	2300      	movs	r3, #0
 80005d8:	e000      	b.n	80005dc <HAL_InitTick+0x4c>
    return HAL_ERROR;
 80005da:	2301      	movs	r3, #1
}
 80005dc:	4618      	mov	r0, r3
 80005de:	3708      	adds	r7, #8
 80005e0:	46bd      	mov	sp, r7
 80005e2:	bd80      	pop	{r7, pc}
 80005e4:	20000000 	.word	0x20000000
 80005e8:	20000008 	.word	0x20000008
 80005ec:	20000004 	.word	0x20000004

080005f0 <HAL_IncTick>:
  * @note This function is declared as __weak to be overwritten in case of other
  *      implementations in user file.
  * @retval None
  */
__weak void HAL_IncTick(void)
{
 80005f0:	b480      	push	{r7}
 80005f2:	af00      	add	r7, sp, #0
  uwTick += uwTickFreq;
 80005f4:	4b05      	ldr	r3, [pc, #20]	; (800060c <HAL_IncTick+0x1c>)
 80005f6:	781b      	ldrb	r3, [r3, #0]
 80005f8:	461a      	mov	r2, r3
 80005fa:	4b05      	ldr	r3, [pc, #20]	; (8000610 <HAL_IncTick+0x20>)
 80005fc:	681b      	ldr	r3, [r3, #0]
 80005fe:	4413      	add	r3, r2
 8000600:	4a03      	ldr	r2, [pc, #12]	; (8000610 <HAL_IncTick+0x20>)
 8000602:	6013      	str	r3, [r2, #0]
}
 8000604:	bf00      	nop
 8000606:	46bd      	mov	sp, r7
 8000608:	bc80      	pop	{r7}
 800060a:	4770      	bx	lr
 800060c:	20000008 	.word	0x20000008
 8000610:	20000058 	.word	0x20000058

08000614 <HAL_GetTick>:
  * @note  This function is declared as __weak to be overwritten in case of other
  *       implementations in user file.
  * @retval tick value
  */
__weak uint32_t HAL_GetTick(void)
{
 8000614:	b480      	push	{r7}
 8000616:	af00      	add	r7, sp, #0
  return uwTick;
 8000618:	4b02      	ldr	r3, [pc, #8]	; (8000624 <HAL_GetTick+0x10>)
 800061a:	681b      	ldr	r3, [r3, #0]
}
 800061c:	4618      	mov	r0, r3
 800061e:	46bd      	mov	sp, r7
 8000620:	bc80      	pop	{r7}
 8000622:	4770      	bx	lr
 8000624:	20000058 	.word	0x20000058

08000628 <HAL_ADC_Init>:
  *         of structure "ADC_InitTypeDef".
  * @param  hadc: ADC handle
  * @retval HAL status
  */
HAL_StatusTypeDef HAL_ADC_Init(ADC_HandleTypeDef* hadc)
{
 8000628:	b580      	push	{r7, lr}
 800062a:	b086      	sub	sp, #24
 800062c:	af00      	add	r7, sp, #0
 800062e:	6078      	str	r0, [r7, #4]
  HAL_StatusTypeDef tmp_hal_status = HAL_OK;
 8000630:	2300      	movs	r3, #0
 8000632:	75fb      	strb	r3, [r7, #23]
  uint32_t tmp_cr1 = 0U;
 8000634:	2300      	movs	r3, #0
 8000636:	613b      	str	r3, [r7, #16]
  uint32_t tmp_cr2 = 0U;
 8000638:	2300      	movs	r3, #0
 800063a:	60bb      	str	r3, [r7, #8]
  uint32_t tmp_sqr1 = 0U;
 800063c:	2300      	movs	r3, #0
 800063e:	60fb      	str	r3, [r7, #12]
  
  /* Check ADC handle */
  if(hadc == NULL)
 8000640:	687b      	ldr	r3, [r7, #4]
 8000642:	2b00      	cmp	r3, #0
 8000644:	d101      	bne.n	800064a <HAL_ADC_Init+0x22>
  {
    return HAL_ERROR;
 8000646:	2301      	movs	r3, #1
 8000648:	e0be      	b.n	80007c8 <HAL_ADC_Init+0x1a0>
  assert_param(IS_ADC_DATA_ALIGN(hadc->Init.DataAlign));
  assert_param(IS_ADC_SCAN_MODE(hadc->Init.ScanConvMode));
  assert_param(IS_FUNCTIONAL_STATE(hadc->Init.ContinuousConvMode));
  assert_param(IS_ADC_EXTTRIG(hadc->Init.ExternalTrigConv));
  
  if(hadc->Init.ScanConvMode != ADC_SCAN_DISABLE)
 800064a:	687b      	ldr	r3, [r7, #4]
 800064c:	689b      	ldr	r3, [r3, #8]
 800064e:	2b00      	cmp	r3, #0
  /* Refer to header of this file for more details on clock enabling          */
  /* procedure.                                                               */

  /* Actions performed only if ADC is coming from state reset:                */
  /* - Initialization of ADC MSP                                              */
  if (hadc->State == HAL_ADC_STATE_RESET)
 8000650:	687b      	ldr	r3, [r7, #4]
 8000652:	6a9b      	ldr	r3, [r3, #40]	; 0x28
 8000654:	2b00      	cmp	r3, #0
 8000656:	d109      	bne.n	800066c <HAL_ADC_Init+0x44>
  {
    /* Initialize ADC error code */
    ADC_CLEAR_ERRORCODE(hadc);
 8000658:	687b      	ldr	r3, [r7, #4]
 800065a:	2200      	movs	r2, #0
 800065c:	62da      	str	r2, [r3, #44]	; 0x2c
    
    /* Allocate lock resource and initialize it */
    hadc->Lock = HAL_UNLOCKED;
 800065e:	687b      	ldr	r3, [r7, #4]
 8000660:	2200      	movs	r2, #0
 8000662:	f883 2024 	strb.w	r2, [r3, #36]	; 0x24
    
    /* Init the low level hardware */
    hadc->MspInitCallback(hadc);
#else
    /* Init the low level hardware */
    HAL_ADC_MspInit(hadc);
 8000666:	6878      	ldr	r0, [r7, #4]
 8000668:	f7ff fec6 	bl	80003f8 <HAL_ADC_MspInit>
  /* Stop potential conversion on going, on regular and injected groups */
  /* Disable ADC peripheral */
  /* Note: In case of ADC already enabled, precaution to not launch an        */
  /*       unwanted conversion while modifying register CR2 by writing 1 to   */
  /*       bit ADON.                                                          */
  tmp_hal_status = ADC_ConversionStop_Disable(hadc);
 800066c:	6878      	ldr	r0, [r7, #4]
 800066e:	f000 fa81 	bl	8000b74 <ADC_ConversionStop_Disable>
 8000672:	4603      	mov	r3, r0
 8000674:	75fb      	strb	r3, [r7, #23]
  
  
  /* Configuration of ADC parameters if previous preliminary actions are      */ 
  /* correctly completed.                                                     */
  if (HAL_IS_BIT_CLR(hadc->State, HAL_ADC_STATE_ERROR_INTERNAL) &&
 8000676:	687b      	ldr	r3, [r7, #4]
 8000678:	6a9b      	ldr	r3, [r3, #40]	; 0x28
 800067a:	f003 0310 	and.w	r3, r3, #16
 800067e:	2b00      	cmp	r3, #0
 8000680:	f040 8099 	bne.w	80007b6 <HAL_ADC_Init+0x18e>
 8000684:	7dfb      	ldrb	r3, [r7, #23]
 8000686:	2b00      	cmp	r3, #0
 8000688:	f040 8095 	bne.w	80007b6 <HAL_ADC_Init+0x18e>
      (tmp_hal_status == HAL_OK)                                  )
  {
    /* Set ADC state */
    ADC_STATE_CLR_SET(hadc->State,
 800068c:	687b      	ldr	r3, [r7, #4]
 800068e:	6a9b      	ldr	r3, [r3, #40]	; 0x28
 8000690:	f423 5388 	bic.w	r3, r3, #4352	; 0x1100
 8000694:	f023 0302 	bic.w	r3, r3, #2
 8000698:	f043 0202 	orr.w	r2, r3, #2
 800069c:	687b      	ldr	r3, [r7, #4]
 800069e:	629a      	str	r2, [r3, #40]	; 0x28
    /*  - continuous conversion mode                                          */
    /* Note: External trigger polarity (ADC_CR2_EXTTRIG) is set into          */
    /*       HAL_ADC_Start_xxx functions because if set in this function,     */
    /*       a conversion on injected group would start a conversion also on  */
    /*       regular group after ADC enabling.                                */
    tmp_cr2 |= (hadc->Init.DataAlign                                          |
 80006a0:	687b      	ldr	r3, [r7, #4]
 80006a2:	685a      	ldr	r2, [r3, #4]
                ADC_CFGR_EXTSEL(hadc, hadc->Init.ExternalTrigConv)            |
 80006a4:	687b      	ldr	r3, [r7, #4]
 80006a6:	69db      	ldr	r3, [r3, #28]
    tmp_cr2 |= (hadc->Init.DataAlign                                          |
 80006a8:	431a      	orrs	r2, r3
                ADC_CR2_CONTINUOUS((uint32_t)hadc->Init.ContinuousConvMode)   );
 80006aa:	687b      	ldr	r3, [r7, #4]
 80006ac:	7b1b      	ldrb	r3, [r3, #12]
 80006ae:	005b      	lsls	r3, r3, #1
                ADC_CFGR_EXTSEL(hadc, hadc->Init.ExternalTrigConv)            |
 80006b0:	4313      	orrs	r3, r2
    tmp_cr2 |= (hadc->Init.DataAlign                                          |
 80006b2:	68ba      	ldr	r2, [r7, #8]
 80006b4:	4313      	orrs	r3, r2
 80006b6:	60bb      	str	r3, [r7, #8]

    /* Configuration of ADC:                                                  */
    /*  - scan mode                                                           */
    /*  - discontinuous mode disable/enable                                   */
    /*  - discontinuous mode number of conversions                            */
    tmp_cr1 |= (ADC_CR1_SCAN_SET(hadc->Init.ScanConvMode));
 80006b8:	687b      	ldr	r3, [r7, #4]
 80006ba:	689b      	ldr	r3, [r3, #8]
 80006bc:	f5b3 7f80 	cmp.w	r3, #256	; 0x100
 80006c0:	d003      	beq.n	80006ca <HAL_ADC_Init+0xa2>
 80006c2:	687b      	ldr	r3, [r7, #4]
 80006c4:	689b      	ldr	r3, [r3, #8]
 80006c6:	2b01      	cmp	r3, #1
 80006c8:	d102      	bne.n	80006d0 <HAL_ADC_Init+0xa8>
 80006ca:	f44f 7380 	mov.w	r3, #256	; 0x100
 80006ce:	e000      	b.n	80006d2 <HAL_ADC_Init+0xaa>
 80006d0:	2300      	movs	r3, #0
 80006d2:	693a      	ldr	r2, [r7, #16]
 80006d4:	4313      	orrs	r3, r2
 80006d6:	613b      	str	r3, [r7, #16]
    
    /* Enable discontinuous mode only if continuous mode is disabled */
    /* Note: If parameter "Init.ScanConvMode" is set to disable, parameter    */
    /*       discontinuous is set anyway, but will have no effect on ADC HW.  */
    if (hadc->Init.DiscontinuousConvMode == ENABLE)
 80006d8:	687b      	ldr	r3, [r7, #4]
 80006da:	7d1b      	ldrb	r3, [r3, #20]
 80006dc:	2b01      	cmp	r3, #1
 80006de:	d119      	bne.n	8000714 <HAL_ADC_Init+0xec>
    {
      if (hadc->Init.ContinuousConvMode == DISABLE)
 80006e0:	687b      	ldr	r3, [r7, #4]
 80006e2:	7b1b      	ldrb	r3, [r3, #12]
 80006e4:	2b00      	cmp	r3, #0
 80006e6:	d109      	bne.n	80006fc <HAL_ADC_Init+0xd4>
      {
        /* Enable the selected ADC regular discontinuous mode */
        /* Set the number of channels to be converted in discontinuous mode */
        SET_BIT(tmp_cr1, ADC_CR1_DISCEN                                            |
 80006e8:	687b      	ldr	r3, [r7, #4]
 80006ea:	699b      	ldr	r3, [r3, #24]
 80006ec:	3b01      	subs	r3, #1
 80006ee:	035a      	lsls	r2, r3, #13
 80006f0:	693b      	ldr	r3, [r7, #16]
 80006f2:	4313      	orrs	r3, r2
 80006f4:	f443 6300 	orr.w	r3, r3, #2048	; 0x800
 80006f8:	613b      	str	r3, [r7, #16]
 80006fa:	e00b      	b.n	8000714 <HAL_ADC_Init+0xec>
      {
        /* ADC regular group settings continuous and sequencer discontinuous*/
        /* cannot be enabled simultaneously.                                */
        
        /* Update ADC state machine to error */
        SET_BIT(hadc->State, HAL_ADC_STATE_ERROR_CONFIG);
 80006fc:	687b      	ldr	r3, [r7, #4]
 80006fe:	6a9b      	ldr	r3, [r3, #40]	; 0x28
 8000700:	f043 0220 	orr.w	r2, r3, #32
 8000704:	687b      	ldr	r3, [r7, #4]
 8000706:	629a      	str	r2, [r3, #40]	; 0x28
        
        /* Set ADC error code to ADC IP internal error */
        SET_BIT(hadc->ErrorCode, HAL_ADC_ERROR_INTERNAL);
 8000708:	687b      	ldr	r3, [r7, #4]
 800070a:	6adb      	ldr	r3, [r3, #44]	; 0x2c
 800070c:	f043 0201 	orr.w	r2, r3, #1
 8000710:	687b      	ldr	r3, [r7, #4]
 8000712:	62da      	str	r2, [r3, #44]	; 0x2c
      }
    }
    
    /* Update ADC configuration register CR1 with previous settings */
      MODIFY_REG(hadc->Instance->CR1,
 8000714:	687b      	ldr	r3, [r7, #4]
 8000716:	681b      	ldr	r3, [r3, #0]
 8000718:	685b      	ldr	r3, [r3, #4]
 800071a:	f423 4169 	bic.w	r1, r3, #59648	; 0xe900
 800071e:	687b      	ldr	r3, [r7, #4]
 8000720:	681b      	ldr	r3, [r3, #0]
 8000722:	693a      	ldr	r2, [r7, #16]
 8000724:	430a      	orrs	r2, r1
 8000726:	605a      	str	r2, [r3, #4]
                 ADC_CR1_DISCEN  |
                 ADC_CR1_DISCNUM    ,
                 tmp_cr1             );
    
    /* Update ADC configuration register CR2 with previous settings */
      MODIFY_REG(hadc->Instance->CR2,
 8000728:	687b      	ldr	r3, [r7, #4]
 800072a:	681b      	ldr	r3, [r3, #0]
 800072c:	689a      	ldr	r2, [r3, #8]
 800072e:	4b28      	ldr	r3, [pc, #160]	; (80007d0 <HAL_ADC_Init+0x1a8>)
 8000730:	4013      	ands	r3, r2
 8000732:	687a      	ldr	r2, [r7, #4]
 8000734:	6812      	ldr	r2, [r2, #0]
 8000736:	68b9      	ldr	r1, [r7, #8]
 8000738:	430b      	orrs	r3, r1
 800073a:	6093      	str	r3, [r2, #8]
    /*   Note: Scan mode is present by hardware on this device and, if        */
    /*   disabled, discards automatically nb of conversions. Anyway, nb of    */
    /*   conversions is forced to 0x00 for alignment over all STM32 devices.  */
    /* - if scan mode is enabled, regular channels sequence length is set to  */
    /*   parameter "NbrOfConversion"                                          */
    if (ADC_CR1_SCAN_SET(hadc->Init.ScanConvMode) == ADC_SCAN_ENABLE)
 800073c:	687b      	ldr	r3, [r7, #4]
 800073e:	689b      	ldr	r3, [r3, #8]
 8000740:	f5b3 7f80 	cmp.w	r3, #256	; 0x100
 8000744:	d003      	beq.n	800074e <HAL_ADC_Init+0x126>
 8000746:	687b      	ldr	r3, [r7, #4]
 8000748:	689b      	ldr	r3, [r3, #8]
 800074a:	2b01      	cmp	r3, #1
 800074c:	d104      	bne.n	8000758 <HAL_ADC_Init+0x130>
    {
      tmp_sqr1 = ADC_SQR1_L_SHIFT(hadc->Init.NbrOfConversion);
 800074e:	687b      	ldr	r3, [r7, #4]
 8000750:	691b      	ldr	r3, [r3, #16]
 8000752:	3b01      	subs	r3, #1
 8000754:	051b      	lsls	r3, r3, #20
 8000756:	60fb      	str	r3, [r7, #12]
    }
      
    MODIFY_REG(hadc->Instance->SQR1,
 8000758:	687b      	ldr	r3, [r7, #4]
 800075a:	681b      	ldr	r3, [r3, #0]
 800075c:	6adb      	ldr	r3, [r3, #44]	; 0x2c
 800075e:	f423 0170 	bic.w	r1, r3, #15728640	; 0xf00000
 8000762:	687b      	ldr	r3, [r7, #4]
 8000764:	681b      	ldr	r3, [r3, #0]
 8000766:	68fa      	ldr	r2, [r7, #12]
 8000768:	430a      	orrs	r2, r1
 800076a:	62da      	str	r2, [r3, #44]	; 0x2c
    /* ensure of no potential problem of ADC core IP clocking.                */
    /* Check through register CR2 (excluding bits set in other functions:     */
    /* execution control bits (ADON, JSWSTART, SWSTART), regular group bits   */
    /* (DMA), injected group bits (JEXTTRIG and JEXTSEL), channel internal    */
    /* measurement path bit (TSVREFE).                                        */
    if (READ_BIT(hadc->Instance->CR2, ~(ADC_CR2_ADON | ADC_CR2_DMA |
 800076c:	687b      	ldr	r3, [r7, #4]
 800076e:	681b      	ldr	r3, [r3, #0]
 8000770:	689a      	ldr	r2, [r3, #8]
 8000772:	4b18      	ldr	r3, [pc, #96]	; (80007d4 <HAL_ADC_Init+0x1ac>)
 8000774:	4013      	ands	r3, r2
 8000776:	68ba      	ldr	r2, [r7, #8]
 8000778:	429a      	cmp	r2, r3
 800077a:	d10b      	bne.n	8000794 <HAL_ADC_Init+0x16c>
                                        ADC_CR2_JEXTTRIG | ADC_CR2_JEXTSEL |
                                        ADC_CR2_TSVREFE                     ))
         == tmp_cr2)
    {
      /* Set ADC error code to none */
      ADC_CLEAR_ERRORCODE(hadc);
 800077c:	687b      	ldr	r3, [r7, #4]
 800077e:	2200      	movs	r2, #0
 8000780:	62da      	str	r2, [r3, #44]	; 0x2c
      
      /* Set the ADC state */
      ADC_STATE_CLR_SET(hadc->State,
 8000782:	687b      	ldr	r3, [r7, #4]
 8000784:	6a9b      	ldr	r3, [r3, #40]	; 0x28
 8000786:	f023 0303 	bic.w	r3, r3, #3
 800078a:	f043 0201 	orr.w	r2, r3, #1
 800078e:	687b      	ldr	r3, [r7, #4]
 8000790:	629a      	str	r2, [r3, #40]	; 0x28
    if (READ_BIT(hadc->Instance->CR2, ~(ADC_CR2_ADON | ADC_CR2_DMA |
 8000792:	e018      	b.n	80007c6 <HAL_ADC_Init+0x19e>
                        HAL_ADC_STATE_READY);
    }
    else
    {
      /* Update ADC state machine to error */
      ADC_STATE_CLR_SET(hadc->State,
 8000794:	687b      	ldr	r3, [r7, #4]
 8000796:	6a9b      	ldr	r3, [r3, #40]	; 0x28
 8000798:	f023 0312 	bic.w	r3, r3, #18
 800079c:	f043 0210 	orr.w	r2, r3, #16
 80007a0:	687b      	ldr	r3, [r7, #4]
 80007a2:	629a      	str	r2, [r3, #40]	; 0x28
                        HAL_ADC_STATE_BUSY_INTERNAL,
                        HAL_ADC_STATE_ERROR_INTERNAL);
      
      /* Set ADC error code to ADC IP internal error */
      SET_BIT(hadc->ErrorCode, HAL_ADC_ERROR_INTERNAL);
 80007a4:	687b      	ldr	r3, [r7, #4]
 80007a6:	6adb      	ldr	r3, [r3, #44]	; 0x2c
 80007a8:	f043 0201 	orr.w	r2, r3, #1
 80007ac:	687b      	ldr	r3, [r7, #4]
 80007ae:	62da      	str	r2, [r3, #44]	; 0x2c
      
      tmp_hal_status = HAL_ERROR;
 80007b0:	2301      	movs	r3, #1
 80007b2:	75fb      	strb	r3, [r7, #23]
    if (READ_BIT(hadc->Instance->CR2, ~(ADC_CR2_ADON | ADC_CR2_DMA |
 80007b4:	e007      	b.n	80007c6 <HAL_ADC_Init+0x19e>
  
  }
  else
  {
    /* Update ADC state machine to error */
    SET_BIT(hadc->State, HAL_ADC_STATE_ERROR_INTERNAL);
 80007b6:	687b      	ldr	r3, [r7, #4]
 80007b8:	6a9b      	ldr	r3, [r3, #40]	; 0x28
 80007ba:	f043 0210 	orr.w	r2, r3, #16
 80007be:	687b      	ldr	r3, [r7, #4]
 80007c0:	629a      	str	r2, [r3, #40]	; 0x28
        
    tmp_hal_status = HAL_ERROR;
 80007c2:	2301      	movs	r3, #1
 80007c4:	75fb      	strb	r3, [r7, #23]
  }
  
  /* Return function status */
  return tmp_hal_status;
 80007c6:	7dfb      	ldrb	r3, [r7, #23]
}
 80007c8:	4618      	mov	r0, r3
 80007ca:	3718      	adds	r7, #24
 80007cc:	46bd      	mov	sp, r7
 80007ce:	bd80      	pop	{r7, pc}
 80007d0:	ffe1f7fd 	.word	0xffe1f7fd
 80007d4:	ff1f0efe 	.word	0xff1f0efe

080007d8 <HAL_ADC_IRQHandler>:
  * @brief  Handles ADC interrupt request  
  * @param  hadc: ADC handle
  * @retval None
  */
void HAL_ADC_IRQHandler(ADC_HandleTypeDef* hadc)
{
 80007d8:	b580      	push	{r7, lr}
 80007da:	b082      	sub	sp, #8
 80007dc:	af00      	add	r7, sp, #0
 80007de:	6078      	str	r0, [r7, #4]
  assert_param(IS_FUNCTIONAL_STATE(hadc->Init.ContinuousConvMode));
  assert_param(IS_ADC_REGULAR_NB_CONV(hadc->Init.NbrOfConversion));
  
  
  /* ========== Check End of Conversion flag for regular group ========== */
  if(__HAL_ADC_GET_IT_SOURCE(hadc, ADC_IT_EOC))
 80007e0:	687b      	ldr	r3, [r7, #4]
 80007e2:	681b      	ldr	r3, [r3, #0]
 80007e4:	685b      	ldr	r3, [r3, #4]
 80007e6:	f003 0320 	and.w	r3, r3, #32
 80007ea:	2b20      	cmp	r3, #32
 80007ec:	d140      	bne.n	8000870 <HAL_ADC_IRQHandler+0x98>
  {
    if(__HAL_ADC_GET_FLAG(hadc, ADC_FLAG_EOC) )
 80007ee:	687b      	ldr	r3, [r7, #4]
 80007f0:	681b      	ldr	r3, [r3, #0]
 80007f2:	681b      	ldr	r3, [r3, #0]
 80007f4:	f003 0302 	and.w	r3, r3, #2
 80007f8:	2b02      	cmp	r3, #2
 80007fa:	d139      	bne.n	8000870 <HAL_ADC_IRQHandler+0x98>
    {
      /* Update state machine on conversion status if not in error state */
      if (HAL_IS_BIT_CLR(hadc->State, HAL_ADC_STATE_ERROR_INTERNAL))
 80007fc:	687b      	ldr	r3, [r7, #4]
 80007fe:	6a9b      	ldr	r3, [r3, #40]	; 0x28
 8000800:	f003 0310 	and.w	r3, r3, #16
 8000804:	2b00      	cmp	r3, #0
 8000806:	d105      	bne.n	8000814 <HAL_ADC_IRQHandler+0x3c>
      {
        /* Set ADC state */
        SET_BIT(hadc->State, HAL_ADC_STATE_REG_EOC); 
 8000808:	687b      	ldr	r3, [r7, #4]
 800080a:	6a9b      	ldr	r3, [r3, #40]	; 0x28
 800080c:	f443 7200 	orr.w	r2, r3, #512	; 0x200
 8000810:	687b      	ldr	r3, [r7, #4]
 8000812:	629a      	str	r2, [r3, #40]	; 0x28
      /* Determine whether any further conversion upcoming on group regular   */
      /* by external trigger, continuous mode or scan sequence on going.      */
      /* Note: On STM32F1 devices, in case of sequencer enabled               */
      /*       (several ranks selected), end of conversion flag is raised     */
      /*       at the end of the sequence.                                    */
      if(ADC_IS_SOFTWARE_START_REGULAR(hadc)        && 
 8000814:	687b      	ldr	r3, [r7, #4]
 8000816:	681b      	ldr	r3, [r3, #0]
 8000818:	689b      	ldr	r3, [r3, #8]
 800081a:	f403 2360 	and.w	r3, r3, #917504	; 0xe0000
 800081e:	f5b3 2f60 	cmp.w	r3, #917504	; 0xe0000
 8000822:	d11d      	bne.n	8000860 <HAL_ADC_IRQHandler+0x88>
         (hadc->Init.ContinuousConvMode == DISABLE)   )
 8000824:	687b      	ldr	r3, [r7, #4]
 8000826:	7b1b      	ldrb	r3, [r3, #12]
      if(ADC_IS_SOFTWARE_START_REGULAR(hadc)        && 
 8000828:	2b00      	cmp	r3, #0
 800082a:	d119      	bne.n	8000860 <HAL_ADC_IRQHandler+0x88>
      {
        /* Disable ADC end of conversion interrupt on group regular */
        __HAL_ADC_DISABLE_IT(hadc, ADC_IT_EOC);
 800082c:	687b      	ldr	r3, [r7, #4]
 800082e:	681b      	ldr	r3, [r3, #0]
 8000830:	685a      	ldr	r2, [r3, #4]
 8000832:	687b      	ldr	r3, [r7, #4]
 8000834:	681b      	ldr	r3, [r3, #0]
 8000836:	f022 0220 	bic.w	r2, r2, #32
 800083a:	605a      	str	r2, [r3, #4]
        
        /* Set ADC state */
        CLEAR_BIT(hadc->State, HAL_ADC_STATE_REG_BUSY);   
 800083c:	687b      	ldr	r3, [r7, #4]
 800083e:	6a9b      	ldr	r3, [r3, #40]	; 0x28
 8000840:	f423 7280 	bic.w	r2, r3, #256	; 0x100
 8000844:	687b      	ldr	r3, [r7, #4]
 8000846:	629a      	str	r2, [r3, #40]	; 0x28
        
        if (HAL_IS_BIT_CLR(hadc->State, HAL_ADC_STATE_INJ_BUSY))
 8000848:	687b      	ldr	r3, [r7, #4]
 800084a:	6a9b      	ldr	r3, [r3, #40]	; 0x28
 800084c:	f403 5380 	and.w	r3, r3, #4096	; 0x1000
 8000850:	2b00      	cmp	r3, #0
 8000852:	d105      	bne.n	8000860 <HAL_ADC_IRQHandler+0x88>
        {
          SET_BIT(hadc->State, HAL_ADC_STATE_READY);
 8000854:	687b      	ldr	r3, [r7, #4]
 8000856:	6a9b      	ldr	r3, [r3, #40]	; 0x28
 8000858:	f043 0201 	orr.w	r2, r3, #1
 800085c:	687b      	ldr	r3, [r7, #4]
 800085e:	629a      	str	r2, [r3, #40]	; 0x28

      /* Conversion complete callback */
#if (USE_HAL_ADC_REGISTER_CALLBACKS == 1)
      hadc->ConvCpltCallback(hadc);
#else
      HAL_ADC_ConvCpltCallback(hadc);
 8000860:	6878      	ldr	r0, [r7, #4]
 8000862:	f000 f87c 	bl	800095e <HAL_ADC_ConvCpltCallback>
#endif /* USE_HAL_ADC_REGISTER_CALLBACKS */
      
      /* Clear regular group conversion flag */
      __HAL_ADC_CLEAR_FLAG(hadc, ADC_FLAG_STRT | ADC_FLAG_EOC);
 8000866:	687b      	ldr	r3, [r7, #4]
 8000868:	681b      	ldr	r3, [r3, #0]
 800086a:	f06f 0212 	mvn.w	r2, #18
 800086e:	601a      	str	r2, [r3, #0]
    }
  }
  
  /* ========== Check End of Conversion flag for injected group ========== */
  if(__HAL_ADC_GET_IT_SOURCE(hadc, ADC_IT_JEOC))
 8000870:	687b      	ldr	r3, [r7, #4]
 8000872:	681b      	ldr	r3, [r3, #0]
 8000874:	685b      	ldr	r3, [r3, #4]
 8000876:	f003 0380 	and.w	r3, r3, #128	; 0x80
 800087a:	2b80      	cmp	r3, #128	; 0x80
 800087c:	d14f      	bne.n	800091e <HAL_ADC_IRQHandler+0x146>
  {
    if(__HAL_ADC_GET_FLAG(hadc, ADC_FLAG_JEOC))
 800087e:	687b      	ldr	r3, [r7, #4]
 8000880:	681b      	ldr	r3, [r3, #0]
 8000882:	681b      	ldr	r3, [r3, #0]
 8000884:	f003 0304 	and.w	r3, r3, #4
 8000888:	2b04      	cmp	r3, #4
 800088a:	d148      	bne.n	800091e <HAL_ADC_IRQHandler+0x146>
    {
      /* Update state machine on conversion status if not in error state */
      if (HAL_IS_BIT_CLR(hadc->State, HAL_ADC_STATE_ERROR_INTERNAL))
 800088c:	687b      	ldr	r3, [r7, #4]
 800088e:	6a9b      	ldr	r3, [r3, #40]	; 0x28
 8000890:	f003 0310 	and.w	r3, r3, #16
 8000894:	2b00      	cmp	r3, #0
 8000896:	d105      	bne.n	80008a4 <HAL_ADC_IRQHandler+0xcc>
      {
        /* Set ADC state */
        SET_BIT(hadc->State, HAL_ADC_STATE_INJ_EOC);
 8000898:	687b      	ldr	r3, [r7, #4]
 800089a:	6a9b      	ldr	r3, [r3, #40]	; 0x28
 800089c:	f443 5200 	orr.w	r2, r3, #8192	; 0x2000
 80008a0:	687b      	ldr	r3, [r7, #4]
 80008a2:	629a      	str	r2, [r3, #40]	; 0x28
      /* conversion from group regular (same conditions as group regular      */
      /* interruption disabling above).                                       */
      /* Note: On STM32F1 devices, in case of sequencer enabled               */
      /*       (several ranks selected), end of conversion flag is raised     */
      /*       at the end of the sequence.                                    */
      if(ADC_IS_SOFTWARE_START_INJECTED(hadc)                     || 
 80008a4:	687b      	ldr	r3, [r7, #4]
 80008a6:	681b      	ldr	r3, [r3, #0]
 80008a8:	689b      	ldr	r3, [r3, #8]
 80008aa:	f403 43e0 	and.w	r3, r3, #28672	; 0x7000
 80008ae:	f5b3 4fe0 	cmp.w	r3, #28672	; 0x7000
 80008b2:	d012      	beq.n	80008da <HAL_ADC_IRQHandler+0x102>
         (HAL_IS_BIT_CLR(hadc->Instance->CR1, ADC_CR1_JAUTO) &&     
 80008b4:	687b      	ldr	r3, [r7, #4]
 80008b6:	681b      	ldr	r3, [r3, #0]
 80008b8:	685b      	ldr	r3, [r3, #4]
 80008ba:	f403 6380 	and.w	r3, r3, #1024	; 0x400
      if(ADC_IS_SOFTWARE_START_INJECTED(hadc)                     || 
 80008be:	2b00      	cmp	r3, #0
 80008c0:	d125      	bne.n	800090e <HAL_ADC_IRQHandler+0x136>
         (ADC_IS_SOFTWARE_START_REGULAR(hadc)        &&
 80008c2:	687b      	ldr	r3, [r7, #4]
 80008c4:	681b      	ldr	r3, [r3, #0]
 80008c6:	689b      	ldr	r3, [r3, #8]
 80008c8:	f403 2360 	and.w	r3, r3, #917504	; 0xe0000
         (HAL_IS_BIT_CLR(hadc->Instance->CR1, ADC_CR1_JAUTO) &&     
 80008cc:	f5b3 2f60 	cmp.w	r3, #917504	; 0xe0000
 80008d0:	d11d      	bne.n	800090e <HAL_ADC_IRQHandler+0x136>
          (hadc->Init.ContinuousConvMode == DISABLE)   )        )   )
 80008d2:	687b      	ldr	r3, [r7, #4]
 80008d4:	7b1b      	ldrb	r3, [r3, #12]
         (ADC_IS_SOFTWARE_START_REGULAR(hadc)        &&
 80008d6:	2b00      	cmp	r3, #0
 80008d8:	d119      	bne.n	800090e <HAL_ADC_IRQHandler+0x136>
      {
        /* Disable ADC end of conversion interrupt on group injected */
        __HAL_ADC_DISABLE_IT(hadc, ADC_IT_JEOC);
 80008da:	687b      	ldr	r3, [r7, #4]
 80008dc:	681b      	ldr	r3, [r3, #0]
 80008de:	685a      	ldr	r2, [r3, #4]
 80008e0:	687b      	ldr	r3, [r7, #4]
 80008e2:	681b      	ldr	r3, [r3, #0]
 80008e4:	f022 0280 	bic.w	r2, r2, #128	; 0x80
 80008e8:	605a      	str	r2, [r3, #4]
        
        /* Set ADC state */
        CLEAR_BIT(hadc->State, HAL_ADC_STATE_INJ_BUSY);   
 80008ea:	687b      	ldr	r3, [r7, #4]
 80008ec:	6a9b      	ldr	r3, [r3, #40]	; 0x28
 80008ee:	f423 5280 	bic.w	r2, r3, #4096	; 0x1000
 80008f2:	687b      	ldr	r3, [r7, #4]
 80008f4:	629a      	str	r2, [r3, #40]	; 0x28

        if (HAL_IS_BIT_CLR(hadc->State, HAL_ADC_STATE_REG_BUSY))
 80008f6:	687b      	ldr	r3, [r7, #4]
 80008f8:	6a9b      	ldr	r3, [r3, #40]	; 0x28
 80008fa:	f403 7380 	and.w	r3, r3, #256	; 0x100
 80008fe:	2b00      	cmp	r3, #0
 8000900:	d105      	bne.n	800090e <HAL_ADC_IRQHandler+0x136>
        { 
          SET_BIT(hadc->State, HAL_ADC_STATE_READY);
 8000902:	687b      	ldr	r3, [r7, #4]
 8000904:	6a9b      	ldr	r3, [r3, #40]	; 0x28
 8000906:	f043 0201 	orr.w	r2, r3, #1
 800090a:	687b      	ldr	r3, [r7, #4]
 800090c:	629a      	str	r2, [r3, #40]	; 0x28

      /* Conversion complete callback */ 
#if (USE_HAL_ADC_REGISTER_CALLBACKS == 1)
      hadc->InjectedConvCpltCallback(hadc);
#else
      HAL_ADCEx_InjectedConvCpltCallback(hadc);
 800090e:	6878      	ldr	r0, [r7, #4]
 8000910:	f000 f971 	bl	8000bf6 <HAL_ADCEx_InjectedConvCpltCallback>
#endif /* USE_HAL_ADC_REGISTER_CALLBACKS */
      
      /* Clear injected group conversion flag */
      __HAL_ADC_CLEAR_FLAG(hadc, (ADC_FLAG_JSTRT | ADC_FLAG_JEOC));
 8000914:	687b      	ldr	r3, [r7, #4]
 8000916:	681b      	ldr	r3, [r3, #0]
 8000918:	f06f 020c 	mvn.w	r2, #12
 800091c:	601a      	str	r2, [r3, #0]
    }
  }
   
  /* ========== Check Analog watchdog flags ========== */
  if(__HAL_ADC_GET_IT_SOURCE(hadc, ADC_IT_AWD))
 800091e:	687b      	ldr	r3, [r7, #4]
 8000920:	681b      	ldr	r3, [r3, #0]
 8000922:	685b      	ldr	r3, [r3, #4]
 8000924:	f003 0340 	and.w	r3, r3, #64	; 0x40
 8000928:	2b40      	cmp	r3, #64	; 0x40
 800092a:	d114      	bne.n	8000956 <HAL_ADC_IRQHandler+0x17e>
  {
    if(__HAL_ADC_GET_FLAG(hadc, ADC_FLAG_AWD))
 800092c:	687b      	ldr	r3, [r7, #4]
 800092e:	681b      	ldr	r3, [r3, #0]
 8000930:	681b      	ldr	r3, [r3, #0]
 8000932:	f003 0301 	and.w	r3, r3, #1
 8000936:	2b01      	cmp	r3, #1
 8000938:	d10d      	bne.n	8000956 <HAL_ADC_IRQHandler+0x17e>
    {
      /* Set ADC state */
      SET_BIT(hadc->State, HAL_ADC_STATE_AWD1);
 800093a:	687b      	ldr	r3, [r7, #4]
 800093c:	6a9b      	ldr	r3, [r3, #40]	; 0x28
 800093e:	f443 3280 	orr.w	r2, r3, #65536	; 0x10000
 8000942:	687b      	ldr	r3, [r7, #4]
 8000944:	629a      	str	r2, [r3, #40]	; 0x28
      
      /* Level out of window callback */ 
#if (USE_HAL_ADC_REGISTER_CALLBACKS == 1)
      hadc->LevelOutOfWindowCallback(hadc);
#else
      HAL_ADC_LevelOutOfWindowCallback(hadc);
 8000946:	6878      	ldr	r0, [r7, #4]
 8000948:	f000 f812 	bl	8000970 <HAL_ADC_LevelOutOfWindowCallback>
#endif /* USE_HAL_ADC_REGISTER_CALLBACKS */
      
      /* Clear the ADC analog watchdog flag */
      __HAL_ADC_CLEAR_FLAG(hadc, ADC_FLAG_AWD);
 800094c:	687b      	ldr	r3, [r7, #4]
 800094e:	681b      	ldr	r3, [r3, #0]
 8000950:	f06f 0201 	mvn.w	r2, #1
 8000954:	601a      	str	r2, [r3, #0]
    }
  }
  
}
 8000956:	bf00      	nop
 8000958:	3708      	adds	r7, #8
 800095a:	46bd      	mov	sp, r7
 800095c:	bd80      	pop	{r7, pc}

0800095e <HAL_ADC_ConvCpltCallback>:
  * @brief  Conversion complete callback in non blocking mode 
  * @param  hadc: ADC handle
  * @retval None
  */
__weak void HAL_ADC_ConvCpltCallback(ADC_HandleTypeDef* hadc)
{
 800095e:	b480      	push	{r7}
 8000960:	b083      	sub	sp, #12
 8000962:	af00      	add	r7, sp, #0
 8000964:	6078      	str	r0, [r7, #4]
  /* Prevent unused argument(s) compilation warning */
  UNUSED(hadc);
  /* NOTE : This function should not be modified. When the callback is needed,
            function HAL_ADC_ConvCpltCallback must be implemented in the user file.
   */
}
 8000966:	bf00      	nop
 8000968:	370c      	adds	r7, #12
 800096a:	46bd      	mov	sp, r7
 800096c:	bc80      	pop	{r7}
 800096e:	4770      	bx	lr

08000970 <HAL_ADC_LevelOutOfWindowCallback>:
  * @brief  Analog watchdog callback in non blocking mode. 
  * @param  hadc: ADC handle
  * @retval None
  */
__weak void HAL_ADC_LevelOutOfWindowCallback(ADC_HandleTypeDef* hadc)
{
 8000970:	b480      	push	{r7}
 8000972:	b083      	sub	sp, #12
 8000974:	af00      	add	r7, sp, #0
 8000976:	6078      	str	r0, [r7, #4]
  /* Prevent unused argument(s) compilation warning */
  UNUSED(hadc);
  /* NOTE : This function should not be modified. When the callback is needed,
            function HAL_ADC_LevelOutOfWindowCallback must be implemented in the user file.
  */
}
 8000978:	bf00      	nop
 800097a:	370c      	adds	r7, #12
 800097c:	46bd      	mov	sp, r7
 800097e:	bc80      	pop	{r7}
 8000980:	4770      	bx	lr
	...

08000984 <HAL_ADC_ConfigChannel>:
  * @param  hadc: ADC handle
  * @param  sConfig: Structure of ADC channel for regular group.
  * @retval HAL status
  */
HAL_StatusTypeDef HAL_ADC_ConfigChannel(ADC_HandleTypeDef* hadc, ADC_ChannelConfTypeDef* sConfig)
{ 
 8000984:	b480      	push	{r7}
 8000986:	b085      	sub	sp, #20
 8000988:	af00      	add	r7, sp, #0
 800098a:	6078      	str	r0, [r7, #4]
 800098c:	6039      	str	r1, [r7, #0]
  HAL_StatusTypeDef tmp_hal_status = HAL_OK;
 800098e:	2300      	movs	r3, #0
 8000990:	73fb      	strb	r3, [r7, #15]
  __IO uint32_t wait_loop_index = 0U;
 8000992:	2300      	movs	r3, #0
 8000994:	60bb      	str	r3, [r7, #8]
  assert_param(IS_ADC_CHANNEL(sConfig->Channel));
  assert_param(IS_ADC_REGULAR_RANK(sConfig->Rank));
  assert_param(IS_ADC_SAMPLE_TIME(sConfig->SamplingTime));
  
  /* Process locked */
  __HAL_LOCK(hadc);
 8000996:	687b      	ldr	r3, [r7, #4]
 8000998:	f893 3024 	ldrb.w	r3, [r3, #36]	; 0x24
 800099c:	2b01      	cmp	r3, #1
 800099e:	d101      	bne.n	80009a4 <HAL_ADC_ConfigChannel+0x20>
 80009a0:	2302      	movs	r3, #2
 80009a2:	e0dc      	b.n	8000b5e <HAL_ADC_ConfigChannel+0x1da>
 80009a4:	687b      	ldr	r3, [r7, #4]
 80009a6:	2201      	movs	r2, #1
 80009a8:	f883 2024 	strb.w	r2, [r3, #36]	; 0x24
  
  
  /* Regular sequence configuration */
  /* For Rank 1 to 6 */
  if (sConfig->Rank < 7U)
 80009ac:	683b      	ldr	r3, [r7, #0]
 80009ae:	685b      	ldr	r3, [r3, #4]
 80009b0:	2b06      	cmp	r3, #6
 80009b2:	d81c      	bhi.n	80009ee <HAL_ADC_ConfigChannel+0x6a>
  {
    MODIFY_REG(hadc->Instance->SQR3                        ,
 80009b4:	687b      	ldr	r3, [r7, #4]
 80009b6:	681b      	ldr	r3, [r3, #0]
 80009b8:	6b59      	ldr	r1, [r3, #52]	; 0x34
 80009ba:	683b      	ldr	r3, [r7, #0]
 80009bc:	685a      	ldr	r2, [r3, #4]
 80009be:	4613      	mov	r3, r2
 80009c0:	009b      	lsls	r3, r3, #2
 80009c2:	4413      	add	r3, r2
 80009c4:	3b05      	subs	r3, #5
 80009c6:	221f      	movs	r2, #31
 80009c8:	fa02 f303 	lsl.w	r3, r2, r3
 80009cc:	43db      	mvns	r3, r3
 80009ce:	4019      	ands	r1, r3
 80009d0:	683b      	ldr	r3, [r7, #0]
 80009d2:	6818      	ldr	r0, [r3, #0]
 80009d4:	683b      	ldr	r3, [r7, #0]
 80009d6:	685a      	ldr	r2, [r3, #4]
 80009d8:	4613      	mov	r3, r2
 80009da:	009b      	lsls	r3, r3, #2
 80009dc:	4413      	add	r3, r2
 80009de:	3b05      	subs	r3, #5
 80009e0:	fa00 f203 	lsl.w	r2, r0, r3
 80009e4:	687b      	ldr	r3, [r7, #4]
 80009e6:	681b      	ldr	r3, [r3, #0]
 80009e8:	430a      	orrs	r2, r1
 80009ea:	635a      	str	r2, [r3, #52]	; 0x34
 80009ec:	e03c      	b.n	8000a68 <HAL_ADC_ConfigChannel+0xe4>
               ADC_SQR3_RK(ADC_SQR3_SQ1, sConfig->Rank)    ,
               ADC_SQR3_RK(sConfig->Channel, sConfig->Rank) );
  }
  /* For Rank 7 to 12 */
  else if (sConfig->Rank < 13U)
 80009ee:	683b      	ldr	r3, [r7, #0]
 80009f0:	685b      	ldr	r3, [r3, #4]
 80009f2:	2b0c      	cmp	r3, #12
 80009f4:	d81c      	bhi.n	8000a30 <HAL_ADC_ConfigChannel+0xac>
  {
    MODIFY_REG(hadc->Instance->SQR2                        ,
 80009f6:	687b      	ldr	r3, [r7, #4]
 80009f8:	681b      	ldr	r3, [r3, #0]
 80009fa:	6b19      	ldr	r1, [r3, #48]	; 0x30
 80009fc:	683b      	ldr	r3, [r7, #0]
 80009fe:	685a      	ldr	r2, [r3, #4]
 8000a00:	4613      	mov	r3, r2
 8000a02:	009b      	lsls	r3, r3, #2
 8000a04:	4413      	add	r3, r2
 8000a06:	3b23      	subs	r3, #35	; 0x23
 8000a08:	221f      	movs	r2, #31
 8000a0a:	fa02 f303 	lsl.w	r3, r2, r3
 8000a0e:	43db      	mvns	r3, r3
 8000a10:	4019      	ands	r1, r3
 8000a12:	683b      	ldr	r3, [r7, #0]
 8000a14:	6818      	ldr	r0, [r3, #0]
 8000a16:	683b      	ldr	r3, [r7, #0]
 8000a18:	685a      	ldr	r2, [r3, #4]
 8000a1a:	4613      	mov	r3, r2
 8000a1c:	009b      	lsls	r3, r3, #2
 8000a1e:	4413      	add	r3, r2
 8000a20:	3b23      	subs	r3, #35	; 0x23
 8000a22:	fa00 f203 	lsl.w	r2, r0, r3
 8000a26:	687b      	ldr	r3, [r7, #4]
 8000a28:	681b      	ldr	r3, [r3, #0]
 8000a2a:	430a      	orrs	r2, r1
 8000a2c:	631a      	str	r2, [r3, #48]	; 0x30
 8000a2e:	e01b      	b.n	8000a68 <HAL_ADC_ConfigChannel+0xe4>
               ADC_SQR2_RK(sConfig->Channel, sConfig->Rank) );
  }
  /* For Rank 13 to 16 */
  else
  {
    MODIFY_REG(hadc->Instance->SQR1                        ,
 8000a30:	687b      	ldr	r3, [r7, #4]
 8000a32:	681b      	ldr	r3, [r3, #0]
 8000a34:	6ad9      	ldr	r1, [r3, #44]	; 0x2c
 8000a36:	683b      	ldr	r3, [r7, #0]
 8000a38:	685a      	ldr	r2, [r3, #4]
 8000a3a:	4613      	mov	r3, r2
 8000a3c:	009b      	lsls	r3, r3, #2
 8000a3e:	4413      	add	r3, r2
 8000a40:	3b41      	subs	r3, #65	; 0x41
 8000a42:	221f      	movs	r2, #31
 8000a44:	fa02 f303 	lsl.w	r3, r2, r3
 8000a48:	43db      	mvns	r3, r3
 8000a4a:	4019      	ands	r1, r3
 8000a4c:	683b      	ldr	r3, [r7, #0]
 8000a4e:	6818      	ldr	r0, [r3, #0]
 8000a50:	683b      	ldr	r3, [r7, #0]
 8000a52:	685a      	ldr	r2, [r3, #4]
 8000a54:	4613      	mov	r3, r2
 8000a56:	009b      	lsls	r3, r3, #2
 8000a58:	4413      	add	r3, r2
 8000a5a:	3b41      	subs	r3, #65	; 0x41
 8000a5c:	fa00 f203 	lsl.w	r2, r0, r3
 8000a60:	687b      	ldr	r3, [r7, #4]
 8000a62:	681b      	ldr	r3, [r3, #0]
 8000a64:	430a      	orrs	r2, r1
 8000a66:	62da      	str	r2, [r3, #44]	; 0x2c
  }
  
  
  /* Channel sampling time configuration */
  /* For channels 10 to 17 */
  if (sConfig->Channel >= ADC_CHANNEL_10)
 8000a68:	683b      	ldr	r3, [r7, #0]
 8000a6a:	681b      	ldr	r3, [r3, #0]
 8000a6c:	2b09      	cmp	r3, #9
 8000a6e:	d91c      	bls.n	8000aaa <HAL_ADC_ConfigChannel+0x126>
  {
    MODIFY_REG(hadc->Instance->SMPR1                             ,
 8000a70:	687b      	ldr	r3, [r7, #4]
 8000a72:	681b      	ldr	r3, [r3, #0]
 8000a74:	68d9      	ldr	r1, [r3, #12]
 8000a76:	683b      	ldr	r3, [r7, #0]
 8000a78:	681a      	ldr	r2, [r3, #0]
 8000a7a:	4613      	mov	r3, r2
 8000a7c:	005b      	lsls	r3, r3, #1
 8000a7e:	4413      	add	r3, r2
 8000a80:	3b1e      	subs	r3, #30
 8000a82:	2207      	movs	r2, #7
 8000a84:	fa02 f303 	lsl.w	r3, r2, r3
 8000a88:	43db      	mvns	r3, r3
 8000a8a:	4019      	ands	r1, r3
 8000a8c:	683b      	ldr	r3, [r7, #0]
 8000a8e:	6898      	ldr	r0, [r3, #8]
 8000a90:	683b      	ldr	r3, [r7, #0]
 8000a92:	681a      	ldr	r2, [r3, #0]
 8000a94:	4613      	mov	r3, r2
 8000a96:	005b      	lsls	r3, r3, #1
 8000a98:	4413      	add	r3, r2
 8000a9a:	3b1e      	subs	r3, #30
 8000a9c:	fa00 f203 	lsl.w	r2, r0, r3
 8000aa0:	687b      	ldr	r3, [r7, #4]
 8000aa2:	681b      	ldr	r3, [r3, #0]
 8000aa4:	430a      	orrs	r2, r1
 8000aa6:	60da      	str	r2, [r3, #12]
 8000aa8:	e019      	b.n	8000ade <HAL_ADC_ConfigChannel+0x15a>
               ADC_SMPR1(ADC_SMPR1_SMP10, sConfig->Channel)      ,
               ADC_SMPR1(sConfig->SamplingTime, sConfig->Channel) );
  }
  else /* For channels 0 to 9 */
  {
    MODIFY_REG(hadc->Instance->SMPR2                             ,
 8000aaa:	687b      	ldr	r3, [r7, #4]
 8000aac:	681b      	ldr	r3, [r3, #0]
 8000aae:	6919      	ldr	r1, [r3, #16]
 8000ab0:	683b      	ldr	r3, [r7, #0]
 8000ab2:	681a      	ldr	r2, [r3, #0]
 8000ab4:	4613      	mov	r3, r2
 8000ab6:	005b      	lsls	r3, r3, #1
 8000ab8:	4413      	add	r3, r2
 8000aba:	2207      	movs	r2, #7
 8000abc:	fa02 f303 	lsl.w	r3, r2, r3
 8000ac0:	43db      	mvns	r3, r3
 8000ac2:	4019      	ands	r1, r3
 8000ac4:	683b      	ldr	r3, [r7, #0]
 8000ac6:	6898      	ldr	r0, [r3, #8]
 8000ac8:	683b      	ldr	r3, [r7, #0]
 8000aca:	681a      	ldr	r2, [r3, #0]
 8000acc:	4613      	mov	r3, r2
 8000ace:	005b      	lsls	r3, r3, #1
 8000ad0:	4413      	add	r3, r2
 8000ad2:	fa00 f203 	lsl.w	r2, r0, r3
 8000ad6:	687b      	ldr	r3, [r7, #4]
 8000ad8:	681b      	ldr	r3, [r3, #0]
 8000ada:	430a      	orrs	r2, r1
 8000adc:	611a      	str	r2, [r3, #16]
               ADC_SMPR2(sConfig->SamplingTime, sConfig->Channel) );
  }
  
  /* If ADC1 Channel_16 or Channel_17 is selected, enable Temperature sensor  */
  /* and VREFINT measurement path.                                            */
  if ((sConfig->Channel == ADC_CHANNEL_TEMPSENSOR) ||
 8000ade:	683b      	ldr	r3, [r7, #0]
 8000ae0:	681b      	ldr	r3, [r3, #0]
 8000ae2:	2b10      	cmp	r3, #16
 8000ae4:	d003      	beq.n	8000aee <HAL_ADC_ConfigChannel+0x16a>
      (sConfig->Channel == ADC_CHANNEL_VREFINT)      )
 8000ae6:	683b      	ldr	r3, [r7, #0]
 8000ae8:	681b      	ldr	r3, [r3, #0]
  if ((sConfig->Channel == ADC_CHANNEL_TEMPSENSOR) ||
 8000aea:	2b11      	cmp	r3, #17
 8000aec:	d132      	bne.n	8000b54 <HAL_ADC_ConfigChannel+0x1d0>
  {
    /* For STM32F1 devices with several ADC: Only ADC1 can access internal    */
    /* measurement channels (VrefInt/TempSensor). If these channels are       */
    /* intended to be set on other ADC instances, an error is reported.       */
    if (hadc->Instance == ADC1)
 8000aee:	687b      	ldr	r3, [r7, #4]
 8000af0:	681b      	ldr	r3, [r3, #0]
 8000af2:	4a1d      	ldr	r2, [pc, #116]	; (8000b68 <HAL_ADC_ConfigChannel+0x1e4>)
 8000af4:	4293      	cmp	r3, r2
 8000af6:	d125      	bne.n	8000b44 <HAL_ADC_ConfigChannel+0x1c0>
    {
      if (READ_BIT(hadc->Instance->CR2, ADC_CR2_TSVREFE) == RESET)
 8000af8:	687b      	ldr	r3, [r7, #4]
 8000afa:	681b      	ldr	r3, [r3, #0]
 8000afc:	689b      	ldr	r3, [r3, #8]
 8000afe:	f403 0300 	and.w	r3, r3, #8388608	; 0x800000
 8000b02:	2b00      	cmp	r3, #0
 8000b04:	d126      	bne.n	8000b54 <HAL_ADC_ConfigChannel+0x1d0>
      {
        SET_BIT(hadc->Instance->CR2, ADC_CR2_TSVREFE);
 8000b06:	687b      	ldr	r3, [r7, #4]
 8000b08:	681b      	ldr	r3, [r3, #0]
 8000b0a:	689a      	ldr	r2, [r3, #8]
 8000b0c:	687b      	ldr	r3, [r7, #4]
 8000b0e:	681b      	ldr	r3, [r3, #0]
 8000b10:	f442 0200 	orr.w	r2, r2, #8388608	; 0x800000
 8000b14:	609a      	str	r2, [r3, #8]
        
        if (sConfig->Channel == ADC_CHANNEL_TEMPSENSOR)
 8000b16:	683b      	ldr	r3, [r7, #0]
 8000b18:	681b      	ldr	r3, [r3, #0]
 8000b1a:	2b10      	cmp	r3, #16
 8000b1c:	d11a      	bne.n	8000b54 <HAL_ADC_ConfigChannel+0x1d0>
        {
          /* Delay for temperature sensor stabilization time */
          /* Compute number of CPU cycles to wait for */
          wait_loop_index = (ADC_TEMPSENSOR_DELAY_US * (SystemCoreClock / 1000000U));
 8000b1e:	4b13      	ldr	r3, [pc, #76]	; (8000b6c <HAL_ADC_ConfigChannel+0x1e8>)
 8000b20:	681b      	ldr	r3, [r3, #0]
 8000b22:	4a13      	ldr	r2, [pc, #76]	; (8000b70 <HAL_ADC_ConfigChannel+0x1ec>)
 8000b24:	fba2 2303 	umull	r2, r3, r2, r3
 8000b28:	0c9a      	lsrs	r2, r3, #18
 8000b2a:	4613      	mov	r3, r2
 8000b2c:	009b      	lsls	r3, r3, #2
 8000b2e:	4413      	add	r3, r2
 8000b30:	005b      	lsls	r3, r3, #1
 8000b32:	60bb      	str	r3, [r7, #8]
          while(wait_loop_index != 0U)
 8000b34:	e002      	b.n	8000b3c <HAL_ADC_ConfigChannel+0x1b8>
          {
            wait_loop_index--;
 8000b36:	68bb      	ldr	r3, [r7, #8]
 8000b38:	3b01      	subs	r3, #1
 8000b3a:	60bb      	str	r3, [r7, #8]
          while(wait_loop_index != 0U)
 8000b3c:	68bb      	ldr	r3, [r7, #8]
 8000b3e:	2b00      	cmp	r3, #0
 8000b40:	d1f9      	bne.n	8000b36 <HAL_ADC_ConfigChannel+0x1b2>
 8000b42:	e007      	b.n	8000b54 <HAL_ADC_ConfigChannel+0x1d0>
      }
    }
    else
    {
      /* Update ADC state machine to error */
      SET_BIT(hadc->State, HAL_ADC_STATE_ERROR_CONFIG);
 8000b44:	687b      	ldr	r3, [r7, #4]
 8000b46:	6a9b      	ldr	r3, [r3, #40]	; 0x28
 8000b48:	f043 0220 	orr.w	r2, r3, #32
 8000b4c:	687b      	ldr	r3, [r7, #4]
 8000b4e:	629a      	str	r2, [r3, #40]	; 0x28
      
      tmp_hal_status = HAL_ERROR;
 8000b50:	2301      	movs	r3, #1
 8000b52:	73fb      	strb	r3, [r7, #15]
    }
  }
  
  /* Process unlocked */
  __HAL_UNLOCK(hadc);
 8000b54:	687b      	ldr	r3, [r7, #4]
 8000b56:	2200      	movs	r2, #0
 8000b58:	f883 2024 	strb.w	r2, [r3, #36]	; 0x24
  
  /* Return function status */
  return tmp_hal_status;
 8000b5c:	7bfb      	ldrb	r3, [r7, #15]
}
 8000b5e:	4618      	mov	r0, r3
 8000b60:	3714      	adds	r7, #20
 8000b62:	46bd      	mov	sp, r7
 8000b64:	bc80      	pop	{r7}
 8000b66:	4770      	bx	lr
 8000b68:	40012400 	.word	0x40012400
 8000b6c:	20000000 	.word	0x20000000
 8000b70:	431bde83 	.word	0x431bde83

08000b74 <ADC_ConversionStop_Disable>:
  *         stopped to disable the ADC.
  * @param  hadc: ADC handle
  * @retval HAL status.
  */
HAL_StatusTypeDef ADC_ConversionStop_Disable(ADC_HandleTypeDef* hadc)
{
 8000b74:	b580      	push	{r7, lr}
 8000b76:	b084      	sub	sp, #16
 8000b78:	af00      	add	r7, sp, #0
 8000b7a:	6078      	str	r0, [r7, #4]
  uint32_t tickstart = 0U;
 8000b7c:	2300      	movs	r3, #0
 8000b7e:	60fb      	str	r3, [r7, #12]
  
  /* Verification if ADC is not already disabled */
  if (ADC_IS_ENABLE(hadc) != RESET)
 8000b80:	687b      	ldr	r3, [r7, #4]
 8000b82:	681b      	ldr	r3, [r3, #0]
 8000b84:	689b      	ldr	r3, [r3, #8]
 8000b86:	f003 0301 	and.w	r3, r3, #1
 8000b8a:	2b01      	cmp	r3, #1
 8000b8c:	d12e      	bne.n	8000bec <ADC_ConversionStop_Disable+0x78>
  {
    /* Disable the ADC peripheral */
    __HAL_ADC_DISABLE(hadc);
 8000b8e:	687b      	ldr	r3, [r7, #4]
 8000b90:	681b      	ldr	r3, [r3, #0]
 8000b92:	689a      	ldr	r2, [r3, #8]
 8000b94:	687b      	ldr	r3, [r7, #4]
 8000b96:	681b      	ldr	r3, [r3, #0]
 8000b98:	f022 0201 	bic.w	r2, r2, #1
 8000b9c:	609a      	str	r2, [r3, #8]
     
    /* Get tick count */
    tickstart = HAL_GetTick();
 8000b9e:	f7ff fd39 	bl	8000614 <HAL_GetTick>
 8000ba2:	60f8      	str	r0, [r7, #12]
    
    /* Wait for ADC effectively disabled */
    while(ADC_IS_ENABLE(hadc) != RESET)
 8000ba4:	e01b      	b.n	8000bde <ADC_ConversionStop_Disable+0x6a>
    {
      if((HAL_GetTick() - tickstart) > ADC_DISABLE_TIMEOUT)
 8000ba6:	f7ff fd35 	bl	8000614 <HAL_GetTick>
 8000baa:	4602      	mov	r2, r0
 8000bac:	68fb      	ldr	r3, [r7, #12]
 8000bae:	1ad3      	subs	r3, r2, r3
 8000bb0:	2b02      	cmp	r3, #2
 8000bb2:	d914      	bls.n	8000bde <ADC_ConversionStop_Disable+0x6a>
      {
        /* New check to avoid false timeout detection in case of preemption */
        if(ADC_IS_ENABLE(hadc) != RESET)
 8000bb4:	687b      	ldr	r3, [r7, #4]
 8000bb6:	681b      	ldr	r3, [r3, #0]
 8000bb8:	689b      	ldr	r3, [r3, #8]
 8000bba:	f003 0301 	and.w	r3, r3, #1
 8000bbe:	2b01      	cmp	r3, #1
 8000bc0:	d10d      	bne.n	8000bde <ADC_ConversionStop_Disable+0x6a>
        {
          /* Update ADC state machine to error */
          SET_BIT(hadc->State, HAL_ADC_STATE_ERROR_INTERNAL);
 8000bc2:	687b      	ldr	r3, [r7, #4]
 8000bc4:	6a9b      	ldr	r3, [r3, #40]	; 0x28
 8000bc6:	f043 0210 	orr.w	r2, r3, #16
 8000bca:	687b      	ldr	r3, [r7, #4]
 8000bcc:	629a      	str	r2, [r3, #40]	; 0x28

          /* Set ADC error code to ADC IP internal error */
          SET_BIT(hadc->ErrorCode, HAL_ADC_ERROR_INTERNAL);
 8000bce:	687b      	ldr	r3, [r7, #4]
 8000bd0:	6adb      	ldr	r3, [r3, #44]	; 0x2c
 8000bd2:	f043 0201 	orr.w	r2, r3, #1
 8000bd6:	687b      	ldr	r3, [r7, #4]
 8000bd8:	62da      	str	r2, [r3, #44]	; 0x2c

          return HAL_ERROR;
 8000bda:	2301      	movs	r3, #1
 8000bdc:	e007      	b.n	8000bee <ADC_ConversionStop_Disable+0x7a>
    while(ADC_IS_ENABLE(hadc) != RESET)
 8000bde:	687b      	ldr	r3, [r7, #4]
 8000be0:	681b      	ldr	r3, [r3, #0]
 8000be2:	689b      	ldr	r3, [r3, #8]
 8000be4:	f003 0301 	and.w	r3, r3, #1
 8000be8:	2b01      	cmp	r3, #1
 8000bea:	d0dc      	beq.n	8000ba6 <ADC_ConversionStop_Disable+0x32>
      }
    }
  }
  
  /* Return HAL status */
  return HAL_OK;
 8000bec:	2300      	movs	r3, #0
}
 8000bee:	4618      	mov	r0, r3
 8000bf0:	3710      	adds	r7, #16
 8000bf2:	46bd      	mov	sp, r7
 8000bf4:	bd80      	pop	{r7, pc}

08000bf6 <HAL_ADCEx_InjectedConvCpltCallback>:
  * @brief  Injected conversion complete callback in non blocking mode 
  * @param  hadc: ADC handle
  * @retval None
  */
__weak void HAL_ADCEx_InjectedConvCpltCallback(ADC_HandleTypeDef* hadc)
{
 8000bf6:	b480      	push	{r7}
 8000bf8:	b083      	sub	sp, #12
 8000bfa:	af00      	add	r7, sp, #0
 8000bfc:	6078      	str	r0, [r7, #4]
  /* Prevent unused argument(s) compilation warning */
  UNUSED(hadc);
  /* NOTE : This function Should not be modified, when the callback is needed,
            the HAL_ADCEx_InjectedConvCpltCallback could be implemented in the user file
  */
}
 8000bfe:	bf00      	nop
 8000c00:	370c      	adds	r7, #12
 8000c02:	46bd      	mov	sp, r7
 8000c04:	bc80      	pop	{r7}
 8000c06:	4770      	bx	lr

08000c08 <__NVIC_SetPriorityGrouping>:
           In case of a conflict between priority grouping and available
           priority bits (__NVIC_PRIO_BITS), the smallest possible priority group is set.
  \param [in]      PriorityGroup  Priority grouping field.
 */
__STATIC_INLINE void __NVIC_SetPriorityGrouping(uint32_t PriorityGroup)
{
 8000c08:	b480      	push	{r7}
 8000c0a:	b085      	sub	sp, #20
 8000c0c:	af00      	add	r7, sp, #0
 8000c0e:	6078      	str	r0, [r7, #4]
  uint32_t reg_value;
  uint32_t PriorityGroupTmp = (PriorityGroup & (uint32_t)0x07UL);             /* only values 0..7 are used          */
 8000c10:	687b      	ldr	r3, [r7, #4]
 8000c12:	f003 0307 	and.w	r3, r3, #7
 8000c16:	60fb      	str	r3, [r7, #12]

  reg_value  =  SCB->AIRCR;                                                   /* read old register configuration    */
 8000c18:	4b0c      	ldr	r3, [pc, #48]	; (8000c4c <__NVIC_SetPriorityGrouping+0x44>)
 8000c1a:	68db      	ldr	r3, [r3, #12]
 8000c1c:	60bb      	str	r3, [r7, #8]
  reg_value &= ~((uint32_t)(SCB_AIRCR_VECTKEY_Msk | SCB_AIRCR_PRIGROUP_Msk)); /* clear bits to change               */
 8000c1e:	68ba      	ldr	r2, [r7, #8]
 8000c20:	f64f 03ff 	movw	r3, #63743	; 0xf8ff
 8000c24:	4013      	ands	r3, r2
 8000c26:	60bb      	str	r3, [r7, #8]
  reg_value  =  (reg_value                                   |
                ((uint32_t)0x5FAUL << SCB_AIRCR_VECTKEY_Pos) |
                (PriorityGroupTmp << SCB_AIRCR_PRIGROUP_Pos) );               /* Insert write key and priority group */
 8000c28:	68fb      	ldr	r3, [r7, #12]
 8000c2a:	021a      	lsls	r2, r3, #8
                ((uint32_t)0x5FAUL << SCB_AIRCR_VECTKEY_Pos) |
 8000c2c:	68bb      	ldr	r3, [r7, #8]
 8000c2e:	4313      	orrs	r3, r2
  reg_value  =  (reg_value                                   |
 8000c30:	f043 63bf 	orr.w	r3, r3, #100139008	; 0x5f80000
 8000c34:	f443 3300 	orr.w	r3, r3, #131072	; 0x20000
 8000c38:	60bb      	str	r3, [r7, #8]
  SCB->AIRCR =  reg_value;
 8000c3a:	4a04      	ldr	r2, [pc, #16]	; (8000c4c <__NVIC_SetPriorityGrouping+0x44>)
 8000c3c:	68bb      	ldr	r3, [r7, #8]
 8000c3e:	60d3      	str	r3, [r2, #12]
}
 8000c40:	bf00      	nop
 8000c42:	3714      	adds	r7, #20
 8000c44:	46bd      	mov	sp, r7
 8000c46:	bc80      	pop	{r7}
 8000c48:	4770      	bx	lr
 8000c4a:	bf00      	nop
 8000c4c:	e000ed00 	.word	0xe000ed00

08000c50 <__NVIC_GetPriorityGrouping>:
  \brief   Get Priority Grouping
  \details Reads the priority grouping field from the NVIC Interrupt Controller.
  \return                Priority grouping field (SCB->AIRCR [10:8] PRIGROUP field).
 */
__STATIC_INLINE uint32_t __NVIC_GetPriorityGrouping(void)
{
 8000c50:	b480      	push	{r7}
 8000c52:	af00      	add	r7, sp, #0
  return ((uint32_t)((SCB->AIRCR & SCB_AIRCR_PRIGROUP_Msk) >> SCB_AIRCR_PRIGROUP_Pos));
 8000c54:	4b04      	ldr	r3, [pc, #16]	; (8000c68 <__NVIC_GetPriorityGrouping+0x18>)
 8000c56:	68db      	ldr	r3, [r3, #12]
 8000c58:	0a1b      	lsrs	r3, r3, #8
 8000c5a:	f003 0307 	and.w	r3, r3, #7
}
 8000c5e:	4618      	mov	r0, r3
 8000c60:	46bd      	mov	sp, r7
 8000c62:	bc80      	pop	{r7}
 8000c64:	4770      	bx	lr
 8000c66:	bf00      	nop
 8000c68:	e000ed00 	.word	0xe000ed00

08000c6c <__NVIC_EnableIRQ>:
  \details Enables a device specific interrupt in the NVIC interrupt controller.
  \param [in]      IRQn  Device specific interrupt number.
  \note    IRQn must not be negative.
 */
__STATIC_INLINE void __NVIC_EnableIRQ(IRQn_Type IRQn)
{
 8000c6c:	b480      	push	{r7}
 8000c6e:	b083      	sub	sp, #12
 8000c70:	af00      	add	r7, sp, #0
 8000c72:	4603      	mov	r3, r0
 8000c74:	71fb      	strb	r3, [r7, #7]
  if ((int32_t)(IRQn) >= 0)
 8000c76:	f997 3007 	ldrsb.w	r3, [r7, #7]
 8000c7a:	2b00      	cmp	r3, #0
 8000c7c:	db0b      	blt.n	8000c96 <__NVIC_EnableIRQ+0x2a>
  {
    NVIC->ISER[(((uint32_t)IRQn) >> 5UL)] = (uint32_t)(1UL << (((uint32_t)IRQn) & 0x1FUL));
 8000c7e:	79fb      	ldrb	r3, [r7, #7]
 8000c80:	f003 021f 	and.w	r2, r3, #31
 8000c84:	4906      	ldr	r1, [pc, #24]	; (8000ca0 <__NVIC_EnableIRQ+0x34>)
 8000c86:	f997 3007 	ldrsb.w	r3, [r7, #7]
 8000c8a:	095b      	lsrs	r3, r3, #5
 8000c8c:	2001      	movs	r0, #1
 8000c8e:	fa00 f202 	lsl.w	r2, r0, r2
 8000c92:	f841 2023 	str.w	r2, [r1, r3, lsl #2]
  }
}
 8000c96:	bf00      	nop
 8000c98:	370c      	adds	r7, #12
 8000c9a:	46bd      	mov	sp, r7
 8000c9c:	bc80      	pop	{r7}
 8000c9e:	4770      	bx	lr
 8000ca0:	e000e100 	.word	0xe000e100

08000ca4 <__NVIC_SetPriority>:
  \param [in]      IRQn  Interrupt number.
  \param [in]  priority  Priority to set.
  \note    The priority cannot be set for every processor exception.
 */
__STATIC_INLINE void __NVIC_SetPriority(IRQn_Type IRQn, uint32_t priority)
{
 8000ca4:	b480      	push	{r7}
 8000ca6:	b083      	sub	sp, #12
 8000ca8:	af00      	add	r7, sp, #0
 8000caa:	4603      	mov	r3, r0
 8000cac:	6039      	str	r1, [r7, #0]
 8000cae:	71fb      	strb	r3, [r7, #7]
  if ((int32_t)(IRQn) >= 0)
 8000cb0:	f997 3007 	ldrsb.w	r3, [r7, #7]
 8000cb4:	2b00      	cmp	r3, #0
 8000cb6:	db0a      	blt.n	8000cce <__NVIC_SetPriority+0x2a>
  {
    NVIC->IP[((uint32_t)IRQn)]               = (uint8_t)((priority << (8U - __NVIC_PRIO_BITS)) & (uint32_t)0xFFUL);
 8000cb8:	683b      	ldr	r3, [r7, #0]
 8000cba:	b2da      	uxtb	r2, r3
 8000cbc:	490c      	ldr	r1, [pc, #48]	; (8000cf0 <__NVIC_SetPriority+0x4c>)
 8000cbe:	f997 3007 	ldrsb.w	r3, [r7, #7]
 8000cc2:	0112      	lsls	r2, r2, #4
 8000cc4:	b2d2      	uxtb	r2, r2
 8000cc6:	440b      	add	r3, r1
 8000cc8:	f883 2300 	strb.w	r2, [r3, #768]	; 0x300
  }
  else
  {
    SCB->SHP[(((uint32_t)IRQn) & 0xFUL)-4UL] = (uint8_t)((priority << (8U - __NVIC_PRIO_BITS)) & (uint32_t)0xFFUL);
  }
}
 8000ccc:	e00a      	b.n	8000ce4 <__NVIC_SetPriority+0x40>
    SCB->SHP[(((uint32_t)IRQn) & 0xFUL)-4UL] = (uint8_t)((priority << (8U - __NVIC_PRIO_BITS)) & (uint32_t)0xFFUL);
 8000cce:	683b      	ldr	r3, [r7, #0]
 8000cd0:	b2da      	uxtb	r2, r3
 8000cd2:	4908      	ldr	r1, [pc, #32]	; (8000cf4 <__NVIC_SetPriority+0x50>)
 8000cd4:	79fb      	ldrb	r3, [r7, #7]
 8000cd6:	f003 030f 	and.w	r3, r3, #15
 8000cda:	3b04      	subs	r3, #4
 8000cdc:	0112      	lsls	r2, r2, #4
 8000cde:	b2d2      	uxtb	r2, r2
 8000ce0:	440b      	add	r3, r1
 8000ce2:	761a      	strb	r2, [r3, #24]
}
 8000ce4:	bf00      	nop
 8000ce6:	370c      	adds	r7, #12
 8000ce8:	46bd      	mov	sp, r7
 8000cea:	bc80      	pop	{r7}
 8000cec:	4770      	bx	lr
 8000cee:	bf00      	nop
 8000cf0:	e000e100 	.word	0xe000e100
 8000cf4:	e000ed00 	.word	0xe000ed00

08000cf8 <NVIC_EncodePriority>:
  \param [in]   PreemptPriority  Preemptive priority value (starting from 0).
  \param [in]       SubPriority  Subpriority value (starting from 0).
  \return                        Encoded priority. Value can be used in the function \ref NVIC_SetPriority().
 */
__STATIC_INLINE uint32_t NVIC_EncodePriority (uint32_t PriorityGroup, uint32_t PreemptPriority, uint32_t SubPriority)
{
 8000cf8:	b480      	push	{r7}
 8000cfa:	b089      	sub	sp, #36	; 0x24
 8000cfc:	af00      	add	r7, sp, #0
 8000cfe:	60f8      	str	r0, [r7, #12]
 8000d00:	60b9      	str	r1, [r7, #8]
 8000d02:	607a      	str	r2, [r7, #4]
  uint32_t PriorityGroupTmp = (PriorityGroup & (uint32_t)0x07UL);   /* only values 0..7 are used          */
 8000d04:	68fb      	ldr	r3, [r7, #12]
 8000d06:	f003 0307 	and.w	r3, r3, #7
 8000d0a:	61fb      	str	r3, [r7, #28]
  uint32_t PreemptPriorityBits;
  uint32_t SubPriorityBits;

  PreemptPriorityBits = ((7UL - PriorityGroupTmp) > (uint32_t)(__NVIC_PRIO_BITS)) ? (uint32_t)(__NVIC_PRIO_BITS) : (uint32_t)(7UL - PriorityGroupTmp);
 8000d0c:	69fb      	ldr	r3, [r7, #28]
 8000d0e:	f1c3 0307 	rsb	r3, r3, #7
 8000d12:	2b04      	cmp	r3, #4
 8000d14:	bf28      	it	cs
 8000d16:	2304      	movcs	r3, #4
 8000d18:	61bb      	str	r3, [r7, #24]
  SubPriorityBits     = ((PriorityGroupTmp + (uint32_t)(__NVIC_PRIO_BITS)) < (uint32_t)7UL) ? (uint32_t)0UL : (uint32_t)((PriorityGroupTmp - 7UL) + (uint32_t)(__NVIC_PRIO_BITS));
 8000d1a:	69fb      	ldr	r3, [r7, #28]
 8000d1c:	3304      	adds	r3, #4
 8000d1e:	2b06      	cmp	r3, #6
 8000d20:	d902      	bls.n	8000d28 <NVIC_EncodePriority+0x30>
 8000d22:	69fb      	ldr	r3, [r7, #28]
 8000d24:	3b03      	subs	r3, #3
 8000d26:	e000      	b.n	8000d2a <NVIC_EncodePriority+0x32>
 8000d28:	2300      	movs	r3, #0
 8000d2a:	617b      	str	r3, [r7, #20]

  return (
           ((PreemptPriority & (uint32_t)((1UL << (PreemptPriorityBits)) - 1UL)) << SubPriorityBits) |
 8000d2c:	f04f 32ff 	mov.w	r2, #4294967295	; 0xffffffff
 8000d30:	69bb      	ldr	r3, [r7, #24]
 8000d32:	fa02 f303 	lsl.w	r3, r2, r3
 8000d36:	43da      	mvns	r2, r3
 8000d38:	68bb      	ldr	r3, [r7, #8]
 8000d3a:	401a      	ands	r2, r3
 8000d3c:	697b      	ldr	r3, [r7, #20]
 8000d3e:	409a      	lsls	r2, r3
           ((SubPriority     & (uint32_t)((1UL << (SubPriorityBits    )) - 1UL)))
 8000d40:	f04f 31ff 	mov.w	r1, #4294967295	; 0xffffffff
 8000d44:	697b      	ldr	r3, [r7, #20]
 8000d46:	fa01 f303 	lsl.w	r3, r1, r3
 8000d4a:	43d9      	mvns	r1, r3
 8000d4c:	687b      	ldr	r3, [r7, #4]
 8000d4e:	400b      	ands	r3, r1
           ((PreemptPriority & (uint32_t)((1UL << (PreemptPriorityBits)) - 1UL)) << SubPriorityBits) |
 8000d50:	4313      	orrs	r3, r2
         );
}
 8000d52:	4618      	mov	r0, r3
 8000d54:	3724      	adds	r7, #36	; 0x24
 8000d56:	46bd      	mov	sp, r7
 8000d58:	bc80      	pop	{r7}
 8000d5a:	4770      	bx	lr

08000d5c <SysTick_Config>:
  \note    When the variable <b>__Vendor_SysTickConfig</b> is set to 1, then the
           function <b>SysTick_Config</b> is not included. In this case, the file <b><i>device</i>.h</b>
           must contain a vendor-specific implementation of this function.
 */
__STATIC_INLINE uint32_t SysTick_Config(uint32_t ticks)
{
 8000d5c:	b580      	push	{r7, lr}
 8000d5e:	b082      	sub	sp, #8
 8000d60:	af00      	add	r7, sp, #0
 8000d62:	6078      	str	r0, [r7, #4]
  if ((ticks - 1UL) > SysTick_LOAD_RELOAD_Msk)
 8000d64:	687b      	ldr	r3, [r7, #4]
 8000d66:	3b01      	subs	r3, #1
 8000d68:	f1b3 7f80 	cmp.w	r3, #16777216	; 0x1000000
 8000d6c:	d301      	bcc.n	8000d72 <SysTick_Config+0x16>
  {
    return (1UL);                                                   /* Reload value impossible */
 8000d6e:	2301      	movs	r3, #1
 8000d70:	e00f      	b.n	8000d92 <SysTick_Config+0x36>
  }

  SysTick->LOAD  = (uint32_t)(ticks - 1UL);                         /* set reload register */
 8000d72:	4a0a      	ldr	r2, [pc, #40]	; (8000d9c <SysTick_Config+0x40>)
 8000d74:	687b      	ldr	r3, [r7, #4]
 8000d76:	3b01      	subs	r3, #1
 8000d78:	6053      	str	r3, [r2, #4]
  NVIC_SetPriority (SysTick_IRQn, (1UL << __NVIC_PRIO_BITS) - 1UL); /* set Priority for Systick Interrupt */
 8000d7a:	210f      	movs	r1, #15
 8000d7c:	f04f 30ff 	mov.w	r0, #4294967295	; 0xffffffff
 8000d80:	f7ff ff90 	bl	8000ca4 <__NVIC_SetPriority>
  SysTick->VAL   = 0UL;                                             /* Load the SysTick Counter Value */
 8000d84:	4b05      	ldr	r3, [pc, #20]	; (8000d9c <SysTick_Config+0x40>)
 8000d86:	2200      	movs	r2, #0
 8000d88:	609a      	str	r2, [r3, #8]
  SysTick->CTRL  = SysTick_CTRL_CLKSOURCE_Msk |
 8000d8a:	4b04      	ldr	r3, [pc, #16]	; (8000d9c <SysTick_Config+0x40>)
 8000d8c:	2207      	movs	r2, #7
 8000d8e:	601a      	str	r2, [r3, #0]
                   SysTick_CTRL_TICKINT_Msk   |
                   SysTick_CTRL_ENABLE_Msk;                         /* Enable SysTick IRQ and SysTick Timer */
  return (0UL);                                                     /* Function successful */
 8000d90:	2300      	movs	r3, #0
}
 8000d92:	4618      	mov	r0, r3
 8000d94:	3708      	adds	r7, #8
 8000d96:	46bd      	mov	sp, r7
 8000d98:	bd80      	pop	{r7, pc}
 8000d9a:	bf00      	nop
 8000d9c:	e000e010 	.word	0xe000e010

08000da0 <HAL_NVIC_SetPriorityGrouping>:
  * @note   When the NVIC_PriorityGroup_0 is selected, IRQ preemption is no more possible. 
  *         The pending IRQ priority will be managed only by the subpriority. 
  * @retval None
  */
void HAL_NVIC_SetPriorityGrouping(uint32_t PriorityGroup)
{
 8000da0:	b580      	push	{r7, lr}
 8000da2:	b082      	sub	sp, #8
 8000da4:	af00      	add	r7, sp, #0
 8000da6:	6078      	str	r0, [r7, #4]
  /* Check the parameters */
  assert_param(IS_NVIC_PRIORITY_GROUP(PriorityGroup));
  
  /* Set the PRIGROUP[10:8] bits according to the PriorityGroup parameter value */
  NVIC_SetPriorityGrouping(PriorityGroup);
 8000da8:	6878      	ldr	r0, [r7, #4]
 8000daa:	f7ff ff2d 	bl	8000c08 <__NVIC_SetPriorityGrouping>
}
 8000dae:	bf00      	nop
 8000db0:	3708      	adds	r7, #8
 8000db2:	46bd      	mov	sp, r7
 8000db4:	bd80      	pop	{r7, pc}

08000db6 <HAL_NVIC_SetPriority>:
  *         This parameter can be a value between 0 and 15
  *         A lower priority value indicates a higher priority.          
  * @retval None
  */
void HAL_NVIC_SetPriority(IRQn_Type IRQn, uint32_t PreemptPriority, uint32_t SubPriority)
{ 
 8000db6:	b580      	push	{r7, lr}
 8000db8:	b086      	sub	sp, #24
 8000dba:	af00      	add	r7, sp, #0
 8000dbc:	4603      	mov	r3, r0
 8000dbe:	60b9      	str	r1, [r7, #8]
 8000dc0:	607a      	str	r2, [r7, #4]
 8000dc2:	73fb      	strb	r3, [r7, #15]
  uint32_t prioritygroup = 0x00U;
 8000dc4:	2300      	movs	r3, #0
 8000dc6:	617b      	str	r3, [r7, #20]
  
  /* Check the parameters */
  assert_param(IS_NVIC_SUB_PRIORITY(SubPriority));
  assert_param(IS_NVIC_PREEMPTION_PRIORITY(PreemptPriority));
  
  prioritygroup = NVIC_GetPriorityGrouping();
 8000dc8:	f7ff ff42 	bl	8000c50 <__NVIC_GetPriorityGrouping>
 8000dcc:	6178      	str	r0, [r7, #20]
  
  NVIC_SetPriority(IRQn, NVIC_EncodePriority(prioritygroup, PreemptPriority, SubPriority));
 8000dce:	687a      	ldr	r2, [r7, #4]
 8000dd0:	68b9      	ldr	r1, [r7, #8]
 8000dd2:	6978      	ldr	r0, [r7, #20]
 8000dd4:	f7ff ff90 	bl	8000cf8 <NVIC_EncodePriority>
 8000dd8:	4602      	mov	r2, r0
 8000dda:	f997 300f 	ldrsb.w	r3, [r7, #15]
 8000dde:	4611      	mov	r1, r2
 8000de0:	4618      	mov	r0, r3
 8000de2:	f7ff ff5f 	bl	8000ca4 <__NVIC_SetPriority>
}
 8000de6:	bf00      	nop
 8000de8:	3718      	adds	r7, #24
 8000dea:	46bd      	mov	sp, r7
 8000dec:	bd80      	pop	{r7, pc}

08000dee <HAL_NVIC_EnableIRQ>:
  *         This parameter can be an enumerator of IRQn_Type enumeration
  *         (For the complete STM32 Devices IRQ Channels list, please refer to the appropriate CMSIS device file (stm32f10xxx.h))
  * @retval None
  */
void HAL_NVIC_EnableIRQ(IRQn_Type IRQn)
{
 8000dee:	b580      	push	{r7, lr}
 8000df0:	b082      	sub	sp, #8
 8000df2:	af00      	add	r7, sp, #0
 8000df4:	4603      	mov	r3, r0
 8000df6:	71fb      	strb	r3, [r7, #7]
  /* Check the parameters */
  assert_param(IS_NVIC_DEVICE_IRQ(IRQn));

  /* Enable interrupt */
  NVIC_EnableIRQ(IRQn);
 8000df8:	f997 3007 	ldrsb.w	r3, [r7, #7]
 8000dfc:	4618      	mov	r0, r3
 8000dfe:	f7ff ff35 	bl	8000c6c <__NVIC_EnableIRQ>
}
 8000e02:	bf00      	nop
 8000e04:	3708      	adds	r7, #8
 8000e06:	46bd      	mov	sp, r7
 8000e08:	bd80      	pop	{r7, pc}

08000e0a <HAL_SYSTICK_Config>:
  * @param  TicksNumb: Specifies the ticks Number of ticks between two interrupts.
  * @retval status:  - 0  Function succeeded.
  *                  - 1  Function failed.
  */
uint32_t HAL_SYSTICK_Config(uint32_t TicksNumb)
{
 8000e0a:	b580      	push	{r7, lr}
 8000e0c:	b082      	sub	sp, #8
 8000e0e:	af00      	add	r7, sp, #0
 8000e10:	6078      	str	r0, [r7, #4]
   return SysTick_Config(TicksNumb);
 8000e12:	6878      	ldr	r0, [r7, #4]
 8000e14:	f7ff ffa2 	bl	8000d5c <SysTick_Config>
 8000e18:	4603      	mov	r3, r0
}
 8000e1a:	4618      	mov	r0, r3
 8000e1c:	3708      	adds	r7, #8
 8000e1e:	46bd      	mov	sp, r7
 8000e20:	bd80      	pop	{r7, pc}
	...

08000e24 <HAL_GPIO_Init>:
  * @param  GPIO_Init: pointer to a GPIO_InitTypeDef structure that contains
  *         the configuration information for the specified GPIO peripheral.
  * @retval None
  */
void HAL_GPIO_Init(GPIO_TypeDef  *GPIOx, GPIO_InitTypeDef *GPIO_Init)
{
 8000e24:	b480      	push	{r7}
 8000e26:	b08b      	sub	sp, #44	; 0x2c
 8000e28:	af00      	add	r7, sp, #0
 8000e2a:	6078      	str	r0, [r7, #4]
 8000e2c:	6039      	str	r1, [r7, #0]
  uint32_t position = 0x00u;
 8000e2e:	2300      	movs	r3, #0
 8000e30:	627b      	str	r3, [r7, #36]	; 0x24
  uint32_t ioposition;
  uint32_t iocurrent;
  uint32_t temp;
  uint32_t config = 0x00u;
 8000e32:	2300      	movs	r3, #0
 8000e34:	623b      	str	r3, [r7, #32]
  assert_param(IS_GPIO_ALL_INSTANCE(GPIOx));
  assert_param(IS_GPIO_PIN(GPIO_Init->Pin));
  assert_param(IS_GPIO_MODE(GPIO_Init->Mode));

  /* Configure the port pins */
  while (((GPIO_Init->Pin) >> position) != 0x00u)
 8000e36:	e169      	b.n	800110c <HAL_GPIO_Init+0x2e8>
  {
    /* Get the IO position */
    ioposition = (0x01uL << position);
 8000e38:	2201      	movs	r2, #1
 8000e3a:	6a7b      	ldr	r3, [r7, #36]	; 0x24
 8000e3c:	fa02 f303 	lsl.w	r3, r2, r3
 8000e40:	61fb      	str	r3, [r7, #28]

    /* Get the current IO position */
    iocurrent = (uint32_t)(GPIO_Init->Pin) & ioposition;
 8000e42:	683b      	ldr	r3, [r7, #0]
 8000e44:	681b      	ldr	r3, [r3, #0]
 8000e46:	69fa      	ldr	r2, [r7, #28]
 8000e48:	4013      	ands	r3, r2
 8000e4a:	61bb      	str	r3, [r7, #24]

    if (iocurrent == ioposition)
 8000e4c:	69ba      	ldr	r2, [r7, #24]
 8000e4e:	69fb      	ldr	r3, [r7, #28]
 8000e50:	429a      	cmp	r2, r3
 8000e52:	f040 8158 	bne.w	8001106 <HAL_GPIO_Init+0x2e2>
    {
      /* Check the Alternate function parameters */
      assert_param(IS_GPIO_AF_INSTANCE(GPIOx));

      /* Based on the required mode, filling config variable with MODEy[1:0] and CNFy[3:2] corresponding bits */
      switch (GPIO_Init->Mode)
 8000e56:	683b      	ldr	r3, [r7, #0]
 8000e58:	685b      	ldr	r3, [r3, #4]
 8000e5a:	4a9a      	ldr	r2, [pc, #616]	; (80010c4 <HAL_GPIO_Init+0x2a0>)
 8000e5c:	4293      	cmp	r3, r2
 8000e5e:	d05e      	beq.n	8000f1e <HAL_GPIO_Init+0xfa>
 8000e60:	4a98      	ldr	r2, [pc, #608]	; (80010c4 <HAL_GPIO_Init+0x2a0>)
 8000e62:	4293      	cmp	r3, r2
 8000e64:	d875      	bhi.n	8000f52 <HAL_GPIO_Init+0x12e>
 8000e66:	4a98      	ldr	r2, [pc, #608]	; (80010c8 <HAL_GPIO_Init+0x2a4>)
 8000e68:	4293      	cmp	r3, r2
 8000e6a:	d058      	beq.n	8000f1e <HAL_GPIO_Init+0xfa>
 8000e6c:	4a96      	ldr	r2, [pc, #600]	; (80010c8 <HAL_GPIO_Init+0x2a4>)
 8000e6e:	4293      	cmp	r3, r2
 8000e70:	d86f      	bhi.n	8000f52 <HAL_GPIO_Init+0x12e>
 8000e72:	4a96      	ldr	r2, [pc, #600]	; (80010cc <HAL_GPIO_Init+0x2a8>)
 8000e74:	4293      	cmp	r3, r2
 8000e76:	d052      	beq.n	8000f1e <HAL_GPIO_Init+0xfa>
 8000e78:	4a94      	ldr	r2, [pc, #592]	; (80010cc <HAL_GPIO_Init+0x2a8>)
 8000e7a:	4293      	cmp	r3, r2
 8000e7c:	d869      	bhi.n	8000f52 <HAL_GPIO_Init+0x12e>
 8000e7e:	4a94      	ldr	r2, [pc, #592]	; (80010d0 <HAL_GPIO_Init+0x2ac>)
 8000e80:	4293      	cmp	r3, r2
 8000e82:	d04c      	beq.n	8000f1e <HAL_GPIO_Init+0xfa>
 8000e84:	4a92      	ldr	r2, [pc, #584]	; (80010d0 <HAL_GPIO_Init+0x2ac>)
 8000e86:	4293      	cmp	r3, r2
 8000e88:	d863      	bhi.n	8000f52 <HAL_GPIO_Init+0x12e>
 8000e8a:	4a92      	ldr	r2, [pc, #584]	; (80010d4 <HAL_GPIO_Init+0x2b0>)
 8000e8c:	4293      	cmp	r3, r2
 8000e8e:	d046      	beq.n	8000f1e <HAL_GPIO_Init+0xfa>
 8000e90:	4a90      	ldr	r2, [pc, #576]	; (80010d4 <HAL_GPIO_Init+0x2b0>)
 8000e92:	4293      	cmp	r3, r2
 8000e94:	d85d      	bhi.n	8000f52 <HAL_GPIO_Init+0x12e>
 8000e96:	2b12      	cmp	r3, #18
 8000e98:	d82a      	bhi.n	8000ef0 <HAL_GPIO_Init+0xcc>
 8000e9a:	2b12      	cmp	r3, #18
 8000e9c:	d859      	bhi.n	8000f52 <HAL_GPIO_Init+0x12e>
 8000e9e:	a201      	add	r2, pc, #4	; (adr r2, 8000ea4 <HAL_GPIO_Init+0x80>)
 8000ea0:	f852 f023 	ldr.w	pc, [r2, r3, lsl #2]
 8000ea4:	08000f1f 	.word	0x08000f1f
 8000ea8:	08000ef9 	.word	0x08000ef9
 8000eac:	08000f0b 	.word	0x08000f0b
 8000eb0:	08000f4d 	.word	0x08000f4d
 8000eb4:	08000f53 	.word	0x08000f53
 8000eb8:	08000f53 	.word	0x08000f53
 8000ebc:	08000f53 	.word	0x08000f53
 8000ec0:	08000f53 	.word	0x08000f53
 8000ec4:	08000f53 	.word	0x08000f53
 8000ec8:	08000f53 	.word	0x08000f53
 8000ecc:	08000f53 	.word	0x08000f53
 8000ed0:	08000f53 	.word	0x08000f53
 8000ed4:	08000f53 	.word	0x08000f53
 8000ed8:	08000f53 	.word	0x08000f53
 8000edc:	08000f53 	.word	0x08000f53
 8000ee0:	08000f53 	.word	0x08000f53
 8000ee4:	08000f53 	.word	0x08000f53
 8000ee8:	08000f01 	.word	0x08000f01
 8000eec:	08000f15 	.word	0x08000f15
 8000ef0:	4a79      	ldr	r2, [pc, #484]	; (80010d8 <HAL_GPIO_Init+0x2b4>)
 8000ef2:	4293      	cmp	r3, r2
 8000ef4:	d013      	beq.n	8000f1e <HAL_GPIO_Init+0xfa>
          config = GPIO_CR_MODE_INPUT + GPIO_CR_CNF_ANALOG;
          break;

        /* Parameters are checked with assert_param */
        default:
          break;
 8000ef6:	e02c      	b.n	8000f52 <HAL_GPIO_Init+0x12e>
          config = GPIO_Init->Speed + GPIO_CR_CNF_GP_OUTPUT_PP;
 8000ef8:	683b      	ldr	r3, [r7, #0]
 8000efa:	68db      	ldr	r3, [r3, #12]
 8000efc:	623b      	str	r3, [r7, #32]
          break;
 8000efe:	e029      	b.n	8000f54 <HAL_GPIO_Init+0x130>
          config = GPIO_Init->Speed + GPIO_CR_CNF_GP_OUTPUT_OD;
 8000f00:	683b      	ldr	r3, [r7, #0]
 8000f02:	68db      	ldr	r3, [r3, #12]
 8000f04:	3304      	adds	r3, #4
 8000f06:	623b      	str	r3, [r7, #32]
          break;
 8000f08:	e024      	b.n	8000f54 <HAL_GPIO_Init+0x130>
          config = GPIO_Init->Speed + GPIO_CR_CNF_AF_OUTPUT_PP;
 8000f0a:	683b      	ldr	r3, [r7, #0]
 8000f0c:	68db      	ldr	r3, [r3, #12]
 8000f0e:	3308      	adds	r3, #8
 8000f10:	623b      	str	r3, [r7, #32]
          break;
 8000f12:	e01f      	b.n	8000f54 <HAL_GPIO_Init+0x130>
          config = GPIO_Init->Speed + GPIO_CR_CNF_AF_OUTPUT_OD;
 8000f14:	683b      	ldr	r3, [r7, #0]
 8000f16:	68db      	ldr	r3, [r3, #12]
 8000f18:	330c      	adds	r3, #12
 8000f1a:	623b      	str	r3, [r7, #32]
          break;
 8000f1c:	e01a      	b.n	8000f54 <HAL_GPIO_Init+0x130>
          if (GPIO_Init->Pull == GPIO_NOPULL)
 8000f1e:	683b      	ldr	r3, [r7, #0]
 8000f20:	689b      	ldr	r3, [r3, #8]
 8000f22:	2b00      	cmp	r3, #0
 8000f24:	d102      	bne.n	8000f2c <HAL_GPIO_Init+0x108>
            config = GPIO_CR_MODE_INPUT + GPIO_CR_CNF_INPUT_FLOATING;
 8000f26:	2304      	movs	r3, #4
 8000f28:	623b      	str	r3, [r7, #32]
          break;
 8000f2a:	e013      	b.n	8000f54 <HAL_GPIO_Init+0x130>
          else if (GPIO_Init->Pull == GPIO_PULLUP)
 8000f2c:	683b      	ldr	r3, [r7, #0]
 8000f2e:	689b      	ldr	r3, [r3, #8]
 8000f30:	2b01      	cmp	r3, #1
 8000f32:	d105      	bne.n	8000f40 <HAL_GPIO_Init+0x11c>
            config = GPIO_CR_MODE_INPUT + GPIO_CR_CNF_INPUT_PU_PD;
 8000f34:	2308      	movs	r3, #8
 8000f36:	623b      	str	r3, [r7, #32]
            GPIOx->BSRR = ioposition;
 8000f38:	687b      	ldr	r3, [r7, #4]
 8000f3a:	69fa      	ldr	r2, [r7, #28]
 8000f3c:	611a      	str	r2, [r3, #16]
          break;
 8000f3e:	e009      	b.n	8000f54 <HAL_GPIO_Init+0x130>
            config = GPIO_CR_MODE_INPUT + GPIO_CR_CNF_INPUT_PU_PD;
 8000f40:	2308      	movs	r3, #8
 8000f42:	623b      	str	r3, [r7, #32]
            GPIOx->BRR = ioposition;
 8000f44:	687b      	ldr	r3, [r7, #4]
 8000f46:	69fa      	ldr	r2, [r7, #28]
 8000f48:	615a      	str	r2, [r3, #20]
          break;
 8000f4a:	e003      	b.n	8000f54 <HAL_GPIO_Init+0x130>
          config = GPIO_CR_MODE_INPUT + GPIO_CR_CNF_ANALOG;
 8000f4c:	2300      	movs	r3, #0
 8000f4e:	623b      	str	r3, [r7, #32]
          break;
 8000f50:	e000      	b.n	8000f54 <HAL_GPIO_Init+0x130>
          break;
 8000f52:	bf00      	nop
      }

      /* Check if the current bit belongs to first half or last half of the pin count number
       in order to address CRH or CRL register*/
      configregister = (iocurrent < GPIO_PIN_8) ? &GPIOx->CRL     : &GPIOx->CRH;
 8000f54:	69bb      	ldr	r3, [r7, #24]
 8000f56:	2bff      	cmp	r3, #255	; 0xff
 8000f58:	d801      	bhi.n	8000f5e <HAL_GPIO_Init+0x13a>
 8000f5a:	687b      	ldr	r3, [r7, #4]
 8000f5c:	e001      	b.n	8000f62 <HAL_GPIO_Init+0x13e>
 8000f5e:	687b      	ldr	r3, [r7, #4]
 8000f60:	3304      	adds	r3, #4
 8000f62:	617b      	str	r3, [r7, #20]
      registeroffset = (iocurrent < GPIO_PIN_8) ? (position << 2u) : ((position - 8u) << 2u);
 8000f64:	69bb      	ldr	r3, [r7, #24]
 8000f66:	2bff      	cmp	r3, #255	; 0xff
 8000f68:	d802      	bhi.n	8000f70 <HAL_GPIO_Init+0x14c>
 8000f6a:	6a7b      	ldr	r3, [r7, #36]	; 0x24
 8000f6c:	009b      	lsls	r3, r3, #2
 8000f6e:	e002      	b.n	8000f76 <HAL_GPIO_Init+0x152>
 8000f70:	6a7b      	ldr	r3, [r7, #36]	; 0x24
 8000f72:	3b08      	subs	r3, #8
 8000f74:	009b      	lsls	r3, r3, #2
 8000f76:	613b      	str	r3, [r7, #16]

      /* Apply the new configuration of the pin to the register */
      MODIFY_REG((*configregister), ((GPIO_CRL_MODE0 | GPIO_CRL_CNF0) << registeroffset), (config << registeroffset));
 8000f78:	697b      	ldr	r3, [r7, #20]
 8000f7a:	681a      	ldr	r2, [r3, #0]
 8000f7c:	210f      	movs	r1, #15
 8000f7e:	693b      	ldr	r3, [r7, #16]
 8000f80:	fa01 f303 	lsl.w	r3, r1, r3
 8000f84:	43db      	mvns	r3, r3
 8000f86:	401a      	ands	r2, r3
 8000f88:	6a39      	ldr	r1, [r7, #32]
 8000f8a:	693b      	ldr	r3, [r7, #16]
 8000f8c:	fa01 f303 	lsl.w	r3, r1, r3
 8000f90:	431a      	orrs	r2, r3
 8000f92:	697b      	ldr	r3, [r7, #20]
 8000f94:	601a      	str	r2, [r3, #0]

      /*--------------------- EXTI Mode Configuration ------------------------*/
      /* Configure the External Interrupt or event for the current IO */
      if ((GPIO_Init->Mode & EXTI_MODE) == EXTI_MODE)
 8000f96:	683b      	ldr	r3, [r7, #0]
 8000f98:	685b      	ldr	r3, [r3, #4]
 8000f9a:	f003 5380 	and.w	r3, r3, #268435456	; 0x10000000
 8000f9e:	2b00      	cmp	r3, #0
 8000fa0:	f000 80b1 	beq.w	8001106 <HAL_GPIO_Init+0x2e2>
      {
        /* Enable AFIO Clock */
        __HAL_RCC_AFIO_CLK_ENABLE();
 8000fa4:	4b4d      	ldr	r3, [pc, #308]	; (80010dc <HAL_GPIO_Init+0x2b8>)
 8000fa6:	699b      	ldr	r3, [r3, #24]
 8000fa8:	4a4c      	ldr	r2, [pc, #304]	; (80010dc <HAL_GPIO_Init+0x2b8>)
 8000faa:	f043 0301 	orr.w	r3, r3, #1
 8000fae:	6193      	str	r3, [r2, #24]
 8000fb0:	4b4a      	ldr	r3, [pc, #296]	; (80010dc <HAL_GPIO_Init+0x2b8>)
 8000fb2:	699b      	ldr	r3, [r3, #24]
 8000fb4:	f003 0301 	and.w	r3, r3, #1
 8000fb8:	60bb      	str	r3, [r7, #8]
 8000fba:	68bb      	ldr	r3, [r7, #8]
        temp = AFIO->EXTICR[position >> 2u];
 8000fbc:	4a48      	ldr	r2, [pc, #288]	; (80010e0 <HAL_GPIO_Init+0x2bc>)
 8000fbe:	6a7b      	ldr	r3, [r7, #36]	; 0x24
 8000fc0:	089b      	lsrs	r3, r3, #2
 8000fc2:	3302      	adds	r3, #2
 8000fc4:	f852 3023 	ldr.w	r3, [r2, r3, lsl #2]
 8000fc8:	60fb      	str	r3, [r7, #12]
        CLEAR_BIT(temp, (0x0Fu) << (4u * (position & 0x03u)));
 8000fca:	6a7b      	ldr	r3, [r7, #36]	; 0x24
 8000fcc:	f003 0303 	and.w	r3, r3, #3
 8000fd0:	009b      	lsls	r3, r3, #2
 8000fd2:	220f      	movs	r2, #15
 8000fd4:	fa02 f303 	lsl.w	r3, r2, r3
 8000fd8:	43db      	mvns	r3, r3
 8000fda:	68fa      	ldr	r2, [r7, #12]
 8000fdc:	4013      	ands	r3, r2
 8000fde:	60fb      	str	r3, [r7, #12]
        SET_BIT(temp, (GPIO_GET_INDEX(GPIOx)) << (4u * (position & 0x03u)));
 8000fe0:	687b      	ldr	r3, [r7, #4]
 8000fe2:	4a40      	ldr	r2, [pc, #256]	; (80010e4 <HAL_GPIO_Init+0x2c0>)
 8000fe4:	4293      	cmp	r3, r2
 8000fe6:	d013      	beq.n	8001010 <HAL_GPIO_Init+0x1ec>
 8000fe8:	687b      	ldr	r3, [r7, #4]
 8000fea:	4a3f      	ldr	r2, [pc, #252]	; (80010e8 <HAL_GPIO_Init+0x2c4>)
 8000fec:	4293      	cmp	r3, r2
 8000fee:	d00d      	beq.n	800100c <HAL_GPIO_Init+0x1e8>
 8000ff0:	687b      	ldr	r3, [r7, #4]
 8000ff2:	4a3e      	ldr	r2, [pc, #248]	; (80010ec <HAL_GPIO_Init+0x2c8>)
 8000ff4:	4293      	cmp	r3, r2
 8000ff6:	d007      	beq.n	8001008 <HAL_GPIO_Init+0x1e4>
 8000ff8:	687b      	ldr	r3, [r7, #4]
 8000ffa:	4a3d      	ldr	r2, [pc, #244]	; (80010f0 <HAL_GPIO_Init+0x2cc>)
 8000ffc:	4293      	cmp	r3, r2
 8000ffe:	d101      	bne.n	8001004 <HAL_GPIO_Init+0x1e0>
 8001000:	2303      	movs	r3, #3
 8001002:	e006      	b.n	8001012 <HAL_GPIO_Init+0x1ee>
 8001004:	2304      	movs	r3, #4
 8001006:	e004      	b.n	8001012 <HAL_GPIO_Init+0x1ee>
 8001008:	2302      	movs	r3, #2
 800100a:	e002      	b.n	8001012 <HAL_GPIO_Init+0x1ee>
 800100c:	2301      	movs	r3, #1
 800100e:	e000      	b.n	8001012 <HAL_GPIO_Init+0x1ee>
 8001010:	2300      	movs	r3, #0
 8001012:	6a7a      	ldr	r2, [r7, #36]	; 0x24
 8001014:	f002 0203 	and.w	r2, r2, #3
 8001018:	0092      	lsls	r2, r2, #2
 800101a:	4093      	lsls	r3, r2
 800101c:	68fa      	ldr	r2, [r7, #12]
 800101e:	4313      	orrs	r3, r2
 8001020:	60fb      	str	r3, [r7, #12]
        AFIO->EXTICR[position >> 2u] = temp;
 8001022:	492f      	ldr	r1, [pc, #188]	; (80010e0 <HAL_GPIO_Init+0x2bc>)
 8001024:	6a7b      	ldr	r3, [r7, #36]	; 0x24
 8001026:	089b      	lsrs	r3, r3, #2
 8001028:	3302      	adds	r3, #2
 800102a:	68fa      	ldr	r2, [r7, #12]
 800102c:	f841 2023 	str.w	r2, [r1, r3, lsl #2]


        /* Configure the interrupt mask */
        if ((GPIO_Init->Mode & GPIO_MODE_IT) == GPIO_MODE_IT)
 8001030:	683b      	ldr	r3, [r7, #0]
 8001032:	685b      	ldr	r3, [r3, #4]
 8001034:	f403 3380 	and.w	r3, r3, #65536	; 0x10000
 8001038:	2b00      	cmp	r3, #0
 800103a:	d006      	beq.n	800104a <HAL_GPIO_Init+0x226>
        {
          SET_BIT(EXTI->IMR, iocurrent);
 800103c:	4b2d      	ldr	r3, [pc, #180]	; (80010f4 <HAL_GPIO_Init+0x2d0>)
 800103e:	681a      	ldr	r2, [r3, #0]
 8001040:	492c      	ldr	r1, [pc, #176]	; (80010f4 <HAL_GPIO_Init+0x2d0>)
 8001042:	69bb      	ldr	r3, [r7, #24]
 8001044:	4313      	orrs	r3, r2
 8001046:	600b      	str	r3, [r1, #0]
 8001048:	e006      	b.n	8001058 <HAL_GPIO_Init+0x234>
        }
        else
        {
          CLEAR_BIT(EXTI->IMR, iocurrent);
 800104a:	4b2a      	ldr	r3, [pc, #168]	; (80010f4 <HAL_GPIO_Init+0x2d0>)
 800104c:	681a      	ldr	r2, [r3, #0]
 800104e:	69bb      	ldr	r3, [r7, #24]
 8001050:	43db      	mvns	r3, r3
 8001052:	4928      	ldr	r1, [pc, #160]	; (80010f4 <HAL_GPIO_Init+0x2d0>)
 8001054:	4013      	ands	r3, r2
 8001056:	600b      	str	r3, [r1, #0]
        }

        /* Configure the event mask */
        if ((GPIO_Init->Mode & GPIO_MODE_EVT) == GPIO_MODE_EVT)
 8001058:	683b      	ldr	r3, [r7, #0]
 800105a:	685b      	ldr	r3, [r3, #4]
 800105c:	f403 3300 	and.w	r3, r3, #131072	; 0x20000
 8001060:	2b00      	cmp	r3, #0
 8001062:	d006      	beq.n	8001072 <HAL_GPIO_Init+0x24e>
        {
          SET_BIT(EXTI->EMR, iocurrent);
 8001064:	4b23      	ldr	r3, [pc, #140]	; (80010f4 <HAL_GPIO_Init+0x2d0>)
 8001066:	685a      	ldr	r2, [r3, #4]
 8001068:	4922      	ldr	r1, [pc, #136]	; (80010f4 <HAL_GPIO_Init+0x2d0>)
 800106a:	69bb      	ldr	r3, [r7, #24]
 800106c:	4313      	orrs	r3, r2
 800106e:	604b      	str	r3, [r1, #4]
 8001070:	e006      	b.n	8001080 <HAL_GPIO_Init+0x25c>
        }
        else
        {
          CLEAR_BIT(EXTI->EMR, iocurrent);
 8001072:	4b20      	ldr	r3, [pc, #128]	; (80010f4 <HAL_GPIO_Init+0x2d0>)
 8001074:	685a      	ldr	r2, [r3, #4]
 8001076:	69bb      	ldr	r3, [r7, #24]
 8001078:	43db      	mvns	r3, r3
 800107a:	491e      	ldr	r1, [pc, #120]	; (80010f4 <HAL_GPIO_Init+0x2d0>)
 800107c:	4013      	ands	r3, r2
 800107e:	604b      	str	r3, [r1, #4]
        }

        /* Enable or disable the rising trigger */
        if ((GPIO_Init->Mode & RISING_EDGE) == RISING_EDGE)
 8001080:	683b      	ldr	r3, [r7, #0]
 8001082:	685b      	ldr	r3, [r3, #4]
 8001084:	f403 1380 	and.w	r3, r3, #1048576	; 0x100000
 8001088:	2b00      	cmp	r3, #0
 800108a:	d006      	beq.n	800109a <HAL_GPIO_Init+0x276>
        {
          SET_BIT(EXTI->RTSR, iocurrent);
 800108c:	4b19      	ldr	r3, [pc, #100]	; (80010f4 <HAL_GPIO_Init+0x2d0>)
 800108e:	689a      	ldr	r2, [r3, #8]
 8001090:	4918      	ldr	r1, [pc, #96]	; (80010f4 <HAL_GPIO_Init+0x2d0>)
 8001092:	69bb      	ldr	r3, [r7, #24]
 8001094:	4313      	orrs	r3, r2
 8001096:	608b      	str	r3, [r1, #8]
 8001098:	e006      	b.n	80010a8 <HAL_GPIO_Init+0x284>
        }
        else
        {
          CLEAR_BIT(EXTI->RTSR, iocurrent);
 800109a:	4b16      	ldr	r3, [pc, #88]	; (80010f4 <HAL_GPIO_Init+0x2d0>)
 800109c:	689a      	ldr	r2, [r3, #8]
 800109e:	69bb      	ldr	r3, [r7, #24]
 80010a0:	43db      	mvns	r3, r3
 80010a2:	4914      	ldr	r1, [pc, #80]	; (80010f4 <HAL_GPIO_Init+0x2d0>)
 80010a4:	4013      	ands	r3, r2
 80010a6:	608b      	str	r3, [r1, #8]
        }

        /* Enable or disable the falling trigger */
        if ((GPIO_Init->Mode & FALLING_EDGE) == FALLING_EDGE)
 80010a8:	683b      	ldr	r3, [r7, #0]
 80010aa:	685b      	ldr	r3, [r3, #4]
 80010ac:	f403 1300 	and.w	r3, r3, #2097152	; 0x200000
 80010b0:	2b00      	cmp	r3, #0
 80010b2:	d021      	beq.n	80010f8 <HAL_GPIO_Init+0x2d4>
        {
          SET_BIT(EXTI->FTSR, iocurrent);
 80010b4:	4b0f      	ldr	r3, [pc, #60]	; (80010f4 <HAL_GPIO_Init+0x2d0>)
 80010b6:	68da      	ldr	r2, [r3, #12]
 80010b8:	490e      	ldr	r1, [pc, #56]	; (80010f4 <HAL_GPIO_Init+0x2d0>)
 80010ba:	69bb      	ldr	r3, [r7, #24]
 80010bc:	4313      	orrs	r3, r2
 80010be:	60cb      	str	r3, [r1, #12]
 80010c0:	e021      	b.n	8001106 <HAL_GPIO_Init+0x2e2>
 80010c2:	bf00      	nop
 80010c4:	10320000 	.word	0x10320000
 80010c8:	10310000 	.word	0x10310000
 80010cc:	10220000 	.word	0x10220000
 80010d0:	10210000 	.word	0x10210000
 80010d4:	10120000 	.word	0x10120000
 80010d8:	10110000 	.word	0x10110000
 80010dc:	40021000 	.word	0x40021000
 80010e0:	40010000 	.word	0x40010000
 80010e4:	40010800 	.word	0x40010800
 80010e8:	40010c00 	.word	0x40010c00
 80010ec:	40011000 	.word	0x40011000
 80010f0:	40011400 	.word	0x40011400
 80010f4:	40010400 	.word	0x40010400
        }
        else
        {
          CLEAR_BIT(EXTI->FTSR, iocurrent);
 80010f8:	4b0b      	ldr	r3, [pc, #44]	; (8001128 <HAL_GPIO_Init+0x304>)
 80010fa:	68da      	ldr	r2, [r3, #12]
 80010fc:	69bb      	ldr	r3, [r7, #24]
 80010fe:	43db      	mvns	r3, r3
 8001100:	4909      	ldr	r1, [pc, #36]	; (8001128 <HAL_GPIO_Init+0x304>)
 8001102:	4013      	ands	r3, r2
 8001104:	60cb      	str	r3, [r1, #12]
        }
      }
    }

	position++;
 8001106:	6a7b      	ldr	r3, [r7, #36]	; 0x24
 8001108:	3301      	adds	r3, #1
 800110a:	627b      	str	r3, [r7, #36]	; 0x24
  while (((GPIO_Init->Pin) >> position) != 0x00u)
 800110c:	683b      	ldr	r3, [r7, #0]
 800110e:	681a      	ldr	r2, [r3, #0]
 8001110:	6a7b      	ldr	r3, [r7, #36]	; 0x24
 8001112:	fa22 f303 	lsr.w	r3, r2, r3
 8001116:	2b00      	cmp	r3, #0
 8001118:	f47f ae8e 	bne.w	8000e38 <HAL_GPIO_Init+0x14>
  }
}
 800111c:	bf00      	nop
 800111e:	bf00      	nop
 8001120:	372c      	adds	r7, #44	; 0x2c
 8001122:	46bd      	mov	sp, r7
 8001124:	bc80      	pop	{r7}
 8001126:	4770      	bx	lr
 8001128:	40010400 	.word	0x40010400

0800112c <HAL_GPIO_WritePin>:
  *            @arg GPIO_PIN_RESET: to clear the port pin
  *            @arg GPIO_PIN_SET: to set the port pin
  * @retval None
  */
void HAL_GPIO_WritePin(GPIO_TypeDef *GPIOx, uint16_t GPIO_Pin, GPIO_PinState PinState)
{
 800112c:	b480      	push	{r7}
 800112e:	b083      	sub	sp, #12
 8001130:	af00      	add	r7, sp, #0
 8001132:	6078      	str	r0, [r7, #4]
 8001134:	460b      	mov	r3, r1
 8001136:	807b      	strh	r3, [r7, #2]
 8001138:	4613      	mov	r3, r2
 800113a:	707b      	strb	r3, [r7, #1]
  /* Check the parameters */
  assert_param(IS_GPIO_PIN(GPIO_Pin));
  assert_param(IS_GPIO_PIN_ACTION(PinState));

  if (PinState != GPIO_PIN_RESET)
 800113c:	787b      	ldrb	r3, [r7, #1]
 800113e:	2b00      	cmp	r3, #0
 8001140:	d003      	beq.n	800114a <HAL_GPIO_WritePin+0x1e>
  {
    GPIOx->BSRR = GPIO_Pin;
 8001142:	887a      	ldrh	r2, [r7, #2]
 8001144:	687b      	ldr	r3, [r7, #4]
 8001146:	611a      	str	r2, [r3, #16]
  }
  else
  {
    GPIOx->BSRR = (uint32_t)GPIO_Pin << 16u;
  }
}
 8001148:	e003      	b.n	8001152 <HAL_GPIO_WritePin+0x26>
    GPIOx->BSRR = (uint32_t)GPIO_Pin << 16u;
 800114a:	887b      	ldrh	r3, [r7, #2]
 800114c:	041a      	lsls	r2, r3, #16
 800114e:	687b      	ldr	r3, [r7, #4]
 8001150:	611a      	str	r2, [r3, #16]
}
 8001152:	bf00      	nop
 8001154:	370c      	adds	r7, #12
 8001156:	46bd      	mov	sp, r7
 8001158:	bc80      	pop	{r7}
 800115a:	4770      	bx	lr

0800115c <HAL_GPIO_EXTI_IRQHandler>:
  * @brief  This function handles EXTI interrupt request.
  * @param  GPIO_Pin: Specifies the pins connected EXTI line
  * @retval None
  */
void HAL_GPIO_EXTI_IRQHandler(uint16_t GPIO_Pin)
{
 800115c:	b580      	push	{r7, lr}
 800115e:	b082      	sub	sp, #8
 8001160:	af00      	add	r7, sp, #0
 8001162:	4603      	mov	r3, r0
 8001164:	80fb      	strh	r3, [r7, #6]
  /* EXTI line interrupt detected */
  if (__HAL_GPIO_EXTI_GET_IT(GPIO_Pin) != 0x00u)
 8001166:	4b08      	ldr	r3, [pc, #32]	; (8001188 <HAL_GPIO_EXTI_IRQHandler+0x2c>)
 8001168:	695a      	ldr	r2, [r3, #20]
 800116a:	88fb      	ldrh	r3, [r7, #6]
 800116c:	4013      	ands	r3, r2
 800116e:	2b00      	cmp	r3, #0
 8001170:	d006      	beq.n	8001180 <HAL_GPIO_EXTI_IRQHandler+0x24>
  {
    __HAL_GPIO_EXTI_CLEAR_IT(GPIO_Pin);
 8001172:	4a05      	ldr	r2, [pc, #20]	; (8001188 <HAL_GPIO_EXTI_IRQHandler+0x2c>)
 8001174:	88fb      	ldrh	r3, [r7, #6]
 8001176:	6153      	str	r3, [r2, #20]
    HAL_GPIO_EXTI_Callback(GPIO_Pin);
 8001178:	88fb      	ldrh	r3, [r7, #6]
 800117a:	4618      	mov	r0, r3
 800117c:	f000 f806 	bl	800118c <HAL_GPIO_EXTI_Callback>
  }
}
 8001180:	bf00      	nop
 8001182:	3708      	adds	r7, #8
 8001184:	46bd      	mov	sp, r7
 8001186:	bd80      	pop	{r7, pc}
 8001188:	40010400 	.word	0x40010400

0800118c <HAL_GPIO_EXTI_Callback>:
  * @brief  EXTI line detection callbacks.
  * @param  GPIO_Pin: Specifies the pins connected EXTI line
  * @retval None
  */
__weak void HAL_GPIO_EXTI_Callback(uint16_t GPIO_Pin)
{
 800118c:	b480      	push	{r7}
 800118e:	b083      	sub	sp, #12
 8001190:	af00      	add	r7, sp, #0
 8001192:	4603      	mov	r3, r0
 8001194:	80fb      	strh	r3, [r7, #6]
  /* Prevent unused argument(s) compilation warning */
  UNUSED(GPIO_Pin);
  /* NOTE: This function Should not be modified, when the callback is needed,
           the HAL_GPIO_EXTI_Callback could be implemented in the user file
   */
}
 8001196:	bf00      	nop
 8001198:	370c      	adds	r7, #12
 800119a:	46bd      	mov	sp, r7
 800119c:	bc80      	pop	{r7}
 800119e:	4770      	bx	lr

080011a0 <HAL_RCC_OscConfig>:
  *         supported by this macro. User should request a transition to HSE Off
  *         first and then HSE On or HSE Bypass.
  * @retval HAL status
  */
HAL_StatusTypeDef HAL_RCC_OscConfig(RCC_OscInitTypeDef  *RCC_OscInitStruct)
{
 80011a0:	b580      	push	{r7, lr}
 80011a2:	b086      	sub	sp, #24
 80011a4:	af00      	add	r7, sp, #0
 80011a6:	6078      	str	r0, [r7, #4]
  uint32_t tickstart;
  uint32_t pll_config;

  /* Check Null pointer */
  if (RCC_OscInitStruct == NULL)
 80011a8:	687b      	ldr	r3, [r7, #4]
 80011aa:	2b00      	cmp	r3, #0
 80011ac:	d101      	bne.n	80011b2 <HAL_RCC_OscConfig+0x12>
  {
    return HAL_ERROR;
 80011ae:	2301      	movs	r3, #1
 80011b0:	e272      	b.n	8001698 <HAL_RCC_OscConfig+0x4f8>

  /* Check the parameters */
  assert_param(IS_RCC_OSCILLATORTYPE(RCC_OscInitStruct->OscillatorType));

  /*------------------------------- HSE Configuration ------------------------*/
  if (((RCC_OscInitStruct->OscillatorType) & RCC_OSCILLATORTYPE_HSE) == RCC_OSCILLATORTYPE_HSE)
 80011b2:	687b      	ldr	r3, [r7, #4]
 80011b4:	681b      	ldr	r3, [r3, #0]
 80011b6:	f003 0301 	and.w	r3, r3, #1
 80011ba:	2b00      	cmp	r3, #0
 80011bc:	f000 8087 	beq.w	80012ce <HAL_RCC_OscConfig+0x12e>
  {
    /* Check the parameters */
    assert_param(IS_RCC_HSE(RCC_OscInitStruct->HSEState));

    /* When the HSE is used as system clock or clock source for PLL in these cases it is not allowed to be disabled */
    if ((__HAL_RCC_GET_SYSCLK_SOURCE() == RCC_SYSCLKSOURCE_STATUS_HSE)
 80011c0:	4b92      	ldr	r3, [pc, #584]	; (800140c <HAL_RCC_OscConfig+0x26c>)
 80011c2:	685b      	ldr	r3, [r3, #4]
 80011c4:	f003 030c 	and.w	r3, r3, #12
 80011c8:	2b04      	cmp	r3, #4
 80011ca:	d00c      	beq.n	80011e6 <HAL_RCC_OscConfig+0x46>
        || ((__HAL_RCC_GET_SYSCLK_SOURCE() == RCC_SYSCLKSOURCE_STATUS_PLLCLK) && (__HAL_RCC_GET_PLL_OSCSOURCE() == RCC_PLLSOURCE_HSE)))
 80011cc:	4b8f      	ldr	r3, [pc, #572]	; (800140c <HAL_RCC_OscConfig+0x26c>)
 80011ce:	685b      	ldr	r3, [r3, #4]
 80011d0:	f003 030c 	and.w	r3, r3, #12
 80011d4:	2b08      	cmp	r3, #8
 80011d6:	d112      	bne.n	80011fe <HAL_RCC_OscConfig+0x5e>
 80011d8:	4b8c      	ldr	r3, [pc, #560]	; (800140c <HAL_RCC_OscConfig+0x26c>)
 80011da:	685b      	ldr	r3, [r3, #4]
 80011dc:	f403 3380 	and.w	r3, r3, #65536	; 0x10000
 80011e0:	f5b3 3f80 	cmp.w	r3, #65536	; 0x10000
 80011e4:	d10b      	bne.n	80011fe <HAL_RCC_OscConfig+0x5e>
    {
      if ((__HAL_RCC_GET_FLAG(RCC_FLAG_HSERDY) != RESET) && (RCC_OscInitStruct->HSEState == RCC_HSE_OFF))
 80011e6:	4b89      	ldr	r3, [pc, #548]	; (800140c <HAL_RCC_OscConfig+0x26c>)
 80011e8:	681b      	ldr	r3, [r3, #0]
 80011ea:	f403 3300 	and.w	r3, r3, #131072	; 0x20000
 80011ee:	2b00      	cmp	r3, #0
 80011f0:	d06c      	beq.n	80012cc <HAL_RCC_OscConfig+0x12c>
 80011f2:	687b      	ldr	r3, [r7, #4]
 80011f4:	685b      	ldr	r3, [r3, #4]
 80011f6:	2b00      	cmp	r3, #0
 80011f8:	d168      	bne.n	80012cc <HAL_RCC_OscConfig+0x12c>
      {
        return HAL_ERROR;
 80011fa:	2301      	movs	r3, #1
 80011fc:	e24c      	b.n	8001698 <HAL_RCC_OscConfig+0x4f8>
      }
    }
    else
    {
      /* Set the new HSE configuration ---------------------------------------*/
      __HAL_RCC_HSE_CONFIG(RCC_OscInitStruct->HSEState);
 80011fe:	687b      	ldr	r3, [r7, #4]
 8001200:	685b      	ldr	r3, [r3, #4]
 8001202:	f5b3 3f80 	cmp.w	r3, #65536	; 0x10000
 8001206:	d106      	bne.n	8001216 <HAL_RCC_OscConfig+0x76>
 8001208:	4b80      	ldr	r3, [pc, #512]	; (800140c <HAL_RCC_OscConfig+0x26c>)
 800120a:	681b      	ldr	r3, [r3, #0]
 800120c:	4a7f      	ldr	r2, [pc, #508]	; (800140c <HAL_RCC_OscConfig+0x26c>)
 800120e:	f443 3380 	orr.w	r3, r3, #65536	; 0x10000
 8001212:	6013      	str	r3, [r2, #0]
 8001214:	e02e      	b.n	8001274 <HAL_RCC_OscConfig+0xd4>
 8001216:	687b      	ldr	r3, [r7, #4]
 8001218:	685b      	ldr	r3, [r3, #4]
 800121a:	2b00      	cmp	r3, #0
 800121c:	d10c      	bne.n	8001238 <HAL_RCC_OscConfig+0x98>
 800121e:	4b7b      	ldr	r3, [pc, #492]	; (800140c <HAL_RCC_OscConfig+0x26c>)
 8001220:	681b      	ldr	r3, [r3, #0]
 8001222:	4a7a      	ldr	r2, [pc, #488]	; (800140c <HAL_RCC_OscConfig+0x26c>)
 8001224:	f423 3380 	bic.w	r3, r3, #65536	; 0x10000
 8001228:	6013      	str	r3, [r2, #0]
 800122a:	4b78      	ldr	r3, [pc, #480]	; (800140c <HAL_RCC_OscConfig+0x26c>)
 800122c:	681b      	ldr	r3, [r3, #0]
 800122e:	4a77      	ldr	r2, [pc, #476]	; (800140c <HAL_RCC_OscConfig+0x26c>)
 8001230:	f423 2380 	bic.w	r3, r3, #262144	; 0x40000
 8001234:	6013      	str	r3, [r2, #0]
 8001236:	e01d      	b.n	8001274 <HAL_RCC_OscConfig+0xd4>
 8001238:	687b      	ldr	r3, [r7, #4]
 800123a:	685b      	ldr	r3, [r3, #4]
 800123c:	f5b3 2fa0 	cmp.w	r3, #327680	; 0x50000
 8001240:	d10c      	bne.n	800125c <HAL_RCC_OscConfig+0xbc>
 8001242:	4b72      	ldr	r3, [pc, #456]	; (800140c <HAL_RCC_OscConfig+0x26c>)
 8001244:	681b      	ldr	r3, [r3, #0]
 8001246:	4a71      	ldr	r2, [pc, #452]	; (800140c <HAL_RCC_OscConfig+0x26c>)
 8001248:	f443 2380 	orr.w	r3, r3, #262144	; 0x40000
 800124c:	6013      	str	r3, [r2, #0]
 800124e:	4b6f      	ldr	r3, [pc, #444]	; (800140c <HAL_RCC_OscConfig+0x26c>)
 8001250:	681b      	ldr	r3, [r3, #0]
 8001252:	4a6e      	ldr	r2, [pc, #440]	; (800140c <HAL_RCC_OscConfig+0x26c>)
 8001254:	f443 3380 	orr.w	r3, r3, #65536	; 0x10000
 8001258:	6013      	str	r3, [r2, #0]
 800125a:	e00b      	b.n	8001274 <HAL_RCC_OscConfig+0xd4>
 800125c:	4b6b      	ldr	r3, [pc, #428]	; (800140c <HAL_RCC_OscConfig+0x26c>)
 800125e:	681b      	ldr	r3, [r3, #0]
 8001260:	4a6a      	ldr	r2, [pc, #424]	; (800140c <HAL_RCC_OscConfig+0x26c>)
 8001262:	f423 3380 	bic.w	r3, r3, #65536	; 0x10000
 8001266:	6013      	str	r3, [r2, #0]
 8001268:	4b68      	ldr	r3, [pc, #416]	; (800140c <HAL_RCC_OscConfig+0x26c>)
 800126a:	681b      	ldr	r3, [r3, #0]
 800126c:	4a67      	ldr	r2, [pc, #412]	; (800140c <HAL_RCC_OscConfig+0x26c>)
 800126e:	f423 2380 	bic.w	r3, r3, #262144	; 0x40000
 8001272:	6013      	str	r3, [r2, #0]


      /* Check the HSE State */
      if (RCC_OscInitStruct->HSEState != RCC_HSE_OFF)
 8001274:	687b      	ldr	r3, [r7, #4]
 8001276:	685b      	ldr	r3, [r3, #4]
 8001278:	2b00      	cmp	r3, #0
 800127a:	d013      	beq.n	80012a4 <HAL_RCC_OscConfig+0x104>
      {
        /* Get Start Tick */
        tickstart = HAL_GetTick();
 800127c:	f7ff f9ca 	bl	8000614 <HAL_GetTick>
 8001280:	6138      	str	r0, [r7, #16]

        /* Wait till HSE is ready */
        while (__HAL_RCC_GET_FLAG(RCC_FLAG_HSERDY) == RESET)
 8001282:	e008      	b.n	8001296 <HAL_RCC_OscConfig+0xf6>
        {
          if ((HAL_GetTick() - tickstart) > HSE_TIMEOUT_VALUE)
 8001284:	f7ff f9c6 	bl	8000614 <HAL_GetTick>
 8001288:	4602      	mov	r2, r0
 800128a:	693b      	ldr	r3, [r7, #16]
 800128c:	1ad3      	subs	r3, r2, r3
 800128e:	2b64      	cmp	r3, #100	; 0x64
 8001290:	d901      	bls.n	8001296 <HAL_RCC_OscConfig+0xf6>
          {
            return HAL_TIMEOUT;
 8001292:	2303      	movs	r3, #3
 8001294:	e200      	b.n	8001698 <HAL_RCC_OscConfig+0x4f8>
        while (__HAL_RCC_GET_FLAG(RCC_FLAG_HSERDY) == RESET)
 8001296:	4b5d      	ldr	r3, [pc, #372]	; (800140c <HAL_RCC_OscConfig+0x26c>)
 8001298:	681b      	ldr	r3, [r3, #0]
 800129a:	f403 3300 	and.w	r3, r3, #131072	; 0x20000
 800129e:	2b00      	cmp	r3, #0
 80012a0:	d0f0      	beq.n	8001284 <HAL_RCC_OscConfig+0xe4>
 80012a2:	e014      	b.n	80012ce <HAL_RCC_OscConfig+0x12e>
        }
      }
      else
      {
        /* Get Start Tick */
        tickstart = HAL_GetTick();
 80012a4:	f7ff f9b6 	bl	8000614 <HAL_GetTick>
 80012a8:	6138      	str	r0, [r7, #16]

        /* Wait till HSE is disabled */
        while (__HAL_RCC_GET_FLAG(RCC_FLAG_HSERDY) != RESET)
 80012aa:	e008      	b.n	80012be <HAL_RCC_OscConfig+0x11e>
        {
          if ((HAL_GetTick() - tickstart) > HSE_TIMEOUT_VALUE)
 80012ac:	f7ff f9b2 	bl	8000614 <HAL_GetTick>
 80012b0:	4602      	mov	r2, r0
 80012b2:	693b      	ldr	r3, [r7, #16]
 80012b4:	1ad3      	subs	r3, r2, r3
 80012b6:	2b64      	cmp	r3, #100	; 0x64
 80012b8:	d901      	bls.n	80012be <HAL_RCC_OscConfig+0x11e>
          {
            return HAL_TIMEOUT;
 80012ba:	2303      	movs	r3, #3
 80012bc:	e1ec      	b.n	8001698 <HAL_RCC_OscConfig+0x4f8>
        while (__HAL_RCC_GET_FLAG(RCC_FLAG_HSERDY) != RESET)
 80012be:	4b53      	ldr	r3, [pc, #332]	; (800140c <HAL_RCC_OscConfig+0x26c>)
 80012c0:	681b      	ldr	r3, [r3, #0]
 80012c2:	f403 3300 	and.w	r3, r3, #131072	; 0x20000
 80012c6:	2b00      	cmp	r3, #0
 80012c8:	d1f0      	bne.n	80012ac <HAL_RCC_OscConfig+0x10c>
 80012ca:	e000      	b.n	80012ce <HAL_RCC_OscConfig+0x12e>
      if ((__HAL_RCC_GET_FLAG(RCC_FLAG_HSERDY) != RESET) && (RCC_OscInitStruct->HSEState == RCC_HSE_OFF))
 80012cc:	bf00      	nop
        }
      }
    }
  }
  /*----------------------------- HSI Configuration --------------------------*/
  if (((RCC_OscInitStruct->OscillatorType) & RCC_OSCILLATORTYPE_HSI) == RCC_OSCILLATORTYPE_HSI)
 80012ce:	687b      	ldr	r3, [r7, #4]
 80012d0:	681b      	ldr	r3, [r3, #0]
 80012d2:	f003 0302 	and.w	r3, r3, #2
 80012d6:	2b00      	cmp	r3, #0
 80012d8:	d063      	beq.n	80013a2 <HAL_RCC_OscConfig+0x202>
    /* Check the parameters */
    assert_param(IS_RCC_HSI(RCC_OscInitStruct->HSIState));
    assert_param(IS_RCC_CALIBRATION_VALUE(RCC_OscInitStruct->HSICalibrationValue));

    /* Check if HSI is used as system clock or as PLL source when PLL is selected as system clock */
    if ((__HAL_RCC_GET_SYSCLK_SOURCE() == RCC_SYSCLKSOURCE_STATUS_HSI)
 80012da:	4b4c      	ldr	r3, [pc, #304]	; (800140c <HAL_RCC_OscConfig+0x26c>)
 80012dc:	685b      	ldr	r3, [r3, #4]
 80012de:	f003 030c 	and.w	r3, r3, #12
 80012e2:	2b00      	cmp	r3, #0
 80012e4:	d00b      	beq.n	80012fe <HAL_RCC_OscConfig+0x15e>
        || ((__HAL_RCC_GET_SYSCLK_SOURCE() == RCC_SYSCLKSOURCE_STATUS_PLLCLK) && (__HAL_RCC_GET_PLL_OSCSOURCE() == RCC_PLLSOURCE_HSI_DIV2)))
 80012e6:	4b49      	ldr	r3, [pc, #292]	; (800140c <HAL_RCC_OscConfig+0x26c>)
 80012e8:	685b      	ldr	r3, [r3, #4]
 80012ea:	f003 030c 	and.w	r3, r3, #12
 80012ee:	2b08      	cmp	r3, #8
 80012f0:	d11c      	bne.n	800132c <HAL_RCC_OscConfig+0x18c>
 80012f2:	4b46      	ldr	r3, [pc, #280]	; (800140c <HAL_RCC_OscConfig+0x26c>)
 80012f4:	685b      	ldr	r3, [r3, #4]
 80012f6:	f403 3380 	and.w	r3, r3, #65536	; 0x10000
 80012fa:	2b00      	cmp	r3, #0
 80012fc:	d116      	bne.n	800132c <HAL_RCC_OscConfig+0x18c>
    {
      /* When HSI is used as system clock it will not disabled */
      if ((__HAL_RCC_GET_FLAG(RCC_FLAG_HSIRDY) != RESET) && (RCC_OscInitStruct->HSIState != RCC_HSI_ON))
 80012fe:	4b43      	ldr	r3, [pc, #268]	; (800140c <HAL_RCC_OscConfig+0x26c>)
 8001300:	681b      	ldr	r3, [r3, #0]
 8001302:	f003 0302 	and.w	r3, r3, #2
 8001306:	2b00      	cmp	r3, #0
 8001308:	d005      	beq.n	8001316 <HAL_RCC_OscConfig+0x176>
 800130a:	687b      	ldr	r3, [r7, #4]
 800130c:	691b      	ldr	r3, [r3, #16]
 800130e:	2b01      	cmp	r3, #1
 8001310:	d001      	beq.n	8001316 <HAL_RCC_OscConfig+0x176>
      {
        return HAL_ERROR;
 8001312:	2301      	movs	r3, #1
 8001314:	e1c0      	b.n	8001698 <HAL_RCC_OscConfig+0x4f8>
      }
      /* Otherwise, just the calibration is allowed */
      else
      {
        /* Adjusts the Internal High Speed oscillator (HSI) calibration value.*/
        __HAL_RCC_HSI_CALIBRATIONVALUE_ADJUST(RCC_OscInitStruct->HSICalibrationValue);
 8001316:	4b3d      	ldr	r3, [pc, #244]	; (800140c <HAL_RCC_OscConfig+0x26c>)
 8001318:	681b      	ldr	r3, [r3, #0]
 800131a:	f023 02f8 	bic.w	r2, r3, #248	; 0xf8
 800131e:	687b      	ldr	r3, [r7, #4]
 8001320:	695b      	ldr	r3, [r3, #20]
 8001322:	00db      	lsls	r3, r3, #3
 8001324:	4939      	ldr	r1, [pc, #228]	; (800140c <HAL_RCC_OscConfig+0x26c>)
 8001326:	4313      	orrs	r3, r2
 8001328:	600b      	str	r3, [r1, #0]
      if ((__HAL_RCC_GET_FLAG(RCC_FLAG_HSIRDY) != RESET) && (RCC_OscInitStruct->HSIState != RCC_HSI_ON))
 800132a:	e03a      	b.n	80013a2 <HAL_RCC_OscConfig+0x202>
      }
    }
    else
    {
      /* Check the HSI State */
      if (RCC_OscInitStruct->HSIState != RCC_HSI_OFF)
 800132c:	687b      	ldr	r3, [r7, #4]
 800132e:	691b      	ldr	r3, [r3, #16]
 8001330:	2b00      	cmp	r3, #0
 8001332:	d020      	beq.n	8001376 <HAL_RCC_OscConfig+0x1d6>
      {
        /* Enable the Internal High Speed oscillator (HSI). */
        __HAL_RCC_HSI_ENABLE();
 8001334:	4b36      	ldr	r3, [pc, #216]	; (8001410 <HAL_RCC_OscConfig+0x270>)
 8001336:	2201      	movs	r2, #1
 8001338:	601a      	str	r2, [r3, #0]

        /* Get Start Tick */
        tickstart = HAL_GetTick();
 800133a:	f7ff f96b 	bl	8000614 <HAL_GetTick>
 800133e:	6138      	str	r0, [r7, #16]

        /* Wait till HSI is ready */
        while (__HAL_RCC_GET_FLAG(RCC_FLAG_HSIRDY) == RESET)
 8001340:	e008      	b.n	8001354 <HAL_RCC_OscConfig+0x1b4>
        {
          if ((HAL_GetTick() - tickstart) > HSI_TIMEOUT_VALUE)
 8001342:	f7ff f967 	bl	8000614 <HAL_GetTick>
 8001346:	4602      	mov	r2, r0
 8001348:	693b      	ldr	r3, [r7, #16]
 800134a:	1ad3      	subs	r3, r2, r3
 800134c:	2b02      	cmp	r3, #2
 800134e:	d901      	bls.n	8001354 <HAL_RCC_OscConfig+0x1b4>
          {
            return HAL_TIMEOUT;
 8001350:	2303      	movs	r3, #3
 8001352:	e1a1      	b.n	8001698 <HAL_RCC_OscConfig+0x4f8>
        while (__HAL_RCC_GET_FLAG(RCC_FLAG_HSIRDY) == RESET)
 8001354:	4b2d      	ldr	r3, [pc, #180]	; (800140c <HAL_RCC_OscConfig+0x26c>)
 8001356:	681b      	ldr	r3, [r3, #0]
 8001358:	f003 0302 	and.w	r3, r3, #2
 800135c:	2b00      	cmp	r3, #0
 800135e:	d0f0      	beq.n	8001342 <HAL_RCC_OscConfig+0x1a2>
          }
        }

        /* Adjusts the Internal High Speed oscillator (HSI) calibration value.*/
        __HAL_RCC_HSI_CALIBRATIONVALUE_ADJUST(RCC_OscInitStruct->HSICalibrationValue);
 8001360:	4b2a      	ldr	r3, [pc, #168]	; (800140c <HAL_RCC_OscConfig+0x26c>)
 8001362:	681b      	ldr	r3, [r3, #0]
 8001364:	f023 02f8 	bic.w	r2, r3, #248	; 0xf8
 8001368:	687b      	ldr	r3, [r7, #4]
 800136a:	695b      	ldr	r3, [r3, #20]
 800136c:	00db      	lsls	r3, r3, #3
 800136e:	4927      	ldr	r1, [pc, #156]	; (800140c <HAL_RCC_OscConfig+0x26c>)
 8001370:	4313      	orrs	r3, r2
 8001372:	600b      	str	r3, [r1, #0]
 8001374:	e015      	b.n	80013a2 <HAL_RCC_OscConfig+0x202>
      }
      else
      {
        /* Disable the Internal High Speed oscillator (HSI). */
        __HAL_RCC_HSI_DISABLE();
 8001376:	4b26      	ldr	r3, [pc, #152]	; (8001410 <HAL_RCC_OscConfig+0x270>)
 8001378:	2200      	movs	r2, #0
 800137a:	601a      	str	r2, [r3, #0]

        /* Get Start Tick */
        tickstart = HAL_GetTick();
 800137c:	f7ff f94a 	bl	8000614 <HAL_GetTick>
 8001380:	6138      	str	r0, [r7, #16]

        /* Wait till HSI is disabled */
        while (__HAL_RCC_GET_FLAG(RCC_FLAG_HSIRDY) != RESET)
 8001382:	e008      	b.n	8001396 <HAL_RCC_OscConfig+0x1f6>
        {
          if ((HAL_GetTick() - tickstart) > HSI_TIMEOUT_VALUE)
 8001384:	f7ff f946 	bl	8000614 <HAL_GetTick>
 8001388:	4602      	mov	r2, r0
 800138a:	693b      	ldr	r3, [r7, #16]
 800138c:	1ad3      	subs	r3, r2, r3
 800138e:	2b02      	cmp	r3, #2
 8001390:	d901      	bls.n	8001396 <HAL_RCC_OscConfig+0x1f6>
          {
            return HAL_TIMEOUT;
 8001392:	2303      	movs	r3, #3
 8001394:	e180      	b.n	8001698 <HAL_RCC_OscConfig+0x4f8>
        while (__HAL_RCC_GET_FLAG(RCC_FLAG_HSIRDY) != RESET)
 8001396:	4b1d      	ldr	r3, [pc, #116]	; (800140c <HAL_RCC_OscConfig+0x26c>)
 8001398:	681b      	ldr	r3, [r3, #0]
 800139a:	f003 0302 	and.w	r3, r3, #2
 800139e:	2b00      	cmp	r3, #0
 80013a0:	d1f0      	bne.n	8001384 <HAL_RCC_OscConfig+0x1e4>
        }
      }
    }
  }
  /*------------------------------ LSI Configuration -------------------------*/
  if (((RCC_OscInitStruct->OscillatorType) & RCC_OSCILLATORTYPE_LSI) == RCC_OSCILLATORTYPE_LSI)
 80013a2:	687b      	ldr	r3, [r7, #4]
 80013a4:	681b      	ldr	r3, [r3, #0]
 80013a6:	f003 0308 	and.w	r3, r3, #8
 80013aa:	2b00      	cmp	r3, #0
 80013ac:	d03a      	beq.n	8001424 <HAL_RCC_OscConfig+0x284>
  {
    /* Check the parameters */
    assert_param(IS_RCC_LSI(RCC_OscInitStruct->LSIState));

    /* Check the LSI State */
    if (RCC_OscInitStruct->LSIState != RCC_LSI_OFF)
 80013ae:	687b      	ldr	r3, [r7, #4]
 80013b0:	699b      	ldr	r3, [r3, #24]
 80013b2:	2b00      	cmp	r3, #0
 80013b4:	d019      	beq.n	80013ea <HAL_RCC_OscConfig+0x24a>
    {
      /* Enable the Internal Low Speed oscillator (LSI). */
      __HAL_RCC_LSI_ENABLE();
 80013b6:	4b17      	ldr	r3, [pc, #92]	; (8001414 <HAL_RCC_OscConfig+0x274>)
 80013b8:	2201      	movs	r2, #1
 80013ba:	601a      	str	r2, [r3, #0]

      /* Get Start Tick */
      tickstart = HAL_GetTick();
 80013bc:	f7ff f92a 	bl	8000614 <HAL_GetTick>
 80013c0:	6138      	str	r0, [r7, #16]

      /* Wait till LSI is ready */
      while (__HAL_RCC_GET_FLAG(RCC_FLAG_LSIRDY) == RESET)
 80013c2:	e008      	b.n	80013d6 <HAL_RCC_OscConfig+0x236>
      {
        if ((HAL_GetTick() - tickstart) > LSI_TIMEOUT_VALUE)
 80013c4:	f7ff f926 	bl	8000614 <HAL_GetTick>
 80013c8:	4602      	mov	r2, r0
 80013ca:	693b      	ldr	r3, [r7, #16]
 80013cc:	1ad3      	subs	r3, r2, r3
 80013ce:	2b02      	cmp	r3, #2
 80013d0:	d901      	bls.n	80013d6 <HAL_RCC_OscConfig+0x236>
        {
          return HAL_TIMEOUT;
 80013d2:	2303      	movs	r3, #3
 80013d4:	e160      	b.n	8001698 <HAL_RCC_OscConfig+0x4f8>
      while (__HAL_RCC_GET_FLAG(RCC_FLAG_LSIRDY) == RESET)
 80013d6:	4b0d      	ldr	r3, [pc, #52]	; (800140c <HAL_RCC_OscConfig+0x26c>)
 80013d8:	6a5b      	ldr	r3, [r3, #36]	; 0x24
 80013da:	f003 0302 	and.w	r3, r3, #2
 80013de:	2b00      	cmp	r3, #0
 80013e0:	d0f0      	beq.n	80013c4 <HAL_RCC_OscConfig+0x224>
        }
      }
      /*  To have a fully stabilized clock in the specified range, a software delay of 1ms
          should be added.*/
      RCC_Delay(1);
 80013e2:	2001      	movs	r0, #1
 80013e4:	f000 faa6 	bl	8001934 <RCC_Delay>
 80013e8:	e01c      	b.n	8001424 <HAL_RCC_OscConfig+0x284>
    }
    else
    {
      /* Disable the Internal Low Speed oscillator (LSI). */
      __HAL_RCC_LSI_DISABLE();
 80013ea:	4b0a      	ldr	r3, [pc, #40]	; (8001414 <HAL_RCC_OscConfig+0x274>)
 80013ec:	2200      	movs	r2, #0
 80013ee:	601a      	str	r2, [r3, #0]

      /* Get Start Tick */
      tickstart = HAL_GetTick();
 80013f0:	f7ff f910 	bl	8000614 <HAL_GetTick>
 80013f4:	6138      	str	r0, [r7, #16]

      /* Wait till LSI is disabled */
      while (__HAL_RCC_GET_FLAG(RCC_FLAG_LSIRDY) != RESET)
 80013f6:	e00f      	b.n	8001418 <HAL_RCC_OscConfig+0x278>
      {
        if ((HAL_GetTick() - tickstart) > LSI_TIMEOUT_VALUE)
 80013f8:	f7ff f90c 	bl	8000614 <HAL_GetTick>
 80013fc:	4602      	mov	r2, r0
 80013fe:	693b      	ldr	r3, [r7, #16]
 8001400:	1ad3      	subs	r3, r2, r3
 8001402:	2b02      	cmp	r3, #2
 8001404:	d908      	bls.n	8001418 <HAL_RCC_OscConfig+0x278>
        {
          return HAL_TIMEOUT;
 8001406:	2303      	movs	r3, #3
 8001408:	e146      	b.n	8001698 <HAL_RCC_OscConfig+0x4f8>
 800140a:	bf00      	nop
 800140c:	40021000 	.word	0x40021000
 8001410:	42420000 	.word	0x42420000
 8001414:	42420480 	.word	0x42420480
      while (__HAL_RCC_GET_FLAG(RCC_FLAG_LSIRDY) != RESET)
 8001418:	4b92      	ldr	r3, [pc, #584]	; (8001664 <HAL_RCC_OscConfig+0x4c4>)
 800141a:	6a5b      	ldr	r3, [r3, #36]	; 0x24
 800141c:	f003 0302 	and.w	r3, r3, #2
 8001420:	2b00      	cmp	r3, #0
 8001422:	d1e9      	bne.n	80013f8 <HAL_RCC_OscConfig+0x258>
        }
      }
    }
  }
  /*------------------------------ LSE Configuration -------------------------*/
  if (((RCC_OscInitStruct->OscillatorType) & RCC_OSCILLATORTYPE_LSE) == RCC_OSCILLATORTYPE_LSE)
 8001424:	687b      	ldr	r3, [r7, #4]
 8001426:	681b      	ldr	r3, [r3, #0]
 8001428:	f003 0304 	and.w	r3, r3, #4
 800142c:	2b00      	cmp	r3, #0
 800142e:	f000 80a6 	beq.w	800157e <HAL_RCC_OscConfig+0x3de>
  {
    FlagStatus       pwrclkchanged = RESET;
 8001432:	2300      	movs	r3, #0
 8001434:	75fb      	strb	r3, [r7, #23]
    /* Check the parameters */
    assert_param(IS_RCC_LSE(RCC_OscInitStruct->LSEState));

    /* Update LSE configuration in Backup Domain control register    */
    /* Requires to enable write access to Backup Domain of necessary */
    if (__HAL_RCC_PWR_IS_CLK_DISABLED())
 8001436:	4b8b      	ldr	r3, [pc, #556]	; (8001664 <HAL_RCC_OscConfig+0x4c4>)
 8001438:	69db      	ldr	r3, [r3, #28]
 800143a:	f003 5380 	and.w	r3, r3, #268435456	; 0x10000000
 800143e:	2b00      	cmp	r3, #0
 8001440:	d10d      	bne.n	800145e <HAL_RCC_OscConfig+0x2be>
    {
      __HAL_RCC_PWR_CLK_ENABLE();
 8001442:	4b88      	ldr	r3, [pc, #544]	; (8001664 <HAL_RCC_OscConfig+0x4c4>)
 8001444:	69db      	ldr	r3, [r3, #28]
 8001446:	4a87      	ldr	r2, [pc, #540]	; (8001664 <HAL_RCC_OscConfig+0x4c4>)
 8001448:	f043 5380 	orr.w	r3, r3, #268435456	; 0x10000000
 800144c:	61d3      	str	r3, [r2, #28]
 800144e:	4b85      	ldr	r3, [pc, #532]	; (8001664 <HAL_RCC_OscConfig+0x4c4>)
 8001450:	69db      	ldr	r3, [r3, #28]
 8001452:	f003 5380 	and.w	r3, r3, #268435456	; 0x10000000
 8001456:	60bb      	str	r3, [r7, #8]
 8001458:	68bb      	ldr	r3, [r7, #8]
      pwrclkchanged = SET;
 800145a:	2301      	movs	r3, #1
 800145c:	75fb      	strb	r3, [r7, #23]
    }

    if (HAL_IS_BIT_CLR(PWR->CR, PWR_CR_DBP))
 800145e:	4b82      	ldr	r3, [pc, #520]	; (8001668 <HAL_RCC_OscConfig+0x4c8>)
 8001460:	681b      	ldr	r3, [r3, #0]
 8001462:	f403 7380 	and.w	r3, r3, #256	; 0x100
 8001466:	2b00      	cmp	r3, #0
 8001468:	d118      	bne.n	800149c <HAL_RCC_OscConfig+0x2fc>
    {
      /* Enable write access to Backup domain */
      SET_BIT(PWR->CR, PWR_CR_DBP);
 800146a:	4b7f      	ldr	r3, [pc, #508]	; (8001668 <HAL_RCC_OscConfig+0x4c8>)
 800146c:	681b      	ldr	r3, [r3, #0]
 800146e:	4a7e      	ldr	r2, [pc, #504]	; (8001668 <HAL_RCC_OscConfig+0x4c8>)
 8001470:	f443 7380 	orr.w	r3, r3, #256	; 0x100
 8001474:	6013      	str	r3, [r2, #0]

      /* Wait for Backup domain Write protection disable */
      tickstart = HAL_GetTick();
 8001476:	f7ff f8cd 	bl	8000614 <HAL_GetTick>
 800147a:	6138      	str	r0, [r7, #16]

      while (HAL_IS_BIT_CLR(PWR->CR, PWR_CR_DBP))
 800147c:	e008      	b.n	8001490 <HAL_RCC_OscConfig+0x2f0>
      {
        if ((HAL_GetTick() - tickstart) > RCC_DBP_TIMEOUT_VALUE)
 800147e:	f7ff f8c9 	bl	8000614 <HAL_GetTick>
 8001482:	4602      	mov	r2, r0
 8001484:	693b      	ldr	r3, [r7, #16]
 8001486:	1ad3      	subs	r3, r2, r3
 8001488:	2b64      	cmp	r3, #100	; 0x64
 800148a:	d901      	bls.n	8001490 <HAL_RCC_OscConfig+0x2f0>
        {
          return HAL_TIMEOUT;
 800148c:	2303      	movs	r3, #3
 800148e:	e103      	b.n	8001698 <HAL_RCC_OscConfig+0x4f8>
      while (HAL_IS_BIT_CLR(PWR->CR, PWR_CR_DBP))
 8001490:	4b75      	ldr	r3, [pc, #468]	; (8001668 <HAL_RCC_OscConfig+0x4c8>)
 8001492:	681b      	ldr	r3, [r3, #0]
 8001494:	f403 7380 	and.w	r3, r3, #256	; 0x100
 8001498:	2b00      	cmp	r3, #0
 800149a:	d0f0      	beq.n	800147e <HAL_RCC_OscConfig+0x2de>
        }
      }
    }

    /* Set the new LSE configuration -----------------------------------------*/
    __HAL_RCC_LSE_CONFIG(RCC_OscInitStruct->LSEState);
 800149c:	687b      	ldr	r3, [r7, #4]
 800149e:	68db      	ldr	r3, [r3, #12]
 80014a0:	2b01      	cmp	r3, #1
 80014a2:	d106      	bne.n	80014b2 <HAL_RCC_OscConfig+0x312>
 80014a4:	4b6f      	ldr	r3, [pc, #444]	; (8001664 <HAL_RCC_OscConfig+0x4c4>)
 80014a6:	6a1b      	ldr	r3, [r3, #32]
 80014a8:	4a6e      	ldr	r2, [pc, #440]	; (8001664 <HAL_RCC_OscConfig+0x4c4>)
 80014aa:	f043 0301 	orr.w	r3, r3, #1
 80014ae:	6213      	str	r3, [r2, #32]
 80014b0:	e02d      	b.n	800150e <HAL_RCC_OscConfig+0x36e>
 80014b2:	687b      	ldr	r3, [r7, #4]
 80014b4:	68db      	ldr	r3, [r3, #12]
 80014b6:	2b00      	cmp	r3, #0
 80014b8:	d10c      	bne.n	80014d4 <HAL_RCC_OscConfig+0x334>
 80014ba:	4b6a      	ldr	r3, [pc, #424]	; (8001664 <HAL_RCC_OscConfig+0x4c4>)
 80014bc:	6a1b      	ldr	r3, [r3, #32]
 80014be:	4a69      	ldr	r2, [pc, #420]	; (8001664 <HAL_RCC_OscConfig+0x4c4>)
 80014c0:	f023 0301 	bic.w	r3, r3, #1
 80014c4:	6213      	str	r3, [r2, #32]
 80014c6:	4b67      	ldr	r3, [pc, #412]	; (8001664 <HAL_RCC_OscConfig+0x4c4>)
 80014c8:	6a1b      	ldr	r3, [r3, #32]
 80014ca:	4a66      	ldr	r2, [pc, #408]	; (8001664 <HAL_RCC_OscConfig+0x4c4>)
 80014cc:	f023 0304 	bic.w	r3, r3, #4
 80014d0:	6213      	str	r3, [r2, #32]
 80014d2:	e01c      	b.n	800150e <HAL_RCC_OscConfig+0x36e>
 80014d4:	687b      	ldr	r3, [r7, #4]
 80014d6:	68db      	ldr	r3, [r3, #12]
 80014d8:	2b05      	cmp	r3, #5
 80014da:	d10c      	bne.n	80014f6 <HAL_RCC_OscConfig+0x356>
 80014dc:	4b61      	ldr	r3, [pc, #388]	; (8001664 <HAL_RCC_OscConfig+0x4c4>)
 80014de:	6a1b      	ldr	r3, [r3, #32]
 80014e0:	4a60      	ldr	r2, [pc, #384]	; (8001664 <HAL_RCC_OscConfig+0x4c4>)
 80014e2:	f043 0304 	orr.w	r3, r3, #4
 80014e6:	6213      	str	r3, [r2, #32]
 80014e8:	4b5e      	ldr	r3, [pc, #376]	; (8001664 <HAL_RCC_OscConfig+0x4c4>)
 80014ea:	6a1b      	ldr	r3, [r3, #32]
 80014ec:	4a5d      	ldr	r2, [pc, #372]	; (8001664 <HAL_RCC_OscConfig+0x4c4>)
 80014ee:	f043 0301 	orr.w	r3, r3, #1
 80014f2:	6213      	str	r3, [r2, #32]
 80014f4:	e00b      	b.n	800150e <HAL_RCC_OscConfig+0x36e>
 80014f6:	4b5b      	ldr	r3, [pc, #364]	; (8001664 <HAL_RCC_OscConfig+0x4c4>)
 80014f8:	6a1b      	ldr	r3, [r3, #32]
 80014fa:	4a5a      	ldr	r2, [pc, #360]	; (8001664 <HAL_RCC_OscConfig+0x4c4>)
 80014fc:	f023 0301 	bic.w	r3, r3, #1
 8001500:	6213      	str	r3, [r2, #32]
 8001502:	4b58      	ldr	r3, [pc, #352]	; (8001664 <HAL_RCC_OscConfig+0x4c4>)
 8001504:	6a1b      	ldr	r3, [r3, #32]
 8001506:	4a57      	ldr	r2, [pc, #348]	; (8001664 <HAL_RCC_OscConfig+0x4c4>)
 8001508:	f023 0304 	bic.w	r3, r3, #4
 800150c:	6213      	str	r3, [r2, #32]
    /* Check the LSE State */
    if (RCC_OscInitStruct->LSEState != RCC_LSE_OFF)
 800150e:	687b      	ldr	r3, [r7, #4]
 8001510:	68db      	ldr	r3, [r3, #12]
 8001512:	2b00      	cmp	r3, #0
 8001514:	d015      	beq.n	8001542 <HAL_RCC_OscConfig+0x3a2>
    {
      /* Get Start Tick */
      tickstart = HAL_GetTick();
 8001516:	f7ff f87d 	bl	8000614 <HAL_GetTick>
 800151a:	6138      	str	r0, [r7, #16]

      /* Wait till LSE is ready */
      while (__HAL_RCC_GET_FLAG(RCC_FLAG_LSERDY) == RESET)
 800151c:	e00a      	b.n	8001534 <HAL_RCC_OscConfig+0x394>
      {
        if ((HAL_GetTick() - tickstart) > RCC_LSE_TIMEOUT_VALUE)
 800151e:	f7ff f879 	bl	8000614 <HAL_GetTick>
 8001522:	4602      	mov	r2, r0
 8001524:	693b      	ldr	r3, [r7, #16]
 8001526:	1ad3      	subs	r3, r2, r3
 8001528:	f241 3288 	movw	r2, #5000	; 0x1388
 800152c:	4293      	cmp	r3, r2
 800152e:	d901      	bls.n	8001534 <HAL_RCC_OscConfig+0x394>
        {
          return HAL_TIMEOUT;
 8001530:	2303      	movs	r3, #3
 8001532:	e0b1      	b.n	8001698 <HAL_RCC_OscConfig+0x4f8>
      while (__HAL_RCC_GET_FLAG(RCC_FLAG_LSERDY) == RESET)
 8001534:	4b4b      	ldr	r3, [pc, #300]	; (8001664 <HAL_RCC_OscConfig+0x4c4>)
 8001536:	6a1b      	ldr	r3, [r3, #32]
 8001538:	f003 0302 	and.w	r3, r3, #2
 800153c:	2b00      	cmp	r3, #0
 800153e:	d0ee      	beq.n	800151e <HAL_RCC_OscConfig+0x37e>
 8001540:	e014      	b.n	800156c <HAL_RCC_OscConfig+0x3cc>
      }
    }
    else
    {
      /* Get Start Tick */
      tickstart = HAL_GetTick();
 8001542:	f7ff f867 	bl	8000614 <HAL_GetTick>
 8001546:	6138      	str	r0, [r7, #16]

      /* Wait till LSE is disabled */
      while (__HAL_RCC_GET_FLAG(RCC_FLAG_LSERDY) != RESET)
 8001548:	e00a      	b.n	8001560 <HAL_RCC_OscConfig+0x3c0>
      {
        if ((HAL_GetTick() - tickstart) > RCC_LSE_TIMEOUT_VALUE)
 800154a:	f7ff f863 	bl	8000614 <HAL_GetTick>
 800154e:	4602      	mov	r2, r0
 8001550:	693b      	ldr	r3, [r7, #16]
 8001552:	1ad3      	subs	r3, r2, r3
 8001554:	f241 3288 	movw	r2, #5000	; 0x1388
 8001558:	4293      	cmp	r3, r2
 800155a:	d901      	bls.n	8001560 <HAL_RCC_OscConfig+0x3c0>
        {
          return HAL_TIMEOUT;
 800155c:	2303      	movs	r3, #3
 800155e:	e09b      	b.n	8001698 <HAL_RCC_OscConfig+0x4f8>
      while (__HAL_RCC_GET_FLAG(RCC_FLAG_LSERDY) != RESET)
 8001560:	4b40      	ldr	r3, [pc, #256]	; (8001664 <HAL_RCC_OscConfig+0x4c4>)
 8001562:	6a1b      	ldr	r3, [r3, #32]
 8001564:	f003 0302 	and.w	r3, r3, #2
 8001568:	2b00      	cmp	r3, #0
 800156a:	d1ee      	bne.n	800154a <HAL_RCC_OscConfig+0x3aa>
        }
      }
    }

    /* Require to disable power clock if necessary */
    if (pwrclkchanged == SET)
 800156c:	7dfb      	ldrb	r3, [r7, #23]
 800156e:	2b01      	cmp	r3, #1
 8001570:	d105      	bne.n	800157e <HAL_RCC_OscConfig+0x3de>
    {
      __HAL_RCC_PWR_CLK_DISABLE();
 8001572:	4b3c      	ldr	r3, [pc, #240]	; (8001664 <HAL_RCC_OscConfig+0x4c4>)
 8001574:	69db      	ldr	r3, [r3, #28]
 8001576:	4a3b      	ldr	r2, [pc, #236]	; (8001664 <HAL_RCC_OscConfig+0x4c4>)
 8001578:	f023 5380 	bic.w	r3, r3, #268435456	; 0x10000000
 800157c:	61d3      	str	r3, [r2, #28]

#endif /* RCC_CR_PLL2ON */
  /*-------------------------------- PLL Configuration -----------------------*/
  /* Check the parameters */
  assert_param(IS_RCC_PLL(RCC_OscInitStruct->PLL.PLLState));
  if ((RCC_OscInitStruct->PLL.PLLState) != RCC_PLL_NONE)
 800157e:	687b      	ldr	r3, [r7, #4]
 8001580:	69db      	ldr	r3, [r3, #28]
 8001582:	2b00      	cmp	r3, #0
 8001584:	f000 8087 	beq.w	8001696 <HAL_RCC_OscConfig+0x4f6>
  {
    /* Check if the PLL is used as system clock or not */
    if (__HAL_RCC_GET_SYSCLK_SOURCE() != RCC_SYSCLKSOURCE_STATUS_PLLCLK)
 8001588:	4b36      	ldr	r3, [pc, #216]	; (8001664 <HAL_RCC_OscConfig+0x4c4>)
 800158a:	685b      	ldr	r3, [r3, #4]
 800158c:	f003 030c 	and.w	r3, r3, #12
 8001590:	2b08      	cmp	r3, #8
 8001592:	d061      	beq.n	8001658 <HAL_RCC_OscConfig+0x4b8>
    {
      if ((RCC_OscInitStruct->PLL.PLLState) == RCC_PLL_ON)
 8001594:	687b      	ldr	r3, [r7, #4]
 8001596:	69db      	ldr	r3, [r3, #28]
 8001598:	2b02      	cmp	r3, #2
 800159a:	d146      	bne.n	800162a <HAL_RCC_OscConfig+0x48a>
        /* Check the parameters */
        assert_param(IS_RCC_PLLSOURCE(RCC_OscInitStruct->PLL.PLLSource));
        assert_param(IS_RCC_PLL_MUL(RCC_OscInitStruct->PLL.PLLMUL));

        /* Disable the main PLL. */
        __HAL_RCC_PLL_DISABLE();
 800159c:	4b33      	ldr	r3, [pc, #204]	; (800166c <HAL_RCC_OscConfig+0x4cc>)
 800159e:	2200      	movs	r2, #0
 80015a0:	601a      	str	r2, [r3, #0]

        /* Get Start Tick */
        tickstart = HAL_GetTick();
 80015a2:	f7ff f837 	bl	8000614 <HAL_GetTick>
 80015a6:	6138      	str	r0, [r7, #16]

        /* Wait till PLL is disabled */
        while (__HAL_RCC_GET_FLAG(RCC_FLAG_PLLRDY)  != RESET)
 80015a8:	e008      	b.n	80015bc <HAL_RCC_OscConfig+0x41c>
        {
          if ((HAL_GetTick() - tickstart) > PLL_TIMEOUT_VALUE)
 80015aa:	f7ff f833 	bl	8000614 <HAL_GetTick>
 80015ae:	4602      	mov	r2, r0
 80015b0:	693b      	ldr	r3, [r7, #16]
 80015b2:	1ad3      	subs	r3, r2, r3
 80015b4:	2b02      	cmp	r3, #2
 80015b6:	d901      	bls.n	80015bc <HAL_RCC_OscConfig+0x41c>
          {
            return HAL_TIMEOUT;
 80015b8:	2303      	movs	r3, #3
 80015ba:	e06d      	b.n	8001698 <HAL_RCC_OscConfig+0x4f8>
        while (__HAL_RCC_GET_FLAG(RCC_FLAG_PLLRDY)  != RESET)
 80015bc:	4b29      	ldr	r3, [pc, #164]	; (8001664 <HAL_RCC_OscConfig+0x4c4>)
 80015be:	681b      	ldr	r3, [r3, #0]
 80015c0:	f003 7300 	and.w	r3, r3, #33554432	; 0x2000000
 80015c4:	2b00      	cmp	r3, #0
 80015c6:	d1f0      	bne.n	80015aa <HAL_RCC_OscConfig+0x40a>
          }
        }

        /* Configure the HSE prediv factor --------------------------------*/
        /* It can be written only when the PLL is disabled. Not used in PLL source is different than HSE */
        if (RCC_OscInitStruct->PLL.PLLSource == RCC_PLLSOURCE_HSE)
 80015c8:	687b      	ldr	r3, [r7, #4]
 80015ca:	6a1b      	ldr	r3, [r3, #32]
 80015cc:	f5b3 3f80 	cmp.w	r3, #65536	; 0x10000
 80015d0:	d108      	bne.n	80015e4 <HAL_RCC_OscConfig+0x444>
          /* Set PREDIV1 source */
          SET_BIT(RCC->CFGR2, RCC_OscInitStruct->Prediv1Source);
#endif /* RCC_CFGR2_PREDIV1SRC */

          /* Set PREDIV1 Value */
          __HAL_RCC_HSE_PREDIV_CONFIG(RCC_OscInitStruct->HSEPredivValue);
 80015d2:	4b24      	ldr	r3, [pc, #144]	; (8001664 <HAL_RCC_OscConfig+0x4c4>)
 80015d4:	685b      	ldr	r3, [r3, #4]
 80015d6:	f423 3200 	bic.w	r2, r3, #131072	; 0x20000
 80015da:	687b      	ldr	r3, [r7, #4]
 80015dc:	689b      	ldr	r3, [r3, #8]
 80015de:	4921      	ldr	r1, [pc, #132]	; (8001664 <HAL_RCC_OscConfig+0x4c4>)
 80015e0:	4313      	orrs	r3, r2
 80015e2:	604b      	str	r3, [r1, #4]
        }

        /* Configure the main PLL clock source and multiplication factors. */
        __HAL_RCC_PLL_CONFIG(RCC_OscInitStruct->PLL.PLLSource,
 80015e4:	4b1f      	ldr	r3, [pc, #124]	; (8001664 <HAL_RCC_OscConfig+0x4c4>)
 80015e6:	685b      	ldr	r3, [r3, #4]
 80015e8:	f423 1274 	bic.w	r2, r3, #3997696	; 0x3d0000
 80015ec:	687b      	ldr	r3, [r7, #4]
 80015ee:	6a19      	ldr	r1, [r3, #32]
 80015f0:	687b      	ldr	r3, [r7, #4]
 80015f2:	6a5b      	ldr	r3, [r3, #36]	; 0x24
 80015f4:	430b      	orrs	r3, r1
 80015f6:	491b      	ldr	r1, [pc, #108]	; (8001664 <HAL_RCC_OscConfig+0x4c4>)
 80015f8:	4313      	orrs	r3, r2
 80015fa:	604b      	str	r3, [r1, #4]
                             RCC_OscInitStruct->PLL.PLLMUL);
        /* Enable the main PLL. */
        __HAL_RCC_PLL_ENABLE();
 80015fc:	4b1b      	ldr	r3, [pc, #108]	; (800166c <HAL_RCC_OscConfig+0x4cc>)
 80015fe:	2201      	movs	r2, #1
 8001600:	601a      	str	r2, [r3, #0]

        /* Get Start Tick */
        tickstart = HAL_GetTick();
 8001602:	f7ff f807 	bl	8000614 <HAL_GetTick>
 8001606:	6138      	str	r0, [r7, #16]

        /* Wait till PLL is ready */
        while (__HAL_RCC_GET_FLAG(RCC_FLAG_PLLRDY)  == RESET)
 8001608:	e008      	b.n	800161c <HAL_RCC_OscConfig+0x47c>
        {
          if ((HAL_GetTick() - tickstart) > PLL_TIMEOUT_VALUE)
 800160a:	f7ff f803 	bl	8000614 <HAL_GetTick>
 800160e:	4602      	mov	r2, r0
 8001610:	693b      	ldr	r3, [r7, #16]
 8001612:	1ad3      	subs	r3, r2, r3
 8001614:	2b02      	cmp	r3, #2
 8001616:	d901      	bls.n	800161c <HAL_RCC_OscConfig+0x47c>
          {
            return HAL_TIMEOUT;
 8001618:	2303      	movs	r3, #3
 800161a:	e03d      	b.n	8001698 <HAL_RCC_OscConfig+0x4f8>
        while (__HAL_RCC_GET_FLAG(RCC_FLAG_PLLRDY)  == RESET)
 800161c:	4b11      	ldr	r3, [pc, #68]	; (8001664 <HAL_RCC_OscConfig+0x4c4>)
 800161e:	681b      	ldr	r3, [r3, #0]
 8001620:	f003 7300 	and.w	r3, r3, #33554432	; 0x2000000
 8001624:	2b00      	cmp	r3, #0
 8001626:	d0f0      	beq.n	800160a <HAL_RCC_OscConfig+0x46a>
 8001628:	e035      	b.n	8001696 <HAL_RCC_OscConfig+0x4f6>
        }
      }
      else
      {
        /* Disable the main PLL. */
        __HAL_RCC_PLL_DISABLE();
 800162a:	4b10      	ldr	r3, [pc, #64]	; (800166c <HAL_RCC_OscConfig+0x4cc>)
 800162c:	2200      	movs	r2, #0
 800162e:	601a      	str	r2, [r3, #0]

        /* Get Start Tick */
        tickstart = HAL_GetTick();
 8001630:	f7fe fff0 	bl	8000614 <HAL_GetTick>
 8001634:	6138      	str	r0, [r7, #16]

        /* Wait till PLL is disabled */
        while (__HAL_RCC_GET_FLAG(RCC_FLAG_PLLRDY)  != RESET)
 8001636:	e008      	b.n	800164a <HAL_RCC_OscConfig+0x4aa>
        {
          if ((HAL_GetTick() - tickstart) > PLL_TIMEOUT_VALUE)
 8001638:	f7fe ffec 	bl	8000614 <HAL_GetTick>
 800163c:	4602      	mov	r2, r0
 800163e:	693b      	ldr	r3, [r7, #16]
 8001640:	1ad3      	subs	r3, r2, r3
 8001642:	2b02      	cmp	r3, #2
 8001644:	d901      	bls.n	800164a <HAL_RCC_OscConfig+0x4aa>
          {
            return HAL_TIMEOUT;
 8001646:	2303      	movs	r3, #3
 8001648:	e026      	b.n	8001698 <HAL_RCC_OscConfig+0x4f8>
        while (__HAL_RCC_GET_FLAG(RCC_FLAG_PLLRDY)  != RESET)
 800164a:	4b06      	ldr	r3, [pc, #24]	; (8001664 <HAL_RCC_OscConfig+0x4c4>)
 800164c:	681b      	ldr	r3, [r3, #0]
 800164e:	f003 7300 	and.w	r3, r3, #33554432	; 0x2000000
 8001652:	2b00      	cmp	r3, #0
 8001654:	d1f0      	bne.n	8001638 <HAL_RCC_OscConfig+0x498>
 8001656:	e01e      	b.n	8001696 <HAL_RCC_OscConfig+0x4f6>
      }
    }
    else
    {
      /* Check if there is a request to disable the PLL used as System clock source */
      if ((RCC_OscInitStruct->PLL.PLLState) == RCC_PLL_OFF)
 8001658:	687b      	ldr	r3, [r7, #4]
 800165a:	69db      	ldr	r3, [r3, #28]
 800165c:	2b01      	cmp	r3, #1
 800165e:	d107      	bne.n	8001670 <HAL_RCC_OscConfig+0x4d0>
      {
        return HAL_ERROR;
 8001660:	2301      	movs	r3, #1
 8001662:	e019      	b.n	8001698 <HAL_RCC_OscConfig+0x4f8>
 8001664:	40021000 	.word	0x40021000
 8001668:	40007000 	.word	0x40007000
 800166c:	42420060 	.word	0x42420060
      }
      else
      {
        /* Do not return HAL_ERROR if request repeats the current configuration */
        pll_config = RCC->CFGR;
 8001670:	4b0b      	ldr	r3, [pc, #44]	; (80016a0 <HAL_RCC_OscConfig+0x500>)
 8001672:	685b      	ldr	r3, [r3, #4]
 8001674:	60fb      	str	r3, [r7, #12]
        if ((READ_BIT(pll_config, RCC_CFGR_PLLSRC) != RCC_OscInitStruct->PLL.PLLSource) ||
 8001676:	68fb      	ldr	r3, [r7, #12]
 8001678:	f403 3280 	and.w	r2, r3, #65536	; 0x10000
 800167c:	687b      	ldr	r3, [r7, #4]
 800167e:	6a1b      	ldr	r3, [r3, #32]
 8001680:	429a      	cmp	r2, r3
 8001682:	d106      	bne.n	8001692 <HAL_RCC_OscConfig+0x4f2>
            (READ_BIT(pll_config, RCC_CFGR_PLLMULL) != RCC_OscInitStruct->PLL.PLLMUL))
 8001684:	68fb      	ldr	r3, [r7, #12]
 8001686:	f403 1270 	and.w	r2, r3, #3932160	; 0x3c0000
 800168a:	687b      	ldr	r3, [r7, #4]
 800168c:	6a5b      	ldr	r3, [r3, #36]	; 0x24
        if ((READ_BIT(pll_config, RCC_CFGR_PLLSRC) != RCC_OscInitStruct->PLL.PLLSource) ||
 800168e:	429a      	cmp	r2, r3
 8001690:	d001      	beq.n	8001696 <HAL_RCC_OscConfig+0x4f6>
        {
          return HAL_ERROR;
 8001692:	2301      	movs	r3, #1
 8001694:	e000      	b.n	8001698 <HAL_RCC_OscConfig+0x4f8>
        }
      }
    }
  }

  return HAL_OK;
 8001696:	2300      	movs	r3, #0
}
 8001698:	4618      	mov	r0, r3
 800169a:	3718      	adds	r7, #24
 800169c:	46bd      	mov	sp, r7
 800169e:	bd80      	pop	{r7, pc}
 80016a0:	40021000 	.word	0x40021000

080016a4 <HAL_RCC_ClockConfig>:
  *         You can use @ref HAL_RCC_GetClockConfig() function to know which clock is
  *         currently used as system clock source.
  * @retval HAL status
  */
HAL_StatusTypeDef HAL_RCC_ClockConfig(RCC_ClkInitTypeDef  *RCC_ClkInitStruct, uint32_t FLatency)
{
 80016a4:	b580      	push	{r7, lr}
 80016a6:	b084      	sub	sp, #16
 80016a8:	af00      	add	r7, sp, #0
 80016aa:	6078      	str	r0, [r7, #4]
 80016ac:	6039      	str	r1, [r7, #0]
  uint32_t tickstart;

  /* Check Null pointer */
  if (RCC_ClkInitStruct == NULL)
 80016ae:	687b      	ldr	r3, [r7, #4]
 80016b0:	2b00      	cmp	r3, #0
 80016b2:	d101      	bne.n	80016b8 <HAL_RCC_ClockConfig+0x14>
  {
    return HAL_ERROR;
 80016b4:	2301      	movs	r3, #1
 80016b6:	e0d0      	b.n	800185a <HAL_RCC_ClockConfig+0x1b6>
  must be correctly programmed according to the frequency of the CPU clock
    (HCLK) of the device. */

#if defined(FLASH_ACR_LATENCY)
  /* Increasing the number of wait states because of higher CPU frequency */
  if (FLatency > __HAL_FLASH_GET_LATENCY())
 80016b8:	4b6a      	ldr	r3, [pc, #424]	; (8001864 <HAL_RCC_ClockConfig+0x1c0>)
 80016ba:	681b      	ldr	r3, [r3, #0]
 80016bc:	f003 0307 	and.w	r3, r3, #7
 80016c0:	683a      	ldr	r2, [r7, #0]
 80016c2:	429a      	cmp	r2, r3
 80016c4:	d910      	bls.n	80016e8 <HAL_RCC_ClockConfig+0x44>
  {
    /* Program the new number of wait states to the LATENCY bits in the FLASH_ACR register */
    __HAL_FLASH_SET_LATENCY(FLatency);
 80016c6:	4b67      	ldr	r3, [pc, #412]	; (8001864 <HAL_RCC_ClockConfig+0x1c0>)
 80016c8:	681b      	ldr	r3, [r3, #0]
 80016ca:	f023 0207 	bic.w	r2, r3, #7
 80016ce:	4965      	ldr	r1, [pc, #404]	; (8001864 <HAL_RCC_ClockConfig+0x1c0>)
 80016d0:	683b      	ldr	r3, [r7, #0]
 80016d2:	4313      	orrs	r3, r2
 80016d4:	600b      	str	r3, [r1, #0]

    /* Check that the new number of wait states is taken into account to access the Flash
    memory by reading the FLASH_ACR register */
    if (__HAL_FLASH_GET_LATENCY() != FLatency)
 80016d6:	4b63      	ldr	r3, [pc, #396]	; (8001864 <HAL_RCC_ClockConfig+0x1c0>)
 80016d8:	681b      	ldr	r3, [r3, #0]
 80016da:	f003 0307 	and.w	r3, r3, #7
 80016de:	683a      	ldr	r2, [r7, #0]
 80016e0:	429a      	cmp	r2, r3
 80016e2:	d001      	beq.n	80016e8 <HAL_RCC_ClockConfig+0x44>
  {
    return HAL_ERROR;
 80016e4:	2301      	movs	r3, #1
 80016e6:	e0b8      	b.n	800185a <HAL_RCC_ClockConfig+0x1b6>
  }
}

#endif /* FLASH_ACR_LATENCY */
/*-------------------------- HCLK Configuration --------------------------*/
if (((RCC_ClkInitStruct->ClockType) & RCC_CLOCKTYPE_HCLK) == RCC_CLOCKTYPE_HCLK)
 80016e8:	687b      	ldr	r3, [r7, #4]
 80016ea:	681b      	ldr	r3, [r3, #0]
 80016ec:	f003 0302 	and.w	r3, r3, #2
 80016f0:	2b00      	cmp	r3, #0
 80016f2:	d020      	beq.n	8001736 <HAL_RCC_ClockConfig+0x92>
  {
    /* Set the highest APBx dividers in order to ensure that we do not go through
    a non-spec phase whatever we decrease or increase HCLK. */
    if (((RCC_ClkInitStruct->ClockType) & RCC_CLOCKTYPE_PCLK1) == RCC_CLOCKTYPE_PCLK1)
 80016f4:	687b      	ldr	r3, [r7, #4]
 80016f6:	681b      	ldr	r3, [r3, #0]
 80016f8:	f003 0304 	and.w	r3, r3, #4
 80016fc:	2b00      	cmp	r3, #0
 80016fe:	d005      	beq.n	800170c <HAL_RCC_ClockConfig+0x68>
    {
      MODIFY_REG(RCC->CFGR, RCC_CFGR_PPRE1, RCC_HCLK_DIV16);
 8001700:	4b59      	ldr	r3, [pc, #356]	; (8001868 <HAL_RCC_ClockConfig+0x1c4>)
 8001702:	685b      	ldr	r3, [r3, #4]
 8001704:	4a58      	ldr	r2, [pc, #352]	; (8001868 <HAL_RCC_ClockConfig+0x1c4>)
 8001706:	f443 63e0 	orr.w	r3, r3, #1792	; 0x700
 800170a:	6053      	str	r3, [r2, #4]
    }

    if (((RCC_ClkInitStruct->ClockType) & RCC_CLOCKTYPE_PCLK2) == RCC_CLOCKTYPE_PCLK2)
 800170c:	687b      	ldr	r3, [r7, #4]
 800170e:	681b      	ldr	r3, [r3, #0]
 8001710:	f003 0308 	and.w	r3, r3, #8
 8001714:	2b00      	cmp	r3, #0
 8001716:	d005      	beq.n	8001724 <HAL_RCC_ClockConfig+0x80>
    {
      MODIFY_REG(RCC->CFGR, RCC_CFGR_PPRE2, (RCC_HCLK_DIV16 << 3));
 8001718:	4b53      	ldr	r3, [pc, #332]	; (8001868 <HAL_RCC_ClockConfig+0x1c4>)
 800171a:	685b      	ldr	r3, [r3, #4]
 800171c:	4a52      	ldr	r2, [pc, #328]	; (8001868 <HAL_RCC_ClockConfig+0x1c4>)
 800171e:	f443 5360 	orr.w	r3, r3, #14336	; 0x3800
 8001722:	6053      	str	r3, [r2, #4]
    }

    /* Set the new HCLK clock divider */
    assert_param(IS_RCC_HCLK(RCC_ClkInitStruct->AHBCLKDivider));
    MODIFY_REG(RCC->CFGR, RCC_CFGR_HPRE, RCC_ClkInitStruct->AHBCLKDivider);
 8001724:	4b50      	ldr	r3, [pc, #320]	; (8001868 <HAL_RCC_ClockConfig+0x1c4>)
 8001726:	685b      	ldr	r3, [r3, #4]
 8001728:	f023 02f0 	bic.w	r2, r3, #240	; 0xf0
 800172c:	687b      	ldr	r3, [r7, #4]
 800172e:	689b      	ldr	r3, [r3, #8]
 8001730:	494d      	ldr	r1, [pc, #308]	; (8001868 <HAL_RCC_ClockConfig+0x1c4>)
 8001732:	4313      	orrs	r3, r2
 8001734:	604b      	str	r3, [r1, #4]
  }

  /*------------------------- SYSCLK Configuration ---------------------------*/
  if (((RCC_ClkInitStruct->ClockType) & RCC_CLOCKTYPE_SYSCLK) == RCC_CLOCKTYPE_SYSCLK)
 8001736:	687b      	ldr	r3, [r7, #4]
 8001738:	681b      	ldr	r3, [r3, #0]
 800173a:	f003 0301 	and.w	r3, r3, #1
 800173e:	2b00      	cmp	r3, #0
 8001740:	d040      	beq.n	80017c4 <HAL_RCC_ClockConfig+0x120>
  {
    assert_param(IS_RCC_SYSCLKSOURCE(RCC_ClkInitStruct->SYSCLKSource));

    /* HSE is selected as System Clock Source */
    if (RCC_ClkInitStruct->SYSCLKSource == RCC_SYSCLKSOURCE_HSE)
 8001742:	687b      	ldr	r3, [r7, #4]
 8001744:	685b      	ldr	r3, [r3, #4]
 8001746:	2b01      	cmp	r3, #1
 8001748:	d107      	bne.n	800175a <HAL_RCC_ClockConfig+0xb6>
    {
      /* Check the HSE ready flag */
      if (__HAL_RCC_GET_FLAG(RCC_FLAG_HSERDY) == RESET)
 800174a:	4b47      	ldr	r3, [pc, #284]	; (8001868 <HAL_RCC_ClockConfig+0x1c4>)
 800174c:	681b      	ldr	r3, [r3, #0]
 800174e:	f403 3300 	and.w	r3, r3, #131072	; 0x20000
 8001752:	2b00      	cmp	r3, #0
 8001754:	d115      	bne.n	8001782 <HAL_RCC_ClockConfig+0xde>
      {
        return HAL_ERROR;
 8001756:	2301      	movs	r3, #1
 8001758:	e07f      	b.n	800185a <HAL_RCC_ClockConfig+0x1b6>
      }
    }
    /* PLL is selected as System Clock Source */
    else if (RCC_ClkInitStruct->SYSCLKSource == RCC_SYSCLKSOURCE_PLLCLK)
 800175a:	687b      	ldr	r3, [r7, #4]
 800175c:	685b      	ldr	r3, [r3, #4]
 800175e:	2b02      	cmp	r3, #2
 8001760:	d107      	bne.n	8001772 <HAL_RCC_ClockConfig+0xce>
    {
      /* Check the PLL ready flag */
      if (__HAL_RCC_GET_FLAG(RCC_FLAG_PLLRDY) == RESET)
 8001762:	4b41      	ldr	r3, [pc, #260]	; (8001868 <HAL_RCC_ClockConfig+0x1c4>)
 8001764:	681b      	ldr	r3, [r3, #0]
 8001766:	f003 7300 	and.w	r3, r3, #33554432	; 0x2000000
 800176a:	2b00      	cmp	r3, #0
 800176c:	d109      	bne.n	8001782 <HAL_RCC_ClockConfig+0xde>
      {
        return HAL_ERROR;
 800176e:	2301      	movs	r3, #1
 8001770:	e073      	b.n	800185a <HAL_RCC_ClockConfig+0x1b6>
    }
    /* HSI is selected as System Clock Source */
    else
    {
      /* Check the HSI ready flag */
      if (__HAL_RCC_GET_FLAG(RCC_FLAG_HSIRDY) == RESET)
 8001772:	4b3d      	ldr	r3, [pc, #244]	; (8001868 <HAL_RCC_ClockConfig+0x1c4>)
 8001774:	681b      	ldr	r3, [r3, #0]
 8001776:	f003 0302 	and.w	r3, r3, #2
 800177a:	2b00      	cmp	r3, #0
 800177c:	d101      	bne.n	8001782 <HAL_RCC_ClockConfig+0xde>
      {
        return HAL_ERROR;
 800177e:	2301      	movs	r3, #1
 8001780:	e06b      	b.n	800185a <HAL_RCC_ClockConfig+0x1b6>
      }
    }
    __HAL_RCC_SYSCLK_CONFIG(RCC_ClkInitStruct->SYSCLKSource);
 8001782:	4b39      	ldr	r3, [pc, #228]	; (8001868 <HAL_RCC_ClockConfig+0x1c4>)
 8001784:	685b      	ldr	r3, [r3, #4]
 8001786:	f023 0203 	bic.w	r2, r3, #3
 800178a:	687b      	ldr	r3, [r7, #4]
 800178c:	685b      	ldr	r3, [r3, #4]
 800178e:	4936      	ldr	r1, [pc, #216]	; (8001868 <HAL_RCC_ClockConfig+0x1c4>)
 8001790:	4313      	orrs	r3, r2
 8001792:	604b      	str	r3, [r1, #4]

    /* Get Start Tick */
    tickstart = HAL_GetTick();
 8001794:	f7fe ff3e 	bl	8000614 <HAL_GetTick>
 8001798:	60f8      	str	r0, [r7, #12]

    while (__HAL_RCC_GET_SYSCLK_SOURCE() != (RCC_ClkInitStruct->SYSCLKSource << RCC_CFGR_SWS_Pos))
 800179a:	e00a      	b.n	80017b2 <HAL_RCC_ClockConfig+0x10e>
    {
      if ((HAL_GetTick() - tickstart) > CLOCKSWITCH_TIMEOUT_VALUE)
 800179c:	f7fe ff3a 	bl	8000614 <HAL_GetTick>
 80017a0:	4602      	mov	r2, r0
 80017a2:	68fb      	ldr	r3, [r7, #12]
 80017a4:	1ad3      	subs	r3, r2, r3
 80017a6:	f241 3288 	movw	r2, #5000	; 0x1388
 80017aa:	4293      	cmp	r3, r2
 80017ac:	d901      	bls.n	80017b2 <HAL_RCC_ClockConfig+0x10e>
      {
        return HAL_TIMEOUT;
 80017ae:	2303      	movs	r3, #3
 80017b0:	e053      	b.n	800185a <HAL_RCC_ClockConfig+0x1b6>
    while (__HAL_RCC_GET_SYSCLK_SOURCE() != (RCC_ClkInitStruct->SYSCLKSource << RCC_CFGR_SWS_Pos))
 80017b2:	4b2d      	ldr	r3, [pc, #180]	; (8001868 <HAL_RCC_ClockConfig+0x1c4>)
 80017b4:	685b      	ldr	r3, [r3, #4]
 80017b6:	f003 020c 	and.w	r2, r3, #12
 80017ba:	687b      	ldr	r3, [r7, #4]
 80017bc:	685b      	ldr	r3, [r3, #4]
 80017be:	009b      	lsls	r3, r3, #2
 80017c0:	429a      	cmp	r2, r3
 80017c2:	d1eb      	bne.n	800179c <HAL_RCC_ClockConfig+0xf8>
    }
  }

#if defined(FLASH_ACR_LATENCY)
  /* Decreasing the number of wait states because of lower CPU frequency */
  if (FLatency < __HAL_FLASH_GET_LATENCY())
 80017c4:	4b27      	ldr	r3, [pc, #156]	; (8001864 <HAL_RCC_ClockConfig+0x1c0>)
 80017c6:	681b      	ldr	r3, [r3, #0]
 80017c8:	f003 0307 	and.w	r3, r3, #7
 80017cc:	683a      	ldr	r2, [r7, #0]
 80017ce:	429a      	cmp	r2, r3
 80017d0:	d210      	bcs.n	80017f4 <HAL_RCC_ClockConfig+0x150>
  {
    /* Program the new number of wait states to the LATENCY bits in the FLASH_ACR register */
    __HAL_FLASH_SET_LATENCY(FLatency);
 80017d2:	4b24      	ldr	r3, [pc, #144]	; (8001864 <HAL_RCC_ClockConfig+0x1c0>)
 80017d4:	681b      	ldr	r3, [r3, #0]
 80017d6:	f023 0207 	bic.w	r2, r3, #7
 80017da:	4922      	ldr	r1, [pc, #136]	; (8001864 <HAL_RCC_ClockConfig+0x1c0>)
 80017dc:	683b      	ldr	r3, [r7, #0]
 80017de:	4313      	orrs	r3, r2
 80017e0:	600b      	str	r3, [r1, #0]

    /* Check that the new number of wait states is taken into account to access the Flash
    memory by reading the FLASH_ACR register */
    if (__HAL_FLASH_GET_LATENCY() != FLatency)
 80017e2:	4b20      	ldr	r3, [pc, #128]	; (8001864 <HAL_RCC_ClockConfig+0x1c0>)
 80017e4:	681b      	ldr	r3, [r3, #0]
 80017e6:	f003 0307 	and.w	r3, r3, #7
 80017ea:	683a      	ldr	r2, [r7, #0]
 80017ec:	429a      	cmp	r2, r3
 80017ee:	d001      	beq.n	80017f4 <HAL_RCC_ClockConfig+0x150>
  {
    return HAL_ERROR;
 80017f0:	2301      	movs	r3, #1
 80017f2:	e032      	b.n	800185a <HAL_RCC_ClockConfig+0x1b6>
  }
}
#endif /* FLASH_ACR_LATENCY */

/*-------------------------- PCLK1 Configuration ---------------------------*/
if (((RCC_ClkInitStruct->ClockType) & RCC_CLOCKTYPE_PCLK1) == RCC_CLOCKTYPE_PCLK1)
 80017f4:	687b      	ldr	r3, [r7, #4]
 80017f6:	681b      	ldr	r3, [r3, #0]
 80017f8:	f003 0304 	and.w	r3, r3, #4
 80017fc:	2b00      	cmp	r3, #0
 80017fe:	d008      	beq.n	8001812 <HAL_RCC_ClockConfig+0x16e>
  {
    assert_param(IS_RCC_PCLK(RCC_ClkInitStruct->APB1CLKDivider));
    MODIFY_REG(RCC->CFGR, RCC_CFGR_PPRE1, RCC_ClkInitStruct->APB1CLKDivider);
 8001800:	4b19      	ldr	r3, [pc, #100]	; (8001868 <HAL_RCC_ClockConfig+0x1c4>)
 8001802:	685b      	ldr	r3, [r3, #4]
 8001804:	f423 62e0 	bic.w	r2, r3, #1792	; 0x700
 8001808:	687b      	ldr	r3, [r7, #4]
 800180a:	68db      	ldr	r3, [r3, #12]
 800180c:	4916      	ldr	r1, [pc, #88]	; (8001868 <HAL_RCC_ClockConfig+0x1c4>)
 800180e:	4313      	orrs	r3, r2
 8001810:	604b      	str	r3, [r1, #4]
  }

  /*-------------------------- PCLK2 Configuration ---------------------------*/
  if (((RCC_ClkInitStruct->ClockType) & RCC_CLOCKTYPE_PCLK2) == RCC_CLOCKTYPE_PCLK2)
 8001812:	687b      	ldr	r3, [r7, #4]
 8001814:	681b      	ldr	r3, [r3, #0]
 8001816:	f003 0308 	and.w	r3, r3, #8
 800181a:	2b00      	cmp	r3, #0
 800181c:	d009      	beq.n	8001832 <HAL_RCC_ClockConfig+0x18e>
  {
    assert_param(IS_RCC_PCLK(RCC_ClkInitStruct->APB2CLKDivider));
    MODIFY_REG(RCC->CFGR, RCC_CFGR_PPRE2, ((RCC_ClkInitStruct->APB2CLKDivider) << 3));
 800181e:	4b12      	ldr	r3, [pc, #72]	; (8001868 <HAL_RCC_ClockConfig+0x1c4>)
 8001820:	685b      	ldr	r3, [r3, #4]
 8001822:	f423 5260 	bic.w	r2, r3, #14336	; 0x3800
 8001826:	687b      	ldr	r3, [r7, #4]
 8001828:	691b      	ldr	r3, [r3, #16]
 800182a:	00db      	lsls	r3, r3, #3
 800182c:	490e      	ldr	r1, [pc, #56]	; (8001868 <HAL_RCC_ClockConfig+0x1c4>)
 800182e:	4313      	orrs	r3, r2
 8001830:	604b      	str	r3, [r1, #4]
  }

  /* Update the SystemCoreClock global variable */
  SystemCoreClock = HAL_RCC_GetSysClockFreq() >> AHBPrescTable[(RCC->CFGR & RCC_CFGR_HPRE) >> RCC_CFGR_HPRE_Pos];
 8001832:	f000 f821 	bl	8001878 <HAL_RCC_GetSysClockFreq>
 8001836:	4602      	mov	r2, r0
 8001838:	4b0b      	ldr	r3, [pc, #44]	; (8001868 <HAL_RCC_ClockConfig+0x1c4>)
 800183a:	685b      	ldr	r3, [r3, #4]
 800183c:	091b      	lsrs	r3, r3, #4
 800183e:	f003 030f 	and.w	r3, r3, #15
 8001842:	490a      	ldr	r1, [pc, #40]	; (800186c <HAL_RCC_ClockConfig+0x1c8>)
 8001844:	5ccb      	ldrb	r3, [r1, r3]
 8001846:	fa22 f303 	lsr.w	r3, r2, r3
 800184a:	4a09      	ldr	r2, [pc, #36]	; (8001870 <HAL_RCC_ClockConfig+0x1cc>)
 800184c:	6013      	str	r3, [r2, #0]

  /* Configure the source of time base considering new system clocks settings*/
  HAL_InitTick(uwTickPrio);
 800184e:	4b09      	ldr	r3, [pc, #36]	; (8001874 <HAL_RCC_ClockConfig+0x1d0>)
 8001850:	681b      	ldr	r3, [r3, #0]
 8001852:	4618      	mov	r0, r3
 8001854:	f7fe fe9c 	bl	8000590 <HAL_InitTick>

  return HAL_OK;
 8001858:	2300      	movs	r3, #0
}
 800185a:	4618      	mov	r0, r3
 800185c:	3710      	adds	r7, #16
 800185e:	46bd      	mov	sp, r7
 8001860:	bd80      	pop	{r7, pc}
 8001862:	bf00      	nop
 8001864:	40022000 	.word	0x40022000
 8001868:	40021000 	.word	0x40021000
 800186c:	08001b5c 	.word	0x08001b5c
 8001870:	20000000 	.word	0x20000000
 8001874:	20000004 	.word	0x20000004

08001878 <HAL_RCC_GetSysClockFreq>:
  *         right SYSCLK value. Otherwise, any configuration based on this function will be incorrect.
  *
  * @retval SYSCLK frequency
  */
uint32_t HAL_RCC_GetSysClockFreq(void)
{
 8001878:	b490      	push	{r4, r7}
 800187a:	b08a      	sub	sp, #40	; 0x28
 800187c:	af00      	add	r7, sp, #0
#if defined(RCC_CFGR2_PREDIV1SRC)
  const uint8_t aPLLMULFactorTable[14] = {0, 0, 4, 5, 6, 7, 8, 9, 0, 0, 0, 0, 0, 13};
  const uint8_t aPredivFactorTable[16] = {1, 2, 3, 4, 5, 6, 7, 8, 9, 10, 11, 12, 13, 14, 15, 16};
#else
  const uint8_t aPLLMULFactorTable[16] = {2, 3, 4, 5, 6, 7, 8, 9, 10, 11, 12, 13, 14, 15, 16, 16};
 800187e:	4b29      	ldr	r3, [pc, #164]	; (8001924 <HAL_RCC_GetSysClockFreq+0xac>)
 8001880:	1d3c      	adds	r4, r7, #4
 8001882:	cb0f      	ldmia	r3, {r0, r1, r2, r3}
 8001884:	e884 000f 	stmia.w	r4, {r0, r1, r2, r3}
#if defined(RCC_CFGR2_PREDIV1)
  const uint8_t aPredivFactorTable[16] = {1, 2, 3, 4, 5, 6, 7, 8, 9, 10, 11, 12, 13, 14, 15, 16};
#else
  const uint8_t aPredivFactorTable[2] = {1, 2};
 8001888:	f240 2301 	movw	r3, #513	; 0x201
 800188c:	803b      	strh	r3, [r7, #0]
#endif /*RCC_CFGR2_PREDIV1*/

#endif
  uint32_t tmpreg = 0U, prediv = 0U, pllclk = 0U, pllmul = 0U;
 800188e:	2300      	movs	r3, #0
 8001890:	61fb      	str	r3, [r7, #28]
 8001892:	2300      	movs	r3, #0
 8001894:	61bb      	str	r3, [r7, #24]
 8001896:	2300      	movs	r3, #0
 8001898:	627b      	str	r3, [r7, #36]	; 0x24
 800189a:	2300      	movs	r3, #0
 800189c:	617b      	str	r3, [r7, #20]
  uint32_t sysclockfreq = 0U;
 800189e:	2300      	movs	r3, #0
 80018a0:	623b      	str	r3, [r7, #32]
#if defined(RCC_CFGR2_PREDIV1SRC)
  uint32_t prediv2 = 0U, pll2mul = 0U;
#endif /*RCC_CFGR2_PREDIV1SRC*/

  tmpreg = RCC->CFGR;
 80018a2:	4b21      	ldr	r3, [pc, #132]	; (8001928 <HAL_RCC_GetSysClockFreq+0xb0>)
 80018a4:	685b      	ldr	r3, [r3, #4]
 80018a6:	61fb      	str	r3, [r7, #28]

  /* Get SYSCLK source -------------------------------------------------------*/
  switch (tmpreg & RCC_CFGR_SWS)
 80018a8:	69fb      	ldr	r3, [r7, #28]
 80018aa:	f003 030c 	and.w	r3, r3, #12
 80018ae:	2b04      	cmp	r3, #4
 80018b0:	d002      	beq.n	80018b8 <HAL_RCC_GetSysClockFreq+0x40>
 80018b2:	2b08      	cmp	r3, #8
 80018b4:	d003      	beq.n	80018be <HAL_RCC_GetSysClockFreq+0x46>
 80018b6:	e02b      	b.n	8001910 <HAL_RCC_GetSysClockFreq+0x98>
  {
    case RCC_SYSCLKSOURCE_STATUS_HSE:  /* HSE used as system clock */
    {
      sysclockfreq = HSE_VALUE;
 80018b8:	4b1c      	ldr	r3, [pc, #112]	; (800192c <HAL_RCC_GetSysClockFreq+0xb4>)
 80018ba:	623b      	str	r3, [r7, #32]
      break;
 80018bc:	e02b      	b.n	8001916 <HAL_RCC_GetSysClockFreq+0x9e>
    }
    case RCC_SYSCLKSOURCE_STATUS_PLLCLK:  /* PLL used as system clock */
    {
      pllmul = aPLLMULFactorTable[(uint32_t)(tmpreg & RCC_CFGR_PLLMULL) >> RCC_CFGR_PLLMULL_Pos];
 80018be:	69fb      	ldr	r3, [r7, #28]
 80018c0:	0c9b      	lsrs	r3, r3, #18
 80018c2:	f003 030f 	and.w	r3, r3, #15
 80018c6:	3328      	adds	r3, #40	; 0x28
 80018c8:	443b      	add	r3, r7
 80018ca:	f813 3c24 	ldrb.w	r3, [r3, #-36]
 80018ce:	617b      	str	r3, [r7, #20]
      if ((tmpreg & RCC_CFGR_PLLSRC) != RCC_PLLSOURCE_HSI_DIV2)
 80018d0:	69fb      	ldr	r3, [r7, #28]
 80018d2:	f403 3380 	and.w	r3, r3, #65536	; 0x10000
 80018d6:	2b00      	cmp	r3, #0
 80018d8:	d012      	beq.n	8001900 <HAL_RCC_GetSysClockFreq+0x88>
      {
#if defined(RCC_CFGR2_PREDIV1)
        prediv = aPredivFactorTable[(uint32_t)(RCC->CFGR2 & RCC_CFGR2_PREDIV1) >> RCC_CFGR2_PREDIV1_Pos];
#else
        prediv = aPredivFactorTable[(uint32_t)(RCC->CFGR & RCC_CFGR_PLLXTPRE) >> RCC_CFGR_PLLXTPRE_Pos];
 80018da:	4b13      	ldr	r3, [pc, #76]	; (8001928 <HAL_RCC_GetSysClockFreq+0xb0>)
 80018dc:	685b      	ldr	r3, [r3, #4]
 80018de:	0c5b      	lsrs	r3, r3, #17
 80018e0:	f003 0301 	and.w	r3, r3, #1
 80018e4:	3328      	adds	r3, #40	; 0x28
 80018e6:	443b      	add	r3, r7
 80018e8:	f813 3c28 	ldrb.w	r3, [r3, #-40]
 80018ec:	61bb      	str	r3, [r7, #24]
        {
          pllclk = pllclk / 2;
        }
#else
        /* HSE used as PLL clock source : PLLCLK = HSE/PREDIV1 * PLLMUL */
        pllclk = (uint32_t)((HSE_VALUE  * pllmul) / prediv);
 80018ee:	697b      	ldr	r3, [r7, #20]
 80018f0:	4a0e      	ldr	r2, [pc, #56]	; (800192c <HAL_RCC_GetSysClockFreq+0xb4>)
 80018f2:	fb03 f202 	mul.w	r2, r3, r2
 80018f6:	69bb      	ldr	r3, [r7, #24]
 80018f8:	fbb2 f3f3 	udiv	r3, r2, r3
 80018fc:	627b      	str	r3, [r7, #36]	; 0x24
 80018fe:	e004      	b.n	800190a <HAL_RCC_GetSysClockFreq+0x92>
#endif /*RCC_CFGR2_PREDIV1SRC*/
      }
      else
      {
        /* HSI used as PLL clock source : PLLCLK = HSI/2 * PLLMUL */
        pllclk = (uint32_t)((HSI_VALUE >> 1) * pllmul);
 8001900:	697b      	ldr	r3, [r7, #20]
 8001902:	4a0b      	ldr	r2, [pc, #44]	; (8001930 <HAL_RCC_GetSysClockFreq+0xb8>)
 8001904:	fb02 f303 	mul.w	r3, r2, r3
 8001908:	627b      	str	r3, [r7, #36]	; 0x24
      }
      sysclockfreq = pllclk;
 800190a:	6a7b      	ldr	r3, [r7, #36]	; 0x24
 800190c:	623b      	str	r3, [r7, #32]
      break;
 800190e:	e002      	b.n	8001916 <HAL_RCC_GetSysClockFreq+0x9e>
    }
    case RCC_SYSCLKSOURCE_STATUS_HSI:  /* HSI used as system clock source */
    default: /* HSI used as system clock */
    {
      sysclockfreq = HSI_VALUE;
 8001910:	4b06      	ldr	r3, [pc, #24]	; (800192c <HAL_RCC_GetSysClockFreq+0xb4>)
 8001912:	623b      	str	r3, [r7, #32]
      break;
 8001914:	bf00      	nop
    }
  }
  return sysclockfreq;
 8001916:	6a3b      	ldr	r3, [r7, #32]
}
 8001918:	4618      	mov	r0, r3
 800191a:	3728      	adds	r7, #40	; 0x28
 800191c:	46bd      	mov	sp, r7
 800191e:	bc90      	pop	{r4, r7}
 8001920:	4770      	bx	lr
 8001922:	bf00      	nop
 8001924:	08001b4c 	.word	0x08001b4c
 8001928:	40021000 	.word	0x40021000
 800192c:	007a1200 	.word	0x007a1200
 8001930:	003d0900 	.word	0x003d0900

08001934 <RCC_Delay>:
  * @brief  This function provides delay (in milliseconds) based on CPU cycles method.
  * @param  mdelay: specifies the delay time length, in milliseconds.
  * @retval None
  */
static void RCC_Delay(uint32_t mdelay)
{
 8001934:	b480      	push	{r7}
 8001936:	b085      	sub	sp, #20
 8001938:	af00      	add	r7, sp, #0
 800193a:	6078      	str	r0, [r7, #4]
  __IO uint32_t Delay = mdelay * (SystemCoreClock / 8U / 1000U);
 800193c:	4b0a      	ldr	r3, [pc, #40]	; (8001968 <RCC_Delay+0x34>)
 800193e:	681b      	ldr	r3, [r3, #0]
 8001940:	4a0a      	ldr	r2, [pc, #40]	; (800196c <RCC_Delay+0x38>)
 8001942:	fba2 2303 	umull	r2, r3, r2, r3
 8001946:	0a5b      	lsrs	r3, r3, #9
 8001948:	687a      	ldr	r2, [r7, #4]
 800194a:	fb02 f303 	mul.w	r3, r2, r3
 800194e:	60fb      	str	r3, [r7, #12]
  do
  {
    __NOP();
 8001950:	bf00      	nop
  }
  while (Delay --);
 8001952:	68fb      	ldr	r3, [r7, #12]
 8001954:	1e5a      	subs	r2, r3, #1
 8001956:	60fa      	str	r2, [r7, #12]
 8001958:	2b00      	cmp	r3, #0
 800195a:	d1f9      	bne.n	8001950 <RCC_Delay+0x1c>
}
 800195c:	bf00      	nop
 800195e:	bf00      	nop
 8001960:	3714      	adds	r7, #20
 8001962:	46bd      	mov	sp, r7
 8001964:	bc80      	pop	{r7}
 8001966:	4770      	bx	lr
 8001968:	20000000 	.word	0x20000000
 800196c:	10624dd3 	.word	0x10624dd3

08001970 <HAL_RCCEx_PeriphCLKConfig>:
  *         manually disable it.
  *
  * @retval HAL status
  */
HAL_StatusTypeDef HAL_RCCEx_PeriphCLKConfig(RCC_PeriphCLKInitTypeDef  *PeriphClkInit)
{
 8001970:	b580      	push	{r7, lr}
 8001972:	b086      	sub	sp, #24
 8001974:	af00      	add	r7, sp, #0
 8001976:	6078      	str	r0, [r7, #4]
  uint32_t tickstart = 0U, temp_reg = 0U;
 8001978:	2300      	movs	r3, #0
 800197a:	613b      	str	r3, [r7, #16]
 800197c:	2300      	movs	r3, #0
 800197e:	60fb      	str	r3, [r7, #12]

  /* Check the parameters */
  assert_param(IS_RCC_PERIPHCLOCK(PeriphClkInit->PeriphClockSelection));

  /*------------------------------- RTC/LCD Configuration ------------------------*/
  if ((((PeriphClkInit->PeriphClockSelection) & RCC_PERIPHCLK_RTC) == RCC_PERIPHCLK_RTC))
 8001980:	687b      	ldr	r3, [r7, #4]
 8001982:	681b      	ldr	r3, [r3, #0]
 8001984:	f003 0301 	and.w	r3, r3, #1
 8001988:	2b00      	cmp	r3, #0
 800198a:	d07d      	beq.n	8001a88 <HAL_RCCEx_PeriphCLKConfig+0x118>
  {
    FlagStatus pwrclkchanged = RESET;
 800198c:	2300      	movs	r3, #0
 800198e:	75fb      	strb	r3, [r7, #23]
    assert_param(IS_RCC_RTCCLKSOURCE(PeriphClkInit->RTCClockSelection));

    /* As soon as function is called to change RTC clock source, activation of the
       power domain is done. */
    /* Requires to enable write access to Backup Domain of necessary */
    if (__HAL_RCC_PWR_IS_CLK_DISABLED())
 8001990:	4b4f      	ldr	r3, [pc, #316]	; (8001ad0 <HAL_RCCEx_PeriphCLKConfig+0x160>)
 8001992:	69db      	ldr	r3, [r3, #28]
 8001994:	f003 5380 	and.w	r3, r3, #268435456	; 0x10000000
 8001998:	2b00      	cmp	r3, #0
 800199a:	d10d      	bne.n	80019b8 <HAL_RCCEx_PeriphCLKConfig+0x48>
    {
      __HAL_RCC_PWR_CLK_ENABLE();
 800199c:	4b4c      	ldr	r3, [pc, #304]	; (8001ad0 <HAL_RCCEx_PeriphCLKConfig+0x160>)
 800199e:	69db      	ldr	r3, [r3, #28]
 80019a0:	4a4b      	ldr	r2, [pc, #300]	; (8001ad0 <HAL_RCCEx_PeriphCLKConfig+0x160>)
 80019a2:	f043 5380 	orr.w	r3, r3, #268435456	; 0x10000000
 80019a6:	61d3      	str	r3, [r2, #28]
 80019a8:	4b49      	ldr	r3, [pc, #292]	; (8001ad0 <HAL_RCCEx_PeriphCLKConfig+0x160>)
 80019aa:	69db      	ldr	r3, [r3, #28]
 80019ac:	f003 5380 	and.w	r3, r3, #268435456	; 0x10000000
 80019b0:	60bb      	str	r3, [r7, #8]
 80019b2:	68bb      	ldr	r3, [r7, #8]
      pwrclkchanged = SET;
 80019b4:	2301      	movs	r3, #1
 80019b6:	75fb      	strb	r3, [r7, #23]
    }

    if (HAL_IS_BIT_CLR(PWR->CR, PWR_CR_DBP))
 80019b8:	4b46      	ldr	r3, [pc, #280]	; (8001ad4 <HAL_RCCEx_PeriphCLKConfig+0x164>)
 80019ba:	681b      	ldr	r3, [r3, #0]
 80019bc:	f403 7380 	and.w	r3, r3, #256	; 0x100
 80019c0:	2b00      	cmp	r3, #0
 80019c2:	d118      	bne.n	80019f6 <HAL_RCCEx_PeriphCLKConfig+0x86>
    {
      /* Enable write access to Backup domain */
      SET_BIT(PWR->CR, PWR_CR_DBP);
 80019c4:	4b43      	ldr	r3, [pc, #268]	; (8001ad4 <HAL_RCCEx_PeriphCLKConfig+0x164>)
 80019c6:	681b      	ldr	r3, [r3, #0]
 80019c8:	4a42      	ldr	r2, [pc, #264]	; (8001ad4 <HAL_RCCEx_PeriphCLKConfig+0x164>)
 80019ca:	f443 7380 	orr.w	r3, r3, #256	; 0x100
 80019ce:	6013      	str	r3, [r2, #0]

      /* Wait for Backup domain Write protection disable */
      tickstart = HAL_GetTick();
 80019d0:	f7fe fe20 	bl	8000614 <HAL_GetTick>
 80019d4:	6138      	str	r0, [r7, #16]

      while (HAL_IS_BIT_CLR(PWR->CR, PWR_CR_DBP))
 80019d6:	e008      	b.n	80019ea <HAL_RCCEx_PeriphCLKConfig+0x7a>
      {
        if ((HAL_GetTick() - tickstart) > RCC_DBP_TIMEOUT_VALUE)
 80019d8:	f7fe fe1c 	bl	8000614 <HAL_GetTick>
 80019dc:	4602      	mov	r2, r0
 80019de:	693b      	ldr	r3, [r7, #16]
 80019e0:	1ad3      	subs	r3, r2, r3
 80019e2:	2b64      	cmp	r3, #100	; 0x64
 80019e4:	d901      	bls.n	80019ea <HAL_RCCEx_PeriphCLKConfig+0x7a>
        {
          return HAL_TIMEOUT;
 80019e6:	2303      	movs	r3, #3
 80019e8:	e06d      	b.n	8001ac6 <HAL_RCCEx_PeriphCLKConfig+0x156>
      while (HAL_IS_BIT_CLR(PWR->CR, PWR_CR_DBP))
 80019ea:	4b3a      	ldr	r3, [pc, #232]	; (8001ad4 <HAL_RCCEx_PeriphCLKConfig+0x164>)
 80019ec:	681b      	ldr	r3, [r3, #0]
 80019ee:	f403 7380 	and.w	r3, r3, #256	; 0x100
 80019f2:	2b00      	cmp	r3, #0
 80019f4:	d0f0      	beq.n	80019d8 <HAL_RCCEx_PeriphCLKConfig+0x68>
        }
      }
    }

    /* Reset the Backup domain only if the RTC Clock source selection is modified from reset value */
    temp_reg = (RCC->BDCR & RCC_BDCR_RTCSEL);
 80019f6:	4b36      	ldr	r3, [pc, #216]	; (8001ad0 <HAL_RCCEx_PeriphCLKConfig+0x160>)
 80019f8:	6a1b      	ldr	r3, [r3, #32]
 80019fa:	f403 7340 	and.w	r3, r3, #768	; 0x300
 80019fe:	60fb      	str	r3, [r7, #12]
    if ((temp_reg != 0x00000000U) && (temp_reg != (PeriphClkInit->RTCClockSelection & RCC_BDCR_RTCSEL)))
 8001a00:	68fb      	ldr	r3, [r7, #12]
 8001a02:	2b00      	cmp	r3, #0
 8001a04:	d02e      	beq.n	8001a64 <HAL_RCCEx_PeriphCLKConfig+0xf4>
 8001a06:	687b      	ldr	r3, [r7, #4]
 8001a08:	685b      	ldr	r3, [r3, #4]
 8001a0a:	f403 7340 	and.w	r3, r3, #768	; 0x300
 8001a0e:	68fa      	ldr	r2, [r7, #12]
 8001a10:	429a      	cmp	r2, r3
 8001a12:	d027      	beq.n	8001a64 <HAL_RCCEx_PeriphCLKConfig+0xf4>
    {
      /* Store the content of BDCR register before the reset of Backup Domain */
      temp_reg = (RCC->BDCR & ~(RCC_BDCR_RTCSEL));
 8001a14:	4b2e      	ldr	r3, [pc, #184]	; (8001ad0 <HAL_RCCEx_PeriphCLKConfig+0x160>)
 8001a16:	6a1b      	ldr	r3, [r3, #32]
 8001a18:	f423 7340 	bic.w	r3, r3, #768	; 0x300
 8001a1c:	60fb      	str	r3, [r7, #12]
      /* RTC Clock selection can be changed only if the Backup Domain is reset */
      __HAL_RCC_BACKUPRESET_FORCE();
 8001a1e:	4b2e      	ldr	r3, [pc, #184]	; (8001ad8 <HAL_RCCEx_PeriphCLKConfig+0x168>)
 8001a20:	2201      	movs	r2, #1
 8001a22:	601a      	str	r2, [r3, #0]
      __HAL_RCC_BACKUPRESET_RELEASE();
 8001a24:	4b2c      	ldr	r3, [pc, #176]	; (8001ad8 <HAL_RCCEx_PeriphCLKConfig+0x168>)
 8001a26:	2200      	movs	r2, #0
 8001a28:	601a      	str	r2, [r3, #0]
      /* Restore the Content of BDCR register */
      RCC->BDCR = temp_reg;
 8001a2a:	4a29      	ldr	r2, [pc, #164]	; (8001ad0 <HAL_RCCEx_PeriphCLKConfig+0x160>)
 8001a2c:	68fb      	ldr	r3, [r7, #12]
 8001a2e:	6213      	str	r3, [r2, #32]

      /* Wait for LSERDY if LSE was enabled */
      if (HAL_IS_BIT_SET(temp_reg, RCC_BDCR_LSEON))
 8001a30:	68fb      	ldr	r3, [r7, #12]
 8001a32:	f003 0301 	and.w	r3, r3, #1
 8001a36:	2b00      	cmp	r3, #0
 8001a38:	d014      	beq.n	8001a64 <HAL_RCCEx_PeriphCLKConfig+0xf4>
      {
        /* Get Start Tick */
        tickstart = HAL_GetTick();
 8001a3a:	f7fe fdeb 	bl	8000614 <HAL_GetTick>
 8001a3e:	6138      	str	r0, [r7, #16]

        /* Wait till LSE is ready */
        while (__HAL_RCC_GET_FLAG(RCC_FLAG_LSERDY) == RESET)
 8001a40:	e00a      	b.n	8001a58 <HAL_RCCEx_PeriphCLKConfig+0xe8>
        {
          if ((HAL_GetTick() - tickstart) > RCC_LSE_TIMEOUT_VALUE)
 8001a42:	f7fe fde7 	bl	8000614 <HAL_GetTick>
 8001a46:	4602      	mov	r2, r0
 8001a48:	693b      	ldr	r3, [r7, #16]
 8001a4a:	1ad3      	subs	r3, r2, r3
 8001a4c:	f241 3288 	movw	r2, #5000	; 0x1388
 8001a50:	4293      	cmp	r3, r2
 8001a52:	d901      	bls.n	8001a58 <HAL_RCCEx_PeriphCLKConfig+0xe8>
          {
            return HAL_TIMEOUT;
 8001a54:	2303      	movs	r3, #3
 8001a56:	e036      	b.n	8001ac6 <HAL_RCCEx_PeriphCLKConfig+0x156>
        while (__HAL_RCC_GET_FLAG(RCC_FLAG_LSERDY) == RESET)
 8001a58:	4b1d      	ldr	r3, [pc, #116]	; (8001ad0 <HAL_RCCEx_PeriphCLKConfig+0x160>)
 8001a5a:	6a1b      	ldr	r3, [r3, #32]
 8001a5c:	f003 0302 	and.w	r3, r3, #2
 8001a60:	2b00      	cmp	r3, #0
 8001a62:	d0ee      	beq.n	8001a42 <HAL_RCCEx_PeriphCLKConfig+0xd2>
          }
        }
      }
    }
    __HAL_RCC_RTC_CONFIG(PeriphClkInit->RTCClockSelection);
 8001a64:	4b1a      	ldr	r3, [pc, #104]	; (8001ad0 <HAL_RCCEx_PeriphCLKConfig+0x160>)
 8001a66:	6a1b      	ldr	r3, [r3, #32]
 8001a68:	f423 7240 	bic.w	r2, r3, #768	; 0x300
 8001a6c:	687b      	ldr	r3, [r7, #4]
 8001a6e:	685b      	ldr	r3, [r3, #4]
 8001a70:	4917      	ldr	r1, [pc, #92]	; (8001ad0 <HAL_RCCEx_PeriphCLKConfig+0x160>)
 8001a72:	4313      	orrs	r3, r2
 8001a74:	620b      	str	r3, [r1, #32]

    /* Require to disable power clock if necessary */
    if (pwrclkchanged == SET)
 8001a76:	7dfb      	ldrb	r3, [r7, #23]
 8001a78:	2b01      	cmp	r3, #1
 8001a7a:	d105      	bne.n	8001a88 <HAL_RCCEx_PeriphCLKConfig+0x118>
    {
      __HAL_RCC_PWR_CLK_DISABLE();
 8001a7c:	4b14      	ldr	r3, [pc, #80]	; (8001ad0 <HAL_RCCEx_PeriphCLKConfig+0x160>)
 8001a7e:	69db      	ldr	r3, [r3, #28]
 8001a80:	4a13      	ldr	r2, [pc, #76]	; (8001ad0 <HAL_RCCEx_PeriphCLKConfig+0x160>)
 8001a82:	f023 5380 	bic.w	r3, r3, #268435456	; 0x10000000
 8001a86:	61d3      	str	r3, [r2, #28]
    }
  }

  /*------------------------------ ADC clock Configuration ------------------*/
  if (((PeriphClkInit->PeriphClockSelection) & RCC_PERIPHCLK_ADC) == RCC_PERIPHCLK_ADC)
 8001a88:	687b      	ldr	r3, [r7, #4]
 8001a8a:	681b      	ldr	r3, [r3, #0]
 8001a8c:	f003 0302 	and.w	r3, r3, #2
 8001a90:	2b00      	cmp	r3, #0
 8001a92:	d008      	beq.n	8001aa6 <HAL_RCCEx_PeriphCLKConfig+0x136>
  {
    /* Check the parameters */
    assert_param(IS_RCC_ADCPLLCLK_DIV(PeriphClkInit->AdcClockSelection));

    /* Configure the ADC clock source */
    __HAL_RCC_ADC_CONFIG(PeriphClkInit->AdcClockSelection);
 8001a94:	4b0e      	ldr	r3, [pc, #56]	; (8001ad0 <HAL_RCCEx_PeriphCLKConfig+0x160>)
 8001a96:	685b      	ldr	r3, [r3, #4]
 8001a98:	f423 4240 	bic.w	r2, r3, #49152	; 0xc000
 8001a9c:	687b      	ldr	r3, [r7, #4]
 8001a9e:	689b      	ldr	r3, [r3, #8]
 8001aa0:	490b      	ldr	r1, [pc, #44]	; (8001ad0 <HAL_RCCEx_PeriphCLKConfig+0x160>)
 8001aa2:	4313      	orrs	r3, r2
 8001aa4:	604b      	str	r3, [r1, #4]

#if defined(STM32F102x6) || defined(STM32F102xB) || defined(STM32F103x6)\
 || defined(STM32F103xB) || defined(STM32F103xE) || defined(STM32F103xG)\
 || defined(STM32F105xC) || defined(STM32F107xC)
  /*------------------------------ USB clock Configuration ------------------*/
  if (((PeriphClkInit->PeriphClockSelection) & RCC_PERIPHCLK_USB) == RCC_PERIPHCLK_USB)
 8001aa6:	687b      	ldr	r3, [r7, #4]
 8001aa8:	681b      	ldr	r3, [r3, #0]
 8001aaa:	f003 0310 	and.w	r3, r3, #16
 8001aae:	2b00      	cmp	r3, #0
 8001ab0:	d008      	beq.n	8001ac4 <HAL_RCCEx_PeriphCLKConfig+0x154>
  {
    /* Check the parameters */
    assert_param(IS_RCC_USBPLLCLK_DIV(PeriphClkInit->UsbClockSelection));

    /* Configure the USB clock source */
    __HAL_RCC_USB_CONFIG(PeriphClkInit->UsbClockSelection);
 8001ab2:	4b07      	ldr	r3, [pc, #28]	; (8001ad0 <HAL_RCCEx_PeriphCLKConfig+0x160>)
 8001ab4:	685b      	ldr	r3, [r3, #4]
 8001ab6:	f423 0280 	bic.w	r2, r3, #4194304	; 0x400000
 8001aba:	687b      	ldr	r3, [r7, #4]
 8001abc:	68db      	ldr	r3, [r3, #12]
 8001abe:	4904      	ldr	r1, [pc, #16]	; (8001ad0 <HAL_RCCEx_PeriphCLKConfig+0x160>)
 8001ac0:	4313      	orrs	r3, r2
 8001ac2:	604b      	str	r3, [r1, #4]
  }
#endif /* STM32F102x6 || STM32F102xB || STM32F103x6 || STM32F103xB || STM32F103xE || STM32F103xG || STM32F105xC || STM32F107xC */

  return HAL_OK;
 8001ac4:	2300      	movs	r3, #0
}
 8001ac6:	4618      	mov	r0, r3
 8001ac8:	3718      	adds	r7, #24
 8001aca:	46bd      	mov	sp, r7
 8001acc:	bd80      	pop	{r7, pc}
 8001ace:	bf00      	nop
 8001ad0:	40021000 	.word	0x40021000
 8001ad4:	40007000 	.word	0x40007000
 8001ad8:	42420440 	.word	0x42420440

08001adc <__libc_init_array>:
 8001adc:	b570      	push	{r4, r5, r6, lr}
 8001ade:	2600      	movs	r6, #0
 8001ae0:	4d0c      	ldr	r5, [pc, #48]	; (8001b14 <__libc_init_array+0x38>)
 8001ae2:	4c0d      	ldr	r4, [pc, #52]	; (8001b18 <__libc_init_array+0x3c>)
 8001ae4:	1b64      	subs	r4, r4, r5
 8001ae6:	10a4      	asrs	r4, r4, #2
 8001ae8:	42a6      	cmp	r6, r4
 8001aea:	d109      	bne.n	8001b00 <__libc_init_array+0x24>
 8001aec:	f000 f822 	bl	8001b34 <_init>
 8001af0:	2600      	movs	r6, #0
 8001af2:	4d0a      	ldr	r5, [pc, #40]	; (8001b1c <__libc_init_array+0x40>)
 8001af4:	4c0a      	ldr	r4, [pc, #40]	; (8001b20 <__libc_init_array+0x44>)
 8001af6:	1b64      	subs	r4, r4, r5
 8001af8:	10a4      	asrs	r4, r4, #2
 8001afa:	42a6      	cmp	r6, r4
 8001afc:	d105      	bne.n	8001b0a <__libc_init_array+0x2e>
 8001afe:	bd70      	pop	{r4, r5, r6, pc}
 8001b00:	f855 3b04 	ldr.w	r3, [r5], #4
 8001b04:	4798      	blx	r3
 8001b06:	3601      	adds	r6, #1
 8001b08:	e7ee      	b.n	8001ae8 <__libc_init_array+0xc>
 8001b0a:	f855 3b04 	ldr.w	r3, [r5], #4
 8001b0e:	4798      	blx	r3
 8001b10:	3601      	adds	r6, #1
 8001b12:	e7f2      	b.n	8001afa <__libc_init_array+0x1e>
 8001b14:	08001b6c 	.word	0x08001b6c
 8001b18:	08001b6c 	.word	0x08001b6c
 8001b1c:	08001b6c 	.word	0x08001b6c
 8001b20:	08001b70 	.word	0x08001b70

08001b24 <memset>:
 8001b24:	4603      	mov	r3, r0
 8001b26:	4402      	add	r2, r0
 8001b28:	4293      	cmp	r3, r2
 8001b2a:	d100      	bne.n	8001b2e <memset+0xa>
 8001b2c:	4770      	bx	lr
 8001b2e:	f803 1b01 	strb.w	r1, [r3], #1
 8001b32:	e7f9      	b.n	8001b28 <memset+0x4>

08001b34 <_init>:
 8001b34:	b5f8      	push	{r3, r4, r5, r6, r7, lr}
 8001b36:	bf00      	nop
 8001b38:	bcf8      	pop	{r3, r4, r5, r6, r7}
 8001b3a:	bc08      	pop	{r3}
 8001b3c:	469e      	mov	lr, r3
 8001b3e:	4770      	bx	lr

08001b40 <_fini>:
 8001b40:	b5f8      	push	{r3, r4, r5, r6, r7, lr}
 8001b42:	bf00      	nop
 8001b44:	bcf8      	pop	{r3, r4, r5, r6, r7}
 8001b46:	bc08      	pop	{r3}
 8001b48:	469e      	mov	lr, r3
 8001b4a:	4770      	bx	lr
