
blink-no-haldelay.elf:     file format elf32-littlearm

Sections:
Idx Name          Size      VMA       LMA       File off  Algn
  0 .isr_vector   0000010c  08000000  08000000  00010000  2**0
                  CONTENTS, ALLOC, LOAD, READONLY, DATA
  1 .text         000024e8  0800010c  0800010c  0001010c  2**2
                  CONTENTS, ALLOC, LOAD, READONLY, CODE
  2 .rodata       00000020  080025f4  080025f4  000125f4  2**2
                  CONTENTS, ALLOC, LOAD, READONLY, DATA
  3 .ARM.extab    00000000  08002614  08002614  0002000c  2**0
                  CONTENTS
  4 .ARM          00000000  08002614  08002614  0002000c  2**0
                  CONTENTS
  5 .preinit_array 00000000  08002614  08002614  0002000c  2**0
                  CONTENTS, ALLOC, LOAD, DATA
  6 .init_array   00000004  08002614  08002614  00012614  2**2
                  CONTENTS, ALLOC, LOAD, DATA
  7 .fini_array   00000004  08002618  08002618  00012618  2**2
                  CONTENTS, ALLOC, LOAD, DATA
  8 .data         0000000c  20000000  0800261c  00020000  2**2
                  CONTENTS, ALLOC, LOAD, DATA
  9 .bss          00000070  2000000c  08002628  0002000c  2**2
                  ALLOC
 10 ._user_heap_stack 00000604  2000007c  08002628  0002007c  2**0
                  ALLOC
 11 .ARM.attributes 00000029  00000000  00000000  0002000c  2**0
                  CONTENTS, READONLY
 12 .debug_info   0000824e  00000000  00000000  00020035  2**0
                  CONTENTS, READONLY, DEBUGGING, OCTETS
 13 .debug_abbrev 000014fc  00000000  00000000  00028283  2**0
                  CONTENTS, READONLY, DEBUGGING, OCTETS
 14 .debug_aranges 00000930  00000000  00000000  00029780  2**3
                  CONTENTS, READONLY, DEBUGGING, OCTETS
 15 .debug_ranges 00000888  00000000  00000000  0002a0b0  2**3
                  CONTENTS, READONLY, DEBUGGING, OCTETS
 16 .debug_macro  00016589  00000000  00000000  0002a938  2**0
                  CONTENTS, READONLY, DEBUGGING, OCTETS
 17 .debug_line   00009617  00000000  00000000  00040ec1  2**0
                  CONTENTS, READONLY, DEBUGGING, OCTETS
 18 .debug_str    00083f1c  00000000  00000000  0004a4d8  2**0
                  CONTENTS, READONLY, DEBUGGING, OCTETS
 19 .comment      00000050  00000000  00000000  000ce3f4  2**0
                  CONTENTS, READONLY
 20 .debug_frame  000025d0  00000000  00000000  000ce444  2**2
                  CONTENTS, READONLY, DEBUGGING, OCTETS

Disassembly of section .text:

0800010c <__do_global_dtors_aux>:
 800010c:	b510      	push	{r4, lr}
 800010e:	4c05      	ldr	r4, [pc, #20]	; (8000124 <__do_global_dtors_aux+0x18>)
 8000110:	7823      	ldrb	r3, [r4, #0]
 8000112:	b933      	cbnz	r3, 8000122 <__do_global_dtors_aux+0x16>
 8000114:	4b04      	ldr	r3, [pc, #16]	; (8000128 <__do_global_dtors_aux+0x1c>)
 8000116:	b113      	cbz	r3, 800011e <__do_global_dtors_aux+0x12>
 8000118:	4804      	ldr	r0, [pc, #16]	; (800012c <__do_global_dtors_aux+0x20>)
 800011a:	f3af 8000 	nop.w
 800011e:	2301      	movs	r3, #1
 8000120:	7023      	strb	r3, [r4, #0]
 8000122:	bd10      	pop	{r4, pc}
 8000124:	2000000c 	.word	0x2000000c
 8000128:	00000000 	.word	0x00000000
 800012c:	080025dc 	.word	0x080025dc

08000130 <frame_dummy>:
 8000130:	b508      	push	{r3, lr}
 8000132:	4b03      	ldr	r3, [pc, #12]	; (8000140 <frame_dummy+0x10>)
 8000134:	b11b      	cbz	r3, 800013e <frame_dummy+0xe>
 8000136:	4903      	ldr	r1, [pc, #12]	; (8000144 <frame_dummy+0x14>)
 8000138:	4803      	ldr	r0, [pc, #12]	; (8000148 <frame_dummy+0x18>)
 800013a:	f3af 8000 	nop.w
 800013e:	bd08      	pop	{r3, pc}
 8000140:	00000000 	.word	0x00000000
 8000144:	20000010 	.word	0x20000010
 8000148:	080025dc 	.word	0x080025dc

0800014c <main>:
/**
 * @brief  The application entry point.
 * @retval int
 */
int main(void)
{
 800014c:	b580      	push	{r7, lr}
 800014e:	b08a      	sub	sp, #40	; 0x28
 8000150:	af00      	add	r7, sp, #0
	/* USER CODE END 1 */

	/* MCU Configuration--------------------------------------------------------*/

	/* Reset of all peripherals, Initializes the Flash interface and the Systick. */
	HAL_Init();
 8000152:	f000 fc0d 	bl	8000970 <HAL_Init>
	/* USER CODE BEGIN Init */

	/* USER CODE END Init */

	/* Configure the system clock */
	SystemClock_Config();
 8000156:	f000 fa07 	bl	8000568 <SystemClock_Config>
	/* USER CODE BEGIN SysInit */

	/* USER CODE END SysInit */

	/* Initialize all configured peripherals */
	MX_GPIO_Init();
 800015a:	f000 facd 	bl	80006f8 <MX_GPIO_Init>
	MX_TIM4_Init();
 800015e:	f000 fa49 	bl	80005f4 <MX_TIM4_Init>
	/* USER CODE BEGIN 2 */
	HAL_GPIO_WritePin(GPIOB, GPIO_PIN_15|GPIO_PIN_14|GPIO_PIN_13|GPIO_PIN_12,GPIO_PIN_SET);
 8000162:	2201      	movs	r2, #1
 8000164:	f44f 4170 	mov.w	r1, #61440	; 0xf000
 8000168:	48aa      	ldr	r0, [pc, #680]	; (8000414 <main+0x2c8>)
 800016a:	f000 fef5 	bl	8000f58 <HAL_GPIO_WritePin>
	static enum {INI_D3, LIG_D3, DSLG_D3} sttD3=INI_D3;
	static enum {INI_D4, LIG_D4, DSLG_D4} sttD4=INI_D4;
	static enum {INI_D7, INC_D7, DEC_D7} sttD7=INI_D7;
	static enum {INI_D8, INC_D8, DEC_D8} sttD8=INI_D8;

	uint32_t tin_D1=0, tin_D2=0, tin_D3=0, tin_D4=0, tin_D7=0, tin_D8=0, quem_pisca=1;
 800016e:	2300      	movs	r3, #0
 8000170:	627b      	str	r3, [r7, #36]	; 0x24
 8000172:	2300      	movs	r3, #0
 8000174:	623b      	str	r3, [r7, #32]
 8000176:	2300      	movs	r3, #0
 8000178:	61fb      	str	r3, [r7, #28]
 800017a:	2300      	movs	r3, #0
 800017c:	61bb      	str	r3, [r7, #24]
 800017e:	2300      	movs	r3, #0
 8000180:	617b      	str	r3, [r7, #20]
 8000182:	2300      	movs	r3, #0
 8000184:	613b      	str	r3, [r7, #16]
 8000186:	2301      	movs	r3, #1
 8000188:	60fb      	str	r3, [r7, #12]
	uint16_t dc_D7 = 0;
 800018a:	2300      	movs	r3, #0
 800018c:	817b      	strh	r3, [r7, #10]
	uint16_t dc_D8 = PWM_ARR;
 800018e:	23c8      	movs	r3, #200	; 0xc8
 8000190:	813b      	strh	r3, [r7, #8]
	int dt_D7 = PER_PB7/(2*PWM_ARR);
 8000192:	2301      	movs	r3, #1
 8000194:	607b      	str	r3, [r7, #4]
	int dt_D8 = PER_PB8/(2*PWM_ARR);
 8000196:	2305      	movs	r3, #5
 8000198:	603b      	str	r3, [r7, #0]

	HAL_TIM_PWM_Start(&htim4, TIM_CHANNEL_2);
 800019a:	2104      	movs	r1, #4
 800019c:	489e      	ldr	r0, [pc, #632]	; (8000418 <main+0x2cc>)
 800019e:	f001 fb83 	bl	80018a8 <HAL_TIM_PWM_Start>
	TIM4->CCR2 = dc_D7;
 80001a2:	4a9e      	ldr	r2, [pc, #632]	; (800041c <main+0x2d0>)
 80001a4:	897b      	ldrh	r3, [r7, #10]
 80001a6:	6393      	str	r3, [r2, #56]	; 0x38
	HAL_TIM_PWM_Start(&htim4, TIM_CHANNEL_3);
 80001a8:	2108      	movs	r1, #8
 80001aa:	489b      	ldr	r0, [pc, #620]	; (8000418 <main+0x2cc>)
 80001ac:	f001 fb7c 	bl	80018a8 <HAL_TIM_PWM_Start>
	TIM4->CCR3 = dc_D8;
 80001b0:	4a9a      	ldr	r2, [pc, #616]	; (800041c <main+0x2d0>)
 80001b2:	893b      	ldrh	r3, [r7, #8]
 80001b4:	63d3      	str	r3, [r2, #60]	; 0x3c
	while (1)
	{
		/* USER CODE END WHILE */

		/* USER CODE BEGIN 3 */
		if(quem_pisca > MAX_quem_pisca) quem_pisca=1;
 80001b6:	68fb      	ldr	r3, [r7, #12]
 80001b8:	2b04      	cmp	r3, #4
 80001ba:	d901      	bls.n	80001c0 <main+0x74>
 80001bc:	2301      	movs	r3, #1
 80001be:	60fb      	str	r3, [r7, #12]
		// tarefa #1 : controlar o estado do LED D1
		if (quem_pisca==1)
 80001c0:	68fb      	ldr	r3, [r7, #12]
 80001c2:	2b01      	cmp	r3, #1
 80001c4:	d142      	bne.n	800024c <main+0x100>
		{
			switch (sttD1)
 80001c6:	4b96      	ldr	r3, [pc, #600]	; (8000420 <main+0x2d4>)
 80001c8:	781b      	ldrb	r3, [r3, #0]
 80001ca:	2b02      	cmp	r3, #2
 80001cc:	d027      	beq.n	800021e <main+0xd2>
 80001ce:	2b02      	cmp	r3, #2
 80001d0:	dc41      	bgt.n	8000256 <main+0x10a>
 80001d2:	2b00      	cmp	r3, #0
 80001d4:	d002      	beq.n	80001dc <main+0x90>
 80001d6:	2b01      	cmp	r3, #1
 80001d8:	d00d      	beq.n	80001f6 <main+0xaa>
 80001da:	e03c      	b.n	8000256 <main+0x10a>
			{
			case INI_D1: // vai iniciar a máquina de estado
				tin_D1 = HAL_GetTick(); // tempo inicial que iniciou a tarefa
 80001dc:	f000 fc20 	bl	8000a20 <HAL_GetTick>
 80001e0:	6278      	str	r0, [r7, #36]	; 0x24
				sttD1 = LIG_D1; // prox estado da máquina
 80001e2:	4b8f      	ldr	r3, [pc, #572]	; (8000420 <main+0x2d4>)
 80001e4:	2201      	movs	r2, #1
 80001e6:	701a      	strb	r2, [r3, #0]
				HAL_GPIO_WritePin(GPIOB, GPIO_PIN_15, GPIO_PIN_SET); // desl o LED
 80001e8:	2201      	movs	r2, #1
 80001ea:	f44f 4100 	mov.w	r1, #32768	; 0x8000
 80001ee:	4889      	ldr	r0, [pc, #548]	; (8000414 <main+0x2c8>)
 80001f0:	f000 feb2 	bl	8000f58 <HAL_GPIO_WritePin>
				break;
 80001f4:	e02f      	b.n	8000256 <main+0x10a>
			case LIG_D1: // estado para ligar o LED
				if((HAL_GetTick()-tin_D1)>DT_D1) // se HAL_GetTick()-tin_D1 > DT_D1
 80001f6:	f000 fc13 	bl	8000a20 <HAL_GetTick>
 80001fa:	4602      	mov	r2, r0
 80001fc:	6a7b      	ldr	r3, [r7, #36]	; 0x24
 80001fe:	1ad3      	subs	r3, r2, r3
 8000200:	2b32      	cmp	r3, #50	; 0x32
 8000202:	d925      	bls.n	8000250 <main+0x104>
				{
					tin_D1 = HAL_GetTick(); // guarda tempo p/ prox mudança estado
 8000204:	f000 fc0c 	bl	8000a20 <HAL_GetTick>
 8000208:	6278      	str	r0, [r7, #36]	; 0x24
					sttD1 = DSLG_D1; // muda o prox estado da máquina
 800020a:	4b85      	ldr	r3, [pc, #532]	; (8000420 <main+0x2d4>)
 800020c:	2202      	movs	r2, #2
 800020e:	701a      	strb	r2, [r3, #0]
					HAL_GPIO_WritePin(GPIOB, GPIO_PIN_15, GPIO_PIN_RESET); // ligaLED
 8000210:	2200      	movs	r2, #0
 8000212:	f44f 4100 	mov.w	r1, #32768	; 0x8000
 8000216:	487f      	ldr	r0, [pc, #508]	; (8000414 <main+0x2c8>)
 8000218:	f000 fe9e 	bl	8000f58 <HAL_GPIO_WritePin>
				}
				break;
 800021c:	e018      	b.n	8000250 <main+0x104>
			case DSLG_D1: // estado para desligar o LED
				if((HAL_GetTick()-tin_D1)>DT_D1) // se HAL_GetTick()-tin_D1 > DT_D1
 800021e:	f000 fbff 	bl	8000a20 <HAL_GetTick>
 8000222:	4602      	mov	r2, r0
 8000224:	6a7b      	ldr	r3, [r7, #36]	; 0x24
 8000226:	1ad3      	subs	r3, r2, r3
 8000228:	2b32      	cmp	r3, #50	; 0x32
 800022a:	d913      	bls.n	8000254 <main+0x108>
				{
					tin_D1 = HAL_GetTick(); // guarda tempo p/ prox mudança estado
 800022c:	f000 fbf8 	bl	8000a20 <HAL_GetTick>
 8000230:	6278      	str	r0, [r7, #36]	; 0x24
					sttD1 = LIG_D1; // muda o prox estado da máquina
 8000232:	4b7b      	ldr	r3, [pc, #492]	; (8000420 <main+0x2d4>)
 8000234:	2201      	movs	r2, #1
 8000236:	701a      	strb	r2, [r3, #0]
					HAL_GPIO_WritePin(GPIOB, GPIO_PIN_15, GPIO_PIN_SET); // desl LED
 8000238:	2201      	movs	r2, #1
 800023a:	f44f 4100 	mov.w	r1, #32768	; 0x8000
 800023e:	4875      	ldr	r0, [pc, #468]	; (8000414 <main+0x2c8>)
 8000240:	f000 fe8a 	bl	8000f58 <HAL_GPIO_WritePin>
					quem_pisca ++;
 8000244:	68fb      	ldr	r3, [r7, #12]
 8000246:	3301      	adds	r3, #1
 8000248:	60fb      	str	r3, [r7, #12]
				}
				break;
 800024a:	e003      	b.n	8000254 <main+0x108>
			};
 800024c:	bf00      	nop
 800024e:	e002      	b.n	8000256 <main+0x10a>
				break;
 8000250:	bf00      	nop
 8000252:	e000      	b.n	8000256 <main+0x10a>
				break;
 8000254:	bf00      	nop
		}
		if (quem_pisca==2)
 8000256:	68fb      	ldr	r3, [r7, #12]
 8000258:	2b02      	cmp	r3, #2
 800025a:	d142      	bne.n	80002e2 <main+0x196>
		{
			switch (sttD2)
 800025c:	4b71      	ldr	r3, [pc, #452]	; (8000424 <main+0x2d8>)
 800025e:	781b      	ldrb	r3, [r3, #0]
 8000260:	2b02      	cmp	r3, #2
 8000262:	d027      	beq.n	80002b4 <main+0x168>
 8000264:	2b02      	cmp	r3, #2
 8000266:	dc41      	bgt.n	80002ec <main+0x1a0>
 8000268:	2b00      	cmp	r3, #0
 800026a:	d002      	beq.n	8000272 <main+0x126>
 800026c:	2b01      	cmp	r3, #1
 800026e:	d00d      	beq.n	800028c <main+0x140>
 8000270:	e03c      	b.n	80002ec <main+0x1a0>
			{
			case INI_D2: // vai iniciar a máquina de estado
				tin_D2 = HAL_GetTick(); // tempo inicial que iniciou a tarefa
 8000272:	f000 fbd5 	bl	8000a20 <HAL_GetTick>
 8000276:	6238      	str	r0, [r7, #32]
				sttD2 = LIG_D2; // prox estado da máquina
 8000278:	4b6a      	ldr	r3, [pc, #424]	; (8000424 <main+0x2d8>)
 800027a:	2201      	movs	r2, #1
 800027c:	701a      	strb	r2, [r3, #0]
				HAL_GPIO_WritePin(GPIOB, GPIO_PIN_14, GPIO_PIN_SET); // desl o LED
 800027e:	2201      	movs	r2, #1
 8000280:	f44f 4180 	mov.w	r1, #16384	; 0x4000
 8000284:	4863      	ldr	r0, [pc, #396]	; (8000414 <main+0x2c8>)
 8000286:	f000 fe67 	bl	8000f58 <HAL_GPIO_WritePin>
				break;
 800028a:	e02f      	b.n	80002ec <main+0x1a0>
			case LIG_D2: // estado para ligar o LED
				if((HAL_GetTick()-tin_D2)>DT_D2) // se HAL_GetTick()-tin_D2 > DT_D2
 800028c:	f000 fbc8 	bl	8000a20 <HAL_GetTick>
 8000290:	4602      	mov	r2, r0
 8000292:	6a3b      	ldr	r3, [r7, #32]
 8000294:	1ad3      	subs	r3, r2, r3
 8000296:	2b64      	cmp	r3, #100	; 0x64
 8000298:	d925      	bls.n	80002e6 <main+0x19a>
				{
					tin_D2 = HAL_GetTick(); // guarda tempo p/ prox mudança estado
 800029a:	f000 fbc1 	bl	8000a20 <HAL_GetTick>
 800029e:	6238      	str	r0, [r7, #32]
					sttD2 = DSLG_D2; // muda o prox estado da máquina
 80002a0:	4b60      	ldr	r3, [pc, #384]	; (8000424 <main+0x2d8>)
 80002a2:	2202      	movs	r2, #2
 80002a4:	701a      	strb	r2, [r3, #0]
					HAL_GPIO_WritePin(GPIOB, GPIO_PIN_14, GPIO_PIN_RESET); // ligaLED
 80002a6:	2200      	movs	r2, #0
 80002a8:	f44f 4180 	mov.w	r1, #16384	; 0x4000
 80002ac:	4859      	ldr	r0, [pc, #356]	; (8000414 <main+0x2c8>)
 80002ae:	f000 fe53 	bl	8000f58 <HAL_GPIO_WritePin>
				}
				break;
 80002b2:	e018      	b.n	80002e6 <main+0x19a>
			case DSLG_D2: // estado para desligar o LED
				if((HAL_GetTick()-tin_D2)>DT_D2) // se HAL_GetTick()-tin_D2 > DT_D2
 80002b4:	f000 fbb4 	bl	8000a20 <HAL_GetTick>
 80002b8:	4602      	mov	r2, r0
 80002ba:	6a3b      	ldr	r3, [r7, #32]
 80002bc:	1ad3      	subs	r3, r2, r3
 80002be:	2b64      	cmp	r3, #100	; 0x64
 80002c0:	d913      	bls.n	80002ea <main+0x19e>
				{
					tin_D2 = HAL_GetTick(); // guarda tempo p/ prox mudança estado
 80002c2:	f000 fbad 	bl	8000a20 <HAL_GetTick>
 80002c6:	6238      	str	r0, [r7, #32]
					sttD2 = LIG_D2; // muda o prox estado da máquina
 80002c8:	4b56      	ldr	r3, [pc, #344]	; (8000424 <main+0x2d8>)
 80002ca:	2201      	movs	r2, #1
 80002cc:	701a      	strb	r2, [r3, #0]
					HAL_GPIO_WritePin(GPIOB, GPIO_PIN_14, GPIO_PIN_SET); // desl LED
 80002ce:	2201      	movs	r2, #1
 80002d0:	f44f 4180 	mov.w	r1, #16384	; 0x4000
 80002d4:	484f      	ldr	r0, [pc, #316]	; (8000414 <main+0x2c8>)
 80002d6:	f000 fe3f 	bl	8000f58 <HAL_GPIO_WritePin>
					quem_pisca ++;
 80002da:	68fb      	ldr	r3, [r7, #12]
 80002dc:	3301      	adds	r3, #1
 80002de:	60fb      	str	r3, [r7, #12]
				}
				break;
 80002e0:	e003      	b.n	80002ea <main+0x19e>
			};
 80002e2:	bf00      	nop
 80002e4:	e002      	b.n	80002ec <main+0x1a0>
				break;
 80002e6:	bf00      	nop
 80002e8:	e000      	b.n	80002ec <main+0x1a0>
				break;
 80002ea:	bf00      	nop
		}
		if (quem_pisca==3)
 80002ec:	68fb      	ldr	r3, [r7, #12]
 80002ee:	2b03      	cmp	r3, #3
 80002f0:	d142      	bne.n	8000378 <main+0x22c>
		{
			switch (sttD3)
 80002f2:	4b4d      	ldr	r3, [pc, #308]	; (8000428 <main+0x2dc>)
 80002f4:	781b      	ldrb	r3, [r3, #0]
 80002f6:	2b02      	cmp	r3, #2
 80002f8:	d027      	beq.n	800034a <main+0x1fe>
 80002fa:	2b02      	cmp	r3, #2
 80002fc:	dc41      	bgt.n	8000382 <main+0x236>
 80002fe:	2b00      	cmp	r3, #0
 8000300:	d002      	beq.n	8000308 <main+0x1bc>
 8000302:	2b01      	cmp	r3, #1
 8000304:	d00d      	beq.n	8000322 <main+0x1d6>
 8000306:	e03c      	b.n	8000382 <main+0x236>
			{
			case INI_D3: // vai iniciar a máquina de estado
				tin_D3 = HAL_GetTick(); // tempo inicial que iniciou a tarefa
 8000308:	f000 fb8a 	bl	8000a20 <HAL_GetTick>
 800030c:	61f8      	str	r0, [r7, #28]
				sttD3 = LIG_D3; // prox estado da máquina
 800030e:	4b46      	ldr	r3, [pc, #280]	; (8000428 <main+0x2dc>)
 8000310:	2201      	movs	r2, #1
 8000312:	701a      	strb	r2, [r3, #0]
				HAL_GPIO_WritePin(GPIOB, GPIO_PIN_13, GPIO_PIN_SET); // desl o LED
 8000314:	2201      	movs	r2, #1
 8000316:	f44f 5100 	mov.w	r1, #8192	; 0x2000
 800031a:	483e      	ldr	r0, [pc, #248]	; (8000414 <main+0x2c8>)
 800031c:	f000 fe1c 	bl	8000f58 <HAL_GPIO_WritePin>
				break;
 8000320:	e02f      	b.n	8000382 <main+0x236>
			case LIG_D3: // estado para ligar o LED
				if((HAL_GetTick()-tin_D3)>DT_D3) // se HAL_GetTick()-tin_D3 > DT_D3
 8000322:	f000 fb7d 	bl	8000a20 <HAL_GetTick>
 8000326:	4602      	mov	r2, r0
 8000328:	69fb      	ldr	r3, [r7, #28]
 800032a:	1ad3      	subs	r3, r2, r3
 800032c:	2b96      	cmp	r3, #150	; 0x96
 800032e:	d925      	bls.n	800037c <main+0x230>
				{
					tin_D3 = HAL_GetTick(); // guarda tempo p/ prox mudança estado
 8000330:	f000 fb76 	bl	8000a20 <HAL_GetTick>
 8000334:	61f8      	str	r0, [r7, #28]
					sttD3 = DSLG_D3; // muda o prox estado da máquina
 8000336:	4b3c      	ldr	r3, [pc, #240]	; (8000428 <main+0x2dc>)
 8000338:	2202      	movs	r2, #2
 800033a:	701a      	strb	r2, [r3, #0]
					HAL_GPIO_WritePin(GPIOB, GPIO_PIN_13, GPIO_PIN_RESET); // ligaLED
 800033c:	2200      	movs	r2, #0
 800033e:	f44f 5100 	mov.w	r1, #8192	; 0x2000
 8000342:	4834      	ldr	r0, [pc, #208]	; (8000414 <main+0x2c8>)
 8000344:	f000 fe08 	bl	8000f58 <HAL_GPIO_WritePin>
				}
				break;
 8000348:	e018      	b.n	800037c <main+0x230>
			case DSLG_D3: // estado para desligar o LED
				if((HAL_GetTick()-tin_D3)>DT_D3) // se HAL_GetTick()-tin_D3 > DT_D3
 800034a:	f000 fb69 	bl	8000a20 <HAL_GetTick>
 800034e:	4602      	mov	r2, r0
 8000350:	69fb      	ldr	r3, [r7, #28]
 8000352:	1ad3      	subs	r3, r2, r3
 8000354:	2b96      	cmp	r3, #150	; 0x96
 8000356:	d913      	bls.n	8000380 <main+0x234>
				{
					tin_D3 = HAL_GetTick(); // guarda tempo p/ prox mudança estado
 8000358:	f000 fb62 	bl	8000a20 <HAL_GetTick>
 800035c:	61f8      	str	r0, [r7, #28]
					sttD3 = LIG_D3; // muda o prox estado da máquina
 800035e:	4b32      	ldr	r3, [pc, #200]	; (8000428 <main+0x2dc>)
 8000360:	2201      	movs	r2, #1
 8000362:	701a      	strb	r2, [r3, #0]
					HAL_GPIO_WritePin(GPIOB, GPIO_PIN_13, GPIO_PIN_SET); // desl LED
 8000364:	2201      	movs	r2, #1
 8000366:	f44f 5100 	mov.w	r1, #8192	; 0x2000
 800036a:	482a      	ldr	r0, [pc, #168]	; (8000414 <main+0x2c8>)
 800036c:	f000 fdf4 	bl	8000f58 <HAL_GPIO_WritePin>
					quem_pisca ++;
 8000370:	68fb      	ldr	r3, [r7, #12]
 8000372:	3301      	adds	r3, #1
 8000374:	60fb      	str	r3, [r7, #12]
				}
				break;
 8000376:	e003      	b.n	8000380 <main+0x234>
			};
 8000378:	bf00      	nop
 800037a:	e002      	b.n	8000382 <main+0x236>
				break;
 800037c:	bf00      	nop
 800037e:	e000      	b.n	8000382 <main+0x236>
				break;
 8000380:	bf00      	nop
		}
		if (quem_pisca==4)
 8000382:	68fb      	ldr	r3, [r7, #12]
 8000384:	2b04      	cmp	r3, #4
 8000386:	d142      	bne.n	800040e <main+0x2c2>
		{
			switch (sttD4)
 8000388:	4b28      	ldr	r3, [pc, #160]	; (800042c <main+0x2e0>)
 800038a:	781b      	ldrb	r3, [r3, #0]
 800038c:	2b02      	cmp	r3, #2
 800038e:	d027      	beq.n	80003e0 <main+0x294>
 8000390:	2b02      	cmp	r3, #2
 8000392:	dc50      	bgt.n	8000436 <main+0x2ea>
 8000394:	2b00      	cmp	r3, #0
 8000396:	d002      	beq.n	800039e <main+0x252>
 8000398:	2b01      	cmp	r3, #1
 800039a:	d00d      	beq.n	80003b8 <main+0x26c>
 800039c:	e04b      	b.n	8000436 <main+0x2ea>
			{
			case INI_D4: // vai iniciar a máquina de estado
				tin_D4 = HAL_GetTick(); // tempo inicial que iniciou a tarefa
 800039e:	f000 fb3f 	bl	8000a20 <HAL_GetTick>
 80003a2:	61b8      	str	r0, [r7, #24]
				sttD4 = LIG_D4; // prox estado da máquina
 80003a4:	4b21      	ldr	r3, [pc, #132]	; (800042c <main+0x2e0>)
 80003a6:	2201      	movs	r2, #1
 80003a8:	701a      	strb	r2, [r3, #0]
				HAL_GPIO_WritePin(GPIOB, GPIO_PIN_12, GPIO_PIN_SET); // desl o LED
 80003aa:	2201      	movs	r2, #1
 80003ac:	f44f 5180 	mov.w	r1, #4096	; 0x1000
 80003b0:	4818      	ldr	r0, [pc, #96]	; (8000414 <main+0x2c8>)
 80003b2:	f000 fdd1 	bl	8000f58 <HAL_GPIO_WritePin>
				break;
 80003b6:	e03e      	b.n	8000436 <main+0x2ea>
			case LIG_D4: // estado para ligar o LED
				if((HAL_GetTick()-tin_D4)>DT_D4) // se HAL_GetTick()-tin_D4 > DT_D4
 80003b8:	f000 fb32 	bl	8000a20 <HAL_GetTick>
 80003bc:	4602      	mov	r2, r0
 80003be:	69bb      	ldr	r3, [r7, #24]
 80003c0:	1ad3      	subs	r3, r2, r3
 80003c2:	2bc8      	cmp	r3, #200	; 0xc8
 80003c4:	d934      	bls.n	8000430 <main+0x2e4>
				{
					tin_D4 = HAL_GetTick(); // guarda tempo p/ prox mudança estado
 80003c6:	f000 fb2b 	bl	8000a20 <HAL_GetTick>
 80003ca:	61b8      	str	r0, [r7, #24]
					sttD4 = DSLG_D4; // muda o prox estado da máquina
 80003cc:	4b17      	ldr	r3, [pc, #92]	; (800042c <main+0x2e0>)
 80003ce:	2202      	movs	r2, #2
 80003d0:	701a      	strb	r2, [r3, #0]
					HAL_GPIO_WritePin(GPIOB, GPIO_PIN_12, GPIO_PIN_RESET); // ligaLED
 80003d2:	2200      	movs	r2, #0
 80003d4:	f44f 5180 	mov.w	r1, #4096	; 0x1000
 80003d8:	480e      	ldr	r0, [pc, #56]	; (8000414 <main+0x2c8>)
 80003da:	f000 fdbd 	bl	8000f58 <HAL_GPIO_WritePin>
				}
				break;
 80003de:	e027      	b.n	8000430 <main+0x2e4>
			case DSLG_D4: // estado para desligar o LED
				if((HAL_GetTick()-tin_D4)>DT_D4) // se HAL_GetTick()-tin_D4 > DT_D4
 80003e0:	f000 fb1e 	bl	8000a20 <HAL_GetTick>
 80003e4:	4602      	mov	r2, r0
 80003e6:	69bb      	ldr	r3, [r7, #24]
 80003e8:	1ad3      	subs	r3, r2, r3
 80003ea:	2bc8      	cmp	r3, #200	; 0xc8
 80003ec:	d922      	bls.n	8000434 <main+0x2e8>
				{
					tin_D4 = HAL_GetTick(); // guarda tempo p/ prox mudança estado
 80003ee:	f000 fb17 	bl	8000a20 <HAL_GetTick>
 80003f2:	61b8      	str	r0, [r7, #24]
					sttD4 = LIG_D4; // muda o prox estado da máquina
 80003f4:	4b0d      	ldr	r3, [pc, #52]	; (800042c <main+0x2e0>)
 80003f6:	2201      	movs	r2, #1
 80003f8:	701a      	strb	r2, [r3, #0]
					HAL_GPIO_WritePin(GPIOB, GPIO_PIN_12, GPIO_PIN_SET); // desl LED
 80003fa:	2201      	movs	r2, #1
 80003fc:	f44f 5180 	mov.w	r1, #4096	; 0x1000
 8000400:	4804      	ldr	r0, [pc, #16]	; (8000414 <main+0x2c8>)
 8000402:	f000 fda9 	bl	8000f58 <HAL_GPIO_WritePin>
					quem_pisca ++;
 8000406:	68fb      	ldr	r3, [r7, #12]
 8000408:	3301      	adds	r3, #1
 800040a:	60fb      	str	r3, [r7, #12]
				}
				break;
 800040c:	e012      	b.n	8000434 <main+0x2e8>
			};
 800040e:	bf00      	nop
 8000410:	e011      	b.n	8000436 <main+0x2ea>
 8000412:	bf00      	nop
 8000414:	40010c00 	.word	0x40010c00
 8000418:	20000028 	.word	0x20000028
 800041c:	40000800 	.word	0x40000800
 8000420:	20000070 	.word	0x20000070
 8000424:	20000071 	.word	0x20000071
 8000428:	20000072 	.word	0x20000072
 800042c:	20000073 	.word	0x20000073
				break;
 8000430:	bf00      	nop
 8000432:	e000      	b.n	8000436 <main+0x2ea>
				break;
 8000434:	bf00      	nop
		}
		switch (sttD7)
 8000436:	4b49      	ldr	r3, [pc, #292]	; (800055c <main+0x410>)
 8000438:	781b      	ldrb	r3, [r3, #0]
 800043a:	2b02      	cmp	r3, #2
 800043c:	d028      	beq.n	8000490 <main+0x344>
 800043e:	2b02      	cmp	r3, #2
 8000440:	dc41      	bgt.n	80004c6 <main+0x37a>
 8000442:	2b00      	cmp	r3, #0
 8000444:	d002      	beq.n	800044c <main+0x300>
 8000446:	2b01      	cmp	r3, #1
 8000448:	d00a      	beq.n	8000460 <main+0x314>
 800044a:	e03c      	b.n	80004c6 <main+0x37a>
		{
		case INI_D7: // vai iniciar a máquina de estado
			tin_D7 = HAL_GetTick(); // tempo em que iniciou a tarefa
 800044c:	f000 fae8 	bl	8000a20 <HAL_GetTick>
 8000450:	6178      	str	r0, [r7, #20]
			sttD7 = INC_D7; // prox estado da máquina
 8000452:	4b42      	ldr	r3, [pc, #264]	; (800055c <main+0x410>)
 8000454:	2201      	movs	r2, #1
 8000456:	701a      	strb	r2, [r3, #0]
			TIM4->CCR2 = 0; // inicia val dc_D7 = 0
 8000458:	4b41      	ldr	r3, [pc, #260]	; (8000560 <main+0x414>)
 800045a:	2200      	movs	r2, #0
 800045c:	639a      	str	r2, [r3, #56]	; 0x38
			break;
 800045e:	e032      	b.n	80004c6 <main+0x37a>
		case INC_D7: // estado para incrementar PWM
			if((HAL_GetTick()-tin_D7)>dt_D7) // se o milis-tin_D7 > dt_PD7
 8000460:	f000 fade 	bl	8000a20 <HAL_GetTick>
 8000464:	4602      	mov	r2, r0
 8000466:	697b      	ldr	r3, [r7, #20]
 8000468:	1ad2      	subs	r2, r2, r3
 800046a:	687b      	ldr	r3, [r7, #4]
 800046c:	429a      	cmp	r2, r3
 800046e:	d927      	bls.n	80004c0 <main+0x374>
			{
				tin_D7 = HAL_GetTick(); // tempo p/ prox mudança dc_D7
 8000470:	f000 fad6 	bl	8000a20 <HAL_GetTick>
 8000474:	6178      	str	r0, [r7, #20]
				++ dc_D7; // incrementa dc_D7
 8000476:	897b      	ldrh	r3, [r7, #10]
 8000478:	3301      	adds	r3, #1
 800047a:	817b      	strh	r3, [r7, #10]
				if (dc_D7>=PWM_ARR) sttD7=DEC_D7; // muda maq est p/ DEC_D7
 800047c:	897b      	ldrh	r3, [r7, #10]
 800047e:	2bc7      	cmp	r3, #199	; 0xc7
 8000480:	d902      	bls.n	8000488 <main+0x33c>
 8000482:	4b36      	ldr	r3, [pc, #216]	; (800055c <main+0x410>)
 8000484:	2202      	movs	r2, #2
 8000486:	701a      	strb	r2, [r3, #0]
				TIM4->CCR2 = dc_D7; // set comparador com valor dc_D7
 8000488:	4a35      	ldr	r2, [pc, #212]	; (8000560 <main+0x414>)
 800048a:	897b      	ldrh	r3, [r7, #10]
 800048c:	6393      	str	r3, [r2, #56]	; 0x38
			}
			break;
 800048e:	e017      	b.n	80004c0 <main+0x374>
		case DEC_D7: // estado para decrementar o PWM
			if((HAL_GetTick()-tin_D7)>dt_D7) // se o milis-tin_D7 > dt_PD7
 8000490:	f000 fac6 	bl	8000a20 <HAL_GetTick>
 8000494:	4602      	mov	r2, r0
 8000496:	697b      	ldr	r3, [r7, #20]
 8000498:	1ad2      	subs	r2, r2, r3
 800049a:	687b      	ldr	r3, [r7, #4]
 800049c:	429a      	cmp	r2, r3
 800049e:	d911      	bls.n	80004c4 <main+0x378>
			{
				tin_D7 = HAL_GetTick(); // tempo p/ prox mudança dc_D7
 80004a0:	f000 fabe 	bl	8000a20 <HAL_GetTick>
 80004a4:	6178      	str	r0, [r7, #20]
				-- dc_D7; // decrementa dc_D7
 80004a6:	897b      	ldrh	r3, [r7, #10]
 80004a8:	3b01      	subs	r3, #1
 80004aa:	817b      	strh	r3, [r7, #10]
				if (dc_D7 <= 0) sttD7=INC_D7; // muda maq est p/ INC_D7
 80004ac:	897b      	ldrh	r3, [r7, #10]
 80004ae:	2b00      	cmp	r3, #0
 80004b0:	d102      	bne.n	80004b8 <main+0x36c>
 80004b2:	4b2a      	ldr	r3, [pc, #168]	; (800055c <main+0x410>)
 80004b4:	2201      	movs	r2, #1
 80004b6:	701a      	strb	r2, [r3, #0]
				TIM4->CCR2 = dc_D7; // set comparador com valor dc_D7
 80004b8:	4a29      	ldr	r2, [pc, #164]	; (8000560 <main+0x414>)
 80004ba:	897b      	ldrh	r3, [r7, #10]
 80004bc:	6393      	str	r3, [r2, #56]	; 0x38
			}
			break;
 80004be:	e001      	b.n	80004c4 <main+0x378>
			break;
 80004c0:	bf00      	nop
 80004c2:	e000      	b.n	80004c6 <main+0x37a>
			break;
 80004c4:	bf00      	nop
		};
		switch (sttD8)
 80004c6:	4b27      	ldr	r3, [pc, #156]	; (8000564 <main+0x418>)
 80004c8:	781b      	ldrb	r3, [r3, #0]
 80004ca:	2b02      	cmp	r3, #2
 80004cc:	d029      	beq.n	8000522 <main+0x3d6>
 80004ce:	2b02      	cmp	r3, #2
 80004d0:	f73f ae71 	bgt.w	80001b6 <main+0x6a>
 80004d4:	2b00      	cmp	r3, #0
 80004d6:	d002      	beq.n	80004de <main+0x392>
 80004d8:	2b01      	cmp	r3, #1
 80004da:	d00a      	beq.n	80004f2 <main+0x3a6>
 80004dc:	e03c      	b.n	8000558 <main+0x40c>
		{
		case INI_D8: // vai iniciar a máquina de estado
			tin_D8 = HAL_GetTick(); // tempo em que iniciou a tarefa
 80004de:	f000 fa9f 	bl	8000a20 <HAL_GetTick>
 80004e2:	6138      	str	r0, [r7, #16]
			sttD8 = INC_D8; // prox estado da máquina
 80004e4:	4b1f      	ldr	r3, [pc, #124]	; (8000564 <main+0x418>)
 80004e6:	2201      	movs	r2, #1
 80004e8:	701a      	strb	r2, [r3, #0]
			TIM4->CCR3 = 0; // inicia val dc_D8 = 0
 80004ea:	4b1d      	ldr	r3, [pc, #116]	; (8000560 <main+0x414>)
 80004ec:	2200      	movs	r2, #0
 80004ee:	63da      	str	r2, [r3, #60]	; 0x3c
			break;
 80004f0:	e032      	b.n	8000558 <main+0x40c>
		case INC_D8: // estado para incrementar PWM
			if((HAL_GetTick()-tin_D8)>dt_D8) // se o milis-tin_D8 > dt_PD8
 80004f2:	f000 fa95 	bl	8000a20 <HAL_GetTick>
 80004f6:	4602      	mov	r2, r0
 80004f8:	693b      	ldr	r3, [r7, #16]
 80004fa:	1ad2      	subs	r2, r2, r3
 80004fc:	683b      	ldr	r3, [r7, #0]
 80004fe:	429a      	cmp	r2, r3
 8000500:	d927      	bls.n	8000552 <main+0x406>
			{
				tin_D8 = HAL_GetTick(); // tempo p/ prox mudança dc_D8
 8000502:	f000 fa8d 	bl	8000a20 <HAL_GetTick>
 8000506:	6138      	str	r0, [r7, #16]
				++ dc_D8; // incrementa dc_D8
 8000508:	893b      	ldrh	r3, [r7, #8]
 800050a:	3301      	adds	r3, #1
 800050c:	813b      	strh	r3, [r7, #8]
				if (dc_D8>=PWM_ARR) sttD8=DEC_D8; // muda maq est p/ DEC_D8
 800050e:	893b      	ldrh	r3, [r7, #8]
 8000510:	2bc7      	cmp	r3, #199	; 0xc7
 8000512:	d902      	bls.n	800051a <main+0x3ce>
 8000514:	4b13      	ldr	r3, [pc, #76]	; (8000564 <main+0x418>)
 8000516:	2202      	movs	r2, #2
 8000518:	701a      	strb	r2, [r3, #0]
				TIM4->CCR3 = dc_D8; // set comparador com valor dc_D8
 800051a:	4a11      	ldr	r2, [pc, #68]	; (8000560 <main+0x414>)
 800051c:	893b      	ldrh	r3, [r7, #8]
 800051e:	63d3      	str	r3, [r2, #60]	; 0x3c
			}
			break;
 8000520:	e017      	b.n	8000552 <main+0x406>
		case DEC_D8: // estado para decrementar o PWM
			if((HAL_GetTick()-tin_D8)>dt_D8) // se o milis-tin_D8 > dt_PD8
 8000522:	f000 fa7d 	bl	8000a20 <HAL_GetTick>
 8000526:	4602      	mov	r2, r0
 8000528:	693b      	ldr	r3, [r7, #16]
 800052a:	1ad2      	subs	r2, r2, r3
 800052c:	683b      	ldr	r3, [r7, #0]
 800052e:	429a      	cmp	r2, r3
 8000530:	d911      	bls.n	8000556 <main+0x40a>
			{
				tin_D8 = HAL_GetTick(); // tempo p/ prox mudança dc_D8
 8000532:	f000 fa75 	bl	8000a20 <HAL_GetTick>
 8000536:	6138      	str	r0, [r7, #16]
				-- dc_D8; // decrementa dc_D8
 8000538:	893b      	ldrh	r3, [r7, #8]
 800053a:	3b01      	subs	r3, #1
 800053c:	813b      	strh	r3, [r7, #8]
				if (dc_D8 <= 0) sttD8=INC_D8; // muda maq est p/ INC_D8
 800053e:	893b      	ldrh	r3, [r7, #8]
 8000540:	2b00      	cmp	r3, #0
 8000542:	d102      	bne.n	800054a <main+0x3fe>
 8000544:	4b07      	ldr	r3, [pc, #28]	; (8000564 <main+0x418>)
 8000546:	2201      	movs	r2, #1
 8000548:	701a      	strb	r2, [r3, #0]
				TIM4->CCR3 = dc_D8; // set comparador com valor dc_D8
 800054a:	4a05      	ldr	r2, [pc, #20]	; (8000560 <main+0x414>)
 800054c:	893b      	ldrh	r3, [r7, #8]
 800054e:	63d3      	str	r3, [r2, #60]	; 0x3c
			}
			break;
 8000550:	e001      	b.n	8000556 <main+0x40a>
			break;
 8000552:	bf00      	nop
 8000554:	e62f      	b.n	80001b6 <main+0x6a>
			break;
 8000556:	bf00      	nop
		if(quem_pisca > MAX_quem_pisca) quem_pisca=1;
 8000558:	e62d      	b.n	80001b6 <main+0x6a>
 800055a:	bf00      	nop
 800055c:	20000074 	.word	0x20000074
 8000560:	40000800 	.word	0x40000800
 8000564:	20000075 	.word	0x20000075

08000568 <SystemClock_Config>:
/**
 * @brief System Clock Configuration
 * @retval None
 */
void SystemClock_Config(void)
{
 8000568:	b580      	push	{r7, lr}
 800056a:	b090      	sub	sp, #64	; 0x40
 800056c:	af00      	add	r7, sp, #0
	RCC_OscInitTypeDef RCC_OscInitStruct = {0};
 800056e:	f107 0318 	add.w	r3, r7, #24
 8000572:	2228      	movs	r2, #40	; 0x28
 8000574:	2100      	movs	r1, #0
 8000576:	4618      	mov	r0, r3
 8000578:	f002 f828 	bl	80025cc <memset>
	RCC_ClkInitTypeDef RCC_ClkInitStruct = {0};
 800057c:	1d3b      	adds	r3, r7, #4
 800057e:	2200      	movs	r2, #0
 8000580:	601a      	str	r2, [r3, #0]
 8000582:	605a      	str	r2, [r3, #4]
 8000584:	609a      	str	r2, [r3, #8]
 8000586:	60da      	str	r2, [r3, #12]
 8000588:	611a      	str	r2, [r3, #16]

	/** Initializes the RCC Oscillators according to the specified parameters
	 * in the RCC_OscInitTypeDef structure.
	 */
	RCC_OscInitStruct.OscillatorType = RCC_OSCILLATORTYPE_HSE;
 800058a:	2301      	movs	r3, #1
 800058c:	61bb      	str	r3, [r7, #24]
	RCC_OscInitStruct.HSEState = RCC_HSE_ON;
 800058e:	f44f 3380 	mov.w	r3, #65536	; 0x10000
 8000592:	61fb      	str	r3, [r7, #28]
	RCC_OscInitStruct.HSEPredivValue = RCC_HSE_PREDIV_DIV1;
 8000594:	2300      	movs	r3, #0
 8000596:	623b      	str	r3, [r7, #32]
	RCC_OscInitStruct.HSIState = RCC_HSI_ON;
 8000598:	2301      	movs	r3, #1
 800059a:	62bb      	str	r3, [r7, #40]	; 0x28
	RCC_OscInitStruct.PLL.PLLState = RCC_PLL_ON;
 800059c:	2302      	movs	r3, #2
 800059e:	637b      	str	r3, [r7, #52]	; 0x34
	RCC_OscInitStruct.PLL.PLLSource = RCC_PLLSOURCE_HSE;
 80005a0:	f44f 3380 	mov.w	r3, #65536	; 0x10000
 80005a4:	63bb      	str	r3, [r7, #56]	; 0x38
	RCC_OscInitStruct.PLL.PLLMUL = RCC_PLL_MUL9;
 80005a6:	f44f 13e0 	mov.w	r3, #1835008	; 0x1c0000
 80005aa:	63fb      	str	r3, [r7, #60]	; 0x3c
	if (HAL_RCC_OscConfig(&RCC_OscInitStruct) != HAL_OK)
 80005ac:	f107 0318 	add.w	r3, r7, #24
 80005b0:	4618      	mov	r0, r3
 80005b2:	f000 fce9 	bl	8000f88 <HAL_RCC_OscConfig>
 80005b6:	4603      	mov	r3, r0
 80005b8:	2b00      	cmp	r3, #0
 80005ba:	d001      	beq.n	80005c0 <SystemClock_Config+0x58>
	{
		Error_Handler();
 80005bc:	f000 f8e8 	bl	8000790 <Error_Handler>
	}

	/** Initializes the CPU, AHB and APB buses clocks
	 */
	RCC_ClkInitStruct.ClockType = RCC_CLOCKTYPE_HCLK|RCC_CLOCKTYPE_SYSCLK
 80005c0:	230f      	movs	r3, #15
 80005c2:	607b      	str	r3, [r7, #4]
			|RCC_CLOCKTYPE_PCLK1|RCC_CLOCKTYPE_PCLK2;
	RCC_ClkInitStruct.SYSCLKSource = RCC_SYSCLKSOURCE_PLLCLK;
 80005c4:	2302      	movs	r3, #2
 80005c6:	60bb      	str	r3, [r7, #8]
	RCC_ClkInitStruct.AHBCLKDivider = RCC_SYSCLK_DIV1;
 80005c8:	2300      	movs	r3, #0
 80005ca:	60fb      	str	r3, [r7, #12]
	RCC_ClkInitStruct.APB1CLKDivider = RCC_HCLK_DIV2;
 80005cc:	f44f 6380 	mov.w	r3, #1024	; 0x400
 80005d0:	613b      	str	r3, [r7, #16]
	RCC_ClkInitStruct.APB2CLKDivider = RCC_HCLK_DIV1;
 80005d2:	2300      	movs	r3, #0
 80005d4:	617b      	str	r3, [r7, #20]

	if (HAL_RCC_ClockConfig(&RCC_ClkInitStruct, FLASH_LATENCY_2) != HAL_OK)
 80005d6:	1d3b      	adds	r3, r7, #4
 80005d8:	2102      	movs	r1, #2
 80005da:	4618      	mov	r0, r3
 80005dc:	f000 ff56 	bl	800148c <HAL_RCC_ClockConfig>
 80005e0:	4603      	mov	r3, r0
 80005e2:	2b00      	cmp	r3, #0
 80005e4:	d001      	beq.n	80005ea <SystemClock_Config+0x82>
	{
		Error_Handler();
 80005e6:	f000 f8d3 	bl	8000790 <Error_Handler>
	}
}
 80005ea:	bf00      	nop
 80005ec:	3740      	adds	r7, #64	; 0x40
 80005ee:	46bd      	mov	sp, r7
 80005f0:	bd80      	pop	{r7, pc}
	...

080005f4 <MX_TIM4_Init>:
 * @brief TIM4 Initialization Function
 * @param None
 * @retval None
 */
static void MX_TIM4_Init(void)
{
 80005f4:	b580      	push	{r7, lr}
 80005f6:	b08e      	sub	sp, #56	; 0x38
 80005f8:	af00      	add	r7, sp, #0

	/* USER CODE BEGIN TIM4_Init 0 */

	/* USER CODE END TIM4_Init 0 */

	TIM_ClockConfigTypeDef sClockSourceConfig = {0};
 80005fa:	f107 0328 	add.w	r3, r7, #40	; 0x28
 80005fe:	2200      	movs	r2, #0
 8000600:	601a      	str	r2, [r3, #0]
 8000602:	605a      	str	r2, [r3, #4]
 8000604:	609a      	str	r2, [r3, #8]
 8000606:	60da      	str	r2, [r3, #12]
	TIM_MasterConfigTypeDef sMasterConfig = {0};
 8000608:	f107 0320 	add.w	r3, r7, #32
 800060c:	2200      	movs	r2, #0
 800060e:	601a      	str	r2, [r3, #0]
 8000610:	605a      	str	r2, [r3, #4]
	TIM_OC_InitTypeDef sConfigOC = {0};
 8000612:	1d3b      	adds	r3, r7, #4
 8000614:	2200      	movs	r2, #0
 8000616:	601a      	str	r2, [r3, #0]
 8000618:	605a      	str	r2, [r3, #4]
 800061a:	609a      	str	r2, [r3, #8]
 800061c:	60da      	str	r2, [r3, #12]
 800061e:	611a      	str	r2, [r3, #16]
 8000620:	615a      	str	r2, [r3, #20]
 8000622:	619a      	str	r2, [r3, #24]

	/* USER CODE BEGIN TIM4_Init 1 */

	/* USER CODE END TIM4_Init 1 */
	htim4.Instance = TIM4;
 8000624:	4b32      	ldr	r3, [pc, #200]	; (80006f0 <MX_TIM4_Init+0xfc>)
 8000626:	4a33      	ldr	r2, [pc, #204]	; (80006f4 <MX_TIM4_Init+0x100>)
 8000628:	601a      	str	r2, [r3, #0]
	htim4.Init.Prescaler = 17999;
 800062a:	4b31      	ldr	r3, [pc, #196]	; (80006f0 <MX_TIM4_Init+0xfc>)
 800062c:	f244 624f 	movw	r2, #17999	; 0x464f
 8000630:	605a      	str	r2, [r3, #4]
	htim4.Init.CounterMode = TIM_COUNTERMODE_UP;
 8000632:	4b2f      	ldr	r3, [pc, #188]	; (80006f0 <MX_TIM4_Init+0xfc>)
 8000634:	2200      	movs	r2, #0
 8000636:	609a      	str	r2, [r3, #8]
	htim4.Init.Period = 199;
 8000638:	4b2d      	ldr	r3, [pc, #180]	; (80006f0 <MX_TIM4_Init+0xfc>)
 800063a:	22c7      	movs	r2, #199	; 0xc7
 800063c:	60da      	str	r2, [r3, #12]
	htim4.Init.ClockDivision = TIM_CLOCKDIVISION_DIV1;
 800063e:	4b2c      	ldr	r3, [pc, #176]	; (80006f0 <MX_TIM4_Init+0xfc>)
 8000640:	2200      	movs	r2, #0
 8000642:	611a      	str	r2, [r3, #16]
	htim4.Init.AutoReloadPreload = TIM_AUTORELOAD_PRELOAD_DISABLE;
 8000644:	4b2a      	ldr	r3, [pc, #168]	; (80006f0 <MX_TIM4_Init+0xfc>)
 8000646:	2200      	movs	r2, #0
 8000648:	619a      	str	r2, [r3, #24]
	if (HAL_TIM_Base_Init(&htim4) != HAL_OK)
 800064a:	4829      	ldr	r0, [pc, #164]	; (80006f0 <MX_TIM4_Init+0xfc>)
 800064c:	f001 f884 	bl	8001758 <HAL_TIM_Base_Init>
 8000650:	4603      	mov	r3, r0
 8000652:	2b00      	cmp	r3, #0
 8000654:	d001      	beq.n	800065a <MX_TIM4_Init+0x66>
	{
		Error_Handler();
 8000656:	f000 f89b 	bl	8000790 <Error_Handler>
	}
	sClockSourceConfig.ClockSource = TIM_CLOCKSOURCE_INTERNAL;
 800065a:	f44f 5380 	mov.w	r3, #4096	; 0x1000
 800065e:	62bb      	str	r3, [r7, #40]	; 0x28
	if (HAL_TIM_ConfigClockSource(&htim4, &sClockSourceConfig) != HAL_OK)
 8000660:	f107 0328 	add.w	r3, r7, #40	; 0x28
 8000664:	4619      	mov	r1, r3
 8000666:	4822      	ldr	r0, [pc, #136]	; (80006f0 <MX_TIM4_Init+0xfc>)
 8000668:	f001 fb86 	bl	8001d78 <HAL_TIM_ConfigClockSource>
 800066c:	4603      	mov	r3, r0
 800066e:	2b00      	cmp	r3, #0
 8000670:	d001      	beq.n	8000676 <MX_TIM4_Init+0x82>
	{
		Error_Handler();
 8000672:	f000 f88d 	bl	8000790 <Error_Handler>
	}
	if (HAL_TIM_PWM_Init(&htim4) != HAL_OK)
 8000676:	481e      	ldr	r0, [pc, #120]	; (80006f0 <MX_TIM4_Init+0xfc>)
 8000678:	f001 f8bd 	bl	80017f6 <HAL_TIM_PWM_Init>
 800067c:	4603      	mov	r3, r0
 800067e:	2b00      	cmp	r3, #0
 8000680:	d001      	beq.n	8000686 <MX_TIM4_Init+0x92>
	{
		Error_Handler();
 8000682:	f000 f885 	bl	8000790 <Error_Handler>
	}
	sMasterConfig.MasterOutputTrigger = TIM_TRGO_RESET;
 8000686:	2300      	movs	r3, #0
 8000688:	623b      	str	r3, [r7, #32]
	sMasterConfig.MasterSlaveMode = TIM_MASTERSLAVEMODE_DISABLE;
 800068a:	2300      	movs	r3, #0
 800068c:	627b      	str	r3, [r7, #36]	; 0x24
	if (HAL_TIMEx_MasterConfigSynchronization(&htim4, &sMasterConfig) != HAL_OK)
 800068e:	f107 0320 	add.w	r3, r7, #32
 8000692:	4619      	mov	r1, r3
 8000694:	4816      	ldr	r0, [pc, #88]	; (80006f0 <MX_TIM4_Init+0xfc>)
 8000696:	f001 ff05 	bl	80024a4 <HAL_TIMEx_MasterConfigSynchronization>
 800069a:	4603      	mov	r3, r0
 800069c:	2b00      	cmp	r3, #0
 800069e:	d001      	beq.n	80006a4 <MX_TIM4_Init+0xb0>
	{
		Error_Handler();
 80006a0:	f000 f876 	bl	8000790 <Error_Handler>
	}
	sConfigOC.OCMode = TIM_OCMODE_PWM1;
 80006a4:	2360      	movs	r3, #96	; 0x60
 80006a6:	607b      	str	r3, [r7, #4]
	sConfigOC.Pulse = 0;
 80006a8:	2300      	movs	r3, #0
 80006aa:	60bb      	str	r3, [r7, #8]
	sConfigOC.OCPolarity = TIM_OCPOLARITY_HIGH;
 80006ac:	2300      	movs	r3, #0
 80006ae:	60fb      	str	r3, [r7, #12]
	sConfigOC.OCFastMode = TIM_OCFAST_DISABLE;
 80006b0:	2300      	movs	r3, #0
 80006b2:	617b      	str	r3, [r7, #20]
	if (HAL_TIM_PWM_ConfigChannel(&htim4, &sConfigOC, TIM_CHANNEL_2) != HAL_OK)
 80006b4:	1d3b      	adds	r3, r7, #4
 80006b6:	2204      	movs	r2, #4
 80006b8:	4619      	mov	r1, r3
 80006ba:	480d      	ldr	r0, [pc, #52]	; (80006f0 <MX_TIM4_Init+0xfc>)
 80006bc:	f001 fa9e 	bl	8001bfc <HAL_TIM_PWM_ConfigChannel>
 80006c0:	4603      	mov	r3, r0
 80006c2:	2b00      	cmp	r3, #0
 80006c4:	d001      	beq.n	80006ca <MX_TIM4_Init+0xd6>
	{
		Error_Handler();
 80006c6:	f000 f863 	bl	8000790 <Error_Handler>
	}
	if (HAL_TIM_PWM_ConfigChannel(&htim4, &sConfigOC, TIM_CHANNEL_3) != HAL_OK)
 80006ca:	1d3b      	adds	r3, r7, #4
 80006cc:	2208      	movs	r2, #8
 80006ce:	4619      	mov	r1, r3
 80006d0:	4807      	ldr	r0, [pc, #28]	; (80006f0 <MX_TIM4_Init+0xfc>)
 80006d2:	f001 fa93 	bl	8001bfc <HAL_TIM_PWM_ConfigChannel>
 80006d6:	4603      	mov	r3, r0
 80006d8:	2b00      	cmp	r3, #0
 80006da:	d001      	beq.n	80006e0 <MX_TIM4_Init+0xec>
	{
		Error_Handler();
 80006dc:	f000 f858 	bl	8000790 <Error_Handler>
	}
	/* USER CODE BEGIN TIM4_Init 2 */

	/* USER CODE END TIM4_Init 2 */
	HAL_TIM_MspPostInit(&htim4);
 80006e0:	4803      	ldr	r0, [pc, #12]	; (80006f0 <MX_TIM4_Init+0xfc>)
 80006e2:	f000 f8b3 	bl	800084c <HAL_TIM_MspPostInit>

}
 80006e6:	bf00      	nop
 80006e8:	3738      	adds	r7, #56	; 0x38
 80006ea:	46bd      	mov	sp, r7
 80006ec:	bd80      	pop	{r7, pc}
 80006ee:	bf00      	nop
 80006f0:	20000028 	.word	0x20000028
 80006f4:	40000800 	.word	0x40000800

080006f8 <MX_GPIO_Init>:
 * @brief GPIO Initialization Function
 * @param None
 * @retval None
 */
static void MX_GPIO_Init(void)
{
 80006f8:	b580      	push	{r7, lr}
 80006fa:	b088      	sub	sp, #32
 80006fc:	af00      	add	r7, sp, #0
	GPIO_InitTypeDef GPIO_InitStruct = {0};
 80006fe:	f107 0310 	add.w	r3, r7, #16
 8000702:	2200      	movs	r2, #0
 8000704:	601a      	str	r2, [r3, #0]
 8000706:	605a      	str	r2, [r3, #4]
 8000708:	609a      	str	r2, [r3, #8]
 800070a:	60da      	str	r2, [r3, #12]

	/* GPIO Ports Clock Enable */
	__HAL_RCC_GPIOD_CLK_ENABLE();
 800070c:	4b1e      	ldr	r3, [pc, #120]	; (8000788 <MX_GPIO_Init+0x90>)
 800070e:	699b      	ldr	r3, [r3, #24]
 8000710:	4a1d      	ldr	r2, [pc, #116]	; (8000788 <MX_GPIO_Init+0x90>)
 8000712:	f043 0320 	orr.w	r3, r3, #32
 8000716:	6193      	str	r3, [r2, #24]
 8000718:	4b1b      	ldr	r3, [pc, #108]	; (8000788 <MX_GPIO_Init+0x90>)
 800071a:	699b      	ldr	r3, [r3, #24]
 800071c:	f003 0320 	and.w	r3, r3, #32
 8000720:	60fb      	str	r3, [r7, #12]
 8000722:	68fb      	ldr	r3, [r7, #12]
	__HAL_RCC_GPIOB_CLK_ENABLE();
 8000724:	4b18      	ldr	r3, [pc, #96]	; (8000788 <MX_GPIO_Init+0x90>)
 8000726:	699b      	ldr	r3, [r3, #24]
 8000728:	4a17      	ldr	r2, [pc, #92]	; (8000788 <MX_GPIO_Init+0x90>)
 800072a:	f043 0308 	orr.w	r3, r3, #8
 800072e:	6193      	str	r3, [r2, #24]
 8000730:	4b15      	ldr	r3, [pc, #84]	; (8000788 <MX_GPIO_Init+0x90>)
 8000732:	699b      	ldr	r3, [r3, #24]
 8000734:	f003 0308 	and.w	r3, r3, #8
 8000738:	60bb      	str	r3, [r7, #8]
 800073a:	68bb      	ldr	r3, [r7, #8]
	__HAL_RCC_GPIOA_CLK_ENABLE();
 800073c:	4b12      	ldr	r3, [pc, #72]	; (8000788 <MX_GPIO_Init+0x90>)
 800073e:	699b      	ldr	r3, [r3, #24]
 8000740:	4a11      	ldr	r2, [pc, #68]	; (8000788 <MX_GPIO_Init+0x90>)
 8000742:	f043 0304 	orr.w	r3, r3, #4
 8000746:	6193      	str	r3, [r2, #24]
 8000748:	4b0f      	ldr	r3, [pc, #60]	; (8000788 <MX_GPIO_Init+0x90>)
 800074a:	699b      	ldr	r3, [r3, #24]
 800074c:	f003 0304 	and.w	r3, r3, #4
 8000750:	607b      	str	r3, [r7, #4]
 8000752:	687b      	ldr	r3, [r7, #4]

	/*Configure GPIO pin Output Level */
	HAL_GPIO_WritePin(GPIOB, GPIO_PIN_12|GPIO_PIN_13|GPIO_PIN_14|GPIO_PIN_15, GPIO_PIN_RESET);
 8000754:	2200      	movs	r2, #0
 8000756:	f44f 4170 	mov.w	r1, #61440	; 0xf000
 800075a:	480c      	ldr	r0, [pc, #48]	; (800078c <MX_GPIO_Init+0x94>)
 800075c:	f000 fbfc 	bl	8000f58 <HAL_GPIO_WritePin>

	/*Configure GPIO pins : PB14 PB15 */
	GPIO_InitStruct.Pin = GPIO_PIN_12|GPIO_PIN_13|GPIO_PIN_14|GPIO_PIN_15;
 8000760:	f44f 4370 	mov.w	r3, #61440	; 0xf000
 8000764:	613b      	str	r3, [r7, #16]
	GPIO_InitStruct.Mode = GPIO_MODE_OUTPUT_PP;
 8000766:	2301      	movs	r3, #1
 8000768:	617b      	str	r3, [r7, #20]
	GPIO_InitStruct.Pull = GPIO_NOPULL;
 800076a:	2300      	movs	r3, #0
 800076c:	61bb      	str	r3, [r7, #24]
	GPIO_InitStruct.Speed = GPIO_SPEED_FREQ_LOW;
 800076e:	2302      	movs	r3, #2
 8000770:	61fb      	str	r3, [r7, #28]
	HAL_GPIO_Init(GPIOB, &GPIO_InitStruct);
 8000772:	f107 0310 	add.w	r3, r7, #16
 8000776:	4619      	mov	r1, r3
 8000778:	4804      	ldr	r0, [pc, #16]	; (800078c <MX_GPIO_Init+0x94>)
 800077a:	f000 fa69 	bl	8000c50 <HAL_GPIO_Init>

}
 800077e:	bf00      	nop
 8000780:	3720      	adds	r7, #32
 8000782:	46bd      	mov	sp, r7
 8000784:	bd80      	pop	{r7, pc}
 8000786:	bf00      	nop
 8000788:	40021000 	.word	0x40021000
 800078c:	40010c00 	.word	0x40010c00

08000790 <Error_Handler>:
/**
 * @brief  This function is executed in case of error occurrence.
 * @retval None
 */
void Error_Handler(void)
{
 8000790:	b480      	push	{r7}
 8000792:	af00      	add	r7, sp, #0
  \details Disables IRQ interrupts by setting the I-bit in the CPSR.
           Can only be executed in Privileged modes.
 */
__STATIC_FORCEINLINE void __disable_irq(void)
{
  __ASM volatile ("cpsid i" : : : "memory");
 8000794:	b672      	cpsid	i
}
 8000796:	bf00      	nop
	/* USER CODE BEGIN Error_Handler_Debug */
	/* User can add his own implementation to report the HAL error return state */
	__disable_irq();
	while (1)
 8000798:	e7fe      	b.n	8000798 <Error_Handler+0x8>
	...

0800079c <HAL_MspInit>:
void HAL_TIM_MspPostInit(TIM_HandleTypeDef *htim);
                    /**
  * Initializes the Global MSP.
  */
void HAL_MspInit(void)
{
 800079c:	b480      	push	{r7}
 800079e:	b085      	sub	sp, #20
 80007a0:	af00      	add	r7, sp, #0
  /* USER CODE BEGIN MspInit 0 */

  /* USER CODE END MspInit 0 */

  __HAL_RCC_AFIO_CLK_ENABLE();
 80007a2:	4b15      	ldr	r3, [pc, #84]	; (80007f8 <HAL_MspInit+0x5c>)
 80007a4:	699b      	ldr	r3, [r3, #24]
 80007a6:	4a14      	ldr	r2, [pc, #80]	; (80007f8 <HAL_MspInit+0x5c>)
 80007a8:	f043 0301 	orr.w	r3, r3, #1
 80007ac:	6193      	str	r3, [r2, #24]
 80007ae:	4b12      	ldr	r3, [pc, #72]	; (80007f8 <HAL_MspInit+0x5c>)
 80007b0:	699b      	ldr	r3, [r3, #24]
 80007b2:	f003 0301 	and.w	r3, r3, #1
 80007b6:	60bb      	str	r3, [r7, #8]
 80007b8:	68bb      	ldr	r3, [r7, #8]
  __HAL_RCC_PWR_CLK_ENABLE();
 80007ba:	4b0f      	ldr	r3, [pc, #60]	; (80007f8 <HAL_MspInit+0x5c>)
 80007bc:	69db      	ldr	r3, [r3, #28]
 80007be:	4a0e      	ldr	r2, [pc, #56]	; (80007f8 <HAL_MspInit+0x5c>)
 80007c0:	f043 5380 	orr.w	r3, r3, #268435456	; 0x10000000
 80007c4:	61d3      	str	r3, [r2, #28]
 80007c6:	4b0c      	ldr	r3, [pc, #48]	; (80007f8 <HAL_MspInit+0x5c>)
 80007c8:	69db      	ldr	r3, [r3, #28]
 80007ca:	f003 5380 	and.w	r3, r3, #268435456	; 0x10000000
 80007ce:	607b      	str	r3, [r7, #4]
 80007d0:	687b      	ldr	r3, [r7, #4]

  /* System interrupt init*/

  /** NOJTAG: JTAG-DP Disabled and SW-DP Enabled
  */
  __HAL_AFIO_REMAP_SWJ_NOJTAG();
 80007d2:	4b0a      	ldr	r3, [pc, #40]	; (80007fc <HAL_MspInit+0x60>)
 80007d4:	685b      	ldr	r3, [r3, #4]
 80007d6:	60fb      	str	r3, [r7, #12]
 80007d8:	68fb      	ldr	r3, [r7, #12]
 80007da:	f023 63e0 	bic.w	r3, r3, #117440512	; 0x7000000
 80007de:	60fb      	str	r3, [r7, #12]
 80007e0:	68fb      	ldr	r3, [r7, #12]
 80007e2:	f043 7300 	orr.w	r3, r3, #33554432	; 0x2000000
 80007e6:	60fb      	str	r3, [r7, #12]
 80007e8:	4a04      	ldr	r2, [pc, #16]	; (80007fc <HAL_MspInit+0x60>)
 80007ea:	68fb      	ldr	r3, [r7, #12]
 80007ec:	6053      	str	r3, [r2, #4]

  /* USER CODE BEGIN MspInit 1 */

  /* USER CODE END MspInit 1 */
}
 80007ee:	bf00      	nop
 80007f0:	3714      	adds	r7, #20
 80007f2:	46bd      	mov	sp, r7
 80007f4:	bc80      	pop	{r7}
 80007f6:	4770      	bx	lr
 80007f8:	40021000 	.word	0x40021000
 80007fc:	40010000 	.word	0x40010000

08000800 <HAL_TIM_Base_MspInit>:
* This function configures the hardware resources used in this example
* @param htim_base: TIM_Base handle pointer
* @retval None
*/
void HAL_TIM_Base_MspInit(TIM_HandleTypeDef* htim_base)
{
 8000800:	b580      	push	{r7, lr}
 8000802:	b084      	sub	sp, #16
 8000804:	af00      	add	r7, sp, #0
 8000806:	6078      	str	r0, [r7, #4]
  if(htim_base->Instance==TIM4)
 8000808:	687b      	ldr	r3, [r7, #4]
 800080a:	681b      	ldr	r3, [r3, #0]
 800080c:	4a0d      	ldr	r2, [pc, #52]	; (8000844 <HAL_TIM_Base_MspInit+0x44>)
 800080e:	4293      	cmp	r3, r2
 8000810:	d113      	bne.n	800083a <HAL_TIM_Base_MspInit+0x3a>
  {
  /* USER CODE BEGIN TIM4_MspInit 0 */

  /* USER CODE END TIM4_MspInit 0 */
    /* Peripheral clock enable */
    __HAL_RCC_TIM4_CLK_ENABLE();
 8000812:	4b0d      	ldr	r3, [pc, #52]	; (8000848 <HAL_TIM_Base_MspInit+0x48>)
 8000814:	69db      	ldr	r3, [r3, #28]
 8000816:	4a0c      	ldr	r2, [pc, #48]	; (8000848 <HAL_TIM_Base_MspInit+0x48>)
 8000818:	f043 0304 	orr.w	r3, r3, #4
 800081c:	61d3      	str	r3, [r2, #28]
 800081e:	4b0a      	ldr	r3, [pc, #40]	; (8000848 <HAL_TIM_Base_MspInit+0x48>)
 8000820:	69db      	ldr	r3, [r3, #28]
 8000822:	f003 0304 	and.w	r3, r3, #4
 8000826:	60fb      	str	r3, [r7, #12]
 8000828:	68fb      	ldr	r3, [r7, #12]
    /* TIM4 interrupt Init */
    HAL_NVIC_SetPriority(TIM4_IRQn, 0, 0);
 800082a:	2200      	movs	r2, #0
 800082c:	2100      	movs	r1, #0
 800082e:	201e      	movs	r0, #30
 8000830:	f000 f9d7 	bl	8000be2 <HAL_NVIC_SetPriority>
    HAL_NVIC_EnableIRQ(TIM4_IRQn);
 8000834:	201e      	movs	r0, #30
 8000836:	f000 f9f0 	bl	8000c1a <HAL_NVIC_EnableIRQ>
  /* USER CODE BEGIN TIM4_MspInit 1 */

  /* USER CODE END TIM4_MspInit 1 */
  }

}
 800083a:	bf00      	nop
 800083c:	3710      	adds	r7, #16
 800083e:	46bd      	mov	sp, r7
 8000840:	bd80      	pop	{r7, pc}
 8000842:	bf00      	nop
 8000844:	40000800 	.word	0x40000800
 8000848:	40021000 	.word	0x40021000

0800084c <HAL_TIM_MspPostInit>:

void HAL_TIM_MspPostInit(TIM_HandleTypeDef* htim)
{
 800084c:	b580      	push	{r7, lr}
 800084e:	b088      	sub	sp, #32
 8000850:	af00      	add	r7, sp, #0
 8000852:	6078      	str	r0, [r7, #4]
  GPIO_InitTypeDef GPIO_InitStruct = {0};
 8000854:	f107 0310 	add.w	r3, r7, #16
 8000858:	2200      	movs	r2, #0
 800085a:	601a      	str	r2, [r3, #0]
 800085c:	605a      	str	r2, [r3, #4]
 800085e:	609a      	str	r2, [r3, #8]
 8000860:	60da      	str	r2, [r3, #12]
  if(htim->Instance==TIM4)
 8000862:	687b      	ldr	r3, [r7, #4]
 8000864:	681b      	ldr	r3, [r3, #0]
 8000866:	4a10      	ldr	r2, [pc, #64]	; (80008a8 <HAL_TIM_MspPostInit+0x5c>)
 8000868:	4293      	cmp	r3, r2
 800086a:	d118      	bne.n	800089e <HAL_TIM_MspPostInit+0x52>
  {
  /* USER CODE BEGIN TIM4_MspPostInit 0 */

  /* USER CODE END TIM4_MspPostInit 0 */

    __HAL_RCC_GPIOB_CLK_ENABLE();
 800086c:	4b0f      	ldr	r3, [pc, #60]	; (80008ac <HAL_TIM_MspPostInit+0x60>)
 800086e:	699b      	ldr	r3, [r3, #24]
 8000870:	4a0e      	ldr	r2, [pc, #56]	; (80008ac <HAL_TIM_MspPostInit+0x60>)
 8000872:	f043 0308 	orr.w	r3, r3, #8
 8000876:	6193      	str	r3, [r2, #24]
 8000878:	4b0c      	ldr	r3, [pc, #48]	; (80008ac <HAL_TIM_MspPostInit+0x60>)
 800087a:	699b      	ldr	r3, [r3, #24]
 800087c:	f003 0308 	and.w	r3, r3, #8
 8000880:	60fb      	str	r3, [r7, #12]
 8000882:	68fb      	ldr	r3, [r7, #12]
    /**TIM4 GPIO Configuration
    PB7     ------> TIM4_CH2
    PB8     ------> TIM4_CH3
    */
    GPIO_InitStruct.Pin = GPIO_PIN_7|GPIO_PIN_8;
 8000884:	f44f 73c0 	mov.w	r3, #384	; 0x180
 8000888:	613b      	str	r3, [r7, #16]
    GPIO_InitStruct.Mode = GPIO_MODE_AF_PP;
 800088a:	2302      	movs	r3, #2
 800088c:	617b      	str	r3, [r7, #20]
    GPIO_InitStruct.Speed = GPIO_SPEED_FREQ_LOW;
 800088e:	2302      	movs	r3, #2
 8000890:	61fb      	str	r3, [r7, #28]
    HAL_GPIO_Init(GPIOB, &GPIO_InitStruct);
 8000892:	f107 0310 	add.w	r3, r7, #16
 8000896:	4619      	mov	r1, r3
 8000898:	4805      	ldr	r0, [pc, #20]	; (80008b0 <HAL_TIM_MspPostInit+0x64>)
 800089a:	f000 f9d9 	bl	8000c50 <HAL_GPIO_Init>
  /* USER CODE BEGIN TIM4_MspPostInit 1 */

  /* USER CODE END TIM4_MspPostInit 1 */
  }

}
 800089e:	bf00      	nop
 80008a0:	3720      	adds	r7, #32
 80008a2:	46bd      	mov	sp, r7
 80008a4:	bd80      	pop	{r7, pc}
 80008a6:	bf00      	nop
 80008a8:	40000800 	.word	0x40000800
 80008ac:	40021000 	.word	0x40021000
 80008b0:	40010c00 	.word	0x40010c00

080008b4 <NMI_Handler>:
/******************************************************************************/
/**
  * @brief This function handles Non maskable interrupt.
  */
void NMI_Handler(void)
{
 80008b4:	b480      	push	{r7}
 80008b6:	af00      	add	r7, sp, #0
  /* USER CODE BEGIN NonMaskableInt_IRQn 0 */

  /* USER CODE END NonMaskableInt_IRQn 0 */
  /* USER CODE BEGIN NonMaskableInt_IRQn 1 */
  while (1)
 80008b8:	e7fe      	b.n	80008b8 <NMI_Handler+0x4>

080008ba <HardFault_Handler>:

/**
  * @brief This function handles Hard fault interrupt.
  */
void HardFault_Handler(void)
{
 80008ba:	b480      	push	{r7}
 80008bc:	af00      	add	r7, sp, #0
  /* USER CODE BEGIN HardFault_IRQn 0 */

  /* USER CODE END HardFault_IRQn 0 */
  while (1)
 80008be:	e7fe      	b.n	80008be <HardFault_Handler+0x4>

080008c0 <MemManage_Handler>:

/**
  * @brief This function handles Memory management fault.
  */
void MemManage_Handler(void)
{
 80008c0:	b480      	push	{r7}
 80008c2:	af00      	add	r7, sp, #0
  /* USER CODE BEGIN MemoryManagement_IRQn 0 */

  /* USER CODE END MemoryManagement_IRQn 0 */
  while (1)
 80008c4:	e7fe      	b.n	80008c4 <MemManage_Handler+0x4>

080008c6 <BusFault_Handler>:

/**
  * @brief This function handles Prefetch fault, memory access fault.
  */
void BusFault_Handler(void)
{
 80008c6:	b480      	push	{r7}
 80008c8:	af00      	add	r7, sp, #0
  /* USER CODE BEGIN BusFault_IRQn 0 */

  /* USER CODE END BusFault_IRQn 0 */
  while (1)
 80008ca:	e7fe      	b.n	80008ca <BusFault_Handler+0x4>

080008cc <UsageFault_Handler>:

/**
  * @brief This function handles Undefined instruction or illegal state.
  */
void UsageFault_Handler(void)
{
 80008cc:	b480      	push	{r7}
 80008ce:	af00      	add	r7, sp, #0
  /* USER CODE BEGIN UsageFault_IRQn 0 */

  /* USER CODE END UsageFault_IRQn 0 */
  while (1)
 80008d0:	e7fe      	b.n	80008d0 <UsageFault_Handler+0x4>

080008d2 <SVC_Handler>:

/**
  * @brief This function handles System service call via SWI instruction.
  */
void SVC_Handler(void)
{
 80008d2:	b480      	push	{r7}
 80008d4:	af00      	add	r7, sp, #0

  /* USER CODE END SVCall_IRQn 0 */
  /* USER CODE BEGIN SVCall_IRQn 1 */

  /* USER CODE END SVCall_IRQn 1 */
}
 80008d6:	bf00      	nop
 80008d8:	46bd      	mov	sp, r7
 80008da:	bc80      	pop	{r7}
 80008dc:	4770      	bx	lr

080008de <DebugMon_Handler>:

/**
  * @brief This function handles Debug monitor.
  */
void DebugMon_Handler(void)
{
 80008de:	b480      	push	{r7}
 80008e0:	af00      	add	r7, sp, #0

  /* USER CODE END DebugMonitor_IRQn 0 */
  /* USER CODE BEGIN DebugMonitor_IRQn 1 */

  /* USER CODE END DebugMonitor_IRQn 1 */
}
 80008e2:	bf00      	nop
 80008e4:	46bd      	mov	sp, r7
 80008e6:	bc80      	pop	{r7}
 80008e8:	4770      	bx	lr

080008ea <PendSV_Handler>:

/**
  * @brief This function handles Pendable request for system service.
  */
void PendSV_Handler(void)
{
 80008ea:	b480      	push	{r7}
 80008ec:	af00      	add	r7, sp, #0

  /* USER CODE END PendSV_IRQn 0 */
  /* USER CODE BEGIN PendSV_IRQn 1 */

  /* USER CODE END PendSV_IRQn 1 */
}
 80008ee:	bf00      	nop
 80008f0:	46bd      	mov	sp, r7
 80008f2:	bc80      	pop	{r7}
 80008f4:	4770      	bx	lr

080008f6 <SysTick_Handler>:

/**
  * @brief This function handles System tick timer.
  */
void SysTick_Handler(void)
{
 80008f6:	b580      	push	{r7, lr}
 80008f8:	af00      	add	r7, sp, #0
  /* USER CODE BEGIN SysTick_IRQn 0 */

  /* USER CODE END SysTick_IRQn 0 */
  HAL_IncTick();
 80008fa:	f000 f87f 	bl	80009fc <HAL_IncTick>
  /* USER CODE BEGIN SysTick_IRQn 1 */

  /* USER CODE END SysTick_IRQn 1 */
}
 80008fe:	bf00      	nop
 8000900:	bd80      	pop	{r7, pc}
	...

08000904 <TIM4_IRQHandler>:

/**
  * @brief This function handles TIM4 global interrupt.
  */
void TIM4_IRQHandler(void)
{
 8000904:	b580      	push	{r7, lr}
 8000906:	af00      	add	r7, sp, #0
  /* USER CODE BEGIN TIM4_IRQn 0 */

  /* USER CODE END TIM4_IRQn 0 */
  HAL_TIM_IRQHandler(&htim4);
 8000908:	4802      	ldr	r0, [pc, #8]	; (8000914 <TIM4_IRQHandler+0x10>)
 800090a:	f001 f86f 	bl	80019ec <HAL_TIM_IRQHandler>
  /* USER CODE BEGIN TIM4_IRQn 1 */

  /* USER CODE END TIM4_IRQn 1 */
}
 800090e:	bf00      	nop
 8000910:	bd80      	pop	{r7, pc}
 8000912:	bf00      	nop
 8000914:	20000028 	.word	0x20000028

08000918 <SystemInit>:
  * @note   This function should be used only after reset.
  * @param  None
  * @retval None
  */
void SystemInit (void)
{
 8000918:	b480      	push	{r7}
 800091a:	af00      	add	r7, sp, #0

  /* Configure the Vector Table location -------------------------------------*/
#if defined(USER_VECT_TAB_ADDRESS)
  SCB->VTOR = VECT_TAB_BASE_ADDRESS | VECT_TAB_OFFSET; /* Vector Table Relocation in Internal SRAM. */
#endif /* USER_VECT_TAB_ADDRESS */
}
 800091c:	bf00      	nop
 800091e:	46bd      	mov	sp, r7
 8000920:	bc80      	pop	{r7}
 8000922:	4770      	bx	lr

08000924 <Reset_Handler>:
  .weak Reset_Handler
  .type Reset_Handler, %function
Reset_Handler:

/* Copy the data segment initializers from flash to SRAM */
  ldr r0, =_sdata
 8000924:	480c      	ldr	r0, [pc, #48]	; (8000958 <LoopFillZerobss+0x12>)
  ldr r1, =_edata
 8000926:	490d      	ldr	r1, [pc, #52]	; (800095c <LoopFillZerobss+0x16>)
  ldr r2, =_sidata
 8000928:	4a0d      	ldr	r2, [pc, #52]	; (8000960 <LoopFillZerobss+0x1a>)
  movs r3, #0
 800092a:	2300      	movs	r3, #0
  b LoopCopyDataInit
 800092c:	e002      	b.n	8000934 <LoopCopyDataInit>

0800092e <CopyDataInit>:

CopyDataInit:
  ldr r4, [r2, r3]
 800092e:	58d4      	ldr	r4, [r2, r3]
  str r4, [r0, r3]
 8000930:	50c4      	str	r4, [r0, r3]
  adds r3, r3, #4
 8000932:	3304      	adds	r3, #4

08000934 <LoopCopyDataInit>:

LoopCopyDataInit:
  adds r4, r0, r3
 8000934:	18c4      	adds	r4, r0, r3
  cmp r4, r1
 8000936:	428c      	cmp	r4, r1
  bcc CopyDataInit
 8000938:	d3f9      	bcc.n	800092e <CopyDataInit>
  
/* Zero fill the bss segment. */
  ldr r2, =_sbss
 800093a:	4a0a      	ldr	r2, [pc, #40]	; (8000964 <LoopFillZerobss+0x1e>)
  ldr r4, =_ebss
 800093c:	4c0a      	ldr	r4, [pc, #40]	; (8000968 <LoopFillZerobss+0x22>)
  movs r3, #0
 800093e:	2300      	movs	r3, #0
  b LoopFillZerobss
 8000940:	e001      	b.n	8000946 <LoopFillZerobss>

08000942 <FillZerobss>:

FillZerobss:
  str  r3, [r2]
 8000942:	6013      	str	r3, [r2, #0]
  adds r2, r2, #4
 8000944:	3204      	adds	r2, #4

08000946 <LoopFillZerobss>:

LoopFillZerobss:
  cmp r2, r4
 8000946:	42a2      	cmp	r2, r4
  bcc FillZerobss
 8000948:	d3fb      	bcc.n	8000942 <FillZerobss>

/* Call the clock system intitialization function.*/
    bl  SystemInit
 800094a:	f7ff ffe5 	bl	8000918 <SystemInit>
/* Call static constructors */
    bl __libc_init_array
 800094e:	f001 fe19 	bl	8002584 <__libc_init_array>
/* Call the application's entry point.*/
  bl main
 8000952:	f7ff fbfb 	bl	800014c <main>
  bx lr
 8000956:	4770      	bx	lr
  ldr r0, =_sdata
 8000958:	20000000 	.word	0x20000000
  ldr r1, =_edata
 800095c:	2000000c 	.word	0x2000000c
  ldr r2, =_sidata
 8000960:	0800261c 	.word	0x0800261c
  ldr r2, =_sbss
 8000964:	2000000c 	.word	0x2000000c
  ldr r4, =_ebss
 8000968:	2000007c 	.word	0x2000007c

0800096c <ADC1_2_IRQHandler>:
 * @retval : None
*/
    .section .text.Default_Handler,"ax",%progbits
Default_Handler:
Infinite_Loop:
  b Infinite_Loop
 800096c:	e7fe      	b.n	800096c <ADC1_2_IRQHandler>
	...

08000970 <HAL_Init>:
  *         need to ensure that the SysTick time base is always set to 1 millisecond
  *         to have correct HAL operation.
  * @retval HAL status
  */
HAL_StatusTypeDef HAL_Init(void)
{
 8000970:	b580      	push	{r7, lr}
 8000972:	af00      	add	r7, sp, #0
    defined(STM32F102x6) || defined(STM32F102xB) || \
    defined(STM32F103x6) || defined(STM32F103xB) || defined(STM32F103xE) || defined(STM32F103xG) || \
    defined(STM32F105xC) || defined(STM32F107xC)

  /* Prefetch buffer is not available on value line devices */
  __HAL_FLASH_PREFETCH_BUFFER_ENABLE();
 8000974:	4b08      	ldr	r3, [pc, #32]	; (8000998 <HAL_Init+0x28>)
 8000976:	681b      	ldr	r3, [r3, #0]
 8000978:	4a07      	ldr	r2, [pc, #28]	; (8000998 <HAL_Init+0x28>)
 800097a:	f043 0310 	orr.w	r3, r3, #16
 800097e:	6013      	str	r3, [r2, #0]
#endif
#endif /* PREFETCH_ENABLE */

  /* Set Interrupt Group Priority */
  HAL_NVIC_SetPriorityGrouping(NVIC_PRIORITYGROUP_4);
 8000980:	2003      	movs	r0, #3
 8000982:	f000 f923 	bl	8000bcc <HAL_NVIC_SetPriorityGrouping>

  /* Use systick as time base source and configure 1ms tick (default clock after Reset is HSI) */
  HAL_InitTick(TICK_INT_PRIORITY);
 8000986:	200f      	movs	r0, #15
 8000988:	f000 f808 	bl	800099c <HAL_InitTick>

  /* Init the low level hardware */
  HAL_MspInit();
 800098c:	f7ff ff06 	bl	800079c <HAL_MspInit>

  /* Return function status */
  return HAL_OK;
 8000990:	2300      	movs	r3, #0
}
 8000992:	4618      	mov	r0, r3
 8000994:	bd80      	pop	{r7, pc}
 8000996:	bf00      	nop
 8000998:	40022000 	.word	0x40022000

0800099c <HAL_InitTick>:
  *       implementation  in user file.
  * @param TickPriority Tick interrupt priority.
  * @retval HAL status
  */
__weak HAL_StatusTypeDef HAL_InitTick(uint32_t TickPriority)
{
 800099c:	b580      	push	{r7, lr}
 800099e:	b082      	sub	sp, #8
 80009a0:	af00      	add	r7, sp, #0
 80009a2:	6078      	str	r0, [r7, #4]
  /* Configure the SysTick to have interrupt in 1ms time basis*/
  if (HAL_SYSTICK_Config(SystemCoreClock / (1000U / uwTickFreq)) > 0U)
 80009a4:	4b12      	ldr	r3, [pc, #72]	; (80009f0 <HAL_InitTick+0x54>)
 80009a6:	681a      	ldr	r2, [r3, #0]
 80009a8:	4b12      	ldr	r3, [pc, #72]	; (80009f4 <HAL_InitTick+0x58>)
 80009aa:	781b      	ldrb	r3, [r3, #0]
 80009ac:	4619      	mov	r1, r3
 80009ae:	f44f 737a 	mov.w	r3, #1000	; 0x3e8
 80009b2:	fbb3 f3f1 	udiv	r3, r3, r1
 80009b6:	fbb2 f3f3 	udiv	r3, r2, r3
 80009ba:	4618      	mov	r0, r3
 80009bc:	f000 f93b 	bl	8000c36 <HAL_SYSTICK_Config>
 80009c0:	4603      	mov	r3, r0
 80009c2:	2b00      	cmp	r3, #0
 80009c4:	d001      	beq.n	80009ca <HAL_InitTick+0x2e>
  {
    return HAL_ERROR;
 80009c6:	2301      	movs	r3, #1
 80009c8:	e00e      	b.n	80009e8 <HAL_InitTick+0x4c>
  }

  /* Configure the SysTick IRQ priority */
  if (TickPriority < (1UL << __NVIC_PRIO_BITS))
 80009ca:	687b      	ldr	r3, [r7, #4]
 80009cc:	2b0f      	cmp	r3, #15
 80009ce:	d80a      	bhi.n	80009e6 <HAL_InitTick+0x4a>
  {
    HAL_NVIC_SetPriority(SysTick_IRQn, TickPriority, 0U);
 80009d0:	2200      	movs	r2, #0
 80009d2:	6879      	ldr	r1, [r7, #4]
 80009d4:	f04f 30ff 	mov.w	r0, #4294967295	; 0xffffffff
 80009d8:	f000 f903 	bl	8000be2 <HAL_NVIC_SetPriority>
    uwTickPrio = TickPriority;
 80009dc:	4a06      	ldr	r2, [pc, #24]	; (80009f8 <HAL_InitTick+0x5c>)
 80009de:	687b      	ldr	r3, [r7, #4]
 80009e0:	6013      	str	r3, [r2, #0]
  {
    return HAL_ERROR;
  }

  /* Return function status */
  return HAL_OK;
 80009e2:	2300      	movs	r3, #0
 80009e4:	e000      	b.n	80009e8 <HAL_InitTick+0x4c>
    return HAL_ERROR;
 80009e6:	2301      	movs	r3, #1
}
 80009e8:	4618      	mov	r0, r3
 80009ea:	3708      	adds	r7, #8
 80009ec:	46bd      	mov	sp, r7
 80009ee:	bd80      	pop	{r7, pc}
 80009f0:	20000000 	.word	0x20000000
 80009f4:	20000008 	.word	0x20000008
 80009f8:	20000004 	.word	0x20000004

080009fc <HAL_IncTick>:
  * @note This function is declared as __weak to be overwritten in case of other
  *      implementations in user file.
  * @retval None
  */
__weak void HAL_IncTick(void)
{
 80009fc:	b480      	push	{r7}
 80009fe:	af00      	add	r7, sp, #0
  uwTick += uwTickFreq;
 8000a00:	4b05      	ldr	r3, [pc, #20]	; (8000a18 <HAL_IncTick+0x1c>)
 8000a02:	781b      	ldrb	r3, [r3, #0]
 8000a04:	461a      	mov	r2, r3
 8000a06:	4b05      	ldr	r3, [pc, #20]	; (8000a1c <HAL_IncTick+0x20>)
 8000a08:	681b      	ldr	r3, [r3, #0]
 8000a0a:	4413      	add	r3, r2
 8000a0c:	4a03      	ldr	r2, [pc, #12]	; (8000a1c <HAL_IncTick+0x20>)
 8000a0e:	6013      	str	r3, [r2, #0]
}
 8000a10:	bf00      	nop
 8000a12:	46bd      	mov	sp, r7
 8000a14:	bc80      	pop	{r7}
 8000a16:	4770      	bx	lr
 8000a18:	20000008 	.word	0x20000008
 8000a1c:	20000078 	.word	0x20000078

08000a20 <HAL_GetTick>:
  * @note  This function is declared as __weak to be overwritten in case of other
  *       implementations in user file.
  * @retval tick value
  */
__weak uint32_t HAL_GetTick(void)
{
 8000a20:	b480      	push	{r7}
 8000a22:	af00      	add	r7, sp, #0
  return uwTick;
 8000a24:	4b02      	ldr	r3, [pc, #8]	; (8000a30 <HAL_GetTick+0x10>)
 8000a26:	681b      	ldr	r3, [r3, #0]
}
 8000a28:	4618      	mov	r0, r3
 8000a2a:	46bd      	mov	sp, r7
 8000a2c:	bc80      	pop	{r7}
 8000a2e:	4770      	bx	lr
 8000a30:	20000078 	.word	0x20000078

08000a34 <__NVIC_SetPriorityGrouping>:
           In case of a conflict between priority grouping and available
           priority bits (__NVIC_PRIO_BITS), the smallest possible priority group is set.
  \param [in]      PriorityGroup  Priority grouping field.
 */
__STATIC_INLINE void __NVIC_SetPriorityGrouping(uint32_t PriorityGroup)
{
 8000a34:	b480      	push	{r7}
 8000a36:	b085      	sub	sp, #20
 8000a38:	af00      	add	r7, sp, #0
 8000a3a:	6078      	str	r0, [r7, #4]
  uint32_t reg_value;
  uint32_t PriorityGroupTmp = (PriorityGroup & (uint32_t)0x07UL);             /* only values 0..7 are used          */
 8000a3c:	687b      	ldr	r3, [r7, #4]
 8000a3e:	f003 0307 	and.w	r3, r3, #7
 8000a42:	60fb      	str	r3, [r7, #12]

  reg_value  =  SCB->AIRCR;                                                   /* read old register configuration    */
 8000a44:	4b0c      	ldr	r3, [pc, #48]	; (8000a78 <__NVIC_SetPriorityGrouping+0x44>)
 8000a46:	68db      	ldr	r3, [r3, #12]
 8000a48:	60bb      	str	r3, [r7, #8]
  reg_value &= ~((uint32_t)(SCB_AIRCR_VECTKEY_Msk | SCB_AIRCR_PRIGROUP_Msk)); /* clear bits to change               */
 8000a4a:	68ba      	ldr	r2, [r7, #8]
 8000a4c:	f64f 03ff 	movw	r3, #63743	; 0xf8ff
 8000a50:	4013      	ands	r3, r2
 8000a52:	60bb      	str	r3, [r7, #8]
  reg_value  =  (reg_value                                   |
                ((uint32_t)0x5FAUL << SCB_AIRCR_VECTKEY_Pos) |
                (PriorityGroupTmp << SCB_AIRCR_PRIGROUP_Pos) );               /* Insert write key and priority group */
 8000a54:	68fb      	ldr	r3, [r7, #12]
 8000a56:	021a      	lsls	r2, r3, #8
                ((uint32_t)0x5FAUL << SCB_AIRCR_VECTKEY_Pos) |
 8000a58:	68bb      	ldr	r3, [r7, #8]
 8000a5a:	4313      	orrs	r3, r2
  reg_value  =  (reg_value                                   |
 8000a5c:	f043 63bf 	orr.w	r3, r3, #100139008	; 0x5f80000
 8000a60:	f443 3300 	orr.w	r3, r3, #131072	; 0x20000
 8000a64:	60bb      	str	r3, [r7, #8]
  SCB->AIRCR =  reg_value;
 8000a66:	4a04      	ldr	r2, [pc, #16]	; (8000a78 <__NVIC_SetPriorityGrouping+0x44>)
 8000a68:	68bb      	ldr	r3, [r7, #8]
 8000a6a:	60d3      	str	r3, [r2, #12]
}
 8000a6c:	bf00      	nop
 8000a6e:	3714      	adds	r7, #20
 8000a70:	46bd      	mov	sp, r7
 8000a72:	bc80      	pop	{r7}
 8000a74:	4770      	bx	lr
 8000a76:	bf00      	nop
 8000a78:	e000ed00 	.word	0xe000ed00

08000a7c <__NVIC_GetPriorityGrouping>:
  \brief   Get Priority Grouping
  \details Reads the priority grouping field from the NVIC Interrupt Controller.
  \return                Priority grouping field (SCB->AIRCR [10:8] PRIGROUP field).
 */
__STATIC_INLINE uint32_t __NVIC_GetPriorityGrouping(void)
{
 8000a7c:	b480      	push	{r7}
 8000a7e:	af00      	add	r7, sp, #0
  return ((uint32_t)((SCB->AIRCR & SCB_AIRCR_PRIGROUP_Msk) >> SCB_AIRCR_PRIGROUP_Pos));
 8000a80:	4b04      	ldr	r3, [pc, #16]	; (8000a94 <__NVIC_GetPriorityGrouping+0x18>)
 8000a82:	68db      	ldr	r3, [r3, #12]
 8000a84:	0a1b      	lsrs	r3, r3, #8
 8000a86:	f003 0307 	and.w	r3, r3, #7
}
 8000a8a:	4618      	mov	r0, r3
 8000a8c:	46bd      	mov	sp, r7
 8000a8e:	bc80      	pop	{r7}
 8000a90:	4770      	bx	lr
 8000a92:	bf00      	nop
 8000a94:	e000ed00 	.word	0xe000ed00

08000a98 <__NVIC_EnableIRQ>:
  \details Enables a device specific interrupt in the NVIC interrupt controller.
  \param [in]      IRQn  Device specific interrupt number.
  \note    IRQn must not be negative.
 */
__STATIC_INLINE void __NVIC_EnableIRQ(IRQn_Type IRQn)
{
 8000a98:	b480      	push	{r7}
 8000a9a:	b083      	sub	sp, #12
 8000a9c:	af00      	add	r7, sp, #0
 8000a9e:	4603      	mov	r3, r0
 8000aa0:	71fb      	strb	r3, [r7, #7]
  if ((int32_t)(IRQn) >= 0)
 8000aa2:	f997 3007 	ldrsb.w	r3, [r7, #7]
 8000aa6:	2b00      	cmp	r3, #0
 8000aa8:	db0b      	blt.n	8000ac2 <__NVIC_EnableIRQ+0x2a>
  {
    NVIC->ISER[(((uint32_t)IRQn) >> 5UL)] = (uint32_t)(1UL << (((uint32_t)IRQn) & 0x1FUL));
 8000aaa:	79fb      	ldrb	r3, [r7, #7]
 8000aac:	f003 021f 	and.w	r2, r3, #31
 8000ab0:	4906      	ldr	r1, [pc, #24]	; (8000acc <__NVIC_EnableIRQ+0x34>)
 8000ab2:	f997 3007 	ldrsb.w	r3, [r7, #7]
 8000ab6:	095b      	lsrs	r3, r3, #5
 8000ab8:	2001      	movs	r0, #1
 8000aba:	fa00 f202 	lsl.w	r2, r0, r2
 8000abe:	f841 2023 	str.w	r2, [r1, r3, lsl #2]
  }
}
 8000ac2:	bf00      	nop
 8000ac4:	370c      	adds	r7, #12
 8000ac6:	46bd      	mov	sp, r7
 8000ac8:	bc80      	pop	{r7}
 8000aca:	4770      	bx	lr
 8000acc:	e000e100 	.word	0xe000e100

08000ad0 <__NVIC_SetPriority>:
  \param [in]      IRQn  Interrupt number.
  \param [in]  priority  Priority to set.
  \note    The priority cannot be set for every processor exception.
 */
__STATIC_INLINE void __NVIC_SetPriority(IRQn_Type IRQn, uint32_t priority)
{
 8000ad0:	b480      	push	{r7}
 8000ad2:	b083      	sub	sp, #12
 8000ad4:	af00      	add	r7, sp, #0
 8000ad6:	4603      	mov	r3, r0
 8000ad8:	6039      	str	r1, [r7, #0]
 8000ada:	71fb      	strb	r3, [r7, #7]
  if ((int32_t)(IRQn) >= 0)
 8000adc:	f997 3007 	ldrsb.w	r3, [r7, #7]
 8000ae0:	2b00      	cmp	r3, #0
 8000ae2:	db0a      	blt.n	8000afa <__NVIC_SetPriority+0x2a>
  {
    NVIC->IP[((uint32_t)IRQn)]               = (uint8_t)((priority << (8U - __NVIC_PRIO_BITS)) & (uint32_t)0xFFUL);
 8000ae4:	683b      	ldr	r3, [r7, #0]
 8000ae6:	b2da      	uxtb	r2, r3
 8000ae8:	490c      	ldr	r1, [pc, #48]	; (8000b1c <__NVIC_SetPriority+0x4c>)
 8000aea:	f997 3007 	ldrsb.w	r3, [r7, #7]
 8000aee:	0112      	lsls	r2, r2, #4
 8000af0:	b2d2      	uxtb	r2, r2
 8000af2:	440b      	add	r3, r1
 8000af4:	f883 2300 	strb.w	r2, [r3, #768]	; 0x300
  }
  else
  {
    SCB->SHP[(((uint32_t)IRQn) & 0xFUL)-4UL] = (uint8_t)((priority << (8U - __NVIC_PRIO_BITS)) & (uint32_t)0xFFUL);
  }
}
 8000af8:	e00a      	b.n	8000b10 <__NVIC_SetPriority+0x40>
    SCB->SHP[(((uint32_t)IRQn) & 0xFUL)-4UL] = (uint8_t)((priority << (8U - __NVIC_PRIO_BITS)) & (uint32_t)0xFFUL);
 8000afa:	683b      	ldr	r3, [r7, #0]
 8000afc:	b2da      	uxtb	r2, r3
 8000afe:	4908      	ldr	r1, [pc, #32]	; (8000b20 <__NVIC_SetPriority+0x50>)
 8000b00:	79fb      	ldrb	r3, [r7, #7]
 8000b02:	f003 030f 	and.w	r3, r3, #15
 8000b06:	3b04      	subs	r3, #4
 8000b08:	0112      	lsls	r2, r2, #4
 8000b0a:	b2d2      	uxtb	r2, r2
 8000b0c:	440b      	add	r3, r1
 8000b0e:	761a      	strb	r2, [r3, #24]
}
 8000b10:	bf00      	nop
 8000b12:	370c      	adds	r7, #12
 8000b14:	46bd      	mov	sp, r7
 8000b16:	bc80      	pop	{r7}
 8000b18:	4770      	bx	lr
 8000b1a:	bf00      	nop
 8000b1c:	e000e100 	.word	0xe000e100
 8000b20:	e000ed00 	.word	0xe000ed00

08000b24 <NVIC_EncodePriority>:
  \param [in]   PreemptPriority  Preemptive priority value (starting from 0).
  \param [in]       SubPriority  Subpriority value (starting from 0).
  \return                        Encoded priority. Value can be used in the function \ref NVIC_SetPriority().
 */
__STATIC_INLINE uint32_t NVIC_EncodePriority (uint32_t PriorityGroup, uint32_t PreemptPriority, uint32_t SubPriority)
{
 8000b24:	b480      	push	{r7}
 8000b26:	b089      	sub	sp, #36	; 0x24
 8000b28:	af00      	add	r7, sp, #0
 8000b2a:	60f8      	str	r0, [r7, #12]
 8000b2c:	60b9      	str	r1, [r7, #8]
 8000b2e:	607a      	str	r2, [r7, #4]
  uint32_t PriorityGroupTmp = (PriorityGroup & (uint32_t)0x07UL);   /* only values 0..7 are used          */
 8000b30:	68fb      	ldr	r3, [r7, #12]
 8000b32:	f003 0307 	and.w	r3, r3, #7
 8000b36:	61fb      	str	r3, [r7, #28]
  uint32_t PreemptPriorityBits;
  uint32_t SubPriorityBits;

  PreemptPriorityBits = ((7UL - PriorityGroupTmp) > (uint32_t)(__NVIC_PRIO_BITS)) ? (uint32_t)(__NVIC_PRIO_BITS) : (uint32_t)(7UL - PriorityGroupTmp);
 8000b38:	69fb      	ldr	r3, [r7, #28]
 8000b3a:	f1c3 0307 	rsb	r3, r3, #7
 8000b3e:	2b04      	cmp	r3, #4
 8000b40:	bf28      	it	cs
 8000b42:	2304      	movcs	r3, #4
 8000b44:	61bb      	str	r3, [r7, #24]
  SubPriorityBits     = ((PriorityGroupTmp + (uint32_t)(__NVIC_PRIO_BITS)) < (uint32_t)7UL) ? (uint32_t)0UL : (uint32_t)((PriorityGroupTmp - 7UL) + (uint32_t)(__NVIC_PRIO_BITS));
 8000b46:	69fb      	ldr	r3, [r7, #28]
 8000b48:	3304      	adds	r3, #4
 8000b4a:	2b06      	cmp	r3, #6
 8000b4c:	d902      	bls.n	8000b54 <NVIC_EncodePriority+0x30>
 8000b4e:	69fb      	ldr	r3, [r7, #28]
 8000b50:	3b03      	subs	r3, #3
 8000b52:	e000      	b.n	8000b56 <NVIC_EncodePriority+0x32>
 8000b54:	2300      	movs	r3, #0
 8000b56:	617b      	str	r3, [r7, #20]

  return (
           ((PreemptPriority & (uint32_t)((1UL << (PreemptPriorityBits)) - 1UL)) << SubPriorityBits) |
 8000b58:	f04f 32ff 	mov.w	r2, #4294967295	; 0xffffffff
 8000b5c:	69bb      	ldr	r3, [r7, #24]
 8000b5e:	fa02 f303 	lsl.w	r3, r2, r3
 8000b62:	43da      	mvns	r2, r3
 8000b64:	68bb      	ldr	r3, [r7, #8]
 8000b66:	401a      	ands	r2, r3
 8000b68:	697b      	ldr	r3, [r7, #20]
 8000b6a:	409a      	lsls	r2, r3
           ((SubPriority     & (uint32_t)((1UL << (SubPriorityBits    )) - 1UL)))
 8000b6c:	f04f 31ff 	mov.w	r1, #4294967295	; 0xffffffff
 8000b70:	697b      	ldr	r3, [r7, #20]
 8000b72:	fa01 f303 	lsl.w	r3, r1, r3
 8000b76:	43d9      	mvns	r1, r3
 8000b78:	687b      	ldr	r3, [r7, #4]
 8000b7a:	400b      	ands	r3, r1
           ((PreemptPriority & (uint32_t)((1UL << (PreemptPriorityBits)) - 1UL)) << SubPriorityBits) |
 8000b7c:	4313      	orrs	r3, r2
         );
}
 8000b7e:	4618      	mov	r0, r3
 8000b80:	3724      	adds	r7, #36	; 0x24
 8000b82:	46bd      	mov	sp, r7
 8000b84:	bc80      	pop	{r7}
 8000b86:	4770      	bx	lr

08000b88 <SysTick_Config>:
  \note    When the variable <b>__Vendor_SysTickConfig</b> is set to 1, then the
           function <b>SysTick_Config</b> is not included. In this case, the file <b><i>device</i>.h</b>
           must contain a vendor-specific implementation of this function.
 */
__STATIC_INLINE uint32_t SysTick_Config(uint32_t ticks)
{
 8000b88:	b580      	push	{r7, lr}
 8000b8a:	b082      	sub	sp, #8
 8000b8c:	af00      	add	r7, sp, #0
 8000b8e:	6078      	str	r0, [r7, #4]
  if ((ticks - 1UL) > SysTick_LOAD_RELOAD_Msk)
 8000b90:	687b      	ldr	r3, [r7, #4]
 8000b92:	3b01      	subs	r3, #1
 8000b94:	f1b3 7f80 	cmp.w	r3, #16777216	; 0x1000000
 8000b98:	d301      	bcc.n	8000b9e <SysTick_Config+0x16>
  {
    return (1UL);                                                   /* Reload value impossible */
 8000b9a:	2301      	movs	r3, #1
 8000b9c:	e00f      	b.n	8000bbe <SysTick_Config+0x36>
  }

  SysTick->LOAD  = (uint32_t)(ticks - 1UL);                         /* set reload register */
 8000b9e:	4a0a      	ldr	r2, [pc, #40]	; (8000bc8 <SysTick_Config+0x40>)
 8000ba0:	687b      	ldr	r3, [r7, #4]
 8000ba2:	3b01      	subs	r3, #1
 8000ba4:	6053      	str	r3, [r2, #4]
  NVIC_SetPriority (SysTick_IRQn, (1UL << __NVIC_PRIO_BITS) - 1UL); /* set Priority for Systick Interrupt */
 8000ba6:	210f      	movs	r1, #15
 8000ba8:	f04f 30ff 	mov.w	r0, #4294967295	; 0xffffffff
 8000bac:	f7ff ff90 	bl	8000ad0 <__NVIC_SetPriority>
  SysTick->VAL   = 0UL;                                             /* Load the SysTick Counter Value */
 8000bb0:	4b05      	ldr	r3, [pc, #20]	; (8000bc8 <SysTick_Config+0x40>)
 8000bb2:	2200      	movs	r2, #0
 8000bb4:	609a      	str	r2, [r3, #8]
  SysTick->CTRL  = SysTick_CTRL_CLKSOURCE_Msk |
 8000bb6:	4b04      	ldr	r3, [pc, #16]	; (8000bc8 <SysTick_Config+0x40>)
 8000bb8:	2207      	movs	r2, #7
 8000bba:	601a      	str	r2, [r3, #0]
                   SysTick_CTRL_TICKINT_Msk   |
                   SysTick_CTRL_ENABLE_Msk;                         /* Enable SysTick IRQ and SysTick Timer */
  return (0UL);                                                     /* Function successful */
 8000bbc:	2300      	movs	r3, #0
}
 8000bbe:	4618      	mov	r0, r3
 8000bc0:	3708      	adds	r7, #8
 8000bc2:	46bd      	mov	sp, r7
 8000bc4:	bd80      	pop	{r7, pc}
 8000bc6:	bf00      	nop
 8000bc8:	e000e010 	.word	0xe000e010

08000bcc <HAL_NVIC_SetPriorityGrouping>:
  * @note   When the NVIC_PriorityGroup_0 is selected, IRQ preemption is no more possible. 
  *         The pending IRQ priority will be managed only by the subpriority. 
  * @retval None
  */
void HAL_NVIC_SetPriorityGrouping(uint32_t PriorityGroup)
{
 8000bcc:	b580      	push	{r7, lr}
 8000bce:	b082      	sub	sp, #8
 8000bd0:	af00      	add	r7, sp, #0
 8000bd2:	6078      	str	r0, [r7, #4]
  /* Check the parameters */
  assert_param(IS_NVIC_PRIORITY_GROUP(PriorityGroup));
  
  /* Set the PRIGROUP[10:8] bits according to the PriorityGroup parameter value */
  NVIC_SetPriorityGrouping(PriorityGroup);
 8000bd4:	6878      	ldr	r0, [r7, #4]
 8000bd6:	f7ff ff2d 	bl	8000a34 <__NVIC_SetPriorityGrouping>
}
 8000bda:	bf00      	nop
 8000bdc:	3708      	adds	r7, #8
 8000bde:	46bd      	mov	sp, r7
 8000be0:	bd80      	pop	{r7, pc}

08000be2 <HAL_NVIC_SetPriority>:
  *         This parameter can be a value between 0 and 15
  *         A lower priority value indicates a higher priority.          
  * @retval None
  */
void HAL_NVIC_SetPriority(IRQn_Type IRQn, uint32_t PreemptPriority, uint32_t SubPriority)
{ 
 8000be2:	b580      	push	{r7, lr}
 8000be4:	b086      	sub	sp, #24
 8000be6:	af00      	add	r7, sp, #0
 8000be8:	4603      	mov	r3, r0
 8000bea:	60b9      	str	r1, [r7, #8]
 8000bec:	607a      	str	r2, [r7, #4]
 8000bee:	73fb      	strb	r3, [r7, #15]
  uint32_t prioritygroup = 0x00U;
 8000bf0:	2300      	movs	r3, #0
 8000bf2:	617b      	str	r3, [r7, #20]
  
  /* Check the parameters */
  assert_param(IS_NVIC_SUB_PRIORITY(SubPriority));
  assert_param(IS_NVIC_PREEMPTION_PRIORITY(PreemptPriority));
  
  prioritygroup = NVIC_GetPriorityGrouping();
 8000bf4:	f7ff ff42 	bl	8000a7c <__NVIC_GetPriorityGrouping>
 8000bf8:	6178      	str	r0, [r7, #20]
  
  NVIC_SetPriority(IRQn, NVIC_EncodePriority(prioritygroup, PreemptPriority, SubPriority));
 8000bfa:	687a      	ldr	r2, [r7, #4]
 8000bfc:	68b9      	ldr	r1, [r7, #8]
 8000bfe:	6978      	ldr	r0, [r7, #20]
 8000c00:	f7ff ff90 	bl	8000b24 <NVIC_EncodePriority>
 8000c04:	4602      	mov	r2, r0
 8000c06:	f997 300f 	ldrsb.w	r3, [r7, #15]
 8000c0a:	4611      	mov	r1, r2
 8000c0c:	4618      	mov	r0, r3
 8000c0e:	f7ff ff5f 	bl	8000ad0 <__NVIC_SetPriority>
}
 8000c12:	bf00      	nop
 8000c14:	3718      	adds	r7, #24
 8000c16:	46bd      	mov	sp, r7
 8000c18:	bd80      	pop	{r7, pc}

08000c1a <HAL_NVIC_EnableIRQ>:
  *         This parameter can be an enumerator of IRQn_Type enumeration
  *         (For the complete STM32 Devices IRQ Channels list, please refer to the appropriate CMSIS device file (stm32f10xxx.h))
  * @retval None
  */
void HAL_NVIC_EnableIRQ(IRQn_Type IRQn)
{
 8000c1a:	b580      	push	{r7, lr}
 8000c1c:	b082      	sub	sp, #8
 8000c1e:	af00      	add	r7, sp, #0
 8000c20:	4603      	mov	r3, r0
 8000c22:	71fb      	strb	r3, [r7, #7]
  /* Check the parameters */
  assert_param(IS_NVIC_DEVICE_IRQ(IRQn));

  /* Enable interrupt */
  NVIC_EnableIRQ(IRQn);
 8000c24:	f997 3007 	ldrsb.w	r3, [r7, #7]
 8000c28:	4618      	mov	r0, r3
 8000c2a:	f7ff ff35 	bl	8000a98 <__NVIC_EnableIRQ>
}
 8000c2e:	bf00      	nop
 8000c30:	3708      	adds	r7, #8
 8000c32:	46bd      	mov	sp, r7
 8000c34:	bd80      	pop	{r7, pc}

08000c36 <HAL_SYSTICK_Config>:
  * @param  TicksNumb: Specifies the ticks Number of ticks between two interrupts.
  * @retval status:  - 0  Function succeeded.
  *                  - 1  Function failed.
  */
uint32_t HAL_SYSTICK_Config(uint32_t TicksNumb)
{
 8000c36:	b580      	push	{r7, lr}
 8000c38:	b082      	sub	sp, #8
 8000c3a:	af00      	add	r7, sp, #0
 8000c3c:	6078      	str	r0, [r7, #4]
   return SysTick_Config(TicksNumb);
 8000c3e:	6878      	ldr	r0, [r7, #4]
 8000c40:	f7ff ffa2 	bl	8000b88 <SysTick_Config>
 8000c44:	4603      	mov	r3, r0
}
 8000c46:	4618      	mov	r0, r3
 8000c48:	3708      	adds	r7, #8
 8000c4a:	46bd      	mov	sp, r7
 8000c4c:	bd80      	pop	{r7, pc}
	...

08000c50 <HAL_GPIO_Init>:
  * @param  GPIO_Init: pointer to a GPIO_InitTypeDef structure that contains
  *         the configuration information for the specified GPIO peripheral.
  * @retval None
  */
void HAL_GPIO_Init(GPIO_TypeDef  *GPIOx, GPIO_InitTypeDef *GPIO_Init)
{
 8000c50:	b480      	push	{r7}
 8000c52:	b08b      	sub	sp, #44	; 0x2c
 8000c54:	af00      	add	r7, sp, #0
 8000c56:	6078      	str	r0, [r7, #4]
 8000c58:	6039      	str	r1, [r7, #0]
  uint32_t position = 0x00u;
 8000c5a:	2300      	movs	r3, #0
 8000c5c:	627b      	str	r3, [r7, #36]	; 0x24
  uint32_t ioposition;
  uint32_t iocurrent;
  uint32_t temp;
  uint32_t config = 0x00u;
 8000c5e:	2300      	movs	r3, #0
 8000c60:	623b      	str	r3, [r7, #32]
  assert_param(IS_GPIO_ALL_INSTANCE(GPIOx));
  assert_param(IS_GPIO_PIN(GPIO_Init->Pin));
  assert_param(IS_GPIO_MODE(GPIO_Init->Mode));

  /* Configure the port pins */
  while (((GPIO_Init->Pin) >> position) != 0x00u)
 8000c62:	e169      	b.n	8000f38 <HAL_GPIO_Init+0x2e8>
  {
    /* Get the IO position */
    ioposition = (0x01uL << position);
 8000c64:	2201      	movs	r2, #1
 8000c66:	6a7b      	ldr	r3, [r7, #36]	; 0x24
 8000c68:	fa02 f303 	lsl.w	r3, r2, r3
 8000c6c:	61fb      	str	r3, [r7, #28]

    /* Get the current IO position */
    iocurrent = (uint32_t)(GPIO_Init->Pin) & ioposition;
 8000c6e:	683b      	ldr	r3, [r7, #0]
 8000c70:	681b      	ldr	r3, [r3, #0]
 8000c72:	69fa      	ldr	r2, [r7, #28]
 8000c74:	4013      	ands	r3, r2
 8000c76:	61bb      	str	r3, [r7, #24]

    if (iocurrent == ioposition)
 8000c78:	69ba      	ldr	r2, [r7, #24]
 8000c7a:	69fb      	ldr	r3, [r7, #28]
 8000c7c:	429a      	cmp	r2, r3
 8000c7e:	f040 8158 	bne.w	8000f32 <HAL_GPIO_Init+0x2e2>
    {
      /* Check the Alternate function parameters */
      assert_param(IS_GPIO_AF_INSTANCE(GPIOx));

      /* Based on the required mode, filling config variable with MODEy[1:0] and CNFy[3:2] corresponding bits */
      switch (GPIO_Init->Mode)
 8000c82:	683b      	ldr	r3, [r7, #0]
 8000c84:	685b      	ldr	r3, [r3, #4]
 8000c86:	4a9a      	ldr	r2, [pc, #616]	; (8000ef0 <HAL_GPIO_Init+0x2a0>)
 8000c88:	4293      	cmp	r3, r2
 8000c8a:	d05e      	beq.n	8000d4a <HAL_GPIO_Init+0xfa>
 8000c8c:	4a98      	ldr	r2, [pc, #608]	; (8000ef0 <HAL_GPIO_Init+0x2a0>)
 8000c8e:	4293      	cmp	r3, r2
 8000c90:	d875      	bhi.n	8000d7e <HAL_GPIO_Init+0x12e>
 8000c92:	4a98      	ldr	r2, [pc, #608]	; (8000ef4 <HAL_GPIO_Init+0x2a4>)
 8000c94:	4293      	cmp	r3, r2
 8000c96:	d058      	beq.n	8000d4a <HAL_GPIO_Init+0xfa>
 8000c98:	4a96      	ldr	r2, [pc, #600]	; (8000ef4 <HAL_GPIO_Init+0x2a4>)
 8000c9a:	4293      	cmp	r3, r2
 8000c9c:	d86f      	bhi.n	8000d7e <HAL_GPIO_Init+0x12e>
 8000c9e:	4a96      	ldr	r2, [pc, #600]	; (8000ef8 <HAL_GPIO_Init+0x2a8>)
 8000ca0:	4293      	cmp	r3, r2
 8000ca2:	d052      	beq.n	8000d4a <HAL_GPIO_Init+0xfa>
 8000ca4:	4a94      	ldr	r2, [pc, #592]	; (8000ef8 <HAL_GPIO_Init+0x2a8>)
 8000ca6:	4293      	cmp	r3, r2
 8000ca8:	d869      	bhi.n	8000d7e <HAL_GPIO_Init+0x12e>
 8000caa:	4a94      	ldr	r2, [pc, #592]	; (8000efc <HAL_GPIO_Init+0x2ac>)
 8000cac:	4293      	cmp	r3, r2
 8000cae:	d04c      	beq.n	8000d4a <HAL_GPIO_Init+0xfa>
 8000cb0:	4a92      	ldr	r2, [pc, #584]	; (8000efc <HAL_GPIO_Init+0x2ac>)
 8000cb2:	4293      	cmp	r3, r2
 8000cb4:	d863      	bhi.n	8000d7e <HAL_GPIO_Init+0x12e>
 8000cb6:	4a92      	ldr	r2, [pc, #584]	; (8000f00 <HAL_GPIO_Init+0x2b0>)
 8000cb8:	4293      	cmp	r3, r2
 8000cba:	d046      	beq.n	8000d4a <HAL_GPIO_Init+0xfa>
 8000cbc:	4a90      	ldr	r2, [pc, #576]	; (8000f00 <HAL_GPIO_Init+0x2b0>)
 8000cbe:	4293      	cmp	r3, r2
 8000cc0:	d85d      	bhi.n	8000d7e <HAL_GPIO_Init+0x12e>
 8000cc2:	2b12      	cmp	r3, #18
 8000cc4:	d82a      	bhi.n	8000d1c <HAL_GPIO_Init+0xcc>
 8000cc6:	2b12      	cmp	r3, #18
 8000cc8:	d859      	bhi.n	8000d7e <HAL_GPIO_Init+0x12e>
 8000cca:	a201      	add	r2, pc, #4	; (adr r2, 8000cd0 <HAL_GPIO_Init+0x80>)
 8000ccc:	f852 f023 	ldr.w	pc, [r2, r3, lsl #2]
 8000cd0:	08000d4b 	.word	0x08000d4b
 8000cd4:	08000d25 	.word	0x08000d25
 8000cd8:	08000d37 	.word	0x08000d37
 8000cdc:	08000d79 	.word	0x08000d79
 8000ce0:	08000d7f 	.word	0x08000d7f
 8000ce4:	08000d7f 	.word	0x08000d7f
 8000ce8:	08000d7f 	.word	0x08000d7f
 8000cec:	08000d7f 	.word	0x08000d7f
 8000cf0:	08000d7f 	.word	0x08000d7f
 8000cf4:	08000d7f 	.word	0x08000d7f
 8000cf8:	08000d7f 	.word	0x08000d7f
 8000cfc:	08000d7f 	.word	0x08000d7f
 8000d00:	08000d7f 	.word	0x08000d7f
 8000d04:	08000d7f 	.word	0x08000d7f
 8000d08:	08000d7f 	.word	0x08000d7f
 8000d0c:	08000d7f 	.word	0x08000d7f
 8000d10:	08000d7f 	.word	0x08000d7f
 8000d14:	08000d2d 	.word	0x08000d2d
 8000d18:	08000d41 	.word	0x08000d41
 8000d1c:	4a79      	ldr	r2, [pc, #484]	; (8000f04 <HAL_GPIO_Init+0x2b4>)
 8000d1e:	4293      	cmp	r3, r2
 8000d20:	d013      	beq.n	8000d4a <HAL_GPIO_Init+0xfa>
          config = GPIO_CR_MODE_INPUT + GPIO_CR_CNF_ANALOG;
          break;

        /* Parameters are checked with assert_param */
        default:
          break;
 8000d22:	e02c      	b.n	8000d7e <HAL_GPIO_Init+0x12e>
          config = GPIO_Init->Speed + GPIO_CR_CNF_GP_OUTPUT_PP;
 8000d24:	683b      	ldr	r3, [r7, #0]
 8000d26:	68db      	ldr	r3, [r3, #12]
 8000d28:	623b      	str	r3, [r7, #32]
          break;
 8000d2a:	e029      	b.n	8000d80 <HAL_GPIO_Init+0x130>
          config = GPIO_Init->Speed + GPIO_CR_CNF_GP_OUTPUT_OD;
 8000d2c:	683b      	ldr	r3, [r7, #0]
 8000d2e:	68db      	ldr	r3, [r3, #12]
 8000d30:	3304      	adds	r3, #4
 8000d32:	623b      	str	r3, [r7, #32]
          break;
 8000d34:	e024      	b.n	8000d80 <HAL_GPIO_Init+0x130>
          config = GPIO_Init->Speed + GPIO_CR_CNF_AF_OUTPUT_PP;
 8000d36:	683b      	ldr	r3, [r7, #0]
 8000d38:	68db      	ldr	r3, [r3, #12]
 8000d3a:	3308      	adds	r3, #8
 8000d3c:	623b      	str	r3, [r7, #32]
          break;
 8000d3e:	e01f      	b.n	8000d80 <HAL_GPIO_Init+0x130>
          config = GPIO_Init->Speed + GPIO_CR_CNF_AF_OUTPUT_OD;
 8000d40:	683b      	ldr	r3, [r7, #0]
 8000d42:	68db      	ldr	r3, [r3, #12]
 8000d44:	330c      	adds	r3, #12
 8000d46:	623b      	str	r3, [r7, #32]
          break;
 8000d48:	e01a      	b.n	8000d80 <HAL_GPIO_Init+0x130>
          if (GPIO_Init->Pull == GPIO_NOPULL)
 8000d4a:	683b      	ldr	r3, [r7, #0]
 8000d4c:	689b      	ldr	r3, [r3, #8]
 8000d4e:	2b00      	cmp	r3, #0
 8000d50:	d102      	bne.n	8000d58 <HAL_GPIO_Init+0x108>
            config = GPIO_CR_MODE_INPUT + GPIO_CR_CNF_INPUT_FLOATING;
 8000d52:	2304      	movs	r3, #4
 8000d54:	623b      	str	r3, [r7, #32]
          break;
 8000d56:	e013      	b.n	8000d80 <HAL_GPIO_Init+0x130>
          else if (GPIO_Init->Pull == GPIO_PULLUP)
 8000d58:	683b      	ldr	r3, [r7, #0]
 8000d5a:	689b      	ldr	r3, [r3, #8]
 8000d5c:	2b01      	cmp	r3, #1
 8000d5e:	d105      	bne.n	8000d6c <HAL_GPIO_Init+0x11c>
            config = GPIO_CR_MODE_INPUT + GPIO_CR_CNF_INPUT_PU_PD;
 8000d60:	2308      	movs	r3, #8
 8000d62:	623b      	str	r3, [r7, #32]
            GPIOx->BSRR = ioposition;
 8000d64:	687b      	ldr	r3, [r7, #4]
 8000d66:	69fa      	ldr	r2, [r7, #28]
 8000d68:	611a      	str	r2, [r3, #16]
          break;
 8000d6a:	e009      	b.n	8000d80 <HAL_GPIO_Init+0x130>
            config = GPIO_CR_MODE_INPUT + GPIO_CR_CNF_INPUT_PU_PD;
 8000d6c:	2308      	movs	r3, #8
 8000d6e:	623b      	str	r3, [r7, #32]
            GPIOx->BRR = ioposition;
 8000d70:	687b      	ldr	r3, [r7, #4]
 8000d72:	69fa      	ldr	r2, [r7, #28]
 8000d74:	615a      	str	r2, [r3, #20]
          break;
 8000d76:	e003      	b.n	8000d80 <HAL_GPIO_Init+0x130>
          config = GPIO_CR_MODE_INPUT + GPIO_CR_CNF_ANALOG;
 8000d78:	2300      	movs	r3, #0
 8000d7a:	623b      	str	r3, [r7, #32]
          break;
 8000d7c:	e000      	b.n	8000d80 <HAL_GPIO_Init+0x130>
          break;
 8000d7e:	bf00      	nop
      }

      /* Check if the current bit belongs to first half or last half of the pin count number
       in order to address CRH or CRL register*/
      configregister = (iocurrent < GPIO_PIN_8) ? &GPIOx->CRL     : &GPIOx->CRH;
 8000d80:	69bb      	ldr	r3, [r7, #24]
 8000d82:	2bff      	cmp	r3, #255	; 0xff
 8000d84:	d801      	bhi.n	8000d8a <HAL_GPIO_Init+0x13a>
 8000d86:	687b      	ldr	r3, [r7, #4]
 8000d88:	e001      	b.n	8000d8e <HAL_GPIO_Init+0x13e>
 8000d8a:	687b      	ldr	r3, [r7, #4]
 8000d8c:	3304      	adds	r3, #4
 8000d8e:	617b      	str	r3, [r7, #20]
      registeroffset = (iocurrent < GPIO_PIN_8) ? (position << 2u) : ((position - 8u) << 2u);
 8000d90:	69bb      	ldr	r3, [r7, #24]
 8000d92:	2bff      	cmp	r3, #255	; 0xff
 8000d94:	d802      	bhi.n	8000d9c <HAL_GPIO_Init+0x14c>
 8000d96:	6a7b      	ldr	r3, [r7, #36]	; 0x24
 8000d98:	009b      	lsls	r3, r3, #2
 8000d9a:	e002      	b.n	8000da2 <HAL_GPIO_Init+0x152>
 8000d9c:	6a7b      	ldr	r3, [r7, #36]	; 0x24
 8000d9e:	3b08      	subs	r3, #8
 8000da0:	009b      	lsls	r3, r3, #2
 8000da2:	613b      	str	r3, [r7, #16]

      /* Apply the new configuration of the pin to the register */
      MODIFY_REG((*configregister), ((GPIO_CRL_MODE0 | GPIO_CRL_CNF0) << registeroffset), (config << registeroffset));
 8000da4:	697b      	ldr	r3, [r7, #20]
 8000da6:	681a      	ldr	r2, [r3, #0]
 8000da8:	210f      	movs	r1, #15
 8000daa:	693b      	ldr	r3, [r7, #16]
 8000dac:	fa01 f303 	lsl.w	r3, r1, r3
 8000db0:	43db      	mvns	r3, r3
 8000db2:	401a      	ands	r2, r3
 8000db4:	6a39      	ldr	r1, [r7, #32]
 8000db6:	693b      	ldr	r3, [r7, #16]
 8000db8:	fa01 f303 	lsl.w	r3, r1, r3
 8000dbc:	431a      	orrs	r2, r3
 8000dbe:	697b      	ldr	r3, [r7, #20]
 8000dc0:	601a      	str	r2, [r3, #0]

      /*--------------------- EXTI Mode Configuration ------------------------*/
      /* Configure the External Interrupt or event for the current IO */
      if ((GPIO_Init->Mode & EXTI_MODE) == EXTI_MODE)
 8000dc2:	683b      	ldr	r3, [r7, #0]
 8000dc4:	685b      	ldr	r3, [r3, #4]
 8000dc6:	f003 5380 	and.w	r3, r3, #268435456	; 0x10000000
 8000dca:	2b00      	cmp	r3, #0
 8000dcc:	f000 80b1 	beq.w	8000f32 <HAL_GPIO_Init+0x2e2>
      {
        /* Enable AFIO Clock */
        __HAL_RCC_AFIO_CLK_ENABLE();
 8000dd0:	4b4d      	ldr	r3, [pc, #308]	; (8000f08 <HAL_GPIO_Init+0x2b8>)
 8000dd2:	699b      	ldr	r3, [r3, #24]
 8000dd4:	4a4c      	ldr	r2, [pc, #304]	; (8000f08 <HAL_GPIO_Init+0x2b8>)
 8000dd6:	f043 0301 	orr.w	r3, r3, #1
 8000dda:	6193      	str	r3, [r2, #24]
 8000ddc:	4b4a      	ldr	r3, [pc, #296]	; (8000f08 <HAL_GPIO_Init+0x2b8>)
 8000dde:	699b      	ldr	r3, [r3, #24]
 8000de0:	f003 0301 	and.w	r3, r3, #1
 8000de4:	60bb      	str	r3, [r7, #8]
 8000de6:	68bb      	ldr	r3, [r7, #8]
        temp = AFIO->EXTICR[position >> 2u];
 8000de8:	4a48      	ldr	r2, [pc, #288]	; (8000f0c <HAL_GPIO_Init+0x2bc>)
 8000dea:	6a7b      	ldr	r3, [r7, #36]	; 0x24
 8000dec:	089b      	lsrs	r3, r3, #2
 8000dee:	3302      	adds	r3, #2
 8000df0:	f852 3023 	ldr.w	r3, [r2, r3, lsl #2]
 8000df4:	60fb      	str	r3, [r7, #12]
        CLEAR_BIT(temp, (0x0Fu) << (4u * (position & 0x03u)));
 8000df6:	6a7b      	ldr	r3, [r7, #36]	; 0x24
 8000df8:	f003 0303 	and.w	r3, r3, #3
 8000dfc:	009b      	lsls	r3, r3, #2
 8000dfe:	220f      	movs	r2, #15
 8000e00:	fa02 f303 	lsl.w	r3, r2, r3
 8000e04:	43db      	mvns	r3, r3
 8000e06:	68fa      	ldr	r2, [r7, #12]
 8000e08:	4013      	ands	r3, r2
 8000e0a:	60fb      	str	r3, [r7, #12]
        SET_BIT(temp, (GPIO_GET_INDEX(GPIOx)) << (4u * (position & 0x03u)));
 8000e0c:	687b      	ldr	r3, [r7, #4]
 8000e0e:	4a40      	ldr	r2, [pc, #256]	; (8000f10 <HAL_GPIO_Init+0x2c0>)
 8000e10:	4293      	cmp	r3, r2
 8000e12:	d013      	beq.n	8000e3c <HAL_GPIO_Init+0x1ec>
 8000e14:	687b      	ldr	r3, [r7, #4]
 8000e16:	4a3f      	ldr	r2, [pc, #252]	; (8000f14 <HAL_GPIO_Init+0x2c4>)
 8000e18:	4293      	cmp	r3, r2
 8000e1a:	d00d      	beq.n	8000e38 <HAL_GPIO_Init+0x1e8>
 8000e1c:	687b      	ldr	r3, [r7, #4]
 8000e1e:	4a3e      	ldr	r2, [pc, #248]	; (8000f18 <HAL_GPIO_Init+0x2c8>)
 8000e20:	4293      	cmp	r3, r2
 8000e22:	d007      	beq.n	8000e34 <HAL_GPIO_Init+0x1e4>
 8000e24:	687b      	ldr	r3, [r7, #4]
 8000e26:	4a3d      	ldr	r2, [pc, #244]	; (8000f1c <HAL_GPIO_Init+0x2cc>)
 8000e28:	4293      	cmp	r3, r2
 8000e2a:	d101      	bne.n	8000e30 <HAL_GPIO_Init+0x1e0>
 8000e2c:	2303      	movs	r3, #3
 8000e2e:	e006      	b.n	8000e3e <HAL_GPIO_Init+0x1ee>
 8000e30:	2304      	movs	r3, #4
 8000e32:	e004      	b.n	8000e3e <HAL_GPIO_Init+0x1ee>
 8000e34:	2302      	movs	r3, #2
 8000e36:	e002      	b.n	8000e3e <HAL_GPIO_Init+0x1ee>
 8000e38:	2301      	movs	r3, #1
 8000e3a:	e000      	b.n	8000e3e <HAL_GPIO_Init+0x1ee>
 8000e3c:	2300      	movs	r3, #0
 8000e3e:	6a7a      	ldr	r2, [r7, #36]	; 0x24
 8000e40:	f002 0203 	and.w	r2, r2, #3
 8000e44:	0092      	lsls	r2, r2, #2
 8000e46:	4093      	lsls	r3, r2
 8000e48:	68fa      	ldr	r2, [r7, #12]
 8000e4a:	4313      	orrs	r3, r2
 8000e4c:	60fb      	str	r3, [r7, #12]
        AFIO->EXTICR[position >> 2u] = temp;
 8000e4e:	492f      	ldr	r1, [pc, #188]	; (8000f0c <HAL_GPIO_Init+0x2bc>)
 8000e50:	6a7b      	ldr	r3, [r7, #36]	; 0x24
 8000e52:	089b      	lsrs	r3, r3, #2
 8000e54:	3302      	adds	r3, #2
 8000e56:	68fa      	ldr	r2, [r7, #12]
 8000e58:	f841 2023 	str.w	r2, [r1, r3, lsl #2]


        /* Configure the interrupt mask */
        if ((GPIO_Init->Mode & GPIO_MODE_IT) == GPIO_MODE_IT)
 8000e5c:	683b      	ldr	r3, [r7, #0]
 8000e5e:	685b      	ldr	r3, [r3, #4]
 8000e60:	f403 3380 	and.w	r3, r3, #65536	; 0x10000
 8000e64:	2b00      	cmp	r3, #0
 8000e66:	d006      	beq.n	8000e76 <HAL_GPIO_Init+0x226>
        {
          SET_BIT(EXTI->IMR, iocurrent);
 8000e68:	4b2d      	ldr	r3, [pc, #180]	; (8000f20 <HAL_GPIO_Init+0x2d0>)
 8000e6a:	681a      	ldr	r2, [r3, #0]
 8000e6c:	492c      	ldr	r1, [pc, #176]	; (8000f20 <HAL_GPIO_Init+0x2d0>)
 8000e6e:	69bb      	ldr	r3, [r7, #24]
 8000e70:	4313      	orrs	r3, r2
 8000e72:	600b      	str	r3, [r1, #0]
 8000e74:	e006      	b.n	8000e84 <HAL_GPIO_Init+0x234>
        }
        else
        {
          CLEAR_BIT(EXTI->IMR, iocurrent);
 8000e76:	4b2a      	ldr	r3, [pc, #168]	; (8000f20 <HAL_GPIO_Init+0x2d0>)
 8000e78:	681a      	ldr	r2, [r3, #0]
 8000e7a:	69bb      	ldr	r3, [r7, #24]
 8000e7c:	43db      	mvns	r3, r3
 8000e7e:	4928      	ldr	r1, [pc, #160]	; (8000f20 <HAL_GPIO_Init+0x2d0>)
 8000e80:	4013      	ands	r3, r2
 8000e82:	600b      	str	r3, [r1, #0]
        }

        /* Configure the event mask */
        if ((GPIO_Init->Mode & GPIO_MODE_EVT) == GPIO_MODE_EVT)
 8000e84:	683b      	ldr	r3, [r7, #0]
 8000e86:	685b      	ldr	r3, [r3, #4]
 8000e88:	f403 3300 	and.w	r3, r3, #131072	; 0x20000
 8000e8c:	2b00      	cmp	r3, #0
 8000e8e:	d006      	beq.n	8000e9e <HAL_GPIO_Init+0x24e>
        {
          SET_BIT(EXTI->EMR, iocurrent);
 8000e90:	4b23      	ldr	r3, [pc, #140]	; (8000f20 <HAL_GPIO_Init+0x2d0>)
 8000e92:	685a      	ldr	r2, [r3, #4]
 8000e94:	4922      	ldr	r1, [pc, #136]	; (8000f20 <HAL_GPIO_Init+0x2d0>)
 8000e96:	69bb      	ldr	r3, [r7, #24]
 8000e98:	4313      	orrs	r3, r2
 8000e9a:	604b      	str	r3, [r1, #4]
 8000e9c:	e006      	b.n	8000eac <HAL_GPIO_Init+0x25c>
        }
        else
        {
          CLEAR_BIT(EXTI->EMR, iocurrent);
 8000e9e:	4b20      	ldr	r3, [pc, #128]	; (8000f20 <HAL_GPIO_Init+0x2d0>)
 8000ea0:	685a      	ldr	r2, [r3, #4]
 8000ea2:	69bb      	ldr	r3, [r7, #24]
 8000ea4:	43db      	mvns	r3, r3
 8000ea6:	491e      	ldr	r1, [pc, #120]	; (8000f20 <HAL_GPIO_Init+0x2d0>)
 8000ea8:	4013      	ands	r3, r2
 8000eaa:	604b      	str	r3, [r1, #4]
        }

        /* Enable or disable the rising trigger */
        if ((GPIO_Init->Mode & RISING_EDGE) == RISING_EDGE)
 8000eac:	683b      	ldr	r3, [r7, #0]
 8000eae:	685b      	ldr	r3, [r3, #4]
 8000eb0:	f403 1380 	and.w	r3, r3, #1048576	; 0x100000
 8000eb4:	2b00      	cmp	r3, #0
 8000eb6:	d006      	beq.n	8000ec6 <HAL_GPIO_Init+0x276>
        {
          SET_BIT(EXTI->RTSR, iocurrent);
 8000eb8:	4b19      	ldr	r3, [pc, #100]	; (8000f20 <HAL_GPIO_Init+0x2d0>)
 8000eba:	689a      	ldr	r2, [r3, #8]
 8000ebc:	4918      	ldr	r1, [pc, #96]	; (8000f20 <HAL_GPIO_Init+0x2d0>)
 8000ebe:	69bb      	ldr	r3, [r7, #24]
 8000ec0:	4313      	orrs	r3, r2
 8000ec2:	608b      	str	r3, [r1, #8]
 8000ec4:	e006      	b.n	8000ed4 <HAL_GPIO_Init+0x284>
        }
        else
        {
          CLEAR_BIT(EXTI->RTSR, iocurrent);
 8000ec6:	4b16      	ldr	r3, [pc, #88]	; (8000f20 <HAL_GPIO_Init+0x2d0>)
 8000ec8:	689a      	ldr	r2, [r3, #8]
 8000eca:	69bb      	ldr	r3, [r7, #24]
 8000ecc:	43db      	mvns	r3, r3
 8000ece:	4914      	ldr	r1, [pc, #80]	; (8000f20 <HAL_GPIO_Init+0x2d0>)
 8000ed0:	4013      	ands	r3, r2
 8000ed2:	608b      	str	r3, [r1, #8]
        }

        /* Enable or disable the falling trigger */
        if ((GPIO_Init->Mode & FALLING_EDGE) == FALLING_EDGE)
 8000ed4:	683b      	ldr	r3, [r7, #0]
 8000ed6:	685b      	ldr	r3, [r3, #4]
 8000ed8:	f403 1300 	and.w	r3, r3, #2097152	; 0x200000
 8000edc:	2b00      	cmp	r3, #0
 8000ede:	d021      	beq.n	8000f24 <HAL_GPIO_Init+0x2d4>
        {
          SET_BIT(EXTI->FTSR, iocurrent);
 8000ee0:	4b0f      	ldr	r3, [pc, #60]	; (8000f20 <HAL_GPIO_Init+0x2d0>)
 8000ee2:	68da      	ldr	r2, [r3, #12]
 8000ee4:	490e      	ldr	r1, [pc, #56]	; (8000f20 <HAL_GPIO_Init+0x2d0>)
 8000ee6:	69bb      	ldr	r3, [r7, #24]
 8000ee8:	4313      	orrs	r3, r2
 8000eea:	60cb      	str	r3, [r1, #12]
 8000eec:	e021      	b.n	8000f32 <HAL_GPIO_Init+0x2e2>
 8000eee:	bf00      	nop
 8000ef0:	10320000 	.word	0x10320000
 8000ef4:	10310000 	.word	0x10310000
 8000ef8:	10220000 	.word	0x10220000
 8000efc:	10210000 	.word	0x10210000
 8000f00:	10120000 	.word	0x10120000
 8000f04:	10110000 	.word	0x10110000
 8000f08:	40021000 	.word	0x40021000
 8000f0c:	40010000 	.word	0x40010000
 8000f10:	40010800 	.word	0x40010800
 8000f14:	40010c00 	.word	0x40010c00
 8000f18:	40011000 	.word	0x40011000
 8000f1c:	40011400 	.word	0x40011400
 8000f20:	40010400 	.word	0x40010400
        }
        else
        {
          CLEAR_BIT(EXTI->FTSR, iocurrent);
 8000f24:	4b0b      	ldr	r3, [pc, #44]	; (8000f54 <HAL_GPIO_Init+0x304>)
 8000f26:	68da      	ldr	r2, [r3, #12]
 8000f28:	69bb      	ldr	r3, [r7, #24]
 8000f2a:	43db      	mvns	r3, r3
 8000f2c:	4909      	ldr	r1, [pc, #36]	; (8000f54 <HAL_GPIO_Init+0x304>)
 8000f2e:	4013      	ands	r3, r2
 8000f30:	60cb      	str	r3, [r1, #12]
        }
      }
    }

	position++;
 8000f32:	6a7b      	ldr	r3, [r7, #36]	; 0x24
 8000f34:	3301      	adds	r3, #1
 8000f36:	627b      	str	r3, [r7, #36]	; 0x24
  while (((GPIO_Init->Pin) >> position) != 0x00u)
 8000f38:	683b      	ldr	r3, [r7, #0]
 8000f3a:	681a      	ldr	r2, [r3, #0]
 8000f3c:	6a7b      	ldr	r3, [r7, #36]	; 0x24
 8000f3e:	fa22 f303 	lsr.w	r3, r2, r3
 8000f42:	2b00      	cmp	r3, #0
 8000f44:	f47f ae8e 	bne.w	8000c64 <HAL_GPIO_Init+0x14>
  }
}
 8000f48:	bf00      	nop
 8000f4a:	bf00      	nop
 8000f4c:	372c      	adds	r7, #44	; 0x2c
 8000f4e:	46bd      	mov	sp, r7
 8000f50:	bc80      	pop	{r7}
 8000f52:	4770      	bx	lr
 8000f54:	40010400 	.word	0x40010400

08000f58 <HAL_GPIO_WritePin>:
  *            @arg GPIO_PIN_RESET: to clear the port pin
  *            @arg GPIO_PIN_SET: to set the port pin
  * @retval None
  */
void HAL_GPIO_WritePin(GPIO_TypeDef *GPIOx, uint16_t GPIO_Pin, GPIO_PinState PinState)
{
 8000f58:	b480      	push	{r7}
 8000f5a:	b083      	sub	sp, #12
 8000f5c:	af00      	add	r7, sp, #0
 8000f5e:	6078      	str	r0, [r7, #4]
 8000f60:	460b      	mov	r3, r1
 8000f62:	807b      	strh	r3, [r7, #2]
 8000f64:	4613      	mov	r3, r2
 8000f66:	707b      	strb	r3, [r7, #1]
  /* Check the parameters */
  assert_param(IS_GPIO_PIN(GPIO_Pin));
  assert_param(IS_GPIO_PIN_ACTION(PinState));

  if (PinState != GPIO_PIN_RESET)
 8000f68:	787b      	ldrb	r3, [r7, #1]
 8000f6a:	2b00      	cmp	r3, #0
 8000f6c:	d003      	beq.n	8000f76 <HAL_GPIO_WritePin+0x1e>
  {
    GPIOx->BSRR = GPIO_Pin;
 8000f6e:	887a      	ldrh	r2, [r7, #2]
 8000f70:	687b      	ldr	r3, [r7, #4]
 8000f72:	611a      	str	r2, [r3, #16]
  }
  else
  {
    GPIOx->BSRR = (uint32_t)GPIO_Pin << 16u;
  }
}
 8000f74:	e003      	b.n	8000f7e <HAL_GPIO_WritePin+0x26>
    GPIOx->BSRR = (uint32_t)GPIO_Pin << 16u;
 8000f76:	887b      	ldrh	r3, [r7, #2]
 8000f78:	041a      	lsls	r2, r3, #16
 8000f7a:	687b      	ldr	r3, [r7, #4]
 8000f7c:	611a      	str	r2, [r3, #16]
}
 8000f7e:	bf00      	nop
 8000f80:	370c      	adds	r7, #12
 8000f82:	46bd      	mov	sp, r7
 8000f84:	bc80      	pop	{r7}
 8000f86:	4770      	bx	lr

08000f88 <HAL_RCC_OscConfig>:
  *         supported by this macro. User should request a transition to HSE Off
  *         first and then HSE On or HSE Bypass.
  * @retval HAL status
  */
HAL_StatusTypeDef HAL_RCC_OscConfig(RCC_OscInitTypeDef  *RCC_OscInitStruct)
{
 8000f88:	b580      	push	{r7, lr}
 8000f8a:	b086      	sub	sp, #24
 8000f8c:	af00      	add	r7, sp, #0
 8000f8e:	6078      	str	r0, [r7, #4]
  uint32_t tickstart;
  uint32_t pll_config;

  /* Check Null pointer */
  if (RCC_OscInitStruct == NULL)
 8000f90:	687b      	ldr	r3, [r7, #4]
 8000f92:	2b00      	cmp	r3, #0
 8000f94:	d101      	bne.n	8000f9a <HAL_RCC_OscConfig+0x12>
  {
    return HAL_ERROR;
 8000f96:	2301      	movs	r3, #1
 8000f98:	e272      	b.n	8001480 <HAL_RCC_OscConfig+0x4f8>

  /* Check the parameters */
  assert_param(IS_RCC_OSCILLATORTYPE(RCC_OscInitStruct->OscillatorType));

  /*------------------------------- HSE Configuration ------------------------*/
  if (((RCC_OscInitStruct->OscillatorType) & RCC_OSCILLATORTYPE_HSE) == RCC_OSCILLATORTYPE_HSE)
 8000f9a:	687b      	ldr	r3, [r7, #4]
 8000f9c:	681b      	ldr	r3, [r3, #0]
 8000f9e:	f003 0301 	and.w	r3, r3, #1
 8000fa2:	2b00      	cmp	r3, #0
 8000fa4:	f000 8087 	beq.w	80010b6 <HAL_RCC_OscConfig+0x12e>
  {
    /* Check the parameters */
    assert_param(IS_RCC_HSE(RCC_OscInitStruct->HSEState));

    /* When the HSE is used as system clock or clock source for PLL in these cases it is not allowed to be disabled */
    if ((__HAL_RCC_GET_SYSCLK_SOURCE() == RCC_SYSCLKSOURCE_STATUS_HSE)
 8000fa8:	4b92      	ldr	r3, [pc, #584]	; (80011f4 <HAL_RCC_OscConfig+0x26c>)
 8000faa:	685b      	ldr	r3, [r3, #4]
 8000fac:	f003 030c 	and.w	r3, r3, #12
 8000fb0:	2b04      	cmp	r3, #4
 8000fb2:	d00c      	beq.n	8000fce <HAL_RCC_OscConfig+0x46>
        || ((__HAL_RCC_GET_SYSCLK_SOURCE() == RCC_SYSCLKSOURCE_STATUS_PLLCLK) && (__HAL_RCC_GET_PLL_OSCSOURCE() == RCC_PLLSOURCE_HSE)))
 8000fb4:	4b8f      	ldr	r3, [pc, #572]	; (80011f4 <HAL_RCC_OscConfig+0x26c>)
 8000fb6:	685b      	ldr	r3, [r3, #4]
 8000fb8:	f003 030c 	and.w	r3, r3, #12
 8000fbc:	2b08      	cmp	r3, #8
 8000fbe:	d112      	bne.n	8000fe6 <HAL_RCC_OscConfig+0x5e>
 8000fc0:	4b8c      	ldr	r3, [pc, #560]	; (80011f4 <HAL_RCC_OscConfig+0x26c>)
 8000fc2:	685b      	ldr	r3, [r3, #4]
 8000fc4:	f403 3380 	and.w	r3, r3, #65536	; 0x10000
 8000fc8:	f5b3 3f80 	cmp.w	r3, #65536	; 0x10000
 8000fcc:	d10b      	bne.n	8000fe6 <HAL_RCC_OscConfig+0x5e>
    {
      if ((__HAL_RCC_GET_FLAG(RCC_FLAG_HSERDY) != RESET) && (RCC_OscInitStruct->HSEState == RCC_HSE_OFF))
 8000fce:	4b89      	ldr	r3, [pc, #548]	; (80011f4 <HAL_RCC_OscConfig+0x26c>)
 8000fd0:	681b      	ldr	r3, [r3, #0]
 8000fd2:	f403 3300 	and.w	r3, r3, #131072	; 0x20000
 8000fd6:	2b00      	cmp	r3, #0
 8000fd8:	d06c      	beq.n	80010b4 <HAL_RCC_OscConfig+0x12c>
 8000fda:	687b      	ldr	r3, [r7, #4]
 8000fdc:	685b      	ldr	r3, [r3, #4]
 8000fde:	2b00      	cmp	r3, #0
 8000fe0:	d168      	bne.n	80010b4 <HAL_RCC_OscConfig+0x12c>
      {
        return HAL_ERROR;
 8000fe2:	2301      	movs	r3, #1
 8000fe4:	e24c      	b.n	8001480 <HAL_RCC_OscConfig+0x4f8>
      }
    }
    else
    {
      /* Set the new HSE configuration ---------------------------------------*/
      __HAL_RCC_HSE_CONFIG(RCC_OscInitStruct->HSEState);
 8000fe6:	687b      	ldr	r3, [r7, #4]
 8000fe8:	685b      	ldr	r3, [r3, #4]
 8000fea:	f5b3 3f80 	cmp.w	r3, #65536	; 0x10000
 8000fee:	d106      	bne.n	8000ffe <HAL_RCC_OscConfig+0x76>
 8000ff0:	4b80      	ldr	r3, [pc, #512]	; (80011f4 <HAL_RCC_OscConfig+0x26c>)
 8000ff2:	681b      	ldr	r3, [r3, #0]
 8000ff4:	4a7f      	ldr	r2, [pc, #508]	; (80011f4 <HAL_RCC_OscConfig+0x26c>)
 8000ff6:	f443 3380 	orr.w	r3, r3, #65536	; 0x10000
 8000ffa:	6013      	str	r3, [r2, #0]
 8000ffc:	e02e      	b.n	800105c <HAL_RCC_OscConfig+0xd4>
 8000ffe:	687b      	ldr	r3, [r7, #4]
 8001000:	685b      	ldr	r3, [r3, #4]
 8001002:	2b00      	cmp	r3, #0
 8001004:	d10c      	bne.n	8001020 <HAL_RCC_OscConfig+0x98>
 8001006:	4b7b      	ldr	r3, [pc, #492]	; (80011f4 <HAL_RCC_OscConfig+0x26c>)
 8001008:	681b      	ldr	r3, [r3, #0]
 800100a:	4a7a      	ldr	r2, [pc, #488]	; (80011f4 <HAL_RCC_OscConfig+0x26c>)
 800100c:	f423 3380 	bic.w	r3, r3, #65536	; 0x10000
 8001010:	6013      	str	r3, [r2, #0]
 8001012:	4b78      	ldr	r3, [pc, #480]	; (80011f4 <HAL_RCC_OscConfig+0x26c>)
 8001014:	681b      	ldr	r3, [r3, #0]
 8001016:	4a77      	ldr	r2, [pc, #476]	; (80011f4 <HAL_RCC_OscConfig+0x26c>)
 8001018:	f423 2380 	bic.w	r3, r3, #262144	; 0x40000
 800101c:	6013      	str	r3, [r2, #0]
 800101e:	e01d      	b.n	800105c <HAL_RCC_OscConfig+0xd4>
 8001020:	687b      	ldr	r3, [r7, #4]
 8001022:	685b      	ldr	r3, [r3, #4]
 8001024:	f5b3 2fa0 	cmp.w	r3, #327680	; 0x50000
 8001028:	d10c      	bne.n	8001044 <HAL_RCC_OscConfig+0xbc>
 800102a:	4b72      	ldr	r3, [pc, #456]	; (80011f4 <HAL_RCC_OscConfig+0x26c>)
 800102c:	681b      	ldr	r3, [r3, #0]
 800102e:	4a71      	ldr	r2, [pc, #452]	; (80011f4 <HAL_RCC_OscConfig+0x26c>)
 8001030:	f443 2380 	orr.w	r3, r3, #262144	; 0x40000
 8001034:	6013      	str	r3, [r2, #0]
 8001036:	4b6f      	ldr	r3, [pc, #444]	; (80011f4 <HAL_RCC_OscConfig+0x26c>)
 8001038:	681b      	ldr	r3, [r3, #0]
 800103a:	4a6e      	ldr	r2, [pc, #440]	; (80011f4 <HAL_RCC_OscConfig+0x26c>)
 800103c:	f443 3380 	orr.w	r3, r3, #65536	; 0x10000
 8001040:	6013      	str	r3, [r2, #0]
 8001042:	e00b      	b.n	800105c <HAL_RCC_OscConfig+0xd4>
 8001044:	4b6b      	ldr	r3, [pc, #428]	; (80011f4 <HAL_RCC_OscConfig+0x26c>)
 8001046:	681b      	ldr	r3, [r3, #0]
 8001048:	4a6a      	ldr	r2, [pc, #424]	; (80011f4 <HAL_RCC_OscConfig+0x26c>)
 800104a:	f423 3380 	bic.w	r3, r3, #65536	; 0x10000
 800104e:	6013      	str	r3, [r2, #0]
 8001050:	4b68      	ldr	r3, [pc, #416]	; (80011f4 <HAL_RCC_OscConfig+0x26c>)
 8001052:	681b      	ldr	r3, [r3, #0]
 8001054:	4a67      	ldr	r2, [pc, #412]	; (80011f4 <HAL_RCC_OscConfig+0x26c>)
 8001056:	f423 2380 	bic.w	r3, r3, #262144	; 0x40000
 800105a:	6013      	str	r3, [r2, #0]


      /* Check the HSE State */
      if (RCC_OscInitStruct->HSEState != RCC_HSE_OFF)
 800105c:	687b      	ldr	r3, [r7, #4]
 800105e:	685b      	ldr	r3, [r3, #4]
 8001060:	2b00      	cmp	r3, #0
 8001062:	d013      	beq.n	800108c <HAL_RCC_OscConfig+0x104>
      {
        /* Get Start Tick */
        tickstart = HAL_GetTick();
 8001064:	f7ff fcdc 	bl	8000a20 <HAL_GetTick>
 8001068:	6138      	str	r0, [r7, #16]

        /* Wait till HSE is ready */
        while (__HAL_RCC_GET_FLAG(RCC_FLAG_HSERDY) == RESET)
 800106a:	e008      	b.n	800107e <HAL_RCC_OscConfig+0xf6>
        {
          if ((HAL_GetTick() - tickstart) > HSE_TIMEOUT_VALUE)
 800106c:	f7ff fcd8 	bl	8000a20 <HAL_GetTick>
 8001070:	4602      	mov	r2, r0
 8001072:	693b      	ldr	r3, [r7, #16]
 8001074:	1ad3      	subs	r3, r2, r3
 8001076:	2b64      	cmp	r3, #100	; 0x64
 8001078:	d901      	bls.n	800107e <HAL_RCC_OscConfig+0xf6>
          {
            return HAL_TIMEOUT;
 800107a:	2303      	movs	r3, #3
 800107c:	e200      	b.n	8001480 <HAL_RCC_OscConfig+0x4f8>
        while (__HAL_RCC_GET_FLAG(RCC_FLAG_HSERDY) == RESET)
 800107e:	4b5d      	ldr	r3, [pc, #372]	; (80011f4 <HAL_RCC_OscConfig+0x26c>)
 8001080:	681b      	ldr	r3, [r3, #0]
 8001082:	f403 3300 	and.w	r3, r3, #131072	; 0x20000
 8001086:	2b00      	cmp	r3, #0
 8001088:	d0f0      	beq.n	800106c <HAL_RCC_OscConfig+0xe4>
 800108a:	e014      	b.n	80010b6 <HAL_RCC_OscConfig+0x12e>
        }
      }
      else
      {
        /* Get Start Tick */
        tickstart = HAL_GetTick();
 800108c:	f7ff fcc8 	bl	8000a20 <HAL_GetTick>
 8001090:	6138      	str	r0, [r7, #16]

        /* Wait till HSE is disabled */
        while (__HAL_RCC_GET_FLAG(RCC_FLAG_HSERDY) != RESET)
 8001092:	e008      	b.n	80010a6 <HAL_RCC_OscConfig+0x11e>
        {
          if ((HAL_GetTick() - tickstart) > HSE_TIMEOUT_VALUE)
 8001094:	f7ff fcc4 	bl	8000a20 <HAL_GetTick>
 8001098:	4602      	mov	r2, r0
 800109a:	693b      	ldr	r3, [r7, #16]
 800109c:	1ad3      	subs	r3, r2, r3
 800109e:	2b64      	cmp	r3, #100	; 0x64
 80010a0:	d901      	bls.n	80010a6 <HAL_RCC_OscConfig+0x11e>
          {
            return HAL_TIMEOUT;
 80010a2:	2303      	movs	r3, #3
 80010a4:	e1ec      	b.n	8001480 <HAL_RCC_OscConfig+0x4f8>
        while (__HAL_RCC_GET_FLAG(RCC_FLAG_HSERDY) != RESET)
 80010a6:	4b53      	ldr	r3, [pc, #332]	; (80011f4 <HAL_RCC_OscConfig+0x26c>)
 80010a8:	681b      	ldr	r3, [r3, #0]
 80010aa:	f403 3300 	and.w	r3, r3, #131072	; 0x20000
 80010ae:	2b00      	cmp	r3, #0
 80010b0:	d1f0      	bne.n	8001094 <HAL_RCC_OscConfig+0x10c>
 80010b2:	e000      	b.n	80010b6 <HAL_RCC_OscConfig+0x12e>
      if ((__HAL_RCC_GET_FLAG(RCC_FLAG_HSERDY) != RESET) && (RCC_OscInitStruct->HSEState == RCC_HSE_OFF))
 80010b4:	bf00      	nop
        }
      }
    }
  }
  /*----------------------------- HSI Configuration --------------------------*/
  if (((RCC_OscInitStruct->OscillatorType) & RCC_OSCILLATORTYPE_HSI) == RCC_OSCILLATORTYPE_HSI)
 80010b6:	687b      	ldr	r3, [r7, #4]
 80010b8:	681b      	ldr	r3, [r3, #0]
 80010ba:	f003 0302 	and.w	r3, r3, #2
 80010be:	2b00      	cmp	r3, #0
 80010c0:	d063      	beq.n	800118a <HAL_RCC_OscConfig+0x202>
    /* Check the parameters */
    assert_param(IS_RCC_HSI(RCC_OscInitStruct->HSIState));
    assert_param(IS_RCC_CALIBRATION_VALUE(RCC_OscInitStruct->HSICalibrationValue));

    /* Check if HSI is used as system clock or as PLL source when PLL is selected as system clock */
    if ((__HAL_RCC_GET_SYSCLK_SOURCE() == RCC_SYSCLKSOURCE_STATUS_HSI)
 80010c2:	4b4c      	ldr	r3, [pc, #304]	; (80011f4 <HAL_RCC_OscConfig+0x26c>)
 80010c4:	685b      	ldr	r3, [r3, #4]
 80010c6:	f003 030c 	and.w	r3, r3, #12
 80010ca:	2b00      	cmp	r3, #0
 80010cc:	d00b      	beq.n	80010e6 <HAL_RCC_OscConfig+0x15e>
        || ((__HAL_RCC_GET_SYSCLK_SOURCE() == RCC_SYSCLKSOURCE_STATUS_PLLCLK) && (__HAL_RCC_GET_PLL_OSCSOURCE() == RCC_PLLSOURCE_HSI_DIV2)))
 80010ce:	4b49      	ldr	r3, [pc, #292]	; (80011f4 <HAL_RCC_OscConfig+0x26c>)
 80010d0:	685b      	ldr	r3, [r3, #4]
 80010d2:	f003 030c 	and.w	r3, r3, #12
 80010d6:	2b08      	cmp	r3, #8
 80010d8:	d11c      	bne.n	8001114 <HAL_RCC_OscConfig+0x18c>
 80010da:	4b46      	ldr	r3, [pc, #280]	; (80011f4 <HAL_RCC_OscConfig+0x26c>)
 80010dc:	685b      	ldr	r3, [r3, #4]
 80010de:	f403 3380 	and.w	r3, r3, #65536	; 0x10000
 80010e2:	2b00      	cmp	r3, #0
 80010e4:	d116      	bne.n	8001114 <HAL_RCC_OscConfig+0x18c>
    {
      /* When HSI is used as system clock it will not disabled */
      if ((__HAL_RCC_GET_FLAG(RCC_FLAG_HSIRDY) != RESET) && (RCC_OscInitStruct->HSIState != RCC_HSI_ON))
 80010e6:	4b43      	ldr	r3, [pc, #268]	; (80011f4 <HAL_RCC_OscConfig+0x26c>)
 80010e8:	681b      	ldr	r3, [r3, #0]
 80010ea:	f003 0302 	and.w	r3, r3, #2
 80010ee:	2b00      	cmp	r3, #0
 80010f0:	d005      	beq.n	80010fe <HAL_RCC_OscConfig+0x176>
 80010f2:	687b      	ldr	r3, [r7, #4]
 80010f4:	691b      	ldr	r3, [r3, #16]
 80010f6:	2b01      	cmp	r3, #1
 80010f8:	d001      	beq.n	80010fe <HAL_RCC_OscConfig+0x176>
      {
        return HAL_ERROR;
 80010fa:	2301      	movs	r3, #1
 80010fc:	e1c0      	b.n	8001480 <HAL_RCC_OscConfig+0x4f8>
      }
      /* Otherwise, just the calibration is allowed */
      else
      {
        /* Adjusts the Internal High Speed oscillator (HSI) calibration value.*/
        __HAL_RCC_HSI_CALIBRATIONVALUE_ADJUST(RCC_OscInitStruct->HSICalibrationValue);
 80010fe:	4b3d      	ldr	r3, [pc, #244]	; (80011f4 <HAL_RCC_OscConfig+0x26c>)
 8001100:	681b      	ldr	r3, [r3, #0]
 8001102:	f023 02f8 	bic.w	r2, r3, #248	; 0xf8
 8001106:	687b      	ldr	r3, [r7, #4]
 8001108:	695b      	ldr	r3, [r3, #20]
 800110a:	00db      	lsls	r3, r3, #3
 800110c:	4939      	ldr	r1, [pc, #228]	; (80011f4 <HAL_RCC_OscConfig+0x26c>)
 800110e:	4313      	orrs	r3, r2
 8001110:	600b      	str	r3, [r1, #0]
      if ((__HAL_RCC_GET_FLAG(RCC_FLAG_HSIRDY) != RESET) && (RCC_OscInitStruct->HSIState != RCC_HSI_ON))
 8001112:	e03a      	b.n	800118a <HAL_RCC_OscConfig+0x202>
      }
    }
    else
    {
      /* Check the HSI State */
      if (RCC_OscInitStruct->HSIState != RCC_HSI_OFF)
 8001114:	687b      	ldr	r3, [r7, #4]
 8001116:	691b      	ldr	r3, [r3, #16]
 8001118:	2b00      	cmp	r3, #0
 800111a:	d020      	beq.n	800115e <HAL_RCC_OscConfig+0x1d6>
      {
        /* Enable the Internal High Speed oscillator (HSI). */
        __HAL_RCC_HSI_ENABLE();
 800111c:	4b36      	ldr	r3, [pc, #216]	; (80011f8 <HAL_RCC_OscConfig+0x270>)
 800111e:	2201      	movs	r2, #1
 8001120:	601a      	str	r2, [r3, #0]

        /* Get Start Tick */
        tickstart = HAL_GetTick();
 8001122:	f7ff fc7d 	bl	8000a20 <HAL_GetTick>
 8001126:	6138      	str	r0, [r7, #16]

        /* Wait till HSI is ready */
        while (__HAL_RCC_GET_FLAG(RCC_FLAG_HSIRDY) == RESET)
 8001128:	e008      	b.n	800113c <HAL_RCC_OscConfig+0x1b4>
        {
          if ((HAL_GetTick() - tickstart) > HSI_TIMEOUT_VALUE)
 800112a:	f7ff fc79 	bl	8000a20 <HAL_GetTick>
 800112e:	4602      	mov	r2, r0
 8001130:	693b      	ldr	r3, [r7, #16]
 8001132:	1ad3      	subs	r3, r2, r3
 8001134:	2b02      	cmp	r3, #2
 8001136:	d901      	bls.n	800113c <HAL_RCC_OscConfig+0x1b4>
          {
            return HAL_TIMEOUT;
 8001138:	2303      	movs	r3, #3
 800113a:	e1a1      	b.n	8001480 <HAL_RCC_OscConfig+0x4f8>
        while (__HAL_RCC_GET_FLAG(RCC_FLAG_HSIRDY) == RESET)
 800113c:	4b2d      	ldr	r3, [pc, #180]	; (80011f4 <HAL_RCC_OscConfig+0x26c>)
 800113e:	681b      	ldr	r3, [r3, #0]
 8001140:	f003 0302 	and.w	r3, r3, #2
 8001144:	2b00      	cmp	r3, #0
 8001146:	d0f0      	beq.n	800112a <HAL_RCC_OscConfig+0x1a2>
          }
        }

        /* Adjusts the Internal High Speed oscillator (HSI) calibration value.*/
        __HAL_RCC_HSI_CALIBRATIONVALUE_ADJUST(RCC_OscInitStruct->HSICalibrationValue);
 8001148:	4b2a      	ldr	r3, [pc, #168]	; (80011f4 <HAL_RCC_OscConfig+0x26c>)
 800114a:	681b      	ldr	r3, [r3, #0]
 800114c:	f023 02f8 	bic.w	r2, r3, #248	; 0xf8
 8001150:	687b      	ldr	r3, [r7, #4]
 8001152:	695b      	ldr	r3, [r3, #20]
 8001154:	00db      	lsls	r3, r3, #3
 8001156:	4927      	ldr	r1, [pc, #156]	; (80011f4 <HAL_RCC_OscConfig+0x26c>)
 8001158:	4313      	orrs	r3, r2
 800115a:	600b      	str	r3, [r1, #0]
 800115c:	e015      	b.n	800118a <HAL_RCC_OscConfig+0x202>
      }
      else
      {
        /* Disable the Internal High Speed oscillator (HSI). */
        __HAL_RCC_HSI_DISABLE();
 800115e:	4b26      	ldr	r3, [pc, #152]	; (80011f8 <HAL_RCC_OscConfig+0x270>)
 8001160:	2200      	movs	r2, #0
 8001162:	601a      	str	r2, [r3, #0]

        /* Get Start Tick */
        tickstart = HAL_GetTick();
 8001164:	f7ff fc5c 	bl	8000a20 <HAL_GetTick>
 8001168:	6138      	str	r0, [r7, #16]

        /* Wait till HSI is disabled */
        while (__HAL_RCC_GET_FLAG(RCC_FLAG_HSIRDY) != RESET)
 800116a:	e008      	b.n	800117e <HAL_RCC_OscConfig+0x1f6>
        {
          if ((HAL_GetTick() - tickstart) > HSI_TIMEOUT_VALUE)
 800116c:	f7ff fc58 	bl	8000a20 <HAL_GetTick>
 8001170:	4602      	mov	r2, r0
 8001172:	693b      	ldr	r3, [r7, #16]
 8001174:	1ad3      	subs	r3, r2, r3
 8001176:	2b02      	cmp	r3, #2
 8001178:	d901      	bls.n	800117e <HAL_RCC_OscConfig+0x1f6>
          {
            return HAL_TIMEOUT;
 800117a:	2303      	movs	r3, #3
 800117c:	e180      	b.n	8001480 <HAL_RCC_OscConfig+0x4f8>
        while (__HAL_RCC_GET_FLAG(RCC_FLAG_HSIRDY) != RESET)
 800117e:	4b1d      	ldr	r3, [pc, #116]	; (80011f4 <HAL_RCC_OscConfig+0x26c>)
 8001180:	681b      	ldr	r3, [r3, #0]
 8001182:	f003 0302 	and.w	r3, r3, #2
 8001186:	2b00      	cmp	r3, #0
 8001188:	d1f0      	bne.n	800116c <HAL_RCC_OscConfig+0x1e4>
        }
      }
    }
  }
  /*------------------------------ LSI Configuration -------------------------*/
  if (((RCC_OscInitStruct->OscillatorType) & RCC_OSCILLATORTYPE_LSI) == RCC_OSCILLATORTYPE_LSI)
 800118a:	687b      	ldr	r3, [r7, #4]
 800118c:	681b      	ldr	r3, [r3, #0]
 800118e:	f003 0308 	and.w	r3, r3, #8
 8001192:	2b00      	cmp	r3, #0
 8001194:	d03a      	beq.n	800120c <HAL_RCC_OscConfig+0x284>
  {
    /* Check the parameters */
    assert_param(IS_RCC_LSI(RCC_OscInitStruct->LSIState));

    /* Check the LSI State */
    if (RCC_OscInitStruct->LSIState != RCC_LSI_OFF)
 8001196:	687b      	ldr	r3, [r7, #4]
 8001198:	699b      	ldr	r3, [r3, #24]
 800119a:	2b00      	cmp	r3, #0
 800119c:	d019      	beq.n	80011d2 <HAL_RCC_OscConfig+0x24a>
    {
      /* Enable the Internal Low Speed oscillator (LSI). */
      __HAL_RCC_LSI_ENABLE();
 800119e:	4b17      	ldr	r3, [pc, #92]	; (80011fc <HAL_RCC_OscConfig+0x274>)
 80011a0:	2201      	movs	r2, #1
 80011a2:	601a      	str	r2, [r3, #0]

      /* Get Start Tick */
      tickstart = HAL_GetTick();
 80011a4:	f7ff fc3c 	bl	8000a20 <HAL_GetTick>
 80011a8:	6138      	str	r0, [r7, #16]

      /* Wait till LSI is ready */
      while (__HAL_RCC_GET_FLAG(RCC_FLAG_LSIRDY) == RESET)
 80011aa:	e008      	b.n	80011be <HAL_RCC_OscConfig+0x236>
      {
        if ((HAL_GetTick() - tickstart) > LSI_TIMEOUT_VALUE)
 80011ac:	f7ff fc38 	bl	8000a20 <HAL_GetTick>
 80011b0:	4602      	mov	r2, r0
 80011b2:	693b      	ldr	r3, [r7, #16]
 80011b4:	1ad3      	subs	r3, r2, r3
 80011b6:	2b02      	cmp	r3, #2
 80011b8:	d901      	bls.n	80011be <HAL_RCC_OscConfig+0x236>
        {
          return HAL_TIMEOUT;
 80011ba:	2303      	movs	r3, #3
 80011bc:	e160      	b.n	8001480 <HAL_RCC_OscConfig+0x4f8>
      while (__HAL_RCC_GET_FLAG(RCC_FLAG_LSIRDY) == RESET)
 80011be:	4b0d      	ldr	r3, [pc, #52]	; (80011f4 <HAL_RCC_OscConfig+0x26c>)
 80011c0:	6a5b      	ldr	r3, [r3, #36]	; 0x24
 80011c2:	f003 0302 	and.w	r3, r3, #2
 80011c6:	2b00      	cmp	r3, #0
 80011c8:	d0f0      	beq.n	80011ac <HAL_RCC_OscConfig+0x224>
        }
      }
      /*  To have a fully stabilized clock in the specified range, a software delay of 1ms
          should be added.*/
      RCC_Delay(1);
 80011ca:	2001      	movs	r0, #1
 80011cc:	f000 faa6 	bl	800171c <RCC_Delay>
 80011d0:	e01c      	b.n	800120c <HAL_RCC_OscConfig+0x284>
    }
    else
    {
      /* Disable the Internal Low Speed oscillator (LSI). */
      __HAL_RCC_LSI_DISABLE();
 80011d2:	4b0a      	ldr	r3, [pc, #40]	; (80011fc <HAL_RCC_OscConfig+0x274>)
 80011d4:	2200      	movs	r2, #0
 80011d6:	601a      	str	r2, [r3, #0]

      /* Get Start Tick */
      tickstart = HAL_GetTick();
 80011d8:	f7ff fc22 	bl	8000a20 <HAL_GetTick>
 80011dc:	6138      	str	r0, [r7, #16]

      /* Wait till LSI is disabled */
      while (__HAL_RCC_GET_FLAG(RCC_FLAG_LSIRDY) != RESET)
 80011de:	e00f      	b.n	8001200 <HAL_RCC_OscConfig+0x278>
      {
        if ((HAL_GetTick() - tickstart) > LSI_TIMEOUT_VALUE)
 80011e0:	f7ff fc1e 	bl	8000a20 <HAL_GetTick>
 80011e4:	4602      	mov	r2, r0
 80011e6:	693b      	ldr	r3, [r7, #16]
 80011e8:	1ad3      	subs	r3, r2, r3
 80011ea:	2b02      	cmp	r3, #2
 80011ec:	d908      	bls.n	8001200 <HAL_RCC_OscConfig+0x278>
        {
          return HAL_TIMEOUT;
 80011ee:	2303      	movs	r3, #3
 80011f0:	e146      	b.n	8001480 <HAL_RCC_OscConfig+0x4f8>
 80011f2:	bf00      	nop
 80011f4:	40021000 	.word	0x40021000
 80011f8:	42420000 	.word	0x42420000
 80011fc:	42420480 	.word	0x42420480
      while (__HAL_RCC_GET_FLAG(RCC_FLAG_LSIRDY) != RESET)
 8001200:	4b92      	ldr	r3, [pc, #584]	; (800144c <HAL_RCC_OscConfig+0x4c4>)
 8001202:	6a5b      	ldr	r3, [r3, #36]	; 0x24
 8001204:	f003 0302 	and.w	r3, r3, #2
 8001208:	2b00      	cmp	r3, #0
 800120a:	d1e9      	bne.n	80011e0 <HAL_RCC_OscConfig+0x258>
        }
      }
    }
  }
  /*------------------------------ LSE Configuration -------------------------*/
  if (((RCC_OscInitStruct->OscillatorType) & RCC_OSCILLATORTYPE_LSE) == RCC_OSCILLATORTYPE_LSE)
 800120c:	687b      	ldr	r3, [r7, #4]
 800120e:	681b      	ldr	r3, [r3, #0]
 8001210:	f003 0304 	and.w	r3, r3, #4
 8001214:	2b00      	cmp	r3, #0
 8001216:	f000 80a6 	beq.w	8001366 <HAL_RCC_OscConfig+0x3de>
  {
    FlagStatus       pwrclkchanged = RESET;
 800121a:	2300      	movs	r3, #0
 800121c:	75fb      	strb	r3, [r7, #23]
    /* Check the parameters */
    assert_param(IS_RCC_LSE(RCC_OscInitStruct->LSEState));

    /* Update LSE configuration in Backup Domain control register    */
    /* Requires to enable write access to Backup Domain of necessary */
    if (__HAL_RCC_PWR_IS_CLK_DISABLED())
 800121e:	4b8b      	ldr	r3, [pc, #556]	; (800144c <HAL_RCC_OscConfig+0x4c4>)
 8001220:	69db      	ldr	r3, [r3, #28]
 8001222:	f003 5380 	and.w	r3, r3, #268435456	; 0x10000000
 8001226:	2b00      	cmp	r3, #0
 8001228:	d10d      	bne.n	8001246 <HAL_RCC_OscConfig+0x2be>
    {
      __HAL_RCC_PWR_CLK_ENABLE();
 800122a:	4b88      	ldr	r3, [pc, #544]	; (800144c <HAL_RCC_OscConfig+0x4c4>)
 800122c:	69db      	ldr	r3, [r3, #28]
 800122e:	4a87      	ldr	r2, [pc, #540]	; (800144c <HAL_RCC_OscConfig+0x4c4>)
 8001230:	f043 5380 	orr.w	r3, r3, #268435456	; 0x10000000
 8001234:	61d3      	str	r3, [r2, #28]
 8001236:	4b85      	ldr	r3, [pc, #532]	; (800144c <HAL_RCC_OscConfig+0x4c4>)
 8001238:	69db      	ldr	r3, [r3, #28]
 800123a:	f003 5380 	and.w	r3, r3, #268435456	; 0x10000000
 800123e:	60bb      	str	r3, [r7, #8]
 8001240:	68bb      	ldr	r3, [r7, #8]
      pwrclkchanged = SET;
 8001242:	2301      	movs	r3, #1
 8001244:	75fb      	strb	r3, [r7, #23]
    }

    if (HAL_IS_BIT_CLR(PWR->CR, PWR_CR_DBP))
 8001246:	4b82      	ldr	r3, [pc, #520]	; (8001450 <HAL_RCC_OscConfig+0x4c8>)
 8001248:	681b      	ldr	r3, [r3, #0]
 800124a:	f403 7380 	and.w	r3, r3, #256	; 0x100
 800124e:	2b00      	cmp	r3, #0
 8001250:	d118      	bne.n	8001284 <HAL_RCC_OscConfig+0x2fc>
    {
      /* Enable write access to Backup domain */
      SET_BIT(PWR->CR, PWR_CR_DBP);
 8001252:	4b7f      	ldr	r3, [pc, #508]	; (8001450 <HAL_RCC_OscConfig+0x4c8>)
 8001254:	681b      	ldr	r3, [r3, #0]
 8001256:	4a7e      	ldr	r2, [pc, #504]	; (8001450 <HAL_RCC_OscConfig+0x4c8>)
 8001258:	f443 7380 	orr.w	r3, r3, #256	; 0x100
 800125c:	6013      	str	r3, [r2, #0]

      /* Wait for Backup domain Write protection disable */
      tickstart = HAL_GetTick();
 800125e:	f7ff fbdf 	bl	8000a20 <HAL_GetTick>
 8001262:	6138      	str	r0, [r7, #16]

      while (HAL_IS_BIT_CLR(PWR->CR, PWR_CR_DBP))
 8001264:	e008      	b.n	8001278 <HAL_RCC_OscConfig+0x2f0>
      {
        if ((HAL_GetTick() - tickstart) > RCC_DBP_TIMEOUT_VALUE)
 8001266:	f7ff fbdb 	bl	8000a20 <HAL_GetTick>
 800126a:	4602      	mov	r2, r0
 800126c:	693b      	ldr	r3, [r7, #16]
 800126e:	1ad3      	subs	r3, r2, r3
 8001270:	2b64      	cmp	r3, #100	; 0x64
 8001272:	d901      	bls.n	8001278 <HAL_RCC_OscConfig+0x2f0>
        {
          return HAL_TIMEOUT;
 8001274:	2303      	movs	r3, #3
 8001276:	e103      	b.n	8001480 <HAL_RCC_OscConfig+0x4f8>
      while (HAL_IS_BIT_CLR(PWR->CR, PWR_CR_DBP))
 8001278:	4b75      	ldr	r3, [pc, #468]	; (8001450 <HAL_RCC_OscConfig+0x4c8>)
 800127a:	681b      	ldr	r3, [r3, #0]
 800127c:	f403 7380 	and.w	r3, r3, #256	; 0x100
 8001280:	2b00      	cmp	r3, #0
 8001282:	d0f0      	beq.n	8001266 <HAL_RCC_OscConfig+0x2de>
        }
      }
    }

    /* Set the new LSE configuration -----------------------------------------*/
    __HAL_RCC_LSE_CONFIG(RCC_OscInitStruct->LSEState);
 8001284:	687b      	ldr	r3, [r7, #4]
 8001286:	68db      	ldr	r3, [r3, #12]
 8001288:	2b01      	cmp	r3, #1
 800128a:	d106      	bne.n	800129a <HAL_RCC_OscConfig+0x312>
 800128c:	4b6f      	ldr	r3, [pc, #444]	; (800144c <HAL_RCC_OscConfig+0x4c4>)
 800128e:	6a1b      	ldr	r3, [r3, #32]
 8001290:	4a6e      	ldr	r2, [pc, #440]	; (800144c <HAL_RCC_OscConfig+0x4c4>)
 8001292:	f043 0301 	orr.w	r3, r3, #1
 8001296:	6213      	str	r3, [r2, #32]
 8001298:	e02d      	b.n	80012f6 <HAL_RCC_OscConfig+0x36e>
 800129a:	687b      	ldr	r3, [r7, #4]
 800129c:	68db      	ldr	r3, [r3, #12]
 800129e:	2b00      	cmp	r3, #0
 80012a0:	d10c      	bne.n	80012bc <HAL_RCC_OscConfig+0x334>
 80012a2:	4b6a      	ldr	r3, [pc, #424]	; (800144c <HAL_RCC_OscConfig+0x4c4>)
 80012a4:	6a1b      	ldr	r3, [r3, #32]
 80012a6:	4a69      	ldr	r2, [pc, #420]	; (800144c <HAL_RCC_OscConfig+0x4c4>)
 80012a8:	f023 0301 	bic.w	r3, r3, #1
 80012ac:	6213      	str	r3, [r2, #32]
 80012ae:	4b67      	ldr	r3, [pc, #412]	; (800144c <HAL_RCC_OscConfig+0x4c4>)
 80012b0:	6a1b      	ldr	r3, [r3, #32]
 80012b2:	4a66      	ldr	r2, [pc, #408]	; (800144c <HAL_RCC_OscConfig+0x4c4>)
 80012b4:	f023 0304 	bic.w	r3, r3, #4
 80012b8:	6213      	str	r3, [r2, #32]
 80012ba:	e01c      	b.n	80012f6 <HAL_RCC_OscConfig+0x36e>
 80012bc:	687b      	ldr	r3, [r7, #4]
 80012be:	68db      	ldr	r3, [r3, #12]
 80012c0:	2b05      	cmp	r3, #5
 80012c2:	d10c      	bne.n	80012de <HAL_RCC_OscConfig+0x356>
 80012c4:	4b61      	ldr	r3, [pc, #388]	; (800144c <HAL_RCC_OscConfig+0x4c4>)
 80012c6:	6a1b      	ldr	r3, [r3, #32]
 80012c8:	4a60      	ldr	r2, [pc, #384]	; (800144c <HAL_RCC_OscConfig+0x4c4>)
 80012ca:	f043 0304 	orr.w	r3, r3, #4
 80012ce:	6213      	str	r3, [r2, #32]
 80012d0:	4b5e      	ldr	r3, [pc, #376]	; (800144c <HAL_RCC_OscConfig+0x4c4>)
 80012d2:	6a1b      	ldr	r3, [r3, #32]
 80012d4:	4a5d      	ldr	r2, [pc, #372]	; (800144c <HAL_RCC_OscConfig+0x4c4>)
 80012d6:	f043 0301 	orr.w	r3, r3, #1
 80012da:	6213      	str	r3, [r2, #32]
 80012dc:	e00b      	b.n	80012f6 <HAL_RCC_OscConfig+0x36e>
 80012de:	4b5b      	ldr	r3, [pc, #364]	; (800144c <HAL_RCC_OscConfig+0x4c4>)
 80012e0:	6a1b      	ldr	r3, [r3, #32]
 80012e2:	4a5a      	ldr	r2, [pc, #360]	; (800144c <HAL_RCC_OscConfig+0x4c4>)
 80012e4:	f023 0301 	bic.w	r3, r3, #1
 80012e8:	6213      	str	r3, [r2, #32]
 80012ea:	4b58      	ldr	r3, [pc, #352]	; (800144c <HAL_RCC_OscConfig+0x4c4>)
 80012ec:	6a1b      	ldr	r3, [r3, #32]
 80012ee:	4a57      	ldr	r2, [pc, #348]	; (800144c <HAL_RCC_OscConfig+0x4c4>)
 80012f0:	f023 0304 	bic.w	r3, r3, #4
 80012f4:	6213      	str	r3, [r2, #32]
    /* Check the LSE State */
    if (RCC_OscInitStruct->LSEState != RCC_LSE_OFF)
 80012f6:	687b      	ldr	r3, [r7, #4]
 80012f8:	68db      	ldr	r3, [r3, #12]
 80012fa:	2b00      	cmp	r3, #0
 80012fc:	d015      	beq.n	800132a <HAL_RCC_OscConfig+0x3a2>
    {
      /* Get Start Tick */
      tickstart = HAL_GetTick();
 80012fe:	f7ff fb8f 	bl	8000a20 <HAL_GetTick>
 8001302:	6138      	str	r0, [r7, #16]

      /* Wait till LSE is ready */
      while (__HAL_RCC_GET_FLAG(RCC_FLAG_LSERDY) == RESET)
 8001304:	e00a      	b.n	800131c <HAL_RCC_OscConfig+0x394>
      {
        if ((HAL_GetTick() - tickstart) > RCC_LSE_TIMEOUT_VALUE)
 8001306:	f7ff fb8b 	bl	8000a20 <HAL_GetTick>
 800130a:	4602      	mov	r2, r0
 800130c:	693b      	ldr	r3, [r7, #16]
 800130e:	1ad3      	subs	r3, r2, r3
 8001310:	f241 3288 	movw	r2, #5000	; 0x1388
 8001314:	4293      	cmp	r3, r2
 8001316:	d901      	bls.n	800131c <HAL_RCC_OscConfig+0x394>
        {
          return HAL_TIMEOUT;
 8001318:	2303      	movs	r3, #3
 800131a:	e0b1      	b.n	8001480 <HAL_RCC_OscConfig+0x4f8>
      while (__HAL_RCC_GET_FLAG(RCC_FLAG_LSERDY) == RESET)
 800131c:	4b4b      	ldr	r3, [pc, #300]	; (800144c <HAL_RCC_OscConfig+0x4c4>)
 800131e:	6a1b      	ldr	r3, [r3, #32]
 8001320:	f003 0302 	and.w	r3, r3, #2
 8001324:	2b00      	cmp	r3, #0
 8001326:	d0ee      	beq.n	8001306 <HAL_RCC_OscConfig+0x37e>
 8001328:	e014      	b.n	8001354 <HAL_RCC_OscConfig+0x3cc>
      }
    }
    else
    {
      /* Get Start Tick */
      tickstart = HAL_GetTick();
 800132a:	f7ff fb79 	bl	8000a20 <HAL_GetTick>
 800132e:	6138      	str	r0, [r7, #16]

      /* Wait till LSE is disabled */
      while (__HAL_RCC_GET_FLAG(RCC_FLAG_LSERDY) != RESET)
 8001330:	e00a      	b.n	8001348 <HAL_RCC_OscConfig+0x3c0>
      {
        if ((HAL_GetTick() - tickstart) > RCC_LSE_TIMEOUT_VALUE)
 8001332:	f7ff fb75 	bl	8000a20 <HAL_GetTick>
 8001336:	4602      	mov	r2, r0
 8001338:	693b      	ldr	r3, [r7, #16]
 800133a:	1ad3      	subs	r3, r2, r3
 800133c:	f241 3288 	movw	r2, #5000	; 0x1388
 8001340:	4293      	cmp	r3, r2
 8001342:	d901      	bls.n	8001348 <HAL_RCC_OscConfig+0x3c0>
        {
          return HAL_TIMEOUT;
 8001344:	2303      	movs	r3, #3
 8001346:	e09b      	b.n	8001480 <HAL_RCC_OscConfig+0x4f8>
      while (__HAL_RCC_GET_FLAG(RCC_FLAG_LSERDY) != RESET)
 8001348:	4b40      	ldr	r3, [pc, #256]	; (800144c <HAL_RCC_OscConfig+0x4c4>)
 800134a:	6a1b      	ldr	r3, [r3, #32]
 800134c:	f003 0302 	and.w	r3, r3, #2
 8001350:	2b00      	cmp	r3, #0
 8001352:	d1ee      	bne.n	8001332 <HAL_RCC_OscConfig+0x3aa>
        }
      }
    }

    /* Require to disable power clock if necessary */
    if (pwrclkchanged == SET)
 8001354:	7dfb      	ldrb	r3, [r7, #23]
 8001356:	2b01      	cmp	r3, #1
 8001358:	d105      	bne.n	8001366 <HAL_RCC_OscConfig+0x3de>
    {
      __HAL_RCC_PWR_CLK_DISABLE();
 800135a:	4b3c      	ldr	r3, [pc, #240]	; (800144c <HAL_RCC_OscConfig+0x4c4>)
 800135c:	69db      	ldr	r3, [r3, #28]
 800135e:	4a3b      	ldr	r2, [pc, #236]	; (800144c <HAL_RCC_OscConfig+0x4c4>)
 8001360:	f023 5380 	bic.w	r3, r3, #268435456	; 0x10000000
 8001364:	61d3      	str	r3, [r2, #28]

#endif /* RCC_CR_PLL2ON */
  /*-------------------------------- PLL Configuration -----------------------*/
  /* Check the parameters */
  assert_param(IS_RCC_PLL(RCC_OscInitStruct->PLL.PLLState));
  if ((RCC_OscInitStruct->PLL.PLLState) != RCC_PLL_NONE)
 8001366:	687b      	ldr	r3, [r7, #4]
 8001368:	69db      	ldr	r3, [r3, #28]
 800136a:	2b00      	cmp	r3, #0
 800136c:	f000 8087 	beq.w	800147e <HAL_RCC_OscConfig+0x4f6>
  {
    /* Check if the PLL is used as system clock or not */
    if (__HAL_RCC_GET_SYSCLK_SOURCE() != RCC_SYSCLKSOURCE_STATUS_PLLCLK)
 8001370:	4b36      	ldr	r3, [pc, #216]	; (800144c <HAL_RCC_OscConfig+0x4c4>)
 8001372:	685b      	ldr	r3, [r3, #4]
 8001374:	f003 030c 	and.w	r3, r3, #12
 8001378:	2b08      	cmp	r3, #8
 800137a:	d061      	beq.n	8001440 <HAL_RCC_OscConfig+0x4b8>
    {
      if ((RCC_OscInitStruct->PLL.PLLState) == RCC_PLL_ON)
 800137c:	687b      	ldr	r3, [r7, #4]
 800137e:	69db      	ldr	r3, [r3, #28]
 8001380:	2b02      	cmp	r3, #2
 8001382:	d146      	bne.n	8001412 <HAL_RCC_OscConfig+0x48a>
        /* Check the parameters */
        assert_param(IS_RCC_PLLSOURCE(RCC_OscInitStruct->PLL.PLLSource));
        assert_param(IS_RCC_PLL_MUL(RCC_OscInitStruct->PLL.PLLMUL));

        /* Disable the main PLL. */
        __HAL_RCC_PLL_DISABLE();
 8001384:	4b33      	ldr	r3, [pc, #204]	; (8001454 <HAL_RCC_OscConfig+0x4cc>)
 8001386:	2200      	movs	r2, #0
 8001388:	601a      	str	r2, [r3, #0]

        /* Get Start Tick */
        tickstart = HAL_GetTick();
 800138a:	f7ff fb49 	bl	8000a20 <HAL_GetTick>
 800138e:	6138      	str	r0, [r7, #16]

        /* Wait till PLL is disabled */
        while (__HAL_RCC_GET_FLAG(RCC_FLAG_PLLRDY)  != RESET)
 8001390:	e008      	b.n	80013a4 <HAL_RCC_OscConfig+0x41c>
        {
          if ((HAL_GetTick() - tickstart) > PLL_TIMEOUT_VALUE)
 8001392:	f7ff fb45 	bl	8000a20 <HAL_GetTick>
 8001396:	4602      	mov	r2, r0
 8001398:	693b      	ldr	r3, [r7, #16]
 800139a:	1ad3      	subs	r3, r2, r3
 800139c:	2b02      	cmp	r3, #2
 800139e:	d901      	bls.n	80013a4 <HAL_RCC_OscConfig+0x41c>
          {
            return HAL_TIMEOUT;
 80013a0:	2303      	movs	r3, #3
 80013a2:	e06d      	b.n	8001480 <HAL_RCC_OscConfig+0x4f8>
        while (__HAL_RCC_GET_FLAG(RCC_FLAG_PLLRDY)  != RESET)
 80013a4:	4b29      	ldr	r3, [pc, #164]	; (800144c <HAL_RCC_OscConfig+0x4c4>)
 80013a6:	681b      	ldr	r3, [r3, #0]
 80013a8:	f003 7300 	and.w	r3, r3, #33554432	; 0x2000000
 80013ac:	2b00      	cmp	r3, #0
 80013ae:	d1f0      	bne.n	8001392 <HAL_RCC_OscConfig+0x40a>
          }
        }

        /* Configure the HSE prediv factor --------------------------------*/
        /* It can be written only when the PLL is disabled. Not used in PLL source is different than HSE */
        if (RCC_OscInitStruct->PLL.PLLSource == RCC_PLLSOURCE_HSE)
 80013b0:	687b      	ldr	r3, [r7, #4]
 80013b2:	6a1b      	ldr	r3, [r3, #32]
 80013b4:	f5b3 3f80 	cmp.w	r3, #65536	; 0x10000
 80013b8:	d108      	bne.n	80013cc <HAL_RCC_OscConfig+0x444>
          /* Set PREDIV1 source */
          SET_BIT(RCC->CFGR2, RCC_OscInitStruct->Prediv1Source);
#endif /* RCC_CFGR2_PREDIV1SRC */

          /* Set PREDIV1 Value */
          __HAL_RCC_HSE_PREDIV_CONFIG(RCC_OscInitStruct->HSEPredivValue);
 80013ba:	4b24      	ldr	r3, [pc, #144]	; (800144c <HAL_RCC_OscConfig+0x4c4>)
 80013bc:	685b      	ldr	r3, [r3, #4]
 80013be:	f423 3200 	bic.w	r2, r3, #131072	; 0x20000
 80013c2:	687b      	ldr	r3, [r7, #4]
 80013c4:	689b      	ldr	r3, [r3, #8]
 80013c6:	4921      	ldr	r1, [pc, #132]	; (800144c <HAL_RCC_OscConfig+0x4c4>)
 80013c8:	4313      	orrs	r3, r2
 80013ca:	604b      	str	r3, [r1, #4]
        }

        /* Configure the main PLL clock source and multiplication factors. */
        __HAL_RCC_PLL_CONFIG(RCC_OscInitStruct->PLL.PLLSource,
 80013cc:	4b1f      	ldr	r3, [pc, #124]	; (800144c <HAL_RCC_OscConfig+0x4c4>)
 80013ce:	685b      	ldr	r3, [r3, #4]
 80013d0:	f423 1274 	bic.w	r2, r3, #3997696	; 0x3d0000
 80013d4:	687b      	ldr	r3, [r7, #4]
 80013d6:	6a19      	ldr	r1, [r3, #32]
 80013d8:	687b      	ldr	r3, [r7, #4]
 80013da:	6a5b      	ldr	r3, [r3, #36]	; 0x24
 80013dc:	430b      	orrs	r3, r1
 80013de:	491b      	ldr	r1, [pc, #108]	; (800144c <HAL_RCC_OscConfig+0x4c4>)
 80013e0:	4313      	orrs	r3, r2
 80013e2:	604b      	str	r3, [r1, #4]
                             RCC_OscInitStruct->PLL.PLLMUL);
        /* Enable the main PLL. */
        __HAL_RCC_PLL_ENABLE();
 80013e4:	4b1b      	ldr	r3, [pc, #108]	; (8001454 <HAL_RCC_OscConfig+0x4cc>)
 80013e6:	2201      	movs	r2, #1
 80013e8:	601a      	str	r2, [r3, #0]

        /* Get Start Tick */
        tickstart = HAL_GetTick();
 80013ea:	f7ff fb19 	bl	8000a20 <HAL_GetTick>
 80013ee:	6138      	str	r0, [r7, #16]

        /* Wait till PLL is ready */
        while (__HAL_RCC_GET_FLAG(RCC_FLAG_PLLRDY)  == RESET)
 80013f0:	e008      	b.n	8001404 <HAL_RCC_OscConfig+0x47c>
        {
          if ((HAL_GetTick() - tickstart) > PLL_TIMEOUT_VALUE)
 80013f2:	f7ff fb15 	bl	8000a20 <HAL_GetTick>
 80013f6:	4602      	mov	r2, r0
 80013f8:	693b      	ldr	r3, [r7, #16]
 80013fa:	1ad3      	subs	r3, r2, r3
 80013fc:	2b02      	cmp	r3, #2
 80013fe:	d901      	bls.n	8001404 <HAL_RCC_OscConfig+0x47c>
          {
            return HAL_TIMEOUT;
 8001400:	2303      	movs	r3, #3
 8001402:	e03d      	b.n	8001480 <HAL_RCC_OscConfig+0x4f8>
        while (__HAL_RCC_GET_FLAG(RCC_FLAG_PLLRDY)  == RESET)
 8001404:	4b11      	ldr	r3, [pc, #68]	; (800144c <HAL_RCC_OscConfig+0x4c4>)
 8001406:	681b      	ldr	r3, [r3, #0]
 8001408:	f003 7300 	and.w	r3, r3, #33554432	; 0x2000000
 800140c:	2b00      	cmp	r3, #0
 800140e:	d0f0      	beq.n	80013f2 <HAL_RCC_OscConfig+0x46a>
 8001410:	e035      	b.n	800147e <HAL_RCC_OscConfig+0x4f6>
        }
      }
      else
      {
        /* Disable the main PLL. */
        __HAL_RCC_PLL_DISABLE();
 8001412:	4b10      	ldr	r3, [pc, #64]	; (8001454 <HAL_RCC_OscConfig+0x4cc>)
 8001414:	2200      	movs	r2, #0
 8001416:	601a      	str	r2, [r3, #0]

        /* Get Start Tick */
        tickstart = HAL_GetTick();
 8001418:	f7ff fb02 	bl	8000a20 <HAL_GetTick>
 800141c:	6138      	str	r0, [r7, #16]

        /* Wait till PLL is disabled */
        while (__HAL_RCC_GET_FLAG(RCC_FLAG_PLLRDY)  != RESET)
 800141e:	e008      	b.n	8001432 <HAL_RCC_OscConfig+0x4aa>
        {
          if ((HAL_GetTick() - tickstart) > PLL_TIMEOUT_VALUE)
 8001420:	f7ff fafe 	bl	8000a20 <HAL_GetTick>
 8001424:	4602      	mov	r2, r0
 8001426:	693b      	ldr	r3, [r7, #16]
 8001428:	1ad3      	subs	r3, r2, r3
 800142a:	2b02      	cmp	r3, #2
 800142c:	d901      	bls.n	8001432 <HAL_RCC_OscConfig+0x4aa>
          {
            return HAL_TIMEOUT;
 800142e:	2303      	movs	r3, #3
 8001430:	e026      	b.n	8001480 <HAL_RCC_OscConfig+0x4f8>
        while (__HAL_RCC_GET_FLAG(RCC_FLAG_PLLRDY)  != RESET)
 8001432:	4b06      	ldr	r3, [pc, #24]	; (800144c <HAL_RCC_OscConfig+0x4c4>)
 8001434:	681b      	ldr	r3, [r3, #0]
 8001436:	f003 7300 	and.w	r3, r3, #33554432	; 0x2000000
 800143a:	2b00      	cmp	r3, #0
 800143c:	d1f0      	bne.n	8001420 <HAL_RCC_OscConfig+0x498>
 800143e:	e01e      	b.n	800147e <HAL_RCC_OscConfig+0x4f6>
      }
    }
    else
    {
      /* Check if there is a request to disable the PLL used as System clock source */
      if ((RCC_OscInitStruct->PLL.PLLState) == RCC_PLL_OFF)
 8001440:	687b      	ldr	r3, [r7, #4]
 8001442:	69db      	ldr	r3, [r3, #28]
 8001444:	2b01      	cmp	r3, #1
 8001446:	d107      	bne.n	8001458 <HAL_RCC_OscConfig+0x4d0>
      {
        return HAL_ERROR;
 8001448:	2301      	movs	r3, #1
 800144a:	e019      	b.n	8001480 <HAL_RCC_OscConfig+0x4f8>
 800144c:	40021000 	.word	0x40021000
 8001450:	40007000 	.word	0x40007000
 8001454:	42420060 	.word	0x42420060
      }
      else
      {
        /* Do not return HAL_ERROR if request repeats the current configuration */
        pll_config = RCC->CFGR;
 8001458:	4b0b      	ldr	r3, [pc, #44]	; (8001488 <HAL_RCC_OscConfig+0x500>)
 800145a:	685b      	ldr	r3, [r3, #4]
 800145c:	60fb      	str	r3, [r7, #12]
        if ((READ_BIT(pll_config, RCC_CFGR_PLLSRC) != RCC_OscInitStruct->PLL.PLLSource) ||
 800145e:	68fb      	ldr	r3, [r7, #12]
 8001460:	f403 3280 	and.w	r2, r3, #65536	; 0x10000
 8001464:	687b      	ldr	r3, [r7, #4]
 8001466:	6a1b      	ldr	r3, [r3, #32]
 8001468:	429a      	cmp	r2, r3
 800146a:	d106      	bne.n	800147a <HAL_RCC_OscConfig+0x4f2>
            (READ_BIT(pll_config, RCC_CFGR_PLLMULL) != RCC_OscInitStruct->PLL.PLLMUL))
 800146c:	68fb      	ldr	r3, [r7, #12]
 800146e:	f403 1270 	and.w	r2, r3, #3932160	; 0x3c0000
 8001472:	687b      	ldr	r3, [r7, #4]
 8001474:	6a5b      	ldr	r3, [r3, #36]	; 0x24
        if ((READ_BIT(pll_config, RCC_CFGR_PLLSRC) != RCC_OscInitStruct->PLL.PLLSource) ||
 8001476:	429a      	cmp	r2, r3
 8001478:	d001      	beq.n	800147e <HAL_RCC_OscConfig+0x4f6>
        {
          return HAL_ERROR;
 800147a:	2301      	movs	r3, #1
 800147c:	e000      	b.n	8001480 <HAL_RCC_OscConfig+0x4f8>
        }
      }
    }
  }

  return HAL_OK;
 800147e:	2300      	movs	r3, #0
}
 8001480:	4618      	mov	r0, r3
 8001482:	3718      	adds	r7, #24
 8001484:	46bd      	mov	sp, r7
 8001486:	bd80      	pop	{r7, pc}
 8001488:	40021000 	.word	0x40021000

0800148c <HAL_RCC_ClockConfig>:
  *         You can use @ref HAL_RCC_GetClockConfig() function to know which clock is
  *         currently used as system clock source.
  * @retval HAL status
  */
HAL_StatusTypeDef HAL_RCC_ClockConfig(RCC_ClkInitTypeDef  *RCC_ClkInitStruct, uint32_t FLatency)
{
 800148c:	b580      	push	{r7, lr}
 800148e:	b084      	sub	sp, #16
 8001490:	af00      	add	r7, sp, #0
 8001492:	6078      	str	r0, [r7, #4]
 8001494:	6039      	str	r1, [r7, #0]
  uint32_t tickstart;

  /* Check Null pointer */
  if (RCC_ClkInitStruct == NULL)
 8001496:	687b      	ldr	r3, [r7, #4]
 8001498:	2b00      	cmp	r3, #0
 800149a:	d101      	bne.n	80014a0 <HAL_RCC_ClockConfig+0x14>
  {
    return HAL_ERROR;
 800149c:	2301      	movs	r3, #1
 800149e:	e0d0      	b.n	8001642 <HAL_RCC_ClockConfig+0x1b6>
  must be correctly programmed according to the frequency of the CPU clock
    (HCLK) of the device. */

#if defined(FLASH_ACR_LATENCY)
  /* Increasing the number of wait states because of higher CPU frequency */
  if (FLatency > __HAL_FLASH_GET_LATENCY())
 80014a0:	4b6a      	ldr	r3, [pc, #424]	; (800164c <HAL_RCC_ClockConfig+0x1c0>)
 80014a2:	681b      	ldr	r3, [r3, #0]
 80014a4:	f003 0307 	and.w	r3, r3, #7
 80014a8:	683a      	ldr	r2, [r7, #0]
 80014aa:	429a      	cmp	r2, r3
 80014ac:	d910      	bls.n	80014d0 <HAL_RCC_ClockConfig+0x44>
  {
    /* Program the new number of wait states to the LATENCY bits in the FLASH_ACR register */
    __HAL_FLASH_SET_LATENCY(FLatency);
 80014ae:	4b67      	ldr	r3, [pc, #412]	; (800164c <HAL_RCC_ClockConfig+0x1c0>)
 80014b0:	681b      	ldr	r3, [r3, #0]
 80014b2:	f023 0207 	bic.w	r2, r3, #7
 80014b6:	4965      	ldr	r1, [pc, #404]	; (800164c <HAL_RCC_ClockConfig+0x1c0>)
 80014b8:	683b      	ldr	r3, [r7, #0]
 80014ba:	4313      	orrs	r3, r2
 80014bc:	600b      	str	r3, [r1, #0]

    /* Check that the new number of wait states is taken into account to access the Flash
    memory by reading the FLASH_ACR register */
    if (__HAL_FLASH_GET_LATENCY() != FLatency)
 80014be:	4b63      	ldr	r3, [pc, #396]	; (800164c <HAL_RCC_ClockConfig+0x1c0>)
 80014c0:	681b      	ldr	r3, [r3, #0]
 80014c2:	f003 0307 	and.w	r3, r3, #7
 80014c6:	683a      	ldr	r2, [r7, #0]
 80014c8:	429a      	cmp	r2, r3
 80014ca:	d001      	beq.n	80014d0 <HAL_RCC_ClockConfig+0x44>
  {
    return HAL_ERROR;
 80014cc:	2301      	movs	r3, #1
 80014ce:	e0b8      	b.n	8001642 <HAL_RCC_ClockConfig+0x1b6>
  }
}

#endif /* FLASH_ACR_LATENCY */
/*-------------------------- HCLK Configuration --------------------------*/
if (((RCC_ClkInitStruct->ClockType) & RCC_CLOCKTYPE_HCLK) == RCC_CLOCKTYPE_HCLK)
 80014d0:	687b      	ldr	r3, [r7, #4]
 80014d2:	681b      	ldr	r3, [r3, #0]
 80014d4:	f003 0302 	and.w	r3, r3, #2
 80014d8:	2b00      	cmp	r3, #0
 80014da:	d020      	beq.n	800151e <HAL_RCC_ClockConfig+0x92>
  {
    /* Set the highest APBx dividers in order to ensure that we do not go through
    a non-spec phase whatever we decrease or increase HCLK. */
    if (((RCC_ClkInitStruct->ClockType) & RCC_CLOCKTYPE_PCLK1) == RCC_CLOCKTYPE_PCLK1)
 80014dc:	687b      	ldr	r3, [r7, #4]
 80014de:	681b      	ldr	r3, [r3, #0]
 80014e0:	f003 0304 	and.w	r3, r3, #4
 80014e4:	2b00      	cmp	r3, #0
 80014e6:	d005      	beq.n	80014f4 <HAL_RCC_ClockConfig+0x68>
    {
      MODIFY_REG(RCC->CFGR, RCC_CFGR_PPRE1, RCC_HCLK_DIV16);
 80014e8:	4b59      	ldr	r3, [pc, #356]	; (8001650 <HAL_RCC_ClockConfig+0x1c4>)
 80014ea:	685b      	ldr	r3, [r3, #4]
 80014ec:	4a58      	ldr	r2, [pc, #352]	; (8001650 <HAL_RCC_ClockConfig+0x1c4>)
 80014ee:	f443 63e0 	orr.w	r3, r3, #1792	; 0x700
 80014f2:	6053      	str	r3, [r2, #4]
    }

    if (((RCC_ClkInitStruct->ClockType) & RCC_CLOCKTYPE_PCLK2) == RCC_CLOCKTYPE_PCLK2)
 80014f4:	687b      	ldr	r3, [r7, #4]
 80014f6:	681b      	ldr	r3, [r3, #0]
 80014f8:	f003 0308 	and.w	r3, r3, #8
 80014fc:	2b00      	cmp	r3, #0
 80014fe:	d005      	beq.n	800150c <HAL_RCC_ClockConfig+0x80>
    {
      MODIFY_REG(RCC->CFGR, RCC_CFGR_PPRE2, (RCC_HCLK_DIV16 << 3));
 8001500:	4b53      	ldr	r3, [pc, #332]	; (8001650 <HAL_RCC_ClockConfig+0x1c4>)
 8001502:	685b      	ldr	r3, [r3, #4]
 8001504:	4a52      	ldr	r2, [pc, #328]	; (8001650 <HAL_RCC_ClockConfig+0x1c4>)
 8001506:	f443 5360 	orr.w	r3, r3, #14336	; 0x3800
 800150a:	6053      	str	r3, [r2, #4]
    }

    /* Set the new HCLK clock divider */
    assert_param(IS_RCC_HCLK(RCC_ClkInitStruct->AHBCLKDivider));
    MODIFY_REG(RCC->CFGR, RCC_CFGR_HPRE, RCC_ClkInitStruct->AHBCLKDivider);
 800150c:	4b50      	ldr	r3, [pc, #320]	; (8001650 <HAL_RCC_ClockConfig+0x1c4>)
 800150e:	685b      	ldr	r3, [r3, #4]
 8001510:	f023 02f0 	bic.w	r2, r3, #240	; 0xf0
 8001514:	687b      	ldr	r3, [r7, #4]
 8001516:	689b      	ldr	r3, [r3, #8]
 8001518:	494d      	ldr	r1, [pc, #308]	; (8001650 <HAL_RCC_ClockConfig+0x1c4>)
 800151a:	4313      	orrs	r3, r2
 800151c:	604b      	str	r3, [r1, #4]
  }

  /*------------------------- SYSCLK Configuration ---------------------------*/
  if (((RCC_ClkInitStruct->ClockType) & RCC_CLOCKTYPE_SYSCLK) == RCC_CLOCKTYPE_SYSCLK)
 800151e:	687b      	ldr	r3, [r7, #4]
 8001520:	681b      	ldr	r3, [r3, #0]
 8001522:	f003 0301 	and.w	r3, r3, #1
 8001526:	2b00      	cmp	r3, #0
 8001528:	d040      	beq.n	80015ac <HAL_RCC_ClockConfig+0x120>
  {
    assert_param(IS_RCC_SYSCLKSOURCE(RCC_ClkInitStruct->SYSCLKSource));

    /* HSE is selected as System Clock Source */
    if (RCC_ClkInitStruct->SYSCLKSource == RCC_SYSCLKSOURCE_HSE)
 800152a:	687b      	ldr	r3, [r7, #4]
 800152c:	685b      	ldr	r3, [r3, #4]
 800152e:	2b01      	cmp	r3, #1
 8001530:	d107      	bne.n	8001542 <HAL_RCC_ClockConfig+0xb6>
    {
      /* Check the HSE ready flag */
      if (__HAL_RCC_GET_FLAG(RCC_FLAG_HSERDY) == RESET)
 8001532:	4b47      	ldr	r3, [pc, #284]	; (8001650 <HAL_RCC_ClockConfig+0x1c4>)
 8001534:	681b      	ldr	r3, [r3, #0]
 8001536:	f403 3300 	and.w	r3, r3, #131072	; 0x20000
 800153a:	2b00      	cmp	r3, #0
 800153c:	d115      	bne.n	800156a <HAL_RCC_ClockConfig+0xde>
      {
        return HAL_ERROR;
 800153e:	2301      	movs	r3, #1
 8001540:	e07f      	b.n	8001642 <HAL_RCC_ClockConfig+0x1b6>
      }
    }
    /* PLL is selected as System Clock Source */
    else if (RCC_ClkInitStruct->SYSCLKSource == RCC_SYSCLKSOURCE_PLLCLK)
 8001542:	687b      	ldr	r3, [r7, #4]
 8001544:	685b      	ldr	r3, [r3, #4]
 8001546:	2b02      	cmp	r3, #2
 8001548:	d107      	bne.n	800155a <HAL_RCC_ClockConfig+0xce>
    {
      /* Check the PLL ready flag */
      if (__HAL_RCC_GET_FLAG(RCC_FLAG_PLLRDY) == RESET)
 800154a:	4b41      	ldr	r3, [pc, #260]	; (8001650 <HAL_RCC_ClockConfig+0x1c4>)
 800154c:	681b      	ldr	r3, [r3, #0]
 800154e:	f003 7300 	and.w	r3, r3, #33554432	; 0x2000000
 8001552:	2b00      	cmp	r3, #0
 8001554:	d109      	bne.n	800156a <HAL_RCC_ClockConfig+0xde>
      {
        return HAL_ERROR;
 8001556:	2301      	movs	r3, #1
 8001558:	e073      	b.n	8001642 <HAL_RCC_ClockConfig+0x1b6>
    }
    /* HSI is selected as System Clock Source */
    else
    {
      /* Check the HSI ready flag */
      if (__HAL_RCC_GET_FLAG(RCC_FLAG_HSIRDY) == RESET)
 800155a:	4b3d      	ldr	r3, [pc, #244]	; (8001650 <HAL_RCC_ClockConfig+0x1c4>)
 800155c:	681b      	ldr	r3, [r3, #0]
 800155e:	f003 0302 	and.w	r3, r3, #2
 8001562:	2b00      	cmp	r3, #0
 8001564:	d101      	bne.n	800156a <HAL_RCC_ClockConfig+0xde>
      {
        return HAL_ERROR;
 8001566:	2301      	movs	r3, #1
 8001568:	e06b      	b.n	8001642 <HAL_RCC_ClockConfig+0x1b6>
      }
    }
    __HAL_RCC_SYSCLK_CONFIG(RCC_ClkInitStruct->SYSCLKSource);
 800156a:	4b39      	ldr	r3, [pc, #228]	; (8001650 <HAL_RCC_ClockConfig+0x1c4>)
 800156c:	685b      	ldr	r3, [r3, #4]
 800156e:	f023 0203 	bic.w	r2, r3, #3
 8001572:	687b      	ldr	r3, [r7, #4]
 8001574:	685b      	ldr	r3, [r3, #4]
 8001576:	4936      	ldr	r1, [pc, #216]	; (8001650 <HAL_RCC_ClockConfig+0x1c4>)
 8001578:	4313      	orrs	r3, r2
 800157a:	604b      	str	r3, [r1, #4]

    /* Get Start Tick */
    tickstart = HAL_GetTick();
 800157c:	f7ff fa50 	bl	8000a20 <HAL_GetTick>
 8001580:	60f8      	str	r0, [r7, #12]

    while (__HAL_RCC_GET_SYSCLK_SOURCE() != (RCC_ClkInitStruct->SYSCLKSource << RCC_CFGR_SWS_Pos))
 8001582:	e00a      	b.n	800159a <HAL_RCC_ClockConfig+0x10e>
    {
      if ((HAL_GetTick() - tickstart) > CLOCKSWITCH_TIMEOUT_VALUE)
 8001584:	f7ff fa4c 	bl	8000a20 <HAL_GetTick>
 8001588:	4602      	mov	r2, r0
 800158a:	68fb      	ldr	r3, [r7, #12]
 800158c:	1ad3      	subs	r3, r2, r3
 800158e:	f241 3288 	movw	r2, #5000	; 0x1388
 8001592:	4293      	cmp	r3, r2
 8001594:	d901      	bls.n	800159a <HAL_RCC_ClockConfig+0x10e>
      {
        return HAL_TIMEOUT;
 8001596:	2303      	movs	r3, #3
 8001598:	e053      	b.n	8001642 <HAL_RCC_ClockConfig+0x1b6>
    while (__HAL_RCC_GET_SYSCLK_SOURCE() != (RCC_ClkInitStruct->SYSCLKSource << RCC_CFGR_SWS_Pos))
 800159a:	4b2d      	ldr	r3, [pc, #180]	; (8001650 <HAL_RCC_ClockConfig+0x1c4>)
 800159c:	685b      	ldr	r3, [r3, #4]
 800159e:	f003 020c 	and.w	r2, r3, #12
 80015a2:	687b      	ldr	r3, [r7, #4]
 80015a4:	685b      	ldr	r3, [r3, #4]
 80015a6:	009b      	lsls	r3, r3, #2
 80015a8:	429a      	cmp	r2, r3
 80015aa:	d1eb      	bne.n	8001584 <HAL_RCC_ClockConfig+0xf8>
    }
  }

#if defined(FLASH_ACR_LATENCY)
  /* Decreasing the number of wait states because of lower CPU frequency */
  if (FLatency < __HAL_FLASH_GET_LATENCY())
 80015ac:	4b27      	ldr	r3, [pc, #156]	; (800164c <HAL_RCC_ClockConfig+0x1c0>)
 80015ae:	681b      	ldr	r3, [r3, #0]
 80015b0:	f003 0307 	and.w	r3, r3, #7
 80015b4:	683a      	ldr	r2, [r7, #0]
 80015b6:	429a      	cmp	r2, r3
 80015b8:	d210      	bcs.n	80015dc <HAL_RCC_ClockConfig+0x150>
  {
    /* Program the new number of wait states to the LATENCY bits in the FLASH_ACR register */
    __HAL_FLASH_SET_LATENCY(FLatency);
 80015ba:	4b24      	ldr	r3, [pc, #144]	; (800164c <HAL_RCC_ClockConfig+0x1c0>)
 80015bc:	681b      	ldr	r3, [r3, #0]
 80015be:	f023 0207 	bic.w	r2, r3, #7
 80015c2:	4922      	ldr	r1, [pc, #136]	; (800164c <HAL_RCC_ClockConfig+0x1c0>)
 80015c4:	683b      	ldr	r3, [r7, #0]
 80015c6:	4313      	orrs	r3, r2
 80015c8:	600b      	str	r3, [r1, #0]

    /* Check that the new number of wait states is taken into account to access the Flash
    memory by reading the FLASH_ACR register */
    if (__HAL_FLASH_GET_LATENCY() != FLatency)
 80015ca:	4b20      	ldr	r3, [pc, #128]	; (800164c <HAL_RCC_ClockConfig+0x1c0>)
 80015cc:	681b      	ldr	r3, [r3, #0]
 80015ce:	f003 0307 	and.w	r3, r3, #7
 80015d2:	683a      	ldr	r2, [r7, #0]
 80015d4:	429a      	cmp	r2, r3
 80015d6:	d001      	beq.n	80015dc <HAL_RCC_ClockConfig+0x150>
  {
    return HAL_ERROR;
 80015d8:	2301      	movs	r3, #1
 80015da:	e032      	b.n	8001642 <HAL_RCC_ClockConfig+0x1b6>
  }
}
#endif /* FLASH_ACR_LATENCY */

/*-------------------------- PCLK1 Configuration ---------------------------*/
if (((RCC_ClkInitStruct->ClockType) & RCC_CLOCKTYPE_PCLK1) == RCC_CLOCKTYPE_PCLK1)
 80015dc:	687b      	ldr	r3, [r7, #4]
 80015de:	681b      	ldr	r3, [r3, #0]
 80015e0:	f003 0304 	and.w	r3, r3, #4
 80015e4:	2b00      	cmp	r3, #0
 80015e6:	d008      	beq.n	80015fa <HAL_RCC_ClockConfig+0x16e>
  {
    assert_param(IS_RCC_PCLK(RCC_ClkInitStruct->APB1CLKDivider));
    MODIFY_REG(RCC->CFGR, RCC_CFGR_PPRE1, RCC_ClkInitStruct->APB1CLKDivider);
 80015e8:	4b19      	ldr	r3, [pc, #100]	; (8001650 <HAL_RCC_ClockConfig+0x1c4>)
 80015ea:	685b      	ldr	r3, [r3, #4]
 80015ec:	f423 62e0 	bic.w	r2, r3, #1792	; 0x700
 80015f0:	687b      	ldr	r3, [r7, #4]
 80015f2:	68db      	ldr	r3, [r3, #12]
 80015f4:	4916      	ldr	r1, [pc, #88]	; (8001650 <HAL_RCC_ClockConfig+0x1c4>)
 80015f6:	4313      	orrs	r3, r2
 80015f8:	604b      	str	r3, [r1, #4]
  }

  /*-------------------------- PCLK2 Configuration ---------------------------*/
  if (((RCC_ClkInitStruct->ClockType) & RCC_CLOCKTYPE_PCLK2) == RCC_CLOCKTYPE_PCLK2)
 80015fa:	687b      	ldr	r3, [r7, #4]
 80015fc:	681b      	ldr	r3, [r3, #0]
 80015fe:	f003 0308 	and.w	r3, r3, #8
 8001602:	2b00      	cmp	r3, #0
 8001604:	d009      	beq.n	800161a <HAL_RCC_ClockConfig+0x18e>
  {
    assert_param(IS_RCC_PCLK(RCC_ClkInitStruct->APB2CLKDivider));
    MODIFY_REG(RCC->CFGR, RCC_CFGR_PPRE2, ((RCC_ClkInitStruct->APB2CLKDivider) << 3));
 8001606:	4b12      	ldr	r3, [pc, #72]	; (8001650 <HAL_RCC_ClockConfig+0x1c4>)
 8001608:	685b      	ldr	r3, [r3, #4]
 800160a:	f423 5260 	bic.w	r2, r3, #14336	; 0x3800
 800160e:	687b      	ldr	r3, [r7, #4]
 8001610:	691b      	ldr	r3, [r3, #16]
 8001612:	00db      	lsls	r3, r3, #3
 8001614:	490e      	ldr	r1, [pc, #56]	; (8001650 <HAL_RCC_ClockConfig+0x1c4>)
 8001616:	4313      	orrs	r3, r2
 8001618:	604b      	str	r3, [r1, #4]
  }

  /* Update the SystemCoreClock global variable */
  SystemCoreClock = HAL_RCC_GetSysClockFreq() >> AHBPrescTable[(RCC->CFGR & RCC_CFGR_HPRE) >> RCC_CFGR_HPRE_Pos];
 800161a:	f000 f821 	bl	8001660 <HAL_RCC_GetSysClockFreq>
 800161e:	4602      	mov	r2, r0
 8001620:	4b0b      	ldr	r3, [pc, #44]	; (8001650 <HAL_RCC_ClockConfig+0x1c4>)
 8001622:	685b      	ldr	r3, [r3, #4]
 8001624:	091b      	lsrs	r3, r3, #4
 8001626:	f003 030f 	and.w	r3, r3, #15
 800162a:	490a      	ldr	r1, [pc, #40]	; (8001654 <HAL_RCC_ClockConfig+0x1c8>)
 800162c:	5ccb      	ldrb	r3, [r1, r3]
 800162e:	fa22 f303 	lsr.w	r3, r2, r3
 8001632:	4a09      	ldr	r2, [pc, #36]	; (8001658 <HAL_RCC_ClockConfig+0x1cc>)
 8001634:	6013      	str	r3, [r2, #0]

  /* Configure the source of time base considering new system clocks settings*/
  HAL_InitTick(uwTickPrio);
 8001636:	4b09      	ldr	r3, [pc, #36]	; (800165c <HAL_RCC_ClockConfig+0x1d0>)
 8001638:	681b      	ldr	r3, [r3, #0]
 800163a:	4618      	mov	r0, r3
 800163c:	f7ff f9ae 	bl	800099c <HAL_InitTick>

  return HAL_OK;
 8001640:	2300      	movs	r3, #0
}
 8001642:	4618      	mov	r0, r3
 8001644:	3710      	adds	r7, #16
 8001646:	46bd      	mov	sp, r7
 8001648:	bd80      	pop	{r7, pc}
 800164a:	bf00      	nop
 800164c:	40022000 	.word	0x40022000
 8001650:	40021000 	.word	0x40021000
 8001654:	08002604 	.word	0x08002604
 8001658:	20000000 	.word	0x20000000
 800165c:	20000004 	.word	0x20000004

08001660 <HAL_RCC_GetSysClockFreq>:
  *         right SYSCLK value. Otherwise, any configuration based on this function will be incorrect.
  *
  * @retval SYSCLK frequency
  */
uint32_t HAL_RCC_GetSysClockFreq(void)
{
 8001660:	b490      	push	{r4, r7}
 8001662:	b08a      	sub	sp, #40	; 0x28
 8001664:	af00      	add	r7, sp, #0
#if defined(RCC_CFGR2_PREDIV1SRC)
  const uint8_t aPLLMULFactorTable[14] = {0, 0, 4, 5, 6, 7, 8, 9, 0, 0, 0, 0, 0, 13};
  const uint8_t aPredivFactorTable[16] = {1, 2, 3, 4, 5, 6, 7, 8, 9, 10, 11, 12, 13, 14, 15, 16};
#else
  const uint8_t aPLLMULFactorTable[16] = {2, 3, 4, 5, 6, 7, 8, 9, 10, 11, 12, 13, 14, 15, 16, 16};
 8001666:	4b29      	ldr	r3, [pc, #164]	; (800170c <HAL_RCC_GetSysClockFreq+0xac>)
 8001668:	1d3c      	adds	r4, r7, #4
 800166a:	cb0f      	ldmia	r3, {r0, r1, r2, r3}
 800166c:	e884 000f 	stmia.w	r4, {r0, r1, r2, r3}
#if defined(RCC_CFGR2_PREDIV1)
  const uint8_t aPredivFactorTable[16] = {1, 2, 3, 4, 5, 6, 7, 8, 9, 10, 11, 12, 13, 14, 15, 16};
#else
  const uint8_t aPredivFactorTable[2] = {1, 2};
 8001670:	f240 2301 	movw	r3, #513	; 0x201
 8001674:	803b      	strh	r3, [r7, #0]
#endif /*RCC_CFGR2_PREDIV1*/

#endif
  uint32_t tmpreg = 0U, prediv = 0U, pllclk = 0U, pllmul = 0U;
 8001676:	2300      	movs	r3, #0
 8001678:	61fb      	str	r3, [r7, #28]
 800167a:	2300      	movs	r3, #0
 800167c:	61bb      	str	r3, [r7, #24]
 800167e:	2300      	movs	r3, #0
 8001680:	627b      	str	r3, [r7, #36]	; 0x24
 8001682:	2300      	movs	r3, #0
 8001684:	617b      	str	r3, [r7, #20]
  uint32_t sysclockfreq = 0U;
 8001686:	2300      	movs	r3, #0
 8001688:	623b      	str	r3, [r7, #32]
#if defined(RCC_CFGR2_PREDIV1SRC)
  uint32_t prediv2 = 0U, pll2mul = 0U;
#endif /*RCC_CFGR2_PREDIV1SRC*/

  tmpreg = RCC->CFGR;
 800168a:	4b21      	ldr	r3, [pc, #132]	; (8001710 <HAL_RCC_GetSysClockFreq+0xb0>)
 800168c:	685b      	ldr	r3, [r3, #4]
 800168e:	61fb      	str	r3, [r7, #28]

  /* Get SYSCLK source -------------------------------------------------------*/
  switch (tmpreg & RCC_CFGR_SWS)
 8001690:	69fb      	ldr	r3, [r7, #28]
 8001692:	f003 030c 	and.w	r3, r3, #12
 8001696:	2b04      	cmp	r3, #4
 8001698:	d002      	beq.n	80016a0 <HAL_RCC_GetSysClockFreq+0x40>
 800169a:	2b08      	cmp	r3, #8
 800169c:	d003      	beq.n	80016a6 <HAL_RCC_GetSysClockFreq+0x46>
 800169e:	e02b      	b.n	80016f8 <HAL_RCC_GetSysClockFreq+0x98>
  {
    case RCC_SYSCLKSOURCE_STATUS_HSE:  /* HSE used as system clock */
    {
      sysclockfreq = HSE_VALUE;
 80016a0:	4b1c      	ldr	r3, [pc, #112]	; (8001714 <HAL_RCC_GetSysClockFreq+0xb4>)
 80016a2:	623b      	str	r3, [r7, #32]
      break;
 80016a4:	e02b      	b.n	80016fe <HAL_RCC_GetSysClockFreq+0x9e>
    }
    case RCC_SYSCLKSOURCE_STATUS_PLLCLK:  /* PLL used as system clock */
    {
      pllmul = aPLLMULFactorTable[(uint32_t)(tmpreg & RCC_CFGR_PLLMULL) >> RCC_CFGR_PLLMULL_Pos];
 80016a6:	69fb      	ldr	r3, [r7, #28]
 80016a8:	0c9b      	lsrs	r3, r3, #18
 80016aa:	f003 030f 	and.w	r3, r3, #15
 80016ae:	3328      	adds	r3, #40	; 0x28
 80016b0:	443b      	add	r3, r7
 80016b2:	f813 3c24 	ldrb.w	r3, [r3, #-36]
 80016b6:	617b      	str	r3, [r7, #20]
      if ((tmpreg & RCC_CFGR_PLLSRC) != RCC_PLLSOURCE_HSI_DIV2)
 80016b8:	69fb      	ldr	r3, [r7, #28]
 80016ba:	f403 3380 	and.w	r3, r3, #65536	; 0x10000
 80016be:	2b00      	cmp	r3, #0
 80016c0:	d012      	beq.n	80016e8 <HAL_RCC_GetSysClockFreq+0x88>
      {
#if defined(RCC_CFGR2_PREDIV1)
        prediv = aPredivFactorTable[(uint32_t)(RCC->CFGR2 & RCC_CFGR2_PREDIV1) >> RCC_CFGR2_PREDIV1_Pos];
#else
        prediv = aPredivFactorTable[(uint32_t)(RCC->CFGR & RCC_CFGR_PLLXTPRE) >> RCC_CFGR_PLLXTPRE_Pos];
 80016c2:	4b13      	ldr	r3, [pc, #76]	; (8001710 <HAL_RCC_GetSysClockFreq+0xb0>)
 80016c4:	685b      	ldr	r3, [r3, #4]
 80016c6:	0c5b      	lsrs	r3, r3, #17
 80016c8:	f003 0301 	and.w	r3, r3, #1
 80016cc:	3328      	adds	r3, #40	; 0x28
 80016ce:	443b      	add	r3, r7
 80016d0:	f813 3c28 	ldrb.w	r3, [r3, #-40]
 80016d4:	61bb      	str	r3, [r7, #24]
        {
          pllclk = pllclk / 2;
        }
#else
        /* HSE used as PLL clock source : PLLCLK = HSE/PREDIV1 * PLLMUL */
        pllclk = (uint32_t)((HSE_VALUE  * pllmul) / prediv);
 80016d6:	697b      	ldr	r3, [r7, #20]
 80016d8:	4a0e      	ldr	r2, [pc, #56]	; (8001714 <HAL_RCC_GetSysClockFreq+0xb4>)
 80016da:	fb03 f202 	mul.w	r2, r3, r2
 80016de:	69bb      	ldr	r3, [r7, #24]
 80016e0:	fbb2 f3f3 	udiv	r3, r2, r3
 80016e4:	627b      	str	r3, [r7, #36]	; 0x24
 80016e6:	e004      	b.n	80016f2 <HAL_RCC_GetSysClockFreq+0x92>
#endif /*RCC_CFGR2_PREDIV1SRC*/
      }
      else
      {
        /* HSI used as PLL clock source : PLLCLK = HSI/2 * PLLMUL */
        pllclk = (uint32_t)((HSI_VALUE >> 1) * pllmul);
 80016e8:	697b      	ldr	r3, [r7, #20]
 80016ea:	4a0b      	ldr	r2, [pc, #44]	; (8001718 <HAL_RCC_GetSysClockFreq+0xb8>)
 80016ec:	fb02 f303 	mul.w	r3, r2, r3
 80016f0:	627b      	str	r3, [r7, #36]	; 0x24
      }
      sysclockfreq = pllclk;
 80016f2:	6a7b      	ldr	r3, [r7, #36]	; 0x24
 80016f4:	623b      	str	r3, [r7, #32]
      break;
 80016f6:	e002      	b.n	80016fe <HAL_RCC_GetSysClockFreq+0x9e>
    }
    case RCC_SYSCLKSOURCE_STATUS_HSI:  /* HSI used as system clock source */
    default: /* HSI used as system clock */
    {
      sysclockfreq = HSI_VALUE;
 80016f8:	4b06      	ldr	r3, [pc, #24]	; (8001714 <HAL_RCC_GetSysClockFreq+0xb4>)
 80016fa:	623b      	str	r3, [r7, #32]
      break;
 80016fc:	bf00      	nop
    }
  }
  return sysclockfreq;
 80016fe:	6a3b      	ldr	r3, [r7, #32]
}
 8001700:	4618      	mov	r0, r3
 8001702:	3728      	adds	r7, #40	; 0x28
 8001704:	46bd      	mov	sp, r7
 8001706:	bc90      	pop	{r4, r7}
 8001708:	4770      	bx	lr
 800170a:	bf00      	nop
 800170c:	080025f4 	.word	0x080025f4
 8001710:	40021000 	.word	0x40021000
 8001714:	007a1200 	.word	0x007a1200
 8001718:	003d0900 	.word	0x003d0900

0800171c <RCC_Delay>:
  * @brief  This function provides delay (in milliseconds) based on CPU cycles method.
  * @param  mdelay: specifies the delay time length, in milliseconds.
  * @retval None
  */
static void RCC_Delay(uint32_t mdelay)
{
 800171c:	b480      	push	{r7}
 800171e:	b085      	sub	sp, #20
 8001720:	af00      	add	r7, sp, #0
 8001722:	6078      	str	r0, [r7, #4]
  __IO uint32_t Delay = mdelay * (SystemCoreClock / 8U / 1000U);
 8001724:	4b0a      	ldr	r3, [pc, #40]	; (8001750 <RCC_Delay+0x34>)
 8001726:	681b      	ldr	r3, [r3, #0]
 8001728:	4a0a      	ldr	r2, [pc, #40]	; (8001754 <RCC_Delay+0x38>)
 800172a:	fba2 2303 	umull	r2, r3, r2, r3
 800172e:	0a5b      	lsrs	r3, r3, #9
 8001730:	687a      	ldr	r2, [r7, #4]
 8001732:	fb02 f303 	mul.w	r3, r2, r3
 8001736:	60fb      	str	r3, [r7, #12]
  do
  {
    __NOP();
 8001738:	bf00      	nop
  }
  while (Delay --);
 800173a:	68fb      	ldr	r3, [r7, #12]
 800173c:	1e5a      	subs	r2, r3, #1
 800173e:	60fa      	str	r2, [r7, #12]
 8001740:	2b00      	cmp	r3, #0
 8001742:	d1f9      	bne.n	8001738 <RCC_Delay+0x1c>
}
 8001744:	bf00      	nop
 8001746:	bf00      	nop
 8001748:	3714      	adds	r7, #20
 800174a:	46bd      	mov	sp, r7
 800174c:	bc80      	pop	{r7}
 800174e:	4770      	bx	lr
 8001750:	20000000 	.word	0x20000000
 8001754:	10624dd3 	.word	0x10624dd3

08001758 <HAL_TIM_Base_Init>:
  *         Ex: call @ref HAL_TIM_Base_DeInit() before HAL_TIM_Base_Init()
  * @param  htim TIM Base handle
  * @retval HAL status
  */
HAL_StatusTypeDef HAL_TIM_Base_Init(TIM_HandleTypeDef *htim)
{
 8001758:	b580      	push	{r7, lr}
 800175a:	b082      	sub	sp, #8
 800175c:	af00      	add	r7, sp, #0
 800175e:	6078      	str	r0, [r7, #4]
  /* Check the TIM handle allocation */
  if (htim == NULL)
 8001760:	687b      	ldr	r3, [r7, #4]
 8001762:	2b00      	cmp	r3, #0
 8001764:	d101      	bne.n	800176a <HAL_TIM_Base_Init+0x12>
  {
    return HAL_ERROR;
 8001766:	2301      	movs	r3, #1
 8001768:	e041      	b.n	80017ee <HAL_TIM_Base_Init+0x96>
  assert_param(IS_TIM_INSTANCE(htim->Instance));
  assert_param(IS_TIM_COUNTER_MODE(htim->Init.CounterMode));
  assert_param(IS_TIM_CLOCKDIVISION_DIV(htim->Init.ClockDivision));
  assert_param(IS_TIM_AUTORELOAD_PRELOAD(htim->Init.AutoReloadPreload));

  if (htim->State == HAL_TIM_STATE_RESET)
 800176a:	687b      	ldr	r3, [r7, #4]
 800176c:	f893 303d 	ldrb.w	r3, [r3, #61]	; 0x3d
 8001770:	b2db      	uxtb	r3, r3
 8001772:	2b00      	cmp	r3, #0
 8001774:	d106      	bne.n	8001784 <HAL_TIM_Base_Init+0x2c>
  {
    /* Allocate lock resource and initialize it */
    htim->Lock = HAL_UNLOCKED;
 8001776:	687b      	ldr	r3, [r7, #4]
 8001778:	2200      	movs	r2, #0
 800177a:	f883 203c 	strb.w	r2, [r3, #60]	; 0x3c
    }
    /* Init the low level hardware : GPIO, CLOCK, NVIC */
    htim->Base_MspInitCallback(htim);
#else
    /* Init the low level hardware : GPIO, CLOCK, NVIC */
    HAL_TIM_Base_MspInit(htim);
 800177e:	6878      	ldr	r0, [r7, #4]
 8001780:	f7ff f83e 	bl	8000800 <HAL_TIM_Base_MspInit>
#endif /* USE_HAL_TIM_REGISTER_CALLBACKS */
  }

  /* Set the TIM state */
  htim->State = HAL_TIM_STATE_BUSY;
 8001784:	687b      	ldr	r3, [r7, #4]
 8001786:	2202      	movs	r2, #2
 8001788:	f883 203d 	strb.w	r2, [r3, #61]	; 0x3d

  /* Set the Time Base configuration */
  TIM_Base_SetConfig(htim->Instance, &htim->Init);
 800178c:	687b      	ldr	r3, [r7, #4]
 800178e:	681a      	ldr	r2, [r3, #0]
 8001790:	687b      	ldr	r3, [r7, #4]
 8001792:	3304      	adds	r3, #4
 8001794:	4619      	mov	r1, r3
 8001796:	4610      	mov	r0, r2
 8001798:	f000 fbe0 	bl	8001f5c <TIM_Base_SetConfig>

  /* Initialize the DMA burst operation state */
  htim->DMABurstState = HAL_DMA_BURST_STATE_READY;
 800179c:	687b      	ldr	r3, [r7, #4]
 800179e:	2201      	movs	r2, #1
 80017a0:	f883 2046 	strb.w	r2, [r3, #70]	; 0x46

  /* Initialize the TIM channels state */
  TIM_CHANNEL_STATE_SET_ALL(htim, HAL_TIM_CHANNEL_STATE_READY);
 80017a4:	687b      	ldr	r3, [r7, #4]
 80017a6:	2201      	movs	r2, #1
 80017a8:	f883 203e 	strb.w	r2, [r3, #62]	; 0x3e
 80017ac:	687b      	ldr	r3, [r7, #4]
 80017ae:	2201      	movs	r2, #1
 80017b0:	f883 203f 	strb.w	r2, [r3, #63]	; 0x3f
 80017b4:	687b      	ldr	r3, [r7, #4]
 80017b6:	2201      	movs	r2, #1
 80017b8:	f883 2040 	strb.w	r2, [r3, #64]	; 0x40
 80017bc:	687b      	ldr	r3, [r7, #4]
 80017be:	2201      	movs	r2, #1
 80017c0:	f883 2041 	strb.w	r2, [r3, #65]	; 0x41
  TIM_CHANNEL_N_STATE_SET_ALL(htim, HAL_TIM_CHANNEL_STATE_READY);
 80017c4:	687b      	ldr	r3, [r7, #4]
 80017c6:	2201      	movs	r2, #1
 80017c8:	f883 2042 	strb.w	r2, [r3, #66]	; 0x42
 80017cc:	687b      	ldr	r3, [r7, #4]
 80017ce:	2201      	movs	r2, #1
 80017d0:	f883 2043 	strb.w	r2, [r3, #67]	; 0x43
 80017d4:	687b      	ldr	r3, [r7, #4]
 80017d6:	2201      	movs	r2, #1
 80017d8:	f883 2044 	strb.w	r2, [r3, #68]	; 0x44
 80017dc:	687b      	ldr	r3, [r7, #4]
 80017de:	2201      	movs	r2, #1
 80017e0:	f883 2045 	strb.w	r2, [r3, #69]	; 0x45

  /* Initialize the TIM state*/
  htim->State = HAL_TIM_STATE_READY;
 80017e4:	687b      	ldr	r3, [r7, #4]
 80017e6:	2201      	movs	r2, #1
 80017e8:	f883 203d 	strb.w	r2, [r3, #61]	; 0x3d

  return HAL_OK;
 80017ec:	2300      	movs	r3, #0
}
 80017ee:	4618      	mov	r0, r3
 80017f0:	3708      	adds	r7, #8
 80017f2:	46bd      	mov	sp, r7
 80017f4:	bd80      	pop	{r7, pc}

080017f6 <HAL_TIM_PWM_Init>:
  *         Ex: call @ref HAL_TIM_PWM_DeInit() before HAL_TIM_PWM_Init()
  * @param  htim TIM PWM handle
  * @retval HAL status
  */
HAL_StatusTypeDef HAL_TIM_PWM_Init(TIM_HandleTypeDef *htim)
{
 80017f6:	b580      	push	{r7, lr}
 80017f8:	b082      	sub	sp, #8
 80017fa:	af00      	add	r7, sp, #0
 80017fc:	6078      	str	r0, [r7, #4]
  /* Check the TIM handle allocation */
  if (htim == NULL)
 80017fe:	687b      	ldr	r3, [r7, #4]
 8001800:	2b00      	cmp	r3, #0
 8001802:	d101      	bne.n	8001808 <HAL_TIM_PWM_Init+0x12>
  {
    return HAL_ERROR;
 8001804:	2301      	movs	r3, #1
 8001806:	e041      	b.n	800188c <HAL_TIM_PWM_Init+0x96>
  assert_param(IS_TIM_INSTANCE(htim->Instance));
  assert_param(IS_TIM_COUNTER_MODE(htim->Init.CounterMode));
  assert_param(IS_TIM_CLOCKDIVISION_DIV(htim->Init.ClockDivision));
  assert_param(IS_TIM_AUTORELOAD_PRELOAD(htim->Init.AutoReloadPreload));

  if (htim->State == HAL_TIM_STATE_RESET)
 8001808:	687b      	ldr	r3, [r7, #4]
 800180a:	f893 303d 	ldrb.w	r3, [r3, #61]	; 0x3d
 800180e:	b2db      	uxtb	r3, r3
 8001810:	2b00      	cmp	r3, #0
 8001812:	d106      	bne.n	8001822 <HAL_TIM_PWM_Init+0x2c>
  {
    /* Allocate lock resource and initialize it */
    htim->Lock = HAL_UNLOCKED;
 8001814:	687b      	ldr	r3, [r7, #4]
 8001816:	2200      	movs	r2, #0
 8001818:	f883 203c 	strb.w	r2, [r3, #60]	; 0x3c
    }
    /* Init the low level hardware : GPIO, CLOCK, NVIC */
    htim->PWM_MspInitCallback(htim);
#else
    /* Init the low level hardware : GPIO, CLOCK, NVIC and DMA */
    HAL_TIM_PWM_MspInit(htim);
 800181c:	6878      	ldr	r0, [r7, #4]
 800181e:	f000 f839 	bl	8001894 <HAL_TIM_PWM_MspInit>
#endif /* USE_HAL_TIM_REGISTER_CALLBACKS */
  }

  /* Set the TIM state */
  htim->State = HAL_TIM_STATE_BUSY;
 8001822:	687b      	ldr	r3, [r7, #4]
 8001824:	2202      	movs	r2, #2
 8001826:	f883 203d 	strb.w	r2, [r3, #61]	; 0x3d

  /* Init the base time for the PWM */
  TIM_Base_SetConfig(htim->Instance, &htim->Init);
 800182a:	687b      	ldr	r3, [r7, #4]
 800182c:	681a      	ldr	r2, [r3, #0]
 800182e:	687b      	ldr	r3, [r7, #4]
 8001830:	3304      	adds	r3, #4
 8001832:	4619      	mov	r1, r3
 8001834:	4610      	mov	r0, r2
 8001836:	f000 fb91 	bl	8001f5c <TIM_Base_SetConfig>

  /* Initialize the DMA burst operation state */
  htim->DMABurstState = HAL_DMA_BURST_STATE_READY;
 800183a:	687b      	ldr	r3, [r7, #4]
 800183c:	2201      	movs	r2, #1
 800183e:	f883 2046 	strb.w	r2, [r3, #70]	; 0x46

  /* Initialize the TIM channels state */
  TIM_CHANNEL_STATE_SET_ALL(htim, HAL_TIM_CHANNEL_STATE_READY);
 8001842:	687b      	ldr	r3, [r7, #4]
 8001844:	2201      	movs	r2, #1
 8001846:	f883 203e 	strb.w	r2, [r3, #62]	; 0x3e
 800184a:	687b      	ldr	r3, [r7, #4]
 800184c:	2201      	movs	r2, #1
 800184e:	f883 203f 	strb.w	r2, [r3, #63]	; 0x3f
 8001852:	687b      	ldr	r3, [r7, #4]
 8001854:	2201      	movs	r2, #1
 8001856:	f883 2040 	strb.w	r2, [r3, #64]	; 0x40
 800185a:	687b      	ldr	r3, [r7, #4]
 800185c:	2201      	movs	r2, #1
 800185e:	f883 2041 	strb.w	r2, [r3, #65]	; 0x41
  TIM_CHANNEL_N_STATE_SET_ALL(htim, HAL_TIM_CHANNEL_STATE_READY);
 8001862:	687b      	ldr	r3, [r7, #4]
 8001864:	2201      	movs	r2, #1
 8001866:	f883 2042 	strb.w	r2, [r3, #66]	; 0x42
 800186a:	687b      	ldr	r3, [r7, #4]
 800186c:	2201      	movs	r2, #1
 800186e:	f883 2043 	strb.w	r2, [r3, #67]	; 0x43
 8001872:	687b      	ldr	r3, [r7, #4]
 8001874:	2201      	movs	r2, #1
 8001876:	f883 2044 	strb.w	r2, [r3, #68]	; 0x44
 800187a:	687b      	ldr	r3, [r7, #4]
 800187c:	2201      	movs	r2, #1
 800187e:	f883 2045 	strb.w	r2, [r3, #69]	; 0x45

  /* Initialize the TIM state*/
  htim->State = HAL_TIM_STATE_READY;
 8001882:	687b      	ldr	r3, [r7, #4]
 8001884:	2201      	movs	r2, #1
 8001886:	f883 203d 	strb.w	r2, [r3, #61]	; 0x3d

  return HAL_OK;
 800188a:	2300      	movs	r3, #0
}
 800188c:	4618      	mov	r0, r3
 800188e:	3708      	adds	r7, #8
 8001890:	46bd      	mov	sp, r7
 8001892:	bd80      	pop	{r7, pc}

08001894 <HAL_TIM_PWM_MspInit>:
  * @brief  Initializes the TIM PWM MSP.
  * @param  htim TIM PWM handle
  * @retval None
  */
__weak void HAL_TIM_PWM_MspInit(TIM_HandleTypeDef *htim)
{
 8001894:	b480      	push	{r7}
 8001896:	b083      	sub	sp, #12
 8001898:	af00      	add	r7, sp, #0
 800189a:	6078      	str	r0, [r7, #4]
  UNUSED(htim);

  /* NOTE : This function should not be modified, when the callback is needed,
            the HAL_TIM_PWM_MspInit could be implemented in the user file
   */
}
 800189c:	bf00      	nop
 800189e:	370c      	adds	r7, #12
 80018a0:	46bd      	mov	sp, r7
 80018a2:	bc80      	pop	{r7}
 80018a4:	4770      	bx	lr
	...

080018a8 <HAL_TIM_PWM_Start>:
  *            @arg TIM_CHANNEL_3: TIM Channel 3 selected
  *            @arg TIM_CHANNEL_4: TIM Channel 4 selected
  * @retval HAL status
  */
HAL_StatusTypeDef HAL_TIM_PWM_Start(TIM_HandleTypeDef *htim, uint32_t Channel)
{
 80018a8:	b580      	push	{r7, lr}
 80018aa:	b084      	sub	sp, #16
 80018ac:	af00      	add	r7, sp, #0
 80018ae:	6078      	str	r0, [r7, #4]
 80018b0:	6039      	str	r1, [r7, #0]

  /* Check the parameters */
  assert_param(IS_TIM_CCX_INSTANCE(htim->Instance, Channel));

  /* Check the TIM channel state */
  if (TIM_CHANNEL_STATE_GET(htim, Channel) != HAL_TIM_CHANNEL_STATE_READY)
 80018b2:	683b      	ldr	r3, [r7, #0]
 80018b4:	2b00      	cmp	r3, #0
 80018b6:	d109      	bne.n	80018cc <HAL_TIM_PWM_Start+0x24>
 80018b8:	687b      	ldr	r3, [r7, #4]
 80018ba:	f893 303e 	ldrb.w	r3, [r3, #62]	; 0x3e
 80018be:	b2db      	uxtb	r3, r3
 80018c0:	2b01      	cmp	r3, #1
 80018c2:	bf14      	ite	ne
 80018c4:	2301      	movne	r3, #1
 80018c6:	2300      	moveq	r3, #0
 80018c8:	b2db      	uxtb	r3, r3
 80018ca:	e022      	b.n	8001912 <HAL_TIM_PWM_Start+0x6a>
 80018cc:	683b      	ldr	r3, [r7, #0]
 80018ce:	2b04      	cmp	r3, #4
 80018d0:	d109      	bne.n	80018e6 <HAL_TIM_PWM_Start+0x3e>
 80018d2:	687b      	ldr	r3, [r7, #4]
 80018d4:	f893 303f 	ldrb.w	r3, [r3, #63]	; 0x3f
 80018d8:	b2db      	uxtb	r3, r3
 80018da:	2b01      	cmp	r3, #1
 80018dc:	bf14      	ite	ne
 80018de:	2301      	movne	r3, #1
 80018e0:	2300      	moveq	r3, #0
 80018e2:	b2db      	uxtb	r3, r3
 80018e4:	e015      	b.n	8001912 <HAL_TIM_PWM_Start+0x6a>
 80018e6:	683b      	ldr	r3, [r7, #0]
 80018e8:	2b08      	cmp	r3, #8
 80018ea:	d109      	bne.n	8001900 <HAL_TIM_PWM_Start+0x58>
 80018ec:	687b      	ldr	r3, [r7, #4]
 80018ee:	f893 3040 	ldrb.w	r3, [r3, #64]	; 0x40
 80018f2:	b2db      	uxtb	r3, r3
 80018f4:	2b01      	cmp	r3, #1
 80018f6:	bf14      	ite	ne
 80018f8:	2301      	movne	r3, #1
 80018fa:	2300      	moveq	r3, #0
 80018fc:	b2db      	uxtb	r3, r3
 80018fe:	e008      	b.n	8001912 <HAL_TIM_PWM_Start+0x6a>
 8001900:	687b      	ldr	r3, [r7, #4]
 8001902:	f893 3041 	ldrb.w	r3, [r3, #65]	; 0x41
 8001906:	b2db      	uxtb	r3, r3
 8001908:	2b01      	cmp	r3, #1
 800190a:	bf14      	ite	ne
 800190c:	2301      	movne	r3, #1
 800190e:	2300      	moveq	r3, #0
 8001910:	b2db      	uxtb	r3, r3
 8001912:	2b00      	cmp	r3, #0
 8001914:	d001      	beq.n	800191a <HAL_TIM_PWM_Start+0x72>
  {
    return HAL_ERROR;
 8001916:	2301      	movs	r3, #1
 8001918:	e05e      	b.n	80019d8 <HAL_TIM_PWM_Start+0x130>
  }

  /* Set the TIM channel state */
  TIM_CHANNEL_STATE_SET(htim, Channel, HAL_TIM_CHANNEL_STATE_BUSY);
 800191a:	683b      	ldr	r3, [r7, #0]
 800191c:	2b00      	cmp	r3, #0
 800191e:	d104      	bne.n	800192a <HAL_TIM_PWM_Start+0x82>
 8001920:	687b      	ldr	r3, [r7, #4]
 8001922:	2202      	movs	r2, #2
 8001924:	f883 203e 	strb.w	r2, [r3, #62]	; 0x3e
 8001928:	e013      	b.n	8001952 <HAL_TIM_PWM_Start+0xaa>
 800192a:	683b      	ldr	r3, [r7, #0]
 800192c:	2b04      	cmp	r3, #4
 800192e:	d104      	bne.n	800193a <HAL_TIM_PWM_Start+0x92>
 8001930:	687b      	ldr	r3, [r7, #4]
 8001932:	2202      	movs	r2, #2
 8001934:	f883 203f 	strb.w	r2, [r3, #63]	; 0x3f
 8001938:	e00b      	b.n	8001952 <HAL_TIM_PWM_Start+0xaa>
 800193a:	683b      	ldr	r3, [r7, #0]
 800193c:	2b08      	cmp	r3, #8
 800193e:	d104      	bne.n	800194a <HAL_TIM_PWM_Start+0xa2>
 8001940:	687b      	ldr	r3, [r7, #4]
 8001942:	2202      	movs	r2, #2
 8001944:	f883 2040 	strb.w	r2, [r3, #64]	; 0x40
 8001948:	e003      	b.n	8001952 <HAL_TIM_PWM_Start+0xaa>
 800194a:	687b      	ldr	r3, [r7, #4]
 800194c:	2202      	movs	r2, #2
 800194e:	f883 2041 	strb.w	r2, [r3, #65]	; 0x41

  /* Enable the Capture compare channel */
  TIM_CCxChannelCmd(htim->Instance, Channel, TIM_CCx_ENABLE);
 8001952:	687b      	ldr	r3, [r7, #4]
 8001954:	681b      	ldr	r3, [r3, #0]
 8001956:	2201      	movs	r2, #1
 8001958:	6839      	ldr	r1, [r7, #0]
 800195a:	4618      	mov	r0, r3
 800195c:	f000 fd7e 	bl	800245c <TIM_CCxChannelCmd>

  if (IS_TIM_BREAK_INSTANCE(htim->Instance) != RESET)
 8001960:	687b      	ldr	r3, [r7, #4]
 8001962:	681b      	ldr	r3, [r3, #0]
 8001964:	4a1e      	ldr	r2, [pc, #120]	; (80019e0 <HAL_TIM_PWM_Start+0x138>)
 8001966:	4293      	cmp	r3, r2
 8001968:	d107      	bne.n	800197a <HAL_TIM_PWM_Start+0xd2>
  {
    /* Enable the main output */
    __HAL_TIM_MOE_ENABLE(htim);
 800196a:	687b      	ldr	r3, [r7, #4]
 800196c:	681b      	ldr	r3, [r3, #0]
 800196e:	6c5a      	ldr	r2, [r3, #68]	; 0x44
 8001970:	687b      	ldr	r3, [r7, #4]
 8001972:	681b      	ldr	r3, [r3, #0]
 8001974:	f442 4200 	orr.w	r2, r2, #32768	; 0x8000
 8001978:	645a      	str	r2, [r3, #68]	; 0x44
  }

  /* Enable the Peripheral, except in trigger mode where enable is automatically done with trigger */
  if (IS_TIM_SLAVE_INSTANCE(htim->Instance))
 800197a:	687b      	ldr	r3, [r7, #4]
 800197c:	681b      	ldr	r3, [r3, #0]
 800197e:	4a18      	ldr	r2, [pc, #96]	; (80019e0 <HAL_TIM_PWM_Start+0x138>)
 8001980:	4293      	cmp	r3, r2
 8001982:	d00e      	beq.n	80019a2 <HAL_TIM_PWM_Start+0xfa>
 8001984:	687b      	ldr	r3, [r7, #4]
 8001986:	681b      	ldr	r3, [r3, #0]
 8001988:	f1b3 4f80 	cmp.w	r3, #1073741824	; 0x40000000
 800198c:	d009      	beq.n	80019a2 <HAL_TIM_PWM_Start+0xfa>
 800198e:	687b      	ldr	r3, [r7, #4]
 8001990:	681b      	ldr	r3, [r3, #0]
 8001992:	4a14      	ldr	r2, [pc, #80]	; (80019e4 <HAL_TIM_PWM_Start+0x13c>)
 8001994:	4293      	cmp	r3, r2
 8001996:	d004      	beq.n	80019a2 <HAL_TIM_PWM_Start+0xfa>
 8001998:	687b      	ldr	r3, [r7, #4]
 800199a:	681b      	ldr	r3, [r3, #0]
 800199c:	4a12      	ldr	r2, [pc, #72]	; (80019e8 <HAL_TIM_PWM_Start+0x140>)
 800199e:	4293      	cmp	r3, r2
 80019a0:	d111      	bne.n	80019c6 <HAL_TIM_PWM_Start+0x11e>
  {
    tmpsmcr = htim->Instance->SMCR & TIM_SMCR_SMS;
 80019a2:	687b      	ldr	r3, [r7, #4]
 80019a4:	681b      	ldr	r3, [r3, #0]
 80019a6:	689b      	ldr	r3, [r3, #8]
 80019a8:	f003 0307 	and.w	r3, r3, #7
 80019ac:	60fb      	str	r3, [r7, #12]
    if (!IS_TIM_SLAVEMODE_TRIGGER_ENABLED(tmpsmcr))
 80019ae:	68fb      	ldr	r3, [r7, #12]
 80019b0:	2b06      	cmp	r3, #6
 80019b2:	d010      	beq.n	80019d6 <HAL_TIM_PWM_Start+0x12e>
    {
      __HAL_TIM_ENABLE(htim);
 80019b4:	687b      	ldr	r3, [r7, #4]
 80019b6:	681b      	ldr	r3, [r3, #0]
 80019b8:	681a      	ldr	r2, [r3, #0]
 80019ba:	687b      	ldr	r3, [r7, #4]
 80019bc:	681b      	ldr	r3, [r3, #0]
 80019be:	f042 0201 	orr.w	r2, r2, #1
 80019c2:	601a      	str	r2, [r3, #0]
    if (!IS_TIM_SLAVEMODE_TRIGGER_ENABLED(tmpsmcr))
 80019c4:	e007      	b.n	80019d6 <HAL_TIM_PWM_Start+0x12e>
    }
  }
  else
  {
    __HAL_TIM_ENABLE(htim);
 80019c6:	687b      	ldr	r3, [r7, #4]
 80019c8:	681b      	ldr	r3, [r3, #0]
 80019ca:	681a      	ldr	r2, [r3, #0]
 80019cc:	687b      	ldr	r3, [r7, #4]
 80019ce:	681b      	ldr	r3, [r3, #0]
 80019d0:	f042 0201 	orr.w	r2, r2, #1
 80019d4:	601a      	str	r2, [r3, #0]
  }

  /* Return function status */
  return HAL_OK;
 80019d6:	2300      	movs	r3, #0
}
 80019d8:	4618      	mov	r0, r3
 80019da:	3710      	adds	r7, #16
 80019dc:	46bd      	mov	sp, r7
 80019de:	bd80      	pop	{r7, pc}
 80019e0:	40012c00 	.word	0x40012c00
 80019e4:	40000400 	.word	0x40000400
 80019e8:	40000800 	.word	0x40000800

080019ec <HAL_TIM_IRQHandler>:
  * @brief  This function handles TIM interrupts requests.
  * @param  htim TIM  handle
  * @retval None
  */
void HAL_TIM_IRQHandler(TIM_HandleTypeDef *htim)
{
 80019ec:	b580      	push	{r7, lr}
 80019ee:	b082      	sub	sp, #8
 80019f0:	af00      	add	r7, sp, #0
 80019f2:	6078      	str	r0, [r7, #4]
  /* Capture compare 1 event */
  if (__HAL_TIM_GET_FLAG(htim, TIM_FLAG_CC1) != RESET)
 80019f4:	687b      	ldr	r3, [r7, #4]
 80019f6:	681b      	ldr	r3, [r3, #0]
 80019f8:	691b      	ldr	r3, [r3, #16]
 80019fa:	f003 0302 	and.w	r3, r3, #2
 80019fe:	2b02      	cmp	r3, #2
 8001a00:	d122      	bne.n	8001a48 <HAL_TIM_IRQHandler+0x5c>
  {
    if (__HAL_TIM_GET_IT_SOURCE(htim, TIM_IT_CC1) != RESET)
 8001a02:	687b      	ldr	r3, [r7, #4]
 8001a04:	681b      	ldr	r3, [r3, #0]
 8001a06:	68db      	ldr	r3, [r3, #12]
 8001a08:	f003 0302 	and.w	r3, r3, #2
 8001a0c:	2b02      	cmp	r3, #2
 8001a0e:	d11b      	bne.n	8001a48 <HAL_TIM_IRQHandler+0x5c>
    {
      {
        __HAL_TIM_CLEAR_IT(htim, TIM_IT_CC1);
 8001a10:	687b      	ldr	r3, [r7, #4]
 8001a12:	681b      	ldr	r3, [r3, #0]
 8001a14:	f06f 0202 	mvn.w	r2, #2
 8001a18:	611a      	str	r2, [r3, #16]
        htim->Channel = HAL_TIM_ACTIVE_CHANNEL_1;
 8001a1a:	687b      	ldr	r3, [r7, #4]
 8001a1c:	2201      	movs	r2, #1
 8001a1e:	771a      	strb	r2, [r3, #28]

        /* Input capture event */
        if ((htim->Instance->CCMR1 & TIM_CCMR1_CC1S) != 0x00U)
 8001a20:	687b      	ldr	r3, [r7, #4]
 8001a22:	681b      	ldr	r3, [r3, #0]
 8001a24:	699b      	ldr	r3, [r3, #24]
 8001a26:	f003 0303 	and.w	r3, r3, #3
 8001a2a:	2b00      	cmp	r3, #0
 8001a2c:	d003      	beq.n	8001a36 <HAL_TIM_IRQHandler+0x4a>
        {
#if (USE_HAL_TIM_REGISTER_CALLBACKS == 1)
          htim->IC_CaptureCallback(htim);
#else
          HAL_TIM_IC_CaptureCallback(htim);
 8001a2e:	6878      	ldr	r0, [r7, #4]
 8001a30:	f000 fa78 	bl	8001f24 <HAL_TIM_IC_CaptureCallback>
 8001a34:	e005      	b.n	8001a42 <HAL_TIM_IRQHandler+0x56>
        {
#if (USE_HAL_TIM_REGISTER_CALLBACKS == 1)
          htim->OC_DelayElapsedCallback(htim);
          htim->PWM_PulseFinishedCallback(htim);
#else
          HAL_TIM_OC_DelayElapsedCallback(htim);
 8001a36:	6878      	ldr	r0, [r7, #4]
 8001a38:	f000 fa6b 	bl	8001f12 <HAL_TIM_OC_DelayElapsedCallback>
          HAL_TIM_PWM_PulseFinishedCallback(htim);
 8001a3c:	6878      	ldr	r0, [r7, #4]
 8001a3e:	f000 fa7a 	bl	8001f36 <HAL_TIM_PWM_PulseFinishedCallback>
#endif /* USE_HAL_TIM_REGISTER_CALLBACKS */
        }
        htim->Channel = HAL_TIM_ACTIVE_CHANNEL_CLEARED;
 8001a42:	687b      	ldr	r3, [r7, #4]
 8001a44:	2200      	movs	r2, #0
 8001a46:	771a      	strb	r2, [r3, #28]
      }
    }
  }
  /* Capture compare 2 event */
  if (__HAL_TIM_GET_FLAG(htim, TIM_FLAG_CC2) != RESET)
 8001a48:	687b      	ldr	r3, [r7, #4]
 8001a4a:	681b      	ldr	r3, [r3, #0]
 8001a4c:	691b      	ldr	r3, [r3, #16]
 8001a4e:	f003 0304 	and.w	r3, r3, #4
 8001a52:	2b04      	cmp	r3, #4
 8001a54:	d122      	bne.n	8001a9c <HAL_TIM_IRQHandler+0xb0>
  {
    if (__HAL_TIM_GET_IT_SOURCE(htim, TIM_IT_CC2) != RESET)
 8001a56:	687b      	ldr	r3, [r7, #4]
 8001a58:	681b      	ldr	r3, [r3, #0]
 8001a5a:	68db      	ldr	r3, [r3, #12]
 8001a5c:	f003 0304 	and.w	r3, r3, #4
 8001a60:	2b04      	cmp	r3, #4
 8001a62:	d11b      	bne.n	8001a9c <HAL_TIM_IRQHandler+0xb0>
    {
      __HAL_TIM_CLEAR_IT(htim, TIM_IT_CC2);
 8001a64:	687b      	ldr	r3, [r7, #4]
 8001a66:	681b      	ldr	r3, [r3, #0]
 8001a68:	f06f 0204 	mvn.w	r2, #4
 8001a6c:	611a      	str	r2, [r3, #16]
      htim->Channel = HAL_TIM_ACTIVE_CHANNEL_2;
 8001a6e:	687b      	ldr	r3, [r7, #4]
 8001a70:	2202      	movs	r2, #2
 8001a72:	771a      	strb	r2, [r3, #28]
      /* Input capture event */
      if ((htim->Instance->CCMR1 & TIM_CCMR1_CC2S) != 0x00U)
 8001a74:	687b      	ldr	r3, [r7, #4]
 8001a76:	681b      	ldr	r3, [r3, #0]
 8001a78:	699b      	ldr	r3, [r3, #24]
 8001a7a:	f403 7340 	and.w	r3, r3, #768	; 0x300
 8001a7e:	2b00      	cmp	r3, #0
 8001a80:	d003      	beq.n	8001a8a <HAL_TIM_IRQHandler+0x9e>
      {
#if (USE_HAL_TIM_REGISTER_CALLBACKS == 1)
        htim->IC_CaptureCallback(htim);
#else
        HAL_TIM_IC_CaptureCallback(htim);
 8001a82:	6878      	ldr	r0, [r7, #4]
 8001a84:	f000 fa4e 	bl	8001f24 <HAL_TIM_IC_CaptureCallback>
 8001a88:	e005      	b.n	8001a96 <HAL_TIM_IRQHandler+0xaa>
      {
#if (USE_HAL_TIM_REGISTER_CALLBACKS == 1)
        htim->OC_DelayElapsedCallback(htim);
        htim->PWM_PulseFinishedCallback(htim);
#else
        HAL_TIM_OC_DelayElapsedCallback(htim);
 8001a8a:	6878      	ldr	r0, [r7, #4]
 8001a8c:	f000 fa41 	bl	8001f12 <HAL_TIM_OC_DelayElapsedCallback>
        HAL_TIM_PWM_PulseFinishedCallback(htim);
 8001a90:	6878      	ldr	r0, [r7, #4]
 8001a92:	f000 fa50 	bl	8001f36 <HAL_TIM_PWM_PulseFinishedCallback>
#endif /* USE_HAL_TIM_REGISTER_CALLBACKS */
      }
      htim->Channel = HAL_TIM_ACTIVE_CHANNEL_CLEARED;
 8001a96:	687b      	ldr	r3, [r7, #4]
 8001a98:	2200      	movs	r2, #0
 8001a9a:	771a      	strb	r2, [r3, #28]
    }
  }
  /* Capture compare 3 event */
  if (__HAL_TIM_GET_FLAG(htim, TIM_FLAG_CC3) != RESET)
 8001a9c:	687b      	ldr	r3, [r7, #4]
 8001a9e:	681b      	ldr	r3, [r3, #0]
 8001aa0:	691b      	ldr	r3, [r3, #16]
 8001aa2:	f003 0308 	and.w	r3, r3, #8
 8001aa6:	2b08      	cmp	r3, #8
 8001aa8:	d122      	bne.n	8001af0 <HAL_TIM_IRQHandler+0x104>
  {
    if (__HAL_TIM_GET_IT_SOURCE(htim, TIM_IT_CC3) != RESET)
 8001aaa:	687b      	ldr	r3, [r7, #4]
 8001aac:	681b      	ldr	r3, [r3, #0]
 8001aae:	68db      	ldr	r3, [r3, #12]
 8001ab0:	f003 0308 	and.w	r3, r3, #8
 8001ab4:	2b08      	cmp	r3, #8
 8001ab6:	d11b      	bne.n	8001af0 <HAL_TIM_IRQHandler+0x104>
    {
      __HAL_TIM_CLEAR_IT(htim, TIM_IT_CC3);
 8001ab8:	687b      	ldr	r3, [r7, #4]
 8001aba:	681b      	ldr	r3, [r3, #0]
 8001abc:	f06f 0208 	mvn.w	r2, #8
 8001ac0:	611a      	str	r2, [r3, #16]
      htim->Channel = HAL_TIM_ACTIVE_CHANNEL_3;
 8001ac2:	687b      	ldr	r3, [r7, #4]
 8001ac4:	2204      	movs	r2, #4
 8001ac6:	771a      	strb	r2, [r3, #28]
      /* Input capture event */
      if ((htim->Instance->CCMR2 & TIM_CCMR2_CC3S) != 0x00U)
 8001ac8:	687b      	ldr	r3, [r7, #4]
 8001aca:	681b      	ldr	r3, [r3, #0]
 8001acc:	69db      	ldr	r3, [r3, #28]
 8001ace:	f003 0303 	and.w	r3, r3, #3
 8001ad2:	2b00      	cmp	r3, #0
 8001ad4:	d003      	beq.n	8001ade <HAL_TIM_IRQHandler+0xf2>
      {
#if (USE_HAL_TIM_REGISTER_CALLBACKS == 1)
        htim->IC_CaptureCallback(htim);
#else
        HAL_TIM_IC_CaptureCallback(htim);
 8001ad6:	6878      	ldr	r0, [r7, #4]
 8001ad8:	f000 fa24 	bl	8001f24 <HAL_TIM_IC_CaptureCallback>
 8001adc:	e005      	b.n	8001aea <HAL_TIM_IRQHandler+0xfe>
      {
#if (USE_HAL_TIM_REGISTER_CALLBACKS == 1)
        htim->OC_DelayElapsedCallback(htim);
        htim->PWM_PulseFinishedCallback(htim);
#else
        HAL_TIM_OC_DelayElapsedCallback(htim);
 8001ade:	6878      	ldr	r0, [r7, #4]
 8001ae0:	f000 fa17 	bl	8001f12 <HAL_TIM_OC_DelayElapsedCallback>
        HAL_TIM_PWM_PulseFinishedCallback(htim);
 8001ae4:	6878      	ldr	r0, [r7, #4]
 8001ae6:	f000 fa26 	bl	8001f36 <HAL_TIM_PWM_PulseFinishedCallback>
#endif /* USE_HAL_TIM_REGISTER_CALLBACKS */
      }
      htim->Channel = HAL_TIM_ACTIVE_CHANNEL_CLEARED;
 8001aea:	687b      	ldr	r3, [r7, #4]
 8001aec:	2200      	movs	r2, #0
 8001aee:	771a      	strb	r2, [r3, #28]
    }
  }
  /* Capture compare 4 event */
  if (__HAL_TIM_GET_FLAG(htim, TIM_FLAG_CC4) != RESET)
 8001af0:	687b      	ldr	r3, [r7, #4]
 8001af2:	681b      	ldr	r3, [r3, #0]
 8001af4:	691b      	ldr	r3, [r3, #16]
 8001af6:	f003 0310 	and.w	r3, r3, #16
 8001afa:	2b10      	cmp	r3, #16
 8001afc:	d122      	bne.n	8001b44 <HAL_TIM_IRQHandler+0x158>
  {
    if (__HAL_TIM_GET_IT_SOURCE(htim, TIM_IT_CC4) != RESET)
 8001afe:	687b      	ldr	r3, [r7, #4]
 8001b00:	681b      	ldr	r3, [r3, #0]
 8001b02:	68db      	ldr	r3, [r3, #12]
 8001b04:	f003 0310 	and.w	r3, r3, #16
 8001b08:	2b10      	cmp	r3, #16
 8001b0a:	d11b      	bne.n	8001b44 <HAL_TIM_IRQHandler+0x158>
    {
      __HAL_TIM_CLEAR_IT(htim, TIM_IT_CC4);
 8001b0c:	687b      	ldr	r3, [r7, #4]
 8001b0e:	681b      	ldr	r3, [r3, #0]
 8001b10:	f06f 0210 	mvn.w	r2, #16
 8001b14:	611a      	str	r2, [r3, #16]
      htim->Channel = HAL_TIM_ACTIVE_CHANNEL_4;
 8001b16:	687b      	ldr	r3, [r7, #4]
 8001b18:	2208      	movs	r2, #8
 8001b1a:	771a      	strb	r2, [r3, #28]
      /* Input capture event */
      if ((htim->Instance->CCMR2 & TIM_CCMR2_CC4S) != 0x00U)
 8001b1c:	687b      	ldr	r3, [r7, #4]
 8001b1e:	681b      	ldr	r3, [r3, #0]
 8001b20:	69db      	ldr	r3, [r3, #28]
 8001b22:	f403 7340 	and.w	r3, r3, #768	; 0x300
 8001b26:	2b00      	cmp	r3, #0
 8001b28:	d003      	beq.n	8001b32 <HAL_TIM_IRQHandler+0x146>
      {
#if (USE_HAL_TIM_REGISTER_CALLBACKS == 1)
        htim->IC_CaptureCallback(htim);
#else
        HAL_TIM_IC_CaptureCallback(htim);
 8001b2a:	6878      	ldr	r0, [r7, #4]
 8001b2c:	f000 f9fa 	bl	8001f24 <HAL_TIM_IC_CaptureCallback>
 8001b30:	e005      	b.n	8001b3e <HAL_TIM_IRQHandler+0x152>
      {
#if (USE_HAL_TIM_REGISTER_CALLBACKS == 1)
        htim->OC_DelayElapsedCallback(htim);
        htim->PWM_PulseFinishedCallback(htim);
#else
        HAL_TIM_OC_DelayElapsedCallback(htim);
 8001b32:	6878      	ldr	r0, [r7, #4]
 8001b34:	f000 f9ed 	bl	8001f12 <HAL_TIM_OC_DelayElapsedCallback>
        HAL_TIM_PWM_PulseFinishedCallback(htim);
 8001b38:	6878      	ldr	r0, [r7, #4]
 8001b3a:	f000 f9fc 	bl	8001f36 <HAL_TIM_PWM_PulseFinishedCallback>
#endif /* USE_HAL_TIM_REGISTER_CALLBACKS */
      }
      htim->Channel = HAL_TIM_ACTIVE_CHANNEL_CLEARED;
 8001b3e:	687b      	ldr	r3, [r7, #4]
 8001b40:	2200      	movs	r2, #0
 8001b42:	771a      	strb	r2, [r3, #28]
    }
  }
  /* TIM Update event */
  if (__HAL_TIM_GET_FLAG(htim, TIM_FLAG_UPDATE) != RESET)
 8001b44:	687b      	ldr	r3, [r7, #4]
 8001b46:	681b      	ldr	r3, [r3, #0]
 8001b48:	691b      	ldr	r3, [r3, #16]
 8001b4a:	f003 0301 	and.w	r3, r3, #1
 8001b4e:	2b01      	cmp	r3, #1
 8001b50:	d10e      	bne.n	8001b70 <HAL_TIM_IRQHandler+0x184>
  {
    if (__HAL_TIM_GET_IT_SOURCE(htim, TIM_IT_UPDATE) != RESET)
 8001b52:	687b      	ldr	r3, [r7, #4]
 8001b54:	681b      	ldr	r3, [r3, #0]
 8001b56:	68db      	ldr	r3, [r3, #12]
 8001b58:	f003 0301 	and.w	r3, r3, #1
 8001b5c:	2b01      	cmp	r3, #1
 8001b5e:	d107      	bne.n	8001b70 <HAL_TIM_IRQHandler+0x184>
    {
      __HAL_TIM_CLEAR_IT(htim, TIM_IT_UPDATE);
 8001b60:	687b      	ldr	r3, [r7, #4]
 8001b62:	681b      	ldr	r3, [r3, #0]
 8001b64:	f06f 0201 	mvn.w	r2, #1
 8001b68:	611a      	str	r2, [r3, #16]
#if (USE_HAL_TIM_REGISTER_CALLBACKS == 1)
      htim->PeriodElapsedCallback(htim);
#else
      HAL_TIM_PeriodElapsedCallback(htim);
 8001b6a:	6878      	ldr	r0, [r7, #4]
 8001b6c:	f000 f9c8 	bl	8001f00 <HAL_TIM_PeriodElapsedCallback>
#endif /* USE_HAL_TIM_REGISTER_CALLBACKS */
    }
  }
  /* TIM Break input event */
  if (__HAL_TIM_GET_FLAG(htim, TIM_FLAG_BREAK) != RESET)
 8001b70:	687b      	ldr	r3, [r7, #4]
 8001b72:	681b      	ldr	r3, [r3, #0]
 8001b74:	691b      	ldr	r3, [r3, #16]
 8001b76:	f003 0380 	and.w	r3, r3, #128	; 0x80
 8001b7a:	2b80      	cmp	r3, #128	; 0x80
 8001b7c:	d10e      	bne.n	8001b9c <HAL_TIM_IRQHandler+0x1b0>
  {
    if (__HAL_TIM_GET_IT_SOURCE(htim, TIM_IT_BREAK) != RESET)
 8001b7e:	687b      	ldr	r3, [r7, #4]
 8001b80:	681b      	ldr	r3, [r3, #0]
 8001b82:	68db      	ldr	r3, [r3, #12]
 8001b84:	f003 0380 	and.w	r3, r3, #128	; 0x80
 8001b88:	2b80      	cmp	r3, #128	; 0x80
 8001b8a:	d107      	bne.n	8001b9c <HAL_TIM_IRQHandler+0x1b0>
    {
      __HAL_TIM_CLEAR_IT(htim, TIM_IT_BREAK);
 8001b8c:	687b      	ldr	r3, [r7, #4]
 8001b8e:	681b      	ldr	r3, [r3, #0]
 8001b90:	f06f 0280 	mvn.w	r2, #128	; 0x80
 8001b94:	611a      	str	r2, [r3, #16]
#if (USE_HAL_TIM_REGISTER_CALLBACKS == 1)
      htim->BreakCallback(htim);
#else
      HAL_TIMEx_BreakCallback(htim);
 8001b96:	6878      	ldr	r0, [r7, #4]
 8001b98:	f000 fceb 	bl	8002572 <HAL_TIMEx_BreakCallback>
#endif /* USE_HAL_TIM_REGISTER_CALLBACKS */
    }
  }
  /* TIM Trigger detection event */
  if (__HAL_TIM_GET_FLAG(htim, TIM_FLAG_TRIGGER) != RESET)
 8001b9c:	687b      	ldr	r3, [r7, #4]
 8001b9e:	681b      	ldr	r3, [r3, #0]
 8001ba0:	691b      	ldr	r3, [r3, #16]
 8001ba2:	f003 0340 	and.w	r3, r3, #64	; 0x40
 8001ba6:	2b40      	cmp	r3, #64	; 0x40
 8001ba8:	d10e      	bne.n	8001bc8 <HAL_TIM_IRQHandler+0x1dc>
  {
    if (__HAL_TIM_GET_IT_SOURCE(htim, TIM_IT_TRIGGER) != RESET)
 8001baa:	687b      	ldr	r3, [r7, #4]
 8001bac:	681b      	ldr	r3, [r3, #0]
 8001bae:	68db      	ldr	r3, [r3, #12]
 8001bb0:	f003 0340 	and.w	r3, r3, #64	; 0x40
 8001bb4:	2b40      	cmp	r3, #64	; 0x40
 8001bb6:	d107      	bne.n	8001bc8 <HAL_TIM_IRQHandler+0x1dc>
    {
      __HAL_TIM_CLEAR_IT(htim, TIM_IT_TRIGGER);
 8001bb8:	687b      	ldr	r3, [r7, #4]
 8001bba:	681b      	ldr	r3, [r3, #0]
 8001bbc:	f06f 0240 	mvn.w	r2, #64	; 0x40
 8001bc0:	611a      	str	r2, [r3, #16]
#if (USE_HAL_TIM_REGISTER_CALLBACKS == 1)
      htim->TriggerCallback(htim);
#else
      HAL_TIM_TriggerCallback(htim);
 8001bc2:	6878      	ldr	r0, [r7, #4]
 8001bc4:	f000 f9c0 	bl	8001f48 <HAL_TIM_TriggerCallback>
#endif /* USE_HAL_TIM_REGISTER_CALLBACKS */
    }
  }
  /* TIM commutation event */
  if (__HAL_TIM_GET_FLAG(htim, TIM_FLAG_COM) != RESET)
 8001bc8:	687b      	ldr	r3, [r7, #4]
 8001bca:	681b      	ldr	r3, [r3, #0]
 8001bcc:	691b      	ldr	r3, [r3, #16]
 8001bce:	f003 0320 	and.w	r3, r3, #32
 8001bd2:	2b20      	cmp	r3, #32
 8001bd4:	d10e      	bne.n	8001bf4 <HAL_TIM_IRQHandler+0x208>
  {
    if (__HAL_TIM_GET_IT_SOURCE(htim, TIM_IT_COM) != RESET)
 8001bd6:	687b      	ldr	r3, [r7, #4]
 8001bd8:	681b      	ldr	r3, [r3, #0]
 8001bda:	68db      	ldr	r3, [r3, #12]
 8001bdc:	f003 0320 	and.w	r3, r3, #32
 8001be0:	2b20      	cmp	r3, #32
 8001be2:	d107      	bne.n	8001bf4 <HAL_TIM_IRQHandler+0x208>
    {
      __HAL_TIM_CLEAR_IT(htim, TIM_FLAG_COM);
 8001be4:	687b      	ldr	r3, [r7, #4]
 8001be6:	681b      	ldr	r3, [r3, #0]
 8001be8:	f06f 0220 	mvn.w	r2, #32
 8001bec:	611a      	str	r2, [r3, #16]
#if (USE_HAL_TIM_REGISTER_CALLBACKS == 1)
      htim->CommutationCallback(htim);
#else
      HAL_TIMEx_CommutCallback(htim);
 8001bee:	6878      	ldr	r0, [r7, #4]
 8001bf0:	f000 fcb6 	bl	8002560 <HAL_TIMEx_CommutCallback>
#endif /* USE_HAL_TIM_REGISTER_CALLBACKS */
    }
  }
}
 8001bf4:	bf00      	nop
 8001bf6:	3708      	adds	r7, #8
 8001bf8:	46bd      	mov	sp, r7
 8001bfa:	bd80      	pop	{r7, pc}

08001bfc <HAL_TIM_PWM_ConfigChannel>:
  * @retval HAL status
  */
HAL_StatusTypeDef HAL_TIM_PWM_ConfigChannel(TIM_HandleTypeDef *htim,
                                            TIM_OC_InitTypeDef *sConfig,
                                            uint32_t Channel)
{
 8001bfc:	b580      	push	{r7, lr}
 8001bfe:	b084      	sub	sp, #16
 8001c00:	af00      	add	r7, sp, #0
 8001c02:	60f8      	str	r0, [r7, #12]
 8001c04:	60b9      	str	r1, [r7, #8]
 8001c06:	607a      	str	r2, [r7, #4]
  assert_param(IS_TIM_PWM_MODE(sConfig->OCMode));
  assert_param(IS_TIM_OC_POLARITY(sConfig->OCPolarity));
  assert_param(IS_TIM_FAST_STATE(sConfig->OCFastMode));

  /* Process Locked */
  __HAL_LOCK(htim);
 8001c08:	68fb      	ldr	r3, [r7, #12]
 8001c0a:	f893 303c 	ldrb.w	r3, [r3, #60]	; 0x3c
 8001c0e:	2b01      	cmp	r3, #1
 8001c10:	d101      	bne.n	8001c16 <HAL_TIM_PWM_ConfigChannel+0x1a>
 8001c12:	2302      	movs	r3, #2
 8001c14:	e0ac      	b.n	8001d70 <HAL_TIM_PWM_ConfigChannel+0x174>
 8001c16:	68fb      	ldr	r3, [r7, #12]
 8001c18:	2201      	movs	r2, #1
 8001c1a:	f883 203c 	strb.w	r2, [r3, #60]	; 0x3c

  switch (Channel)
 8001c1e:	687b      	ldr	r3, [r7, #4]
 8001c20:	2b0c      	cmp	r3, #12
 8001c22:	f200 809f 	bhi.w	8001d64 <HAL_TIM_PWM_ConfigChannel+0x168>
 8001c26:	a201      	add	r2, pc, #4	; (adr r2, 8001c2c <HAL_TIM_PWM_ConfigChannel+0x30>)
 8001c28:	f852 f023 	ldr.w	pc, [r2, r3, lsl #2]
 8001c2c:	08001c61 	.word	0x08001c61
 8001c30:	08001d65 	.word	0x08001d65
 8001c34:	08001d65 	.word	0x08001d65
 8001c38:	08001d65 	.word	0x08001d65
 8001c3c:	08001ca1 	.word	0x08001ca1
 8001c40:	08001d65 	.word	0x08001d65
 8001c44:	08001d65 	.word	0x08001d65
 8001c48:	08001d65 	.word	0x08001d65
 8001c4c:	08001ce3 	.word	0x08001ce3
 8001c50:	08001d65 	.word	0x08001d65
 8001c54:	08001d65 	.word	0x08001d65
 8001c58:	08001d65 	.word	0x08001d65
 8001c5c:	08001d23 	.word	0x08001d23
    {
      /* Check the parameters */
      assert_param(IS_TIM_CC1_INSTANCE(htim->Instance));

      /* Configure the Channel 1 in PWM mode */
      TIM_OC1_SetConfig(htim->Instance, sConfig);
 8001c60:	68fb      	ldr	r3, [r7, #12]
 8001c62:	681b      	ldr	r3, [r3, #0]
 8001c64:	68b9      	ldr	r1, [r7, #8]
 8001c66:	4618      	mov	r0, r3
 8001c68:	f000 f9da 	bl	8002020 <TIM_OC1_SetConfig>

      /* Set the Preload enable bit for channel1 */
      htim->Instance->CCMR1 |= TIM_CCMR1_OC1PE;
 8001c6c:	68fb      	ldr	r3, [r7, #12]
 8001c6e:	681b      	ldr	r3, [r3, #0]
 8001c70:	699a      	ldr	r2, [r3, #24]
 8001c72:	68fb      	ldr	r3, [r7, #12]
 8001c74:	681b      	ldr	r3, [r3, #0]
 8001c76:	f042 0208 	orr.w	r2, r2, #8
 8001c7a:	619a      	str	r2, [r3, #24]

      /* Configure the Output Fast mode */
      htim->Instance->CCMR1 &= ~TIM_CCMR1_OC1FE;
 8001c7c:	68fb      	ldr	r3, [r7, #12]
 8001c7e:	681b      	ldr	r3, [r3, #0]
 8001c80:	699a      	ldr	r2, [r3, #24]
 8001c82:	68fb      	ldr	r3, [r7, #12]
 8001c84:	681b      	ldr	r3, [r3, #0]
 8001c86:	f022 0204 	bic.w	r2, r2, #4
 8001c8a:	619a      	str	r2, [r3, #24]
      htim->Instance->CCMR1 |= sConfig->OCFastMode;
 8001c8c:	68fb      	ldr	r3, [r7, #12]
 8001c8e:	681b      	ldr	r3, [r3, #0]
 8001c90:	6999      	ldr	r1, [r3, #24]
 8001c92:	68bb      	ldr	r3, [r7, #8]
 8001c94:	691a      	ldr	r2, [r3, #16]
 8001c96:	68fb      	ldr	r3, [r7, #12]
 8001c98:	681b      	ldr	r3, [r3, #0]
 8001c9a:	430a      	orrs	r2, r1
 8001c9c:	619a      	str	r2, [r3, #24]
      break;
 8001c9e:	e062      	b.n	8001d66 <HAL_TIM_PWM_ConfigChannel+0x16a>
    {
      /* Check the parameters */
      assert_param(IS_TIM_CC2_INSTANCE(htim->Instance));

      /* Configure the Channel 2 in PWM mode */
      TIM_OC2_SetConfig(htim->Instance, sConfig);
 8001ca0:	68fb      	ldr	r3, [r7, #12]
 8001ca2:	681b      	ldr	r3, [r3, #0]
 8001ca4:	68b9      	ldr	r1, [r7, #8]
 8001ca6:	4618      	mov	r0, r3
 8001ca8:	f000 fa20 	bl	80020ec <TIM_OC2_SetConfig>

      /* Set the Preload enable bit for channel2 */
      htim->Instance->CCMR1 |= TIM_CCMR1_OC2PE;
 8001cac:	68fb      	ldr	r3, [r7, #12]
 8001cae:	681b      	ldr	r3, [r3, #0]
 8001cb0:	699a      	ldr	r2, [r3, #24]
 8001cb2:	68fb      	ldr	r3, [r7, #12]
 8001cb4:	681b      	ldr	r3, [r3, #0]
 8001cb6:	f442 6200 	orr.w	r2, r2, #2048	; 0x800
 8001cba:	619a      	str	r2, [r3, #24]

      /* Configure the Output Fast mode */
      htim->Instance->CCMR1 &= ~TIM_CCMR1_OC2FE;
 8001cbc:	68fb      	ldr	r3, [r7, #12]
 8001cbe:	681b      	ldr	r3, [r3, #0]
 8001cc0:	699a      	ldr	r2, [r3, #24]
 8001cc2:	68fb      	ldr	r3, [r7, #12]
 8001cc4:	681b      	ldr	r3, [r3, #0]
 8001cc6:	f422 6280 	bic.w	r2, r2, #1024	; 0x400
 8001cca:	619a      	str	r2, [r3, #24]
      htim->Instance->CCMR1 |= sConfig->OCFastMode << 8U;
 8001ccc:	68fb      	ldr	r3, [r7, #12]
 8001cce:	681b      	ldr	r3, [r3, #0]
 8001cd0:	6999      	ldr	r1, [r3, #24]
 8001cd2:	68bb      	ldr	r3, [r7, #8]
 8001cd4:	691b      	ldr	r3, [r3, #16]
 8001cd6:	021a      	lsls	r2, r3, #8
 8001cd8:	68fb      	ldr	r3, [r7, #12]
 8001cda:	681b      	ldr	r3, [r3, #0]
 8001cdc:	430a      	orrs	r2, r1
 8001cde:	619a      	str	r2, [r3, #24]
      break;
 8001ce0:	e041      	b.n	8001d66 <HAL_TIM_PWM_ConfigChannel+0x16a>
    {
      /* Check the parameters */
      assert_param(IS_TIM_CC3_INSTANCE(htim->Instance));

      /* Configure the Channel 3 in PWM mode */
      TIM_OC3_SetConfig(htim->Instance, sConfig);
 8001ce2:	68fb      	ldr	r3, [r7, #12]
 8001ce4:	681b      	ldr	r3, [r3, #0]
 8001ce6:	68b9      	ldr	r1, [r7, #8]
 8001ce8:	4618      	mov	r0, r3
 8001cea:	f000 fa69 	bl	80021c0 <TIM_OC3_SetConfig>

      /* Set the Preload enable bit for channel3 */
      htim->Instance->CCMR2 |= TIM_CCMR2_OC3PE;
 8001cee:	68fb      	ldr	r3, [r7, #12]
 8001cf0:	681b      	ldr	r3, [r3, #0]
 8001cf2:	69da      	ldr	r2, [r3, #28]
 8001cf4:	68fb      	ldr	r3, [r7, #12]
 8001cf6:	681b      	ldr	r3, [r3, #0]
 8001cf8:	f042 0208 	orr.w	r2, r2, #8
 8001cfc:	61da      	str	r2, [r3, #28]

      /* Configure the Output Fast mode */
      htim->Instance->CCMR2 &= ~TIM_CCMR2_OC3FE;
 8001cfe:	68fb      	ldr	r3, [r7, #12]
 8001d00:	681b      	ldr	r3, [r3, #0]
 8001d02:	69da      	ldr	r2, [r3, #28]
 8001d04:	68fb      	ldr	r3, [r7, #12]
 8001d06:	681b      	ldr	r3, [r3, #0]
 8001d08:	f022 0204 	bic.w	r2, r2, #4
 8001d0c:	61da      	str	r2, [r3, #28]
      htim->Instance->CCMR2 |= sConfig->OCFastMode;
 8001d0e:	68fb      	ldr	r3, [r7, #12]
 8001d10:	681b      	ldr	r3, [r3, #0]
 8001d12:	69d9      	ldr	r1, [r3, #28]
 8001d14:	68bb      	ldr	r3, [r7, #8]
 8001d16:	691a      	ldr	r2, [r3, #16]
 8001d18:	68fb      	ldr	r3, [r7, #12]
 8001d1a:	681b      	ldr	r3, [r3, #0]
 8001d1c:	430a      	orrs	r2, r1
 8001d1e:	61da      	str	r2, [r3, #28]
      break;
 8001d20:	e021      	b.n	8001d66 <HAL_TIM_PWM_ConfigChannel+0x16a>
    {
      /* Check the parameters */
      assert_param(IS_TIM_CC4_INSTANCE(htim->Instance));

      /* Configure the Channel 4 in PWM mode */
      TIM_OC4_SetConfig(htim->Instance, sConfig);
 8001d22:	68fb      	ldr	r3, [r7, #12]
 8001d24:	681b      	ldr	r3, [r3, #0]
 8001d26:	68b9      	ldr	r1, [r7, #8]
 8001d28:	4618      	mov	r0, r3
 8001d2a:	f000 fab3 	bl	8002294 <TIM_OC4_SetConfig>

      /* Set the Preload enable bit for channel4 */
      htim->Instance->CCMR2 |= TIM_CCMR2_OC4PE;
 8001d2e:	68fb      	ldr	r3, [r7, #12]
 8001d30:	681b      	ldr	r3, [r3, #0]
 8001d32:	69da      	ldr	r2, [r3, #28]
 8001d34:	68fb      	ldr	r3, [r7, #12]
 8001d36:	681b      	ldr	r3, [r3, #0]
 8001d38:	f442 6200 	orr.w	r2, r2, #2048	; 0x800
 8001d3c:	61da      	str	r2, [r3, #28]

      /* Configure the Output Fast mode */
      htim->Instance->CCMR2 &= ~TIM_CCMR2_OC4FE;
 8001d3e:	68fb      	ldr	r3, [r7, #12]
 8001d40:	681b      	ldr	r3, [r3, #0]
 8001d42:	69da      	ldr	r2, [r3, #28]
 8001d44:	68fb      	ldr	r3, [r7, #12]
 8001d46:	681b      	ldr	r3, [r3, #0]
 8001d48:	f422 6280 	bic.w	r2, r2, #1024	; 0x400
 8001d4c:	61da      	str	r2, [r3, #28]
      htim->Instance->CCMR2 |= sConfig->OCFastMode << 8U;
 8001d4e:	68fb      	ldr	r3, [r7, #12]
 8001d50:	681b      	ldr	r3, [r3, #0]
 8001d52:	69d9      	ldr	r1, [r3, #28]
 8001d54:	68bb      	ldr	r3, [r7, #8]
 8001d56:	691b      	ldr	r3, [r3, #16]
 8001d58:	021a      	lsls	r2, r3, #8
 8001d5a:	68fb      	ldr	r3, [r7, #12]
 8001d5c:	681b      	ldr	r3, [r3, #0]
 8001d5e:	430a      	orrs	r2, r1
 8001d60:	61da      	str	r2, [r3, #28]
      break;
 8001d62:	e000      	b.n	8001d66 <HAL_TIM_PWM_ConfigChannel+0x16a>
    }

    default:
      break;
 8001d64:	bf00      	nop
  }

  __HAL_UNLOCK(htim);
 8001d66:	68fb      	ldr	r3, [r7, #12]
 8001d68:	2200      	movs	r2, #0
 8001d6a:	f883 203c 	strb.w	r2, [r3, #60]	; 0x3c

  return HAL_OK;
 8001d6e:	2300      	movs	r3, #0
}
 8001d70:	4618      	mov	r0, r3
 8001d72:	3710      	adds	r7, #16
 8001d74:	46bd      	mov	sp, r7
 8001d76:	bd80      	pop	{r7, pc}

08001d78 <HAL_TIM_ConfigClockSource>:
  * @param  sClockSourceConfig pointer to a TIM_ClockConfigTypeDef structure that
  *         contains the clock source information for the TIM peripheral.
  * @retval HAL status
  */
HAL_StatusTypeDef HAL_TIM_ConfigClockSource(TIM_HandleTypeDef *htim, TIM_ClockConfigTypeDef *sClockSourceConfig)
{
 8001d78:	b580      	push	{r7, lr}
 8001d7a:	b084      	sub	sp, #16
 8001d7c:	af00      	add	r7, sp, #0
 8001d7e:	6078      	str	r0, [r7, #4]
 8001d80:	6039      	str	r1, [r7, #0]
  uint32_t tmpsmcr;

  /* Process Locked */
  __HAL_LOCK(htim);
 8001d82:	687b      	ldr	r3, [r7, #4]
 8001d84:	f893 303c 	ldrb.w	r3, [r3, #60]	; 0x3c
 8001d88:	2b01      	cmp	r3, #1
 8001d8a:	d101      	bne.n	8001d90 <HAL_TIM_ConfigClockSource+0x18>
 8001d8c:	2302      	movs	r3, #2
 8001d8e:	e0b3      	b.n	8001ef8 <HAL_TIM_ConfigClockSource+0x180>
 8001d90:	687b      	ldr	r3, [r7, #4]
 8001d92:	2201      	movs	r2, #1
 8001d94:	f883 203c 	strb.w	r2, [r3, #60]	; 0x3c

  htim->State = HAL_TIM_STATE_BUSY;
 8001d98:	687b      	ldr	r3, [r7, #4]
 8001d9a:	2202      	movs	r2, #2
 8001d9c:	f883 203d 	strb.w	r2, [r3, #61]	; 0x3d

  /* Check the parameters */
  assert_param(IS_TIM_CLOCKSOURCE(sClockSourceConfig->ClockSource));

  /* Reset the SMS, TS, ECE, ETPS and ETRF bits */
  tmpsmcr = htim->Instance->SMCR;
 8001da0:	687b      	ldr	r3, [r7, #4]
 8001da2:	681b      	ldr	r3, [r3, #0]
 8001da4:	689b      	ldr	r3, [r3, #8]
 8001da6:	60fb      	str	r3, [r7, #12]
  tmpsmcr &= ~(TIM_SMCR_SMS | TIM_SMCR_TS);
 8001da8:	68fb      	ldr	r3, [r7, #12]
 8001daa:	f023 0377 	bic.w	r3, r3, #119	; 0x77
 8001dae:	60fb      	str	r3, [r7, #12]
  tmpsmcr &= ~(TIM_SMCR_ETF | TIM_SMCR_ETPS | TIM_SMCR_ECE | TIM_SMCR_ETP);
 8001db0:	68fb      	ldr	r3, [r7, #12]
 8001db2:	f423 437f 	bic.w	r3, r3, #65280	; 0xff00
 8001db6:	60fb      	str	r3, [r7, #12]
  htim->Instance->SMCR = tmpsmcr;
 8001db8:	687b      	ldr	r3, [r7, #4]
 8001dba:	681b      	ldr	r3, [r3, #0]
